{
  "_format": "hh-sol-artifact-1",
  "contractName": "StrategyV2",
  "sourceName": "contracts/core/Strategy2.sol",
  "abi": [
    {
      "anonymous": false,
      "inputs": [
        {
          "indexed": false,
          "internalType": "address",
          "name": "previousAdmin",
          "type": "address"
        },
        {
          "indexed": false,
          "internalType": "address",
          "name": "newAdmin",
          "type": "address"
        }
      ],
      "name": "AdminChanged",
      "type": "event"
    },
    {
      "anonymous": false,
      "inputs": [
        {
          "indexed": true,
          "internalType": "address",
          "name": "beacon",
          "type": "address"
        }
      ],
      "name": "BeaconUpgraded",
      "type": "event"
    },
    {
      "anonymous": false,
      "inputs": [
        {
          "indexed": false,
          "internalType": "uint256",
          "name": "repayAmount",
          "type": "uint256"
        },
        {
          "indexed": false,
          "internalType": "uint256",
          "name": "withdrawAmount",
          "type": "uint256"
        }
      ],
      "name": "Deleverage",
      "type": "event"
    },
    {
      "anonymous": false,
      "inputs": [
        {
          "indexed": false,
          "internalType": "uint256",
          "name": "_amount",
          "type": "uint256"
        }
      ],
      "name": "Deposit",
      "type": "event"
    },
    {
      "anonymous": false,
      "inputs": [
        {
          "indexed": false,
          "internalType": "uint8",
          "name": "version",
          "type": "uint8"
        }
      ],
      "name": "Initialized",
      "type": "event"
    },
    {
      "anonymous": false,
      "inputs": [
        {
          "indexed": false,
          "internalType": "uint256",
          "name": "debitAmount",
          "type": "uint256"
        },
        {
          "indexed": false,
          "internalType": "uint256",
          "name": "borrowAmount",
          "type": "uint256"
        }
      ],
      "name": "Leverage",
      "type": "event"
    },
    {
      "anonymous": false,
      "inputs": [
        {
          "indexed": true,
          "internalType": "address",
          "name": "previousOwner",
          "type": "address"
        },
        {
          "indexed": true,
          "internalType": "address",
          "name": "newOwner",
          "type": "address"
        }
      ],
      "name": "OwnershipTransferred",
      "type": "event"
    },
    {
      "anonymous": false,
      "inputs": [
        {
          "indexed": false,
          "internalType": "address",
          "name": "account",
          "type": "address"
        }
      ],
      "name": "Paused",
      "type": "event"
    },
    {
      "anonymous": false,
      "inputs": [
        {
          "indexed": false,
          "internalType": "address",
          "name": "account",
          "type": "address"
        }
      ],
      "name": "Unpaused",
      "type": "event"
    },
    {
      "anonymous": false,
      "inputs": [
        {
          "indexed": false,
          "internalType": "uint256",
          "name": "newExchangePrice",
          "type": "uint256"
        },
        {
          "indexed": false,
          "internalType": "uint256",
          "name": "newRevenue",
          "type": "uint256"
        }
      ],
      "name": "UpdateExchangePrice",
      "type": "event"
    },
    {
      "anonymous": false,
      "inputs": [
        {
          "indexed": true,
          "internalType": "address",
          "name": "implementation",
          "type": "address"
        }
      ],
      "name": "Upgraded",
      "type": "event"
    },
    {
      "anonymous": false,
      "inputs": [
        {
          "indexed": false,
          "internalType": "uint256",
          "name": "_amount",
          "type": "uint256"
        }
      ],
      "name": "Withdraw",
      "type": "event"
    },
    {
      "inputs": [],
      "name": "AAVE_ORACLE_V3",
      "outputs": [
        {
          "internalType": "contract IAaveOracle",
          "name": "",
          "type": "address"
        }
      ],
      "stateMutability": "view",
      "type": "function"
    },
    {
      "inputs": [],
      "name": "AAVE_POOL_V3",
      "outputs": [
        {
          "internalType": "contract IPoolV3",
          "name": "",
          "type": "address"
        }
      ],
      "stateMutability": "view",
      "type": "function"
    },
    {
      "inputs": [],
      "name": "A_WSTETH_ADDR_AAVEV3",
      "outputs": [
        {
          "internalType": "address",
          "name": "",
          "type": "address"
        }
      ],
      "stateMutability": "view",
      "type": "function"
    },
    {
      "inputs": [],
      "name": "D_WETH_ADDR_AAVEV3",
      "outputs": [
        {
          "internalType": "address",
          "name": "",
          "type": "address"
        }
      ],
      "stateMutability": "view",
      "type": "function"
    },
    {
      "inputs": [],
      "name": "ETH_ADDR",
      "outputs": [
        {
          "internalType": "address",
          "name": "",
          "type": "address"
        }
      ],
      "stateMutability": "view",
      "type": "function"
    },
    {
      "inputs": [],
      "name": "MAX_SAFE_AGGREGATED_RATIO",
      "outputs": [
        {
          "internalType": "uint256",
          "name": "",
          "type": "uint256"
        }
      ],
      "stateMutability": "view",
      "type": "function"
    },
    {
      "inputs": [],
      "name": "MINIMUM_AMOUNT",
      "outputs": [
        {
          "internalType": "uint256",
          "name": "",
          "type": "uint256"
        }
      ],
      "stateMutability": "view",
      "type": "function"
    },
    {
      "inputs": [],
      "name": "MIN_SAFE_AGGREGATED_RATIO",
      "outputs": [
        {
          "internalType": "uint256",
          "name": "",
          "type": "uint256"
        }
      ],
      "stateMutability": "view",
      "type": "function"
    },
    {
      "inputs": [],
      "name": "PERMISSIBLE_LIMIT",
      "outputs": [
        {
          "internalType": "uint256",
          "name": "",
          "type": "uint256"
        }
      ],
      "stateMutability": "view",
      "type": "function"
    },
    {
      "inputs": [],
      "name": "WETH_ADDR",
      "outputs": [
        {
          "internalType": "address",
          "name": "",
          "type": "address"
        }
      ],
      "stateMutability": "view",
      "type": "function"
    },
    {
      "inputs": [],
      "name": "WSTETH_ADDR",
      "outputs": [
        {
          "internalType": "address",
          "name": "",
          "type": "address"
        }
      ],
      "stateMutability": "view",
      "type": "function"
    },
    {
      "inputs": [
        {
          "internalType": "address",
          "name": "_vault",
          "type": "address"
        },
        {
          "internalType": "address",
          "name": "_lendingLogic",
          "type": "address"
        },
        {
          "internalType": "address",
          "name": "_flashloanHelper",
          "type": "address"
        },
        {
          "internalType": "uint256",
          "name": "_safeAggregatedRatio",
          "type": "uint256"
        },
        {
          "internalType": "uint256",
          "name": "_safeRatio",
          "type": "uint256"
        }
      ],
      "name": "__Strategy_init",
      "outputs": [],
      "stateMutability": "nonpayable",
      "type": "function"
    },
    {
      "inputs": [
        {
          "internalType": "address",
          "name": "_admin",
          "type": "address"
        }
      ],
      "name": "addAdmin",
      "outputs": [],
      "stateMutability": "nonpayable",
      "type": "function"
    },
    {
      "inputs": [
        {
          "internalType": "uint256",
          "name": "_stETHWithdrawAmount",
          "type": "uint256"
        },
        {
          "internalType": "uint256",
          "name": "_wEthDebtDeleverageAmount",
          "type": "uint256"
        },
        {
          "internalType": "bytes",
          "name": "_swapData",
          "type": "bytes"
        },
        {
          "internalType": "uint256",
          "name": "_minimumAmount",
          "type": "uint256"
        }
      ],
      "name": "deleverage",
      "outputs": [],
      "stateMutability": "nonpayable",
      "type": "function"
    },
    {
      "inputs": [
        {
          "internalType": "uint256",
          "name": "_amount",
          "type": "uint256"
        }
      ],
      "name": "deposit",
      "outputs": [
        {
          "internalType": "uint256",
          "name": "operateExchangePrice",
          "type": "uint256"
        }
      ],
      "stateMutability": "nonpayable",
      "type": "function"
    },
    {
      "inputs": [],
      "name": "exchangePrice",
      "outputs": [
        {
          "internalType": "uint256",
          "name": "",
          "type": "uint256"
        }
      ],
      "stateMutability": "view",
      "type": "function"
    },
    {
      "inputs": [],
      "name": "flashloanHelper",
      "outputs": [
        {
          "internalType": "address",
          "name": "",
          "type": "address"
        }
      ],
      "stateMutability": "view",
      "type": "function"
    },
    {
      "inputs": [
        {
          "internalType": "address",
          "name": "_token",
          "type": "address"
        }
      ],
      "name": "getAssestPrice",
      "outputs": [
        {
          "internalType": "uint256",
          "name": "price",
          "type": "uint256"
        }
      ],
      "stateMutability": "view",
      "type": "function"
    },
    {
      "inputs": [],
      "name": "getAvailableLogicBalance",
      "outputs": [
        {
          "internalType": "uint256",
          "name": "balance",
          "type": "uint256"
        }
      ],
      "stateMutability": "view",
      "type": "function"
    },
    {
      "inputs": [],
      "name": "getNetAssets",
      "outputs": [
        {
          "internalType": "uint256",
          "name": "",
          "type": "uint256"
        }
      ],
      "stateMutability": "view",
      "type": "function"
    },
    {
      "inputs": [],
      "name": "getProtocolCollateralRatio",
      "outputs": [
        {
          "internalType": "uint256",
          "name": "collateralRatio",
          "type": "uint256"
        },
        {
          "internalType": "bool",
          "name": "isOK",
          "type": "bool"
        }
      ],
      "stateMutability": "view",
      "type": "function"
    },
    {
      "inputs": [],
      "name": "getProtocolNetAssets",
      "outputs": [
        {
          "internalType": "uint256",
          "name": "net",
          "type": "uint256"
        }
      ],
      "stateMutability": "view",
      "type": "function"
    },
    {
      "inputs": [],
      "name": "getProtocolRatio",
      "outputs": [
        {
          "internalType": "uint256",
          "name": "ratio",
          "type": "uint256"
        }
      ],
      "stateMutability": "view",
      "type": "function"
    },
    {
      "inputs": [],
      "name": "lendingLogic",
      "outputs": [
        {
          "internalType": "address",
          "name": "",
          "type": "address"
        }
      ],
      "stateMutability": "view",
      "type": "function"
    },
    {
      "inputs": [
        {
          "internalType": "uint256",
          "name": "_stETHDepositAmount",
          "type": "uint256"
        },
        {
          "internalType": "uint256",
          "name": "_wEthDebtAmount",
          "type": "uint256"
        },
        {
          "internalType": "bytes",
          "name": "_swapData",
          "type": "bytes"
        },
        {
          "internalType": "uint256",
          "name": "_minimumAmount",
          "type": "uint256"
        }
      ],
      "name": "leverage",
      "outputs": [],
      "stateMutability": "nonpayable",
      "type": "function"
    },
    {
      "inputs": [],
      "name": "logicDepositAmount",
      "outputs": [
        {
          "internalType": "uint256",
          "name": "",
          "type": "uint256"
        }
      ],
      "stateMutability": "view",
      "type": "function"
    },
    {
      "inputs": [],
      "name": "logicWithdrawAmount",
      "outputs": [
        {
          "internalType": "uint256",
          "name": "",
          "type": "uint256"
        }
      ],
      "stateMutability": "view",
      "type": "function"
    },
    {
      "inputs": [
        {
          "internalType": "address",
          "name": "_initiator",
          "type": "address"
        },
        {
          "internalType": "address",
          "name": "_token",
          "type": "address"
        },
        {
          "internalType": "uint256",
          "name": "_amount",
          "type": "uint256"
        },
        {
          "internalType": "uint256",
          "name": "_fee",
          "type": "uint256"
        },
        {
          "internalType": "bytes",
          "name": "_params",
          "type": "bytes"
        }
      ],
      "name": "onFlashLoanOne",
      "outputs": [
        {
          "internalType": "bytes32",
          "name": "",
          "type": "bytes32"
        }
      ],
      "stateMutability": "nonpayable",
      "type": "function"
    },
    {
      "inputs": [],
      "name": "oneInchRouter",
      "outputs": [
        {
          "internalType": "address",
          "name": "",
          "type": "address"
        }
      ],
      "stateMutability": "view",
      "type": "function"
    },
    {
      "inputs": [],
      "name": "owner",
      "outputs": [
        {
          "internalType": "address",
          "name": "",
          "type": "address"
        }
      ],
      "stateMutability": "view",
      "type": "function"
    },
    {
      "inputs": [],
      "name": "paused",
      "outputs": [
        {
          "internalType": "bool",
          "name": "",
          "type": "bool"
        }
      ],
      "stateMutability": "view",
      "type": "function"
    },
    {
      "inputs": [],
      "name": "proxiableUUID",
      "outputs": [
        {
          "internalType": "bytes32",
          "name": "",
          "type": "bytes32"
        }
      ],
      "stateMutability": "view",
      "type": "function"
    },
    {
      "inputs": [
        {
          "internalType": "address",
          "name": "_admin",
          "type": "address"
        }
      ],
      "name": "removeAdmin",
      "outputs": [],
      "stateMutability": "nonpayable",
      "type": "function"
    },
    {
      "inputs": [],
      "name": "renounceOwnership",
      "outputs": [],
      "stateMutability": "nonpayable",
      "type": "function"
    },
    {
      "inputs": [],
      "name": "revenue",
      "outputs": [
        {
          "internalType": "uint256",
          "name": "",
          "type": "uint256"
        }
      ],
      "stateMutability": "view",
      "type": "function"
    },
    {
      "inputs": [],
      "name": "revenueExchangePrice",
      "outputs": [
        {
          "internalType": "uint256",
          "name": "",
          "type": "uint256"
        }
      ],
      "stateMutability": "view",
      "type": "function"
    },
    {
      "inputs": [],
      "name": "revenueRate",
      "outputs": [
        {
          "internalType": "uint256",
          "name": "",
          "type": "uint256"
        }
      ],
      "stateMutability": "view",
      "type": "function"
    },
    {
      "inputs": [],
      "name": "safeAggregatedRatio",
      "outputs": [
        {
          "internalType": "uint256",
          "name": "",
          "type": "uint256"
        }
      ],
      "stateMutability": "view",
      "type": "function"
    },
    {
      "inputs": [],
      "name": "safeRatio",
      "outputs": [
        {
          "internalType": "uint256",
          "name": "",
          "type": "uint256"
        }
      ],
      "stateMutability": "view",
      "type": "function"
    },
    {
      "inputs": [
        {
          "internalType": "address",
          "name": "newOwner",
          "type": "address"
        }
      ],
      "name": "transferOwnership",
      "outputs": [],
      "stateMutability": "nonpayable",
      "type": "function"
    },
    {
      "inputs": [],
      "name": "updateExchangePrice",
      "outputs": [
        {
          "internalType": "uint256",
          "name": "newExchangePrice",
          "type": "uint256"
        },
        {
          "internalType": "uint256",
          "name": "newRevenue",
          "type": "uint256"
        }
      ],
      "stateMutability": "nonpayable",
      "type": "function"
    },
    {
      "inputs": [
        {
          "internalType": "address",
          "name": "_newFlashloanHelper",
          "type": "address"
        }
      ],
      "name": "updateFlashloanHelper",
      "outputs": [],
      "stateMutability": "nonpayable",
      "type": "function"
    },
    {
      "inputs": [
        {
          "internalType": "uint256",
          "name": "_safeAggregatorRatio",
          "type": "uint256"
        },
        {
          "internalType": "uint256",
          "name": "_safeRatio",
          "type": "uint256"
        }
      ],
      "name": "updateSafeRatio",
      "outputs": [],
      "stateMutability": "nonpayable",
      "type": "function"
    },
    {
      "inputs": [
        {
          "internalType": "address",
          "name": "newImplementation",
          "type": "address"
        }
      ],
      "name": "upgradeTo",
      "outputs": [],
      "stateMutability": "nonpayable",
      "type": "function"
    },
    {
      "inputs": [
        {
          "internalType": "address",
          "name": "newImplementation",
          "type": "address"
        },
        {
          "internalType": "bytes",
          "name": "data",
          "type": "bytes"
        }
      ],
      "name": "upgradeToAndCall",
      "outputs": [],
      "stateMutability": "payable",
      "type": "function"
    },
    {
      "inputs": [],
      "name": "vault",
      "outputs": [
        {
          "internalType": "address",
          "name": "",
          "type": "address"
        }
      ],
      "stateMutability": "view",
      "type": "function"
    },
    {
      "inputs": [
        {
          "internalType": "uint256",
          "name": "_amount",
          "type": "uint256"
        }
      ],
      "name": "withdraw",
      "outputs": [
        {
          "internalType": "uint256",
          "name": "withdrawAmount",
          "type": "uint256"
        }
      ],
      "stateMutability": "nonpayable",
      "type": "function"
    }
  ],
  "bytecode": "0x60a06040523060805234801561001457600080fd5b506080516135d361004c60003960008181611005015281816110450152818161135601528181611396015261142901526135d36000f3fe6080604052600436106102885760003560e01c806382dfc5f71161015a578063af8658ab116100c1578063e107e0271161007a578063e107e02714610792578063e549435b146107b4578063e77c41f6146107cb578063ef2cd24b146107e2578063f2fde38b146107fe578063fbfa77cf1461081e57600080fd5b8063af8658ab146106dc578063afb56385146106fc578063b1df97421461071d578063b6b55f251461073d578063c26c4dfe1461075d578063d84d74a01461077257600080fd5b80639e65741e116101135780639e65741e1461062e578063a11d8c6b14610645578063a84970151461066d578063ab7ce24414610684578063ac3af20814610699578063af56c207146106c157600080fd5b806382dfc5f71461056857806383abd6951461059057806385651c8c146105b05780638da5cb5b146105d857806398477390146105f657806398e1862c1461061757600080fd5b80633bfaa7e3116101fe57806359126926116101b757806359126926146104bc5780635c975abb146104d357806362e8564e146104f6578063704802751461050b578063715018a61461052b5780637753f47b1461054057600080fd5b80633bfaa7e3146104015780633e9491a21461042b57806346961ece146104425780634f1ef2861461046a57806352d1902d1461047d578063571ddf351461049257600080fd5b80632e1a7d4d116102505780632e1a7d4d1461032e578063308b2b811461034e5780633436042c1461036a5780633659cfe61461038157806337a62fa2146103a15780633a54b841146103e157600080fd5b806308bb5fb01461028d5780630e8cc018146102b55780631785f53c146102d757806319c63bfe146102f7578063257d9bb814610317575b600080fd5b34801561029957600080fd5b506102a261083f565b6040519081526020015b60405180910390f35b3480156102c157600080fd5b506102d56102d0366004612f05565b610943565b005b3480156102e357600080fd5b506102d56102f2366004612f7c565b610b59565b34801561030357600080fd5b506102d5610312366004612f05565b610bcc565b34801561032357600080fd5b506102a26298968081565b34801561033a57600080fd5b506102a2610349366004612f97565b610eea565b34801561035a57600080fd5b506102a26709b6e64a8ec6000081565b34801561037657600080fd5b506102a26101385481565b34801561038d57600080fd5b506102d561039c366004612f7c565b610ffb565b3480156103ad57600080fd5b506103c97377ca01483f379e58174739308945f044e1a764dc81565b6040516001600160a01b0390911681526020016102ac565b3480156103ed57600080fd5b506102d56103fc366004612f7c565b6110da565b34801561040d57600080fd5b50610416611154565b604080519283526020830191909152016102ac565b34801561043757600080fd5b506102a26101315481565b34801561044e57600080fd5b506103c973b56c2f0b653b2e0b10c9b928c8580ac5df02c7c781565b6102d5610478366004613053565b61134c565b34801561048957600080fd5b506102a261141c565b34801561049e57600080fd5b506104a76114cf565b604080519283529015156020830152016102ac565b3480156104c857600080fd5b506102a26101365481565b3480156104df57600080fd5b5060c95460ff1660405190151581526020016102ac565b34801561050257600080fd5b506102a261156f565b34801561051757600080fd5b506102d5610526366004612f7c565b6115f6565b34801561053757600080fd5b506102d561166c565b34801561054c57600080fd5b506103c973eeeeeeeeeeeeeeeeeeeeeeeeeeeeeeeeeeeeeeee81565b34801561057457600080fd5b506103c97382af49447d8a07e3bd95bd0d56f35241523fbab181565b34801561059c57600080fd5b506102a26105ab366004612f7c565b611680565b3480156105bc57600080fd5b506103c973513c7e3a9c69ca3e22550ef58ac1c0088e918fff81565b3480156105e457600080fd5b506033546001600160a01b03166103c9565b34801561060257600080fd5b5061012f546103c9906001600160a01b031681565b34801561062357600080fd5b506102a26101335481565b34801561063a57600080fd5b506102a26101325481565b34801561065157600080fd5b506103c973794a61358d6845594f94dc1db02a252b5b4814ad81565b34801561067957600080fd5b506102a26101375481565b34801561069057600080fd5b506102a2611705565b3480156106a557600080fd5b506103c9731111111254eeb25477b68fb85ed929f73a96058281565b3480156106cd57600080fd5b506102a266071afd498d000081565b3480156106e857600080fd5b506102a26106f73660046130a1565b6117a7565b34801561070857600080fd5b50610130546103c9906001600160a01b031681565b34801561072957600080fd5b506102d5610738366004613119565b611b2c565b34801561074957600080fd5b506102a2610758366004612f97565b611de5565b34801561076957600080fd5b506102a2611ef0565b34801561077e57600080fd5b506102d561078d36600461316e565b611f83565b34801561079e57600080fd5b506103c960008051602061357e83398151915281565b3480156107c057600080fd5b506102a26101355481565b3480156107d757600080fd5b506102a26101345481565b3480156107ee57600080fd5b506102a2670d2f13f7789f000081565b34801561080a57600080fd5b506102d5610819366004612f7c565b611fff565b34801561082a57600080fd5b5061012e546103c9906001600160a01b031681565b61012f54604051631b51675d60e21b815230600482015260009182916001600160a01b0390911690636d459d7490602401608060405180830381865afa15801561088d573d6000803e3d6000fd5b505050506040513d601f19601f820116820180604052508101906108b19190613190565b50610131546040516370a0823160e01b8152306004820152919450925060008051602061357e83398151915291506370a0823190602401602060405180830381865afa158015610905573d6000803e3d6000fd5b505050506040513d601f19601f8201168201806040525081019061092991906131c6565b61093390836131f5565b61093d9190613208565b91505090565b33600090815261012d602052604090205460ff1661097c5760405162461bcd60e51b81526004016109739061321b565b60405180910390fd5b629896808510156109cf5760405162461bcd60e51b815260206004820152601f60248201527f4d75737420626967676572207468616e206d696e696d756d20616d6f756e74006044820152606401610973565b6040516370a0823160e01b815230600482015260009060008051602061357e833981519152906370a0823190602401602060405180830381865afa158015610a1b573d6000803e3d6000fd5b505050506040513d601f19601f82011682018060405250810190610a3f91906131c6565b905085811015610a915760405162461bcd60e51b815260206004820152601b60248201527f496e73756666696369656e74207773744554482062616c616e636500000000006044820152606401610973565b61013786905560008086848787604051602001610ab295949392919061323f565b60408051601f198184030181529082905261013054632e7ff4ef60e11b83529092506001600160a01b031690635cffe9de90610b0c9030907382af49447d8a07e3bd95bd0d56f35241523fbab1908b9087906004016132d6565b6020604051808303816000875af1158015610b2b573d6000803e3d6000fd5b505050506040513d601f19601f82011682018060405250810190610b4f9190613313565b5050505050505050565b610b61612075565b6001600160a01b038116610baa5760405162461bcd60e51b815260206004820152601060248201526f496e76616c696420616464726573732160801b6044820152606401610973565b6001600160a01b0316600090815261012d60205260409020805460ff19169055565b33600090815261012d602052604090205460ff16610bfc5760405162461bcd60e51b81526004016109739061321b565b62989680851015610c4f5760405162461bcd60e51b815260206004820152601f60248201527f4d75737420626967676572207468616e206d696e696d756d20616d6f756e74006044820152606401610973565b61012f54604051631b51675d60e21b81523060048201526000916001600160a01b031690636d459d7490602401608060405180830381865afa158015610c99573d6000803e3d6000fd5b505050506040513d601f19601f82011682018060405250810190610cbd9190613190565b505050905084811015610d125760405162461bcd60e51b815260206004820152601860248201527f4e6f7420656e6f75676820636f6c6c61626f726174696f6e00000000000000006044820152606401610973565b6000610d317382af49447d8a07e3bd95bd0d56f35241523fbab1611680565b90506000610d4c60008051602061357e833981519152611680565b6040516370a0823160e01b81523060048201529091506000907382af49447d8a07e3bd95bd0d56f35241523fbab1906370a0823190602401602060405180830381865afa158015610da1573d6000803e3d6000fd5b505050506040513d601f19601f82011682018060405250810190610dc591906131c6565b9050610dd18382613335565b610ddb838b613335565b1115610e1e5760405162461bcd60e51b81526020600482015260126024820152714e6f7420656e6f7567682062616c616e636560701b6044820152606401610973565b6101388990556000600189878a8a604051602001610e4095949392919061323f565b60408051601f198184030181529082905261013054632e7ff4ef60e11b83529092506001600160a01b031690635cffe9de90610e9a9030907382af49447d8a07e3bd95bd0d56f35241523fbab1908e9087906004016132d6565b6020604051808303816000875af1158015610eb9573d6000803e3d6000fd5b505050506040513d601f19601f82011682018060405250810190610edd9190613313565b5050505050505050505050565b61012e546000906001600160a01b03163314610f485760405162461bcd60e51b815260206004820152601f60248201527f4f6e6c79207661756c742063616e2063616c6c2074686973206d6574686f64006044820152606401610973565b60008211610f985760405162461bcd60e51b815260206004820152601960248201527f77697468647261773a20496e76616c696420616d6f756e742e000000000000006044820152606401610973565b61012e54610fbf9060008051602061357e833981519152906001600160a01b0316846120cf565b5060405181815281907f5b6b431d4476a211bb7d41c20d1aab9ae2321deee0d20be3d9fc9b1093fa6e3d906020015b60405180910390a1919050565b6001600160a01b037f00000000000000000000000000000000000000000000000000000000000000001630036110435760405162461bcd60e51b81526004016109739061334c565b7f00000000000000000000000000000000000000000000000000000000000000006001600160a01b031661108c60008051602061350e833981519152546001600160a01b031690565b6001600160a01b0316146110b25760405162461bcd60e51b815260040161097390613398565b6110bb81612137565b604080516000808252602082019092526110d79183919061213f565b50565b6110e2612075565b6001600160a01b0381166111315760405162461bcd60e51b815260206004820152601660248201527557726f6e6720666c6173686c6f616e48656c7065722160501b6044820152606401610973565b61013080546001600160a01b0319166001600160a01b0392909216919091179055565b33600090815261012d6020526040812054819060ff166111865760405162461bcd60e51b81526004016109739061321b565b61012e54604080516318160ddd60e01b815290516000926001600160a01b0316916318160ddd9160048083019260209291908290030181865afa1580156111d1573d6000803e3d6000fd5b505050506040513d601f19601f820116820180604052508101906111f591906131c6565b90508060000361121057610132546101315492509250509091565b600061121a61083f565b90508161122f82670de0b6b3a7640000613335565b61123991906133e4565b935061013354841115611306576101335460000361126857505050610133819055610132819055610131549091565b6000670de0b6b3a764000083610132546112829190613335565b61128c91906133e4565b6112969083613208565b905061271061013454826112aa9190613335565b6112b491906133e4565b93508361013160008282546112c991906131f5565b909155508390506112da8584613208565b6112ec90670de0b6b3a7640000613335565b6112f691906133e4565b610132819055610133555061130d565b6101328490555b60408051858152602081018590527f83d2ad38a3d31bbc70811535dd8943b0140df344c23e6e167ee1ca32f9a1a459910160405180910390a150509091565b6001600160a01b037f00000000000000000000000000000000000000000000000000000000000000001630036113945760405162461bcd60e51b81526004016109739061334c565b7f00000000000000000000000000000000000000000000000000000000000000006001600160a01b03166113dd60008051602061350e833981519152546001600160a01b031690565b6001600160a01b0316146114035760405162461bcd60e51b815260040161097390613398565b61140c82612137565b6114188282600161213f565b5050565b6000306001600160a01b037f000000000000000000000000000000000000000000000000000000000000000016146114bc5760405162461bcd60e51b815260206004820152603860248201527f555550535570677261646561626c653a206d757374206e6f742062652063616c60448201527f6c6564207468726f7567682064656c656761746563616c6c00000000000000006064820152608401610973565b5060008051602061350e83398151915290565b61012f54604051638caff8ed60e01b815230600482015260009182916001600160a01b0390911690638caff8ed90602401602060405180830381865afa15801561151d573d6000803e3d6000fd5b505050506040513d601f19601f8201168201806040525081019061154191906131c6565b91508166071afd498d00006101365461155a91906131f5565b11611566576000611569565b60015b90509091565b61012f5460405163445818a160e11b8152306004820152600091829182916001600160a01b0316906388b03142906024016040805180830381865afa1580156115bc573d6000803e3d6000fd5b505050506040513d601f19601f820116820180604052508101906115e09190613406565b90925090506115ef8183613208565b9250505090565b6115fe612075565b6001600160a01b0381166116475760405162461bcd60e51b815260206004820152601060248201526f496e76616c696420616464726573732160801b6044820152606401610973565b6001600160a01b0316600090815261012d60205260409020805460ff19166001179055565b611674612075565b61167e60006122aa565b565b60405163b3596f0760e01b81526001600160a01b038216600482015260009073b56c2f0b653b2e0b10c9b928c8580ac5df02c7c79063b3596f0790602401602060405180830381865afa1580156116db573d6000803e3d6000fd5b505050506040513d601f19601f820116820180604052508101906116ff91906131c6565b92915050565b33600090815261012d602052604081205460ff166117355760405162461bcd60e51b81526004016109739061321b565b6040516370a0823160e01b815230600482015260008051602061357e833981519152906370a0823190602401602060405180830381865afa15801561177e573d6000803e3d6000fd5b505050506040513d601f19601f820116820180604052508101906117a291906131c6565b905090565b60006001600160a01b03871630146118015760405162461bcd60e51b815260206004820152601c60248201527f43616e6e6f742063616c6c20466c6173684c6f616e206d6f64756c65000000006044820152606401610973565b600080806118118587018761342a565b92955093509091505060ff8316611938576000611844897382af49447d8a07e3bd95bd0d56f35241523fbab184866122fc565b905061186e60008051602061357e833981519152610137548361186791906131f5565b6001612502565b61012f54604051637ee113e560e01b81523060048201526000916001600160a01b031690637ee113e590602401602060405180830381865afa1580156118b8573d6000803e3d6000fd5b505050506040513d601f19601f820116820180604052508101906118dc91906131c6565b90506118ea8b82600161262e565b7fde65598329a5a506b0865240860eae7975d48fadcbb543933019d2095ba7860b610137548361191a91906131f5565b60408051918252602082018490520160405180910390a15050611a73565b60006119577382af49447d8a07e3bd95bd0d56f35241523fbab1611680565b9050600061197260008051602061357e833981519152611680565b905060006119808a8c6131f5565b9050610138546000146119b45782826101385461199d9190613335565b6119a791906133e4565b6119b190826131f5565b90505b6119c08c82600061262e565b6000826119cd8584613335565b6119d791906133e4565b90506119f360008051602061357e833981519152826000612502565b600083858d8f611a0391906131f5565b611a0d9190613335565b611a1791906133e4565b9050611a338160008051602061357e833981519152888a6122fc565b5060408051848152602081018f90527ff046ccb25549004f529afb60ef0287081f2111cc083f5a96895cc6732a61ff99910160405180910390a150505050505b6001600160a01b03891663095ea7b333611a8d8a8c6131f5565b6040516001600160e01b031960e085901b1681526001600160a01b03909216600483015260248201526044016020604051808303816000875af1158015611ad8573d6000803e3d6000fd5b505050506040513d601f19601f82011682018060405250810190611afc9190613313565b507f439148f0bbc682ca079e46d6e2c2f0c1e3b820f1a291b069d8882abf8cf18dd99a9950505050505050505050565b600054610100900460ff1615808015611b4c5750600054600160ff909116105b80611b665750303b158015611b66575060005460ff166001145b611bc95760405162461bcd60e51b815260206004820152602e60248201527f496e697469616c697a61626c653a20636f6e747261637420697320616c72656160448201526d191e481a5b9a5d1a585b1a5e995960921b6064820152608401610973565b6000805460ff191660011790558015611bec576000805461ff0019166101001790555b611bf46126f0565b611bfc612717565b6001600160a01b03861615801590611c1c57506001600160a01b03841615155b8015611c3057506001600160a01b03851615155b611c7c5760405162461bcd60e51b815260206004820152601960248201527f496e76616c696420636f6e7472616374206164647265737321000000000000006044820152606401610973565b61012f80546001600160a01b038088166001600160a01b03199283161790925561012e8054898416908316179055610130805492871692909116919091179055670de0b6b3a7640000610132556709b6e64a8ec600008310801590611ce85750670d2f13f7789f000083105b611d305760405162461bcd60e51b8152602060048201526019602482015278496e76616c6964206167677265676174656420526174696f2160381b6044820152606401610973565b61013682905561013583905533600090815261012d60205260409020805460ff19166001908117909155611d6390612746565b611d807382af49447d8a07e3bd95bd0d56f35241523fbab161283f565b611d9760008051602061357e83398151915261283f565b8015611ddd576000805461ff0019169055604051600181527f7f26b83ff96e1f2b6a682f133852f6798a09c465da95921460cefb38474024989060200160405180910390a15b505050505050565b61012e546000906001600160a01b03163314611e435760405162461bcd60e51b815260206004820152601f60248201527f4f6e6c79207661756c742063616e2063616c6c2074686973206d6574686f64006044820152606401610973565b60008211611e935760405162461bcd60e51b815260206004820152601860248201527f6465706f7369743a20496e76616c696420616d6f756e742e00000000000000006044820152606401610973565b506101325461012e54611ec09060008051602061357e833981519152906001600160a01b031630856128c5565b6040518281527f4d6ce1e535dbade1c23defba91e23b8f791ce5edc0cc320257a2b364e4e3842690602001610fee565b61012f5460405163445818a160e11b8152306004820152600091829182916001600160a01b0316906388b03142906024016040805180830381865afa158015611f3d573d6000803e3d6000fd5b505050506040513d601f19601f82011682018060405250810190611f619190613406565b909250905081611f7982670de0b6b3a7640000613335565b6115ef91906133e4565b611f8b612075565b6709b6e64a8ec600008210158015611faa5750670d2f13f7789f000082105b611ff25760405162461bcd60e51b8152602060048201526019602482015278496e76616c6964206167677265676174656420526174696f2160381b6044820152606401610973565b6101359190915561013655565b612007612075565b6001600160a01b03811661206c5760405162461bcd60e51b815260206004820152602660248201527f4f776e61626c653a206e6577206f776e657220697320746865207a65726f206160448201526564647265737360d01b6064820152608401610973565b6110d7816122aa565b6033546001600160a01b0316331461167e5760405162461bcd60e51b815260206004820181905260248201527f4f776e61626c653a2063616c6c6572206973206e6f7420746865206f776e65726044820152606401610973565b6040516001600160a01b03831660248201526044810182905261213290849063a9059cbb60e01b906064015b60408051601f198184030181529190526020810180516001600160e01b03166001600160e01b0319909316929092179091526128fd565b505050565b6110d7612075565b7f4910fdfa16fed3260ed0e7147f7cc6da11a60208b5b9406d12a635614ffd91435460ff161561217257612132836129d2565b826001600160a01b03166352d1902d6040518163ffffffff1660e01b8152600401602060405180830381865afa9250505080156121cc575060408051601f3d908101601f191682019092526121c9918101906131c6565b60015b61222f5760405162461bcd60e51b815260206004820152602e60248201527f45524331393637557067726164653a206e657720696d706c656d656e7461746960448201526d6f6e206973206e6f74205555505360901b6064820152608401610973565b60008051602061350e833981519152811461229e5760405162461bcd60e51b815260206004820152602960248201527f45524331393637557067726164653a20756e737570706f727465642070726f786044820152681a58589b195555525160ba1b6064820152608401610973565b50612132838383612a6e565b603380546001600160a01b038381166001600160a01b0319831681179093556040519116919082907f8be0079c531659141344cd1fd0a4f28419497f9722a3daafe3b4186f6b6457e090600090a35050565b602482015160448301516000916001600160a01b038681169082161461235c5760405162461bcd60e51b815260206004820152601560248201527431696e63683a20496e76616c696420746f6b656e2160581b6044820152606401610973565b868210156123ac5760405162461bcd60e51b815260206004820152601c60248201527f31696e63683a20496e76616c696420696e70757420616d6f756e7421000000006044820152606401610973565b60405163095ea7b360e01b8152731111111254eeb25477b68fb85ed929f73a9605826004820152602481018890526001600160a01b0387169063095ea7b3906044016020604051808303816000875af115801561240d573d6000803e3d6000fd5b505050506040513d601f19601f820116820180604052508101906124319190613313565b50606073eeeeeeeeeeeeeeeeeeeeeeeeeeeeeeeeeeeeeeed196001600160a01b0388160161247f57612478731111111254eeb25477b68fb85ed929f73a960582878a612a93565b90506124a0565b61249d731111111254eeb25477b68fb85ed929f73a96058287612ac3565b90505b60208101519350848410156124f75760405162461bcd60e51b815260206004820152601f60248201527f31696e63683a20756e65787065637465642072657475726e416d6f756e742e006044820152606401610973565b505050949350505050565b8160000361250f57600080fd5b801561259c5760405163617ba03760e01b81526001600160a01b0384166004820152602481018390523060448201526000606482015273794a61358d6845594f94dc1db02a252b5b4814ad9063617ba037906084015b600060405180830381600087803b15801561257f57600080fd5b505af1158015612593573d6000803e3d6000fd5b50505050505050565b604051631a4ca37b60e21b81526001600160a01b03841660048201526024810183905230604482015273794a61358d6845594f94dc1db02a252b5b4814ad906369328dec906064015b6020604051808303816000875af1158015612604573d6000803e3d6000fd5b505050506040513d601f19601f8201168201806040525081019061262891906131c6565b50505050565b8160000361263b57600080fd5b801561269c5760405163a415bcad60e01b81526001600160a01b038416600482015260248101839052600260448201526000606482015230608482015273794a61358d6845594f94dc1db02a252b5b4814ad9063a415bcad9060a401612565565b60405163573ade8160e01b81526001600160a01b0384166004820152602481018390526002604482015230606482015273794a61358d6845594f94dc1db02a252b5b4814ad9063573ade81906084016125e5565b600054610100900460ff1661167e5760405162461bcd60e51b815260040161097390613493565b600054610100900460ff1661273e5760405162461bcd60e51b815260040161097390613493565b61167e612b07565b61012f546001600160a01b031661279f5760405162461bcd60e51b815260206004820152601c60248201527f4c656e64696e674c6f676963206e6f74207365747465642079657421000000006044820152606401610973565b600081156127ac57506000195b6127df7382af49447d8a07e3bd95bd0d56f35241523fbab173794a61358d6845594f94dc1db02a252b5b4814ad83612b37565b61280c60008051602061357e83398151915273794a61358d6845594f94dc1db02a252b5b4814ad83612b37565b61141873513c7e3a9c69ca3e22550ef58ac1c0088e918fff73794a61358d6845594f94dc1db02a252b5b4814ad83612b37565b60405163095ea7b360e01b8152731111111254eeb25477b68fb85ed929f73a960582600482015260001960248201526001600160a01b0382169063095ea7b3906044016020604051808303816000875af11580156128a1573d6000803e3d6000fd5b505050506040513d601f19601f820116820180604052508101906114189190613313565b6040516001600160a01b03808516602483015283166044820152606481018290526126289085906323b872dd60e01b906084016120fb565b6000612952826040518060400160405280602081526020017f5361666545524332303a206c6f772d6c6576656c2063616c6c206661696c6564815250856001600160a01b0316612be49092919063ffffffff16565b90508051600014806129735750808060200190518101906129739190613313565b6121325760405162461bcd60e51b815260206004820152602a60248201527f5361666545524332303a204552433230206f7065726174696f6e20646964206e6044820152691bdd081cdd58d8d9595960b21b6064820152608401610973565b6001600160a01b0381163b612a3f5760405162461bcd60e51b815260206004820152602d60248201527f455243313936373a206e657720696d706c656d656e746174696f6e206973206e60448201526c1bdd08184818dbdb9d1c9858dd609a1b6064820152608401610973565b60008051602061350e83398151915280546001600160a01b0319166001600160a01b0392909216919091179055565b612a7783612bf3565b600082511180612a845750805b15612132576126288383612c33565b6060612ab984848460405180606001604052806029815260200161352e60299139612d27565b90505b9392505050565b6060612abc838360006040518060400160405280601e81526020017f416464726573733a206c6f772d6c6576656c2063616c6c206661696c65640000815250612d27565b600054610100900460ff16612b2e5760405162461bcd60e51b815260040161097390613493565b61167e336122aa565b604051636eb1769f60e11b81523060048201526001600160a01b0383811660248301526000919085169063dd62ed3e90604401602060405180830381865afa158015612b87573d6000803e3d6000fd5b505050506040513d601f19601f82011682018060405250810190612bab91906131c6565b90506126288463095ea7b360e01b85612bc486866131f5565b6040516001600160a01b03909216602483015260448201526064016120fb565b6060612ab98484600085612d27565b612bfc816129d2565b6040516001600160a01b038216907fbc7cd75a20ee27fd9adebab32041f755214dbc6bffa90cc0225b39da2e5c2d3b90600090a250565b60606001600160a01b0383163b612c9b5760405162461bcd60e51b815260206004820152602660248201527f416464726573733a2064656c65676174652063616c6c20746f206e6f6e2d636f6044820152651b9d1c9858dd60d21b6064820152608401610973565b600080846001600160a01b031684604051612cb691906134de565b600060405180830381855af49150503d8060008114612cf1576040519150601f19603f3d011682016040523d82523d6000602084013e612cf6565b606091505b5091509150612d1e828260405180606001604052806027815260200161355760279139612e04565b95945050505050565b606082471015612d885760405162461bcd60e51b815260206004820152602660248201527f416464726573733a20696e73756666696369656e742062616c616e636520666f6044820152651c8818d85b1b60d21b6064820152608401610973565b600080866001600160a01b03168587604051612da491906134de565b60006040518083038185875af1925050503d8060008114612de1576040519150601f19603f3d011682016040523d82523d6000602084013e612de6565b606091505b5091509150612df787838387612e1d565b925050505b949350505050565b60608315612e13575081612abc565b612abc8383612e92565b60608315612e8c578251600003612e85576001600160a01b0385163b612e855760405162461bcd60e51b815260206004820152601d60248201527f416464726573733a2063616c6c20746f206e6f6e2d636f6e74726163740000006044820152606401610973565b5081612dfc565b612dfc83835b815115612ea25781518083602001fd5b8060405162461bcd60e51b815260040161097391906134fa565b60008083601f840112612ece57600080fd5b50813567ffffffffffffffff811115612ee657600080fd5b602083019150836020828501011115612efe57600080fd5b9250929050565b600080600080600060808688031215612f1d57600080fd5b8535945060208601359350604086013567ffffffffffffffff811115612f4257600080fd5b612f4e88828901612ebc565b96999598509660600135949350505050565b80356001600160a01b0381168114612f7757600080fd5b919050565b600060208284031215612f8e57600080fd5b612abc82612f60565b600060208284031215612fa957600080fd5b5035919050565b634e487b7160e01b600052604160045260246000fd5b600082601f830112612fd757600080fd5b813567ffffffffffffffff80821115612ff257612ff2612fb0565b604051601f8301601f19908116603f0116810190828211818310171561301a5761301a612fb0565b8160405283815286602085880101111561303357600080fd5b836020870160208301376000602085830101528094505050505092915050565b6000806040838503121561306657600080fd5b61306f83612f60565b9150602083013567ffffffffffffffff81111561308b57600080fd5b61309785828601612fc6565b9150509250929050565b60008060008060008060a087890312156130ba57600080fd5b6130c387612f60565b95506130d160208801612f60565b94506040870135935060608701359250608087013567ffffffffffffffff8111156130fb57600080fd5b61310789828a01612ebc565b979a9699509497509295939492505050565b600080600080600060a0868803121561313157600080fd5b61313a86612f60565b945061314860208701612f60565b935061315660408701612f60565b94979396509394606081013594506080013592915050565b6000806040838503121561318157600080fd5b50508035926020909101359150565b600080600080608085870312156131a657600080fd5b505082516020840151604085015160609095015191969095509092509050565b6000602082840312156131d857600080fd5b5051919050565b634e487b7160e01b600052601160045260246000fd5b808201808211156116ff576116ff6131df565b818103818111156116ff576116ff6131df565b6020808252600a90820152694e6f742061646d696e2160b01b604082015260600190565b60ff8616815284602082015283604082015260806060820152816080820152818360a0830137600081830160a090810191909152601f909201601f19160101949350505050565b60005b838110156132a1578181015183820152602001613289565b50506000910152565b600081518084526132c2816020860160208601613286565b601f01601f19169290920160200192915050565b6001600160a01b0385811682528416602082015260408101839052608060608201819052600090613309908301846132aa565b9695505050505050565b60006020828403121561332557600080fd5b81518015158114612abc57600080fd5b80820281158282048414176116ff576116ff6131df565b6020808252602c908201527f46756e6374696f6e206d7573742062652063616c6c6564207468726f7567682060408201526b19195b1959d85d1958d85b1b60a21b606082015260800190565b6020808252602c908201527f46756e6374696f6e206d7573742062652063616c6c6564207468726f7567682060408201526b6163746976652070726f787960a01b606082015260800190565b60008261340157634e487b7160e01b600052601260045260246000fd5b500490565b6000806040838503121561341957600080fd5b505080516020909101519092909150565b6000806000806080858703121561344057600080fd5b843560ff8116811461345157600080fd5b93506020850135925060408501359150606085013567ffffffffffffffff81111561347b57600080fd5b61348787828801612fc6565b91505092959194509250565b6020808252602b908201527f496e697469616c697a61626c653a20636f6e7472616374206973206e6f74206960408201526a6e697469616c697a696e6760a81b606082015260800190565b600082516134f0818460208701613286565b9190910192915050565b602081526000612abc60208301846132aa56fe360894a13ba1a3210667c828492db98dca3e2076cc3735a920a3ca505d382bbc416464726573733a206c6f772d6c6576656c2063616c6c20776974682076616c7565206661696c6564416464726573733a206c6f772d6c6576656c2064656c65676174652063616c6c206661696c65640000000000000000000000005979d7b546e38e414f7e9822514be443a4800529a2646970667358221220cdf93bea5a5cb33354b99fabddb7b7ebeaa895fc1739213b08b3c714f959991b64736f6c63430008130033",
  "linkReferences": {},
  "deployedLinkReferences": {}
}