{"contracts/Constants.sol":{"Constants":{"abi":[{"inputs":[],"name":"MAX_SAFE_AGGREGATED_RATIO","outputs":[{"internalType":"uint256","name":"","type":"uint256"}],"stateMutability":"view","type":"function"},{"inputs":[],"name":"MIN_SAFE_AGGREGATED_RATIO","outputs":[{"internalType":"uint256","name":"","type":"uint256"}],"stateMutability":"view","type":"function"},{"inputs":[],"name":"PERMISSIBLE_LIMIT","outputs":[{"internalType":"uint256","name":"","type":"uint256"}],"stateMutability":"view","type":"function"},{"inputs":[],"name":"WETH_ADDR","outputs":[{"internalType":"address","name":"","type":"address"}],"stateMutability":"view","type":"function"},{"inputs":[],"name":"WSTETH_ADDR","outputs":[{"internalType":"address","name":"","type":"address"}],"stateMutability":"view","type":"function"}],"evm":{"bytecode":{"linkReferences":{},"object":"608060405234801561001057600080fd5b50610112806100206000396000f3fe6080604052348015600f57600080fd5b506004361060505760003560e01c8063308b2b8114605557806382dfc5f7146076578063af56c2071460a7578063e107e0271460b4578063ef2cd24b1460ce575b600080fd5b60636709b6e64a8ec6000081565b6040519081526020015b60405180910390f35b60907382af49447d8a07e3bd95bd0d56f35241523fbab181565b6040516001600160a01b039091168152602001606d565b606366071afd498d000081565b6090735979d7b546e38e414f7e9822514be443a480052981565b6063670d2f13f7789f00008156fea264697066735822122000951575b781d106c11ead95c7327e0fad434ca3d5d20f870a84ac56fce54fe864736f6c63430008130033","opcodes":"PUSH1 0x80 PUSH1 0x40 MSTORE CALLVALUE DUP1 ISZERO PUSH2 0x10 JUMPI PUSH1 0x0 DUP1 REVERT JUMPDEST POP PUSH2 0x112 DUP1 PUSH2 0x20 PUSH1 0x0 CODECOPY PUSH1 0x0 RETURN INVALID PUSH1 0x80 PUSH1 0x40 MSTORE CALLVALUE DUP1 ISZERO PUSH1 0xF JUMPI PUSH1 0x0 DUP1 REVERT JUMPDEST POP PUSH1 0x4 CALLDATASIZE LT PUSH1 0x50 JUMPI PUSH1 0x0 CALLDATALOAD PUSH1 0xE0 SHR DUP1 PUSH4 0x308B2B81 EQ PUSH1 0x55 JUMPI DUP1 PUSH4 0x82DFC5F7 EQ PUSH1 0x76 JUMPI DUP1 PUSH4 0xAF56C207 EQ PUSH1 0xA7 JUMPI DUP1 PUSH4 0xE107E027 EQ PUSH1 0xB4 JUMPI DUP1 PUSH4 0xEF2CD24B EQ PUSH1 0xCE JUMPI JUMPDEST PUSH1 0x0 DUP1 REVERT JUMPDEST PUSH1 0x63 PUSH8 0x9B6E64A8EC60000 DUP2 JUMP JUMPDEST PUSH1 0x40 MLOAD SWAP1 DUP2 MSTORE PUSH1 0x20 ADD JUMPDEST PUSH1 0x40 MLOAD DUP1 SWAP2 SUB SWAP1 RETURN JUMPDEST PUSH1 0x90 PUSH20 0x82AF49447D8A07E3BD95BD0D56F35241523FBAB1 DUP2 JUMP JUMPDEST PUSH1 0x40 MLOAD PUSH1 0x1 PUSH1 0x1 PUSH1 0xA0 SHL SUB SWAP1 SWAP2 AND DUP2 MSTORE PUSH1 0x20 ADD PUSH1 0x6D JUMP JUMPDEST PUSH1 0x63 PUSH7 0x71AFD498D0000 DUP2 JUMP JUMPDEST PUSH1 0x90 PUSH20 0x5979D7B546E38E414F7E9822514BE443A4800529 DUP2 JUMP JUMPDEST PUSH1 0x63 PUSH8 0xD2F13F7789F0000 DUP2 JUMP INVALID LOG2 PUSH5 0x6970667358 0x22 SLT KECCAK256 STOP SWAP6 ISZERO PUSH22 0xB781D106C11EAD95C7327E0FAD434CA3D5D20F870A84 0xAC JUMP 0xFC 0xE5 0x4F 0xE8 PUSH5 0x736F6C6343 STOP ADDMOD SGT STOP CALLER "},"methodIdentifiers":{"MAX_SAFE_AGGREGATED_RATIO()":"ef2cd24b","MIN_SAFE_AGGREGATED_RATIO()":"308b2b81","PERMISSIBLE_LIMIT()":"af56c207","WETH_ADDR()":"82dfc5f7","WSTETH_ADDR()":"e107e027"}},"storageLayout":{"storage":[{"astId":5234,"contract":"contracts/Constants.sol:Constants","label":"isAdmin","offset":0,"slot":"0","type":"t_mapping(t_address,t_bool)"}],"types":{"t_address":{"encoding":"inplace","label":"address","numberOfBytes":"20"},"t_bool":{"encoding":"inplace","label":"bool","numberOfBytes":"1"},"t_mapping(t_address,t_bool)":{"encoding":"mapping","key":"t_address","label":"mapping(address => bool)","numberOfBytes":"32","value":"t_bool"}}}}}}