{"contracts/core/LendingLogic.sol":{"LendingLogic":{"abi":[{"inputs":[],"name":"AAVE_ORACLE_V3","outputs":[{"internalType":"contract IAaveOracle","name":"","type":"address"}],"stateMutability":"view","type":"function"},{"inputs":[],"name":"AAVE_POOL_V3","outputs":[{"internalType":"contract IPoolV3","name":"","type":"address"}],"stateMutability":"view","type":"function"},{"inputs":[],"name":"A_WSTETH_ADDR_AAVEV3","outputs":[{"internalType":"address","name":"","type":"address"}],"stateMutability":"view","type":"function"},{"inputs":[],"name":"D_WETH_ADDR_AAVEV3","outputs":[{"internalType":"address","name":"","type":"address"}],"stateMutability":"view","type":"function"},{"inputs":[],"name":"LOGIC_ADDRESS","outputs":[{"internalType":"address","name":"","type":"address"}],"stateMutability":"view","type":"function"},{"inputs":[],"name":"WETH_ADDR","outputs":[{"internalType":"address","name":"","type":"address"}],"stateMutability":"view","type":"function"},{"inputs":[],"name":"WSTETH_ADDR","outputs":[{"internalType":"address","name":"","type":"address"}],"stateMutability":"view","type":"function"},{"inputs":[{"internalType":"address","name":"_asset","type":"address"},{"internalType":"uint256","name":"_amount","type":"uint256"}],"name":"borrow","outputs":[],"stateMutability":"nonpayable","type":"function"},{"inputs":[{"internalType":"address","name":"_asset","type":"address"},{"internalType":"uint256","name":"_amount","type":"uint256"}],"name":"deposit","outputs":[],"stateMutability":"nonpayable","type":"function"},{"inputs":[],"name":"enterProtocol","outputs":[],"stateMutability":"nonpayable","type":"function"},{"inputs":[],"name":"exitProtocol","outputs":[],"stateMutability":"nonpayable","type":"function"},{"inputs":[{"internalType":"address","name":"_account","type":"address"}],"name":"getAvailableBorrowsETH","outputs":[{"internalType":"uint256","name":"availableBorrowsETH","type":"uint256"}],"stateMutability":"view","type":"function"},{"inputs":[{"internalType":"address","name":"_account","type":"address"}],"name":"getAvailableWithdrawsStETH","outputs":[{"internalType":"uint256","name":"maxWithdrawsWStETH","type":"uint256"}],"stateMutability":"view","type":"function"},{"inputs":[{"internalType":"address","name":"_account","type":"address"}],"name":"getNetAssetsInfo","outputs":[{"internalType":"uint256","name":"totalAssets","type":"uint256"},{"internalType":"uint256","name":"totalDebt","type":"uint256"},{"internalType":"uint256","name":"netAssets","type":"uint256"},{"internalType":"uint256","name":"aggregatedRatio","type":"uint256"}],"stateMutability":"view","type":"function"},{"inputs":[{"internalType":"address","name":"_account","type":"address"}],"name":"getProtocolAccountData","outputs":[{"internalType":"uint256","name":"wstEthAmount","type":"uint256"},{"internalType":"uint256","name":"debtEthAmount","type":"uint256"}],"stateMutability":"view","type":"function"},{"inputs":[{"internalType":"address","name":"_account","type":"address"}],"name":"getProtocolCollateralRatio","outputs":[{"internalType":"uint256","name":"ratio","type":"uint256"}],"stateMutability":"view","type":"function"},{"inputs":[{"internalType":"address","name":"_account","type":"address"},{"internalType":"bool","name":"_isDepositOrWithdraw","type":"bool"},{"internalType":"uint256","name":"_depositOrWithdraw","type":"uint256"},{"internalType":"uint256","name":"_safeRatio","type":"uint256"}],"name":"getProtocolLeverageAmount","outputs":[{"internalType":"bool","name":"isLeverage","type":"bool"},{"internalType":"uint256","name":"loanAmount","type":"uint256"}],"stateMutability":"view","type":"function"},{"inputs":[{"internalType":"address","name":"_asset","type":"address"},{"internalType":"uint256","name":"_amount","type":"uint256"}],"name":"repay","outputs":[],"stateMutability":"nonpayable","type":"function"},{"inputs":[{"internalType":"address","name":"_asset","type":"address"},{"internalType":"uint256","name":"_amount","type":"uint256"}],"name":"withdraw","outputs":[],"stateMutability":"nonpayable","type":"function"}],"evm":{"bytecode":{"linkReferences":{},"object":"60a060405234801561001057600080fd5b503060805260805161183861005a600039600081816101800152818161033301528181610452015281816105290152818161063801528181610bed015261102e01526118386000f3fe608060405234801561001057600080fd5b50600436106101215760003560e01c806366d5f55d116100ad57806388b031421161007157806388b03142146102b25780638caff8ed146102da578063a11d8c6b146102ed578063e107e02714610302578063f3fef3a31461031d57600080fd5b806366d5f55d1461022e5780636d459d74146102365780637ee113e51461026957806382dfc5f71461027c57806385651c8c1461029757600080fd5b806346961ece116100f457806346961ece146101a257806347e7ef24146101bd5780634b8a3529146101d0578063529b1d03146101e357806362d5380b1461020457600080fd5b806322867d781461012657806337a62fa21461013b57806340409c7e1461017357806343aeb8991461017b575b600080fd5b61013961013436600461157d565b610330565b005b6101567377ca01483f379e58174739308945f044e1a764dc81565b6040516001600160a01b0390911681526020015b60405180910390f35b61013961044f565b6101567f000000000000000000000000000000000000000000000000000000000000000081565b61015673b56c2f0b653b2e0b10c9b928c8580ac5df02c7c781565b6101396101cb36600461157d565b610526565b6101396101de36600461157d565b610635565b6101f66101f13660046115a7565b61070e565b60405190815260200161016a565b6102176102123660046115da565b61088e565b60408051921515835260208301919091520161016a565b610139610bea565b6102496102443660046115a7565b610cbc565b60408051948552602085019390935291830152606082015260800161016a565b6101f66102773660046115a7565b610d2d565b6101567382af49447d8a07e3bd95bd0d56f35241523fbab181565b61015673513c7e3a9c69ca3e22550ef58ac1c0088e918fff81565b6102c56102c03660046115a7565b610e6b565b6040805192835260208301919091520161016a565b6101f66102e83660046115a7565b610f72565b6101566000805160206117e383398151915281565b610156735979d7b546e38e414f7e9822514be443a480052981565b61013961032b36600461157d565b61102b565b307f00000000000000000000000000000000000000000000000000000000000000006001600160a01b0316036103815760405162461bcd60e51b81526004016103789061161e565b60405180910390fd5b6001600160a01b0382167382af49447d8a07e3bd95bd0d56f35241523fbab1146103bd5760405162461bcd60e51b81526004016103789061164e565b60405163573ade8160e01b81526001600160a01b038316600482015260248101829052600260448201523060648201526000805160206117e38339815191529063573ade81906084015b6020604051808303816000875af1158015610426573d6000803e3d6000fd5b505050506040513d601f19601f8201168201806040525081019061044a9190611674565b505050565b307f00000000000000000000000000000000000000000000000000000000000000006001600160a01b0316036104975760405162461bcd60e51b81526004016103789061161e565b6104c67382af49447d8a07e3bd95bd0d56f35241523fbab16000805160206117e3833981519152600019611101565b6104f5735979d7b546e38e414f7e9822514be443a48005296000805160206117e3833981519152600019611101565b61052473513c7e3a9c69ca3e22550ef58ac1c0088e918fff6000805160206117e3833981519152600019611101565b565b307f00000000000000000000000000000000000000000000000000000000000000006001600160a01b03160361056e5760405162461bcd60e51b81526004016103789061161e565b6001600160a01b038216735979d7b546e38e414f7e9822514be443a4800529146105aa5760405162461bcd60e51b81526004016103789061164e565b60405163617ba03760e01b8152735979d7b546e38e414f7e9822514be443a4800529600482015260248101829052306044820152600060648201526000805160206117e38339815191529063617ba037906084015b600060405180830381600087803b15801561061957600080fd5b505af115801561062d573d6000803e3d6000fd5b505050505050565b307f00000000000000000000000000000000000000000000000000000000000000006001600160a01b03160361067d5760405162461bcd60e51b81526004016103789061161e565b6001600160a01b0382167382af49447d8a07e3bd95bd0d56f35241523fbab1146106b95760405162461bcd60e51b81526004016103789061164e565b60405163a415bcad60e01b81526001600160a01b03831660048201526024810182905260026044820152600060648201523060848201526000805160206117e38339815191529063a415bcad9060a4016105ff565b604051632fe4a15f60e21b81526001600160a01b03821660048201526000908190819081906000805160206117e38339815191529063bf92857c9060240160c060405180830381865afa158015610769573d6000803e3d6000fd5b505050506040513d601f19601f8201168201806040525081019061078d919061168d565b5094505050925092506000831115610886576000816107ae846127106116ed565b6107b8919061170a565b905060008185116107ca5760006107d4565b6107d4828661172c565b60405163b3596f0760e01b8152735979d7b546e38e414f7e9822514be443a4800529600482015290915060009073b56c2f0b653b2e0b10c9b928c8580ac5df02c7c79063b3596f0790602401602060405180830381865afa15801561083d573d6000803e3d6000fd5b505050506040513d601f19601f820116820180604052508101906108619190611674565b90508061087683670de0b6b3a76400006116ed565b610880919061170a565b96505050505b505050919050565b60405163b3596f0760e01b8152735979d7b546e38e414f7e9822514be443a480052960048201526000908190819081908190819073b56c2f0b653b2e0b10c9b928c8580ac5df02c7c79063b3596f0790602401602060405180830381865afa1580156108fe573d6000803e3d6000fd5b505050506040513d601f19601f820116820180604052508101906109229190611674565b60405163b3596f0760e01b81527382af49447d8a07e3bd95bd0d56f35241523fbab1600482015290915060009073b56c2f0b653b2e0b10c9b928c8580ac5df02c7c79063b3596f0790602401602060405180830381865afa15801561098b573d6000803e3d6000fd5b505050506040513d601f19601f820116820180604052508101906109af9190611674565b6040516370a0823160e01b81526001600160a01b038d1660048201529091508190839073513c7e3a9c69ca3e22550ef58ac1c0088e918fff906370a0823190602401602060405180830381865afa158015610a0e573d6000803e3d6000fd5b505050506040513d601f19601f82011682018060405250810190610a329190611674565b610a3c91906116ed565b610a46919061170a565b6040516370a0823160e01b81526001600160a01b038d1660048201529095507377ca01483f379e58174739308945f044e1a764dc906370a0823190602401602060405180830381865afa158015610aa1573d6000803e3d6000fd5b505050506040513d601f19601f82011682018060405250810190610ac59190611674565b935080610ad2838b6116ed565b610adc919061170a565b925089610af257610aed838661172c565b610afc565b610afc838661173f565b94508415610bdc5760008515610b2e5785610b1f86670de0b6b3a76400006116ed565b610b29919061170a565b610b31565b60005b9050888110610b41576000610b44565b60015b97508715610b9557610b5e89670de0b6b3a764000061172c565b610b7086670de0b6b3a76400006116ed565b610b7a888c6116ed565b610b84919061172c565b610b8e919061170a565b9650610bda565b610ba789670de0b6b3a764000061172c565b610bb1878b6116ed565b610bc387670de0b6b3a76400006116ed565b610bcd919061172c565b610bd7919061170a565b96505b505b505050505094509492505050565b307f00000000000000000000000000000000000000000000000000000000000000006001600160a01b031603610c325760405162461bcd60e51b81526004016103789061161e565b610c607382af49447d8a07e3bd95bd0d56f35241523fbab16000805160206117e383398151915260006111e7565b610c8e735979d7b546e38e414f7e9822514be443a48005296000805160206117e383398151915260006111e7565b61052473513c7e3a9c69ca3e22550ef58ac1c0088e918fff6000805160206117e383398151915260006111e7565b600080600080600080610cce87610e6b565b9092509050610cdd828761173f565b9550610ce9818661173f565b9450610cf5858761172c565b93508515610d1f5785610d1086670de0b6b3a76400006116ed565b610d1a919061170a565b610d22565b60005b925050509193509193565b604051632fe4a15f60e21b81526001600160a01b038216600482015260009081906000805160206117e38339815191529063bf92857c9060240160c060405180830381865afa158015610d84573d6000803e3d6000fd5b505050506040513d601f19601f82011682018060405250810190610da8919061168d565b505050925050506000811115610e655760405163b3596f0760e01b81527382af49447d8a07e3bd95bd0d56f35241523fbab1600482015260009073b56c2f0b653b2e0b10c9b928c8580ac5df02c7c79063b3596f0790602401602060405180830381865afa158015610e1e573d6000803e3d6000fd5b505050506040513d601f19601f82011682018060405250810190610e429190611674565b905080610e5783670de0b6b3a76400006116ed565b610e61919061170a565b9250505b50919050565b6040516370a0823160e01b81526001600160a01b0382166004820152600090819073513c7e3a9c69ca3e22550ef58ac1c0088e918fff906370a0823190602401602060405180830381865afa158015610ec8573d6000803e3d6000fd5b505050506040513d601f19601f82011682018060405250810190610eec9190611674565b6040516370a0823160e01b81526001600160a01b03851660048201529092507377ca01483f379e58174739308945f044e1a764dc906370a0823190602401602060405180830381865afa158015610f47573d6000803e3d6000fd5b505050506040513d601f19601f82011682018060405250810190610f6b9190611674565b9050915091565b604051632fe4a15f60e21b81526001600160a01b0382166004820152600090819081906000805160206117e38339815191529063bf92857c9060240160c060405180830381865afa158015610fcb573d6000803e3d6000fd5b505050506040513d601f19601f82011682018060405250810190610fef919061168d565b505050509150915081600014611021578161101282670de0b6b3a76400006116ed565b61101c919061170a565b610e61565b6000949350505050565b307f00000000000000000000000000000000000000000000000000000000000000006001600160a01b0316036110735760405162461bcd60e51b81526004016103789061161e565b6001600160a01b038216735979d7b546e38e414f7e9822514be443a4800529146110af5760405162461bcd60e51b81526004016103789061164e565b604051631a4ca37b60e21b8152735979d7b546e38e414f7e9822514be443a48005296004820152602481018290523060448201526000805160206117e3833981519152906369328dec90606401610407565b604051636eb1769f60e11b81523060048201526001600160a01b0383811660248301526000919085169063dd62ed3e90604401602060405180830381865afa158015611151573d6000803e3d6000fd5b505050506040513d601f19601f820116820180604052508101906111759190611674565b90506111e18463095ea7b360e01b8561118e868661173f565b6040516001600160a01b03909216602483015260448201526064015b60408051601f198184030181529190526020810180516001600160e01b03166001600160e01b0319909316929092179091526112fc565b50505050565b8015806112615750604051636eb1769f60e11b81523060048201526001600160a01b03838116602483015284169063dd62ed3e90604401602060405180830381865afa15801561123b573d6000803e3d6000fd5b505050506040513d601f19601f8201168201806040525081019061125f9190611674565b155b6112cc5760405162461bcd60e51b815260206004820152603660248201527f5361666545524332303a20617070726f76652066726f6d206e6f6e2d7a65726f60448201527520746f206e6f6e2d7a65726f20616c6c6f77616e636560501b6064820152608401610378565b6040516001600160a01b03831660248201526044810182905261044a90849063095ea7b360e01b906064016111aa565b6000611351826040518060400160405280602081526020017f5361666545524332303a206c6f772d6c6576656c2063616c6c206661696c6564815250856001600160a01b03166113d19092919063ffffffff16565b90508051600014806113725750808060200190518101906113729190611752565b61044a5760405162461bcd60e51b815260206004820152602a60248201527f5361666545524332303a204552433230206f7065726174696f6e20646964206e6044820152691bdd081cdd58d8d9595960b21b6064820152608401610378565b60606113e084846000856113e8565b949350505050565b6060824710156114495760405162461bcd60e51b815260206004820152602660248201527f416464726573733a20696e73756666696369656e742062616c616e636520666f6044820152651c8818d85b1b60d21b6064820152608401610378565b600080866001600160a01b031685876040516114659190611793565b60006040518083038185875af1925050503d80600081146114a2576040519150601f19603f3d011682016040523d82523d6000602084013e6114a7565b606091505b50915091506114b8878383876114c3565b979650505050505050565b6060831561153257825160000361152b576001600160a01b0385163b61152b5760405162461bcd60e51b815260206004820152601d60248201527f416464726573733a2063616c6c20746f206e6f6e2d636f6e74726163740000006044820152606401610378565b50816113e0565b6113e083838151156115475781518083602001fd5b8060405162461bcd60e51b815260040161037891906117af565b80356001600160a01b038116811461157857600080fd5b919050565b6000806040838503121561159057600080fd5b61159983611561565b946020939093013593505050565b6000602082840312156115b957600080fd5b6115c282611561565b9392505050565b80151581146115d757600080fd5b50565b600080600080608085870312156115f057600080fd5b6115f985611561565b93506020850135611609816115c9565b93969395505050506040820135916060013590565b60208082526016908201527527b7363c903337b9103232b632b3b0ba32b1b0b6361760511b604082015260600190565b6020808252600c908201526b57726f6e672061737365742160a01b604082015260600190565b60006020828403121561168657600080fd5b5051919050565b60008060008060008060c087890312156116a657600080fd5b865195506020870151945060408701519350606087015192506080870151915060a087015190509295509295509295565b634e487b7160e01b600052601160045260246000fd5b8082028115828204841417611704576117046116d7565b92915050565b60008261172757634e487b7160e01b600052601260045260246000fd5b500490565b81810381811115611704576117046116d7565b80820180821115611704576117046116d7565b60006020828403121561176457600080fd5b81516115c2816115c9565b60005b8381101561178a578181015183820152602001611772565b50506000910152565b600082516117a581846020870161176f565b9190910192915050565b60208152600082518060208401526117ce81604085016020870161176f565b601f01601f1916919091016040019291505056fe000000000000000000000000794a61358d6845594f94dc1db02a252b5b4814ada26469706673582212200be66a85aa03fd9d6c124e117ac4854f62c81e2c217ba43aae57f13aed17991464736f6c63430008130033","opcodes":"PUSH1 0xA0 PUSH1 0x40 MSTORE CALLVALUE DUP1 ISZERO PUSH2 0x10 JUMPI PUSH1 0x0 DUP1 REVERT JUMPDEST POP ADDRESS PUSH1 0x80 MSTORE PUSH1 0x80 MLOAD PUSH2 0x1838 PUSH2 0x5A PUSH1 0x0 CODECOPY PUSH1 0x0 DUP2 DUP2 PUSH2 0x180 ADD MSTORE DUP2 DUP2 PUSH2 0x333 ADD MSTORE DUP2 DUP2 PUSH2 0x452 ADD MSTORE DUP2 DUP2 PUSH2 0x529 ADD MSTORE DUP2 DUP2 PUSH2 0x638 ADD MSTORE DUP2 DUP2 PUSH2 0xBED ADD MSTORE PUSH2 0x102E ADD MSTORE PUSH2 0x1838 PUSH1 0x0 RETURN INVALID PUSH1 0x80 PUSH1 0x40 MSTORE CALLVALUE DUP1 ISZERO PUSH2 0x10 JUMPI PUSH1 0x0 DUP1 REVERT JUMPDEST POP PUSH1 0x4 CALLDATASIZE LT PUSH2 0x121 JUMPI PUSH1 0x0 CALLDATALOAD PUSH1 0xE0 SHR DUP1 PUSH4 0x66D5F55D GT PUSH2 0xAD JUMPI DUP1 PUSH4 0x88B03142 GT PUSH2 0x71 JUMPI DUP1 PUSH4 0x88B03142 EQ PUSH2 0x2B2 JUMPI DUP1 PUSH4 0x8CAFF8ED EQ PUSH2 0x2DA JUMPI DUP1 PUSH4 0xA11D8C6B EQ PUSH2 0x2ED JUMPI DUP1 PUSH4 0xE107E027 EQ PUSH2 0x302 JUMPI DUP1 PUSH4 0xF3FEF3A3 EQ PUSH2 0x31D JUMPI PUSH1 0x0 DUP1 REVERT JUMPDEST DUP1 PUSH4 0x66D5F55D EQ PUSH2 0x22E JUMPI DUP1 PUSH4 0x6D459D74 EQ PUSH2 0x236 JUMPI DUP1 PUSH4 0x7EE113E5 EQ PUSH2 0x269 JUMPI DUP1 PUSH4 0x82DFC5F7 EQ PUSH2 0x27C JUMPI DUP1 PUSH4 0x85651C8C EQ PUSH2 0x297 JUMPI PUSH1 0x0 DUP1 REVERT JUMPDEST DUP1 PUSH4 0x46961ECE GT PUSH2 0xF4 JUMPI DUP1 PUSH4 0x46961ECE EQ PUSH2 0x1A2 JUMPI DUP1 PUSH4 0x47E7EF24 EQ PUSH2 0x1BD JUMPI DUP1 PUSH4 0x4B8A3529 EQ PUSH2 0x1D0 JUMPI DUP1 PUSH4 0x529B1D03 EQ PUSH2 0x1E3 JUMPI DUP1 PUSH4 0x62D5380B EQ PUSH2 0x204 JUMPI PUSH1 0x0 DUP1 REVERT JUMPDEST DUP1 PUSH4 0x22867D78 EQ PUSH2 0x126 JUMPI DUP1 PUSH4 0x37A62FA2 EQ PUSH2 0x13B JUMPI DUP1 PUSH4 0x40409C7E EQ PUSH2 0x173 JUMPI DUP1 PUSH4 0x43AEB899 EQ PUSH2 0x17B JUMPI JUMPDEST PUSH1 0x0 DUP1 REVERT JUMPDEST PUSH2 0x139 PUSH2 0x134 CALLDATASIZE PUSH1 0x4 PUSH2 0x157D JUMP JUMPDEST PUSH2 0x330 JUMP JUMPDEST STOP JUMPDEST PUSH2 0x156 PUSH20 0x77CA01483F379E58174739308945F044E1A764DC DUP2 JUMP JUMPDEST PUSH1 0x40 MLOAD PUSH1 0x1 PUSH1 0x1 PUSH1 0xA0 SHL SUB SWAP1 SWAP2 AND DUP2 MSTORE PUSH1 0x20 ADD JUMPDEST PUSH1 0x40 MLOAD DUP1 SWAP2 SUB SWAP1 RETURN JUMPDEST PUSH2 0x139 PUSH2 0x44F JUMP JUMPDEST PUSH2 0x156 PUSH32 0x0 DUP2 JUMP JUMPDEST PUSH2 0x156 PUSH20 0xB56C2F0B653B2E0B10C9B928C8580AC5DF02C7C7 DUP2 JUMP JUMPDEST PUSH2 0x139 PUSH2 0x1CB CALLDATASIZE PUSH1 0x4 PUSH2 0x157D JUMP JUMPDEST PUSH2 0x526 JUMP JUMPDEST PUSH2 0x139 PUSH2 0x1DE CALLDATASIZE PUSH1 0x4 PUSH2 0x157D JUMP JUMPDEST PUSH2 0x635 JUMP JUMPDEST PUSH2 0x1F6 PUSH2 0x1F1 CALLDATASIZE PUSH1 0x4 PUSH2 0x15A7 JUMP JUMPDEST PUSH2 0x70E JUMP JUMPDEST PUSH1 0x40 MLOAD SWAP1 DUP2 MSTORE PUSH1 0x20 ADD PUSH2 0x16A JUMP JUMPDEST PUSH2 0x217 PUSH2 0x212 CALLDATASIZE PUSH1 0x4 PUSH2 0x15DA JUMP JUMPDEST PUSH2 0x88E JUMP JUMPDEST PUSH1 0x40 DUP1 MLOAD SWAP3 ISZERO ISZERO DUP4 MSTORE PUSH1 0x20 DUP4 ADD SWAP2 SWAP1 SWAP2 MSTORE ADD PUSH2 0x16A JUMP JUMPDEST PUSH2 0x139 PUSH2 0xBEA JUMP JUMPDEST PUSH2 0x249 PUSH2 0x244 CALLDATASIZE PUSH1 0x4 PUSH2 0x15A7 JUMP JUMPDEST PUSH2 0xCBC JUMP JUMPDEST PUSH1 0x40 DUP1 MLOAD SWAP5 DUP6 MSTORE PUSH1 0x20 DUP6 ADD SWAP4 SWAP1 SWAP4 MSTORE SWAP2 DUP4 ADD MSTORE PUSH1 0x60 DUP3 ADD MSTORE PUSH1 0x80 ADD PUSH2 0x16A JUMP JUMPDEST PUSH2 0x1F6 PUSH2 0x277 CALLDATASIZE PUSH1 0x4 PUSH2 0x15A7 JUMP JUMPDEST PUSH2 0xD2D JUMP JUMPDEST PUSH2 0x156 PUSH20 0x82AF49447D8A07E3BD95BD0D56F35241523FBAB1 DUP2 JUMP JUMPDEST PUSH2 0x156 PUSH20 0x513C7E3A9C69CA3E22550EF58AC1C0088E918FFF DUP2 JUMP JUMPDEST PUSH2 0x2C5 PUSH2 0x2C0 CALLDATASIZE PUSH1 0x4 PUSH2 0x15A7 JUMP JUMPDEST PUSH2 0xE6B JUMP JUMPDEST PUSH1 0x40 DUP1 MLOAD SWAP3 DUP4 MSTORE PUSH1 0x20 DUP4 ADD SWAP2 SWAP1 SWAP2 MSTORE ADD PUSH2 0x16A JUMP JUMPDEST PUSH2 0x1F6 PUSH2 0x2E8 CALLDATASIZE PUSH1 0x4 PUSH2 0x15A7 JUMP JUMPDEST PUSH2 0xF72 JUMP JUMPDEST PUSH2 0x156 PUSH1 0x0 DUP1 MLOAD PUSH1 0x20 PUSH2 0x17E3 DUP4 CODECOPY DUP2 MLOAD SWAP2 MSTORE DUP2 JUMP JUMPDEST PUSH2 0x156 PUSH20 0x5979D7B546E38E414F7E9822514BE443A4800529 DUP2 JUMP JUMPDEST PUSH2 0x139 PUSH2 0x32B CALLDATASIZE PUSH1 0x4 PUSH2 0x157D JUMP JUMPDEST PUSH2 0x102B JUMP JUMPDEST ADDRESS PUSH32 0x0 PUSH1 0x1 PUSH1 0x1 PUSH1 0xA0 SHL SUB AND SUB PUSH2 0x381 JUMPI PUSH1 0x40 MLOAD PUSH3 0x461BCD PUSH1 0xE5 SHL DUP2 MSTORE PUSH1 0x4 ADD PUSH2 0x378 SWAP1 PUSH2 0x161E JUMP JUMPDEST PUSH1 0x40 MLOAD DUP1 SWAP2 SUB SWAP1 REVERT JUMPDEST PUSH1 0x1 PUSH1 0x1 PUSH1 0xA0 SHL SUB DUP3 AND PUSH20 0x82AF49447D8A07E3BD95BD0D56F35241523FBAB1 EQ PUSH2 0x3BD JUMPI PUSH1 0x40 MLOAD PUSH3 0x461BCD PUSH1 0xE5 SHL DUP2 MSTORE PUSH1 0x4 ADD PUSH2 0x378 SWAP1 PUSH2 0x164E JUMP JUMPDEST PUSH1 0x40 MLOAD PUSH4 0x573ADE81 PUSH1 0xE0 SHL DUP2 MSTORE PUSH1 0x1 PUSH1 0x1 PUSH1 0xA0 SHL SUB DUP4 AND PUSH1 0x4 DUP3 ADD MSTORE PUSH1 0x24 DUP2 ADD DUP3 SWAP1 MSTORE PUSH1 0x2 PUSH1 0x44 DUP3 ADD MSTORE ADDRESS PUSH1 0x64 DUP3 ADD MSTORE PUSH1 0x0 DUP1 MLOAD PUSH1 0x20 PUSH2 0x17E3 DUP4 CODECOPY DUP2 MLOAD SWAP2 MSTORE SWAP1 PUSH4 0x573ADE81 SWAP1 PUSH1 0x84 ADD JUMPDEST PUSH1 0x20 PUSH1 0x40 MLOAD DUP1 DUP4 SUB DUP2 PUSH1 0x0 DUP8 GAS CALL ISZERO DUP1 ISZERO PUSH2 0x426 JUMPI RETURNDATASIZE PUSH1 0x0 DUP1 RETURNDATACOPY RETURNDATASIZE PUSH1 0x0 REVERT JUMPDEST POP POP POP POP PUSH1 0x40 MLOAD RETURNDATASIZE PUSH1 0x1F NOT PUSH1 0x1F DUP3 ADD AND DUP3 ADD DUP1 PUSH1 0x40 MSTORE POP DUP2 ADD SWAP1 PUSH2 0x44A SWAP2 SWAP1 PUSH2 0x1674 JUMP JUMPDEST POP POP POP JUMP JUMPDEST ADDRESS PUSH32 0x0 PUSH1 0x1 PUSH1 0x1 PUSH1 0xA0 SHL SUB AND SUB PUSH2 0x497 JUMPI PUSH1 0x40 MLOAD PUSH3 0x461BCD PUSH1 0xE5 SHL DUP2 MSTORE PUSH1 0x4 ADD PUSH2 0x378 SWAP1 PUSH2 0x161E JUMP JUMPDEST PUSH2 0x4C6 PUSH20 0x82AF49447D8A07E3BD95BD0D56F35241523FBAB1 PUSH1 0x0 DUP1 MLOAD PUSH1 0x20 PUSH2 0x17E3 DUP4 CODECOPY DUP2 MLOAD SWAP2 MSTORE PUSH1 0x0 NOT PUSH2 0x1101 JUMP JUMPDEST PUSH2 0x4F5 PUSH20 0x5979D7B546E38E414F7E9822514BE443A4800529 PUSH1 0x0 DUP1 MLOAD PUSH1 0x20 PUSH2 0x17E3 DUP4 CODECOPY DUP2 MLOAD SWAP2 MSTORE PUSH1 0x0 NOT PUSH2 0x1101 JUMP JUMPDEST PUSH2 0x524 PUSH20 0x513C7E3A9C69CA3E22550EF58AC1C0088E918FFF PUSH1 0x0 DUP1 MLOAD PUSH1 0x20 PUSH2 0x17E3 DUP4 CODECOPY DUP2 MLOAD SWAP2 MSTORE PUSH1 0x0 NOT PUSH2 0x1101 JUMP JUMPDEST JUMP JUMPDEST ADDRESS PUSH32 0x0 PUSH1 0x1 PUSH1 0x1 PUSH1 0xA0 SHL SUB AND SUB PUSH2 0x56E JUMPI PUSH1 0x40 MLOAD PUSH3 0x461BCD PUSH1 0xE5 SHL DUP2 MSTORE PUSH1 0x4 ADD PUSH2 0x378 SWAP1 PUSH2 0x161E JUMP JUMPDEST PUSH1 0x1 PUSH1 0x1 PUSH1 0xA0 SHL SUB DUP3 AND PUSH20 0x5979D7B546E38E414F7E9822514BE443A4800529 EQ PUSH2 0x5AA JUMPI PUSH1 0x40 MLOAD PUSH3 0x461BCD PUSH1 0xE5 SHL DUP2 MSTORE PUSH1 0x4 ADD PUSH2 0x378 SWAP1 PUSH2 0x164E JUMP JUMPDEST PUSH1 0x40 MLOAD PUSH4 0x617BA037 PUSH1 0xE0 SHL DUP2 MSTORE PUSH20 0x5979D7B546E38E414F7E9822514BE443A4800529 PUSH1 0x4 DUP3 ADD MSTORE PUSH1 0x24 DUP2 ADD DUP3 SWAP1 MSTORE ADDRESS PUSH1 0x44 DUP3 ADD MSTORE PUSH1 0x0 PUSH1 0x64 DUP3 ADD MSTORE PUSH1 0x0 DUP1 MLOAD PUSH1 0x20 PUSH2 0x17E3 DUP4 CODECOPY DUP2 MLOAD SWAP2 MSTORE SWAP1 PUSH4 0x617BA037 SWAP1 PUSH1 0x84 ADD JUMPDEST PUSH1 0x0 PUSH1 0x40 MLOAD DUP1 DUP4 SUB DUP2 PUSH1 0x0 DUP8 DUP1 EXTCODESIZE ISZERO DUP1 ISZERO PUSH2 0x619 JUMPI PUSH1 0x0 DUP1 REVERT JUMPDEST POP GAS CALL ISZERO DUP1 ISZERO PUSH2 0x62D JUMPI RETURNDATASIZE PUSH1 0x0 DUP1 RETURNDATACOPY RETURNDATASIZE PUSH1 0x0 REVERT JUMPDEST POP POP POP POP POP POP JUMP JUMPDEST ADDRESS PUSH32 0x0 PUSH1 0x1 PUSH1 0x1 PUSH1 0xA0 SHL SUB AND SUB PUSH2 0x67D JUMPI PUSH1 0x40 MLOAD PUSH3 0x461BCD PUSH1 0xE5 SHL DUP2 MSTORE PUSH1 0x4 ADD PUSH2 0x378 SWAP1 PUSH2 0x161E JUMP JUMPDEST PUSH1 0x1 PUSH1 0x1 PUSH1 0xA0 SHL SUB DUP3 AND PUSH20 0x82AF49447D8A07E3BD95BD0D56F35241523FBAB1 EQ PUSH2 0x6B9 JUMPI PUSH1 0x40 MLOAD PUSH3 0x461BCD PUSH1 0xE5 SHL DUP2 MSTORE PUSH1 0x4 ADD PUSH2 0x378 SWAP1 PUSH2 0x164E JUMP JUMPDEST PUSH1 0x40 MLOAD PUSH4 0xA415BCAD PUSH1 0xE0 SHL DUP2 MSTORE PUSH1 0x1 PUSH1 0x1 PUSH1 0xA0 SHL SUB DUP4 AND PUSH1 0x4 DUP3 ADD MSTORE PUSH1 0x24 DUP2 ADD DUP3 SWAP1 MSTORE PUSH1 0x2 PUSH1 0x44 DUP3 ADD MSTORE PUSH1 0x0 PUSH1 0x64 DUP3 ADD MSTORE ADDRESS PUSH1 0x84 DUP3 ADD MSTORE PUSH1 0x0 DUP1 MLOAD PUSH1 0x20 PUSH2 0x17E3 DUP4 CODECOPY DUP2 MLOAD SWAP2 MSTORE SWAP1 PUSH4 0xA415BCAD SWAP1 PUSH1 0xA4 ADD PUSH2 0x5FF JUMP JUMPDEST PUSH1 0x40 MLOAD PUSH4 0x2FE4A15F PUSH1 0xE2 SHL DUP2 MSTORE PUSH1 0x1 PUSH1 0x1 PUSH1 0xA0 SHL SUB DUP3 AND PUSH1 0x4 DUP3 ADD MSTORE PUSH1 0x0 SWAP1 DUP2 SWAP1 DUP2 SWAP1 DUP2 SWAP1 PUSH1 0x0 DUP1 MLOAD PUSH1 0x20 PUSH2 0x17E3 DUP4 CODECOPY DUP2 MLOAD SWAP2 MSTORE SWAP1 PUSH4 0xBF92857C SWAP1 PUSH1 0x24 ADD PUSH1 0xC0 PUSH1 0x40 MLOAD DUP1 DUP4 SUB DUP2 DUP7 GAS STATICCALL ISZERO DUP1 ISZERO PUSH2 0x769 JUMPI RETURNDATASIZE PUSH1 0x0 DUP1 RETURNDATACOPY RETURNDATASIZE PUSH1 0x0 REVERT JUMPDEST POP POP POP POP PUSH1 0x40 MLOAD RETURNDATASIZE PUSH1 0x1F NOT PUSH1 0x1F DUP3 ADD AND DUP3 ADD DUP1 PUSH1 0x40 MSTORE POP DUP2 ADD SWAP1 PUSH2 0x78D SWAP2 SWAP1 PUSH2 0x168D JUMP JUMPDEST POP SWAP5 POP POP POP SWAP3 POP SWAP3 POP PUSH1 0x0 DUP4 GT ISZERO PUSH2 0x886 JUMPI PUSH1 0x0 DUP2 PUSH2 0x7AE DUP5 PUSH2 0x2710 PUSH2 0x16ED JUMP JUMPDEST PUSH2 0x7B8 SWAP2 SWAP1 PUSH2 0x170A JUMP JUMPDEST SWAP1 POP PUSH1 0x0 DUP2 DUP6 GT PUSH2 0x7CA JUMPI PUSH1 0x0 PUSH2 0x7D4 JUMP JUMPDEST PUSH2 0x7D4 DUP3 DUP7 PUSH2 0x172C JUMP JUMPDEST PUSH1 0x40 MLOAD PUSH4 0xB3596F07 PUSH1 0xE0 SHL DUP2 MSTORE PUSH20 0x5979D7B546E38E414F7E9822514BE443A4800529 PUSH1 0x4 DUP3 ADD MSTORE SWAP1 SWAP2 POP PUSH1 0x0 SWAP1 PUSH20 0xB56C2F0B653B2E0B10C9B928C8580AC5DF02C7C7 SWAP1 PUSH4 0xB3596F07 SWAP1 PUSH1 0x24 ADD PUSH1 0x20 PUSH1 0x40 MLOAD DUP1 DUP4 SUB DUP2 DUP7 GAS STATICCALL ISZERO DUP1 ISZERO PUSH2 0x83D JUMPI RETURNDATASIZE PUSH1 0x0 DUP1 RETURNDATACOPY RETURNDATASIZE PUSH1 0x0 REVERT JUMPDEST POP POP POP POP PUSH1 0x40 MLOAD RETURNDATASIZE PUSH1 0x1F NOT PUSH1 0x1F DUP3 ADD AND DUP3 ADD DUP1 PUSH1 0x40 MSTORE POP DUP2 ADD SWAP1 PUSH2 0x861 SWAP2 SWAP1 PUSH2 0x1674 JUMP JUMPDEST SWAP1 POP DUP1 PUSH2 0x876 DUP4 PUSH8 0xDE0B6B3A7640000 PUSH2 0x16ED JUMP JUMPDEST PUSH2 0x880 SWAP2 SWAP1 PUSH2 0x170A JUMP JUMPDEST SWAP7 POP POP POP POP JUMPDEST POP POP POP SWAP2 SWAP1 POP JUMP JUMPDEST PUSH1 0x40 MLOAD PUSH4 0xB3596F07 PUSH1 0xE0 SHL DUP2 MSTORE PUSH20 0x5979D7B546E38E414F7E9822514BE443A4800529 PUSH1 0x4 DUP3 ADD MSTORE PUSH1 0x0 SWAP1 DUP2 SWAP1 DUP2 SWAP1 DUP2 SWAP1 DUP2 SWAP1 DUP2 SWAP1 PUSH20 0xB56C2F0B653B2E0B10C9B928C8580AC5DF02C7C7 SWAP1 PUSH4 0xB3596F07 SWAP1 PUSH1 0x24 ADD PUSH1 0x20 PUSH1 0x40 MLOAD DUP1 DUP4 SUB DUP2 DUP7 GAS STATICCALL ISZERO DUP1 ISZERO PUSH2 0x8FE JUMPI RETURNDATASIZE PUSH1 0x0 DUP1 RETURNDATACOPY RETURNDATASIZE PUSH1 0x0 REVERT JUMPDEST POP POP POP POP PUSH1 0x40 MLOAD RETURNDATASIZE PUSH1 0x1F NOT PUSH1 0x1F DUP3 ADD AND DUP3 ADD DUP1 PUSH1 0x40 MSTORE POP DUP2 ADD SWAP1 PUSH2 0x922 SWAP2 SWAP1 PUSH2 0x1674 JUMP JUMPDEST PUSH1 0x40 MLOAD PUSH4 0xB3596F07 PUSH1 0xE0 SHL DUP2 MSTORE PUSH20 0x82AF49447D8A07E3BD95BD0D56F35241523FBAB1 PUSH1 0x4 DUP3 ADD MSTORE SWAP1 SWAP2 POP PUSH1 0x0 SWAP1 PUSH20 0xB56C2F0B653B2E0B10C9B928C8580AC5DF02C7C7 SWAP1 PUSH4 0xB3596F07 SWAP1 PUSH1 0x24 ADD PUSH1 0x20 PUSH1 0x40 MLOAD DUP1 DUP4 SUB DUP2 DUP7 GAS STATICCALL ISZERO DUP1 ISZERO PUSH2 0x98B JUMPI RETURNDATASIZE PUSH1 0x0 DUP1 RETURNDATACOPY RETURNDATASIZE PUSH1 0x0 REVERT JUMPDEST POP POP POP POP PUSH1 0x40 MLOAD RETURNDATASIZE PUSH1 0x1F NOT PUSH1 0x1F DUP3 ADD AND DUP3 ADD DUP1 PUSH1 0x40 MSTORE POP DUP2 ADD SWAP1 PUSH2 0x9AF SWAP2 SWAP1 PUSH2 0x1674 JUMP JUMPDEST PUSH1 0x40 MLOAD PUSH4 0x70A08231 PUSH1 0xE0 SHL DUP2 MSTORE PUSH1 0x1 PUSH1 0x1 PUSH1 0xA0 SHL SUB DUP14 AND PUSH1 0x4 DUP3 ADD MSTORE SWAP1 SWAP2 POP DUP2 SWAP1 DUP4 SWAP1 PUSH20 0x513C7E3A9C69CA3E22550EF58AC1C0088E918FFF SWAP1 PUSH4 0x70A08231 SWAP1 PUSH1 0x24 ADD PUSH1 0x20 PUSH1 0x40 MLOAD DUP1 DUP4 SUB DUP2 DUP7 GAS STATICCALL ISZERO DUP1 ISZERO PUSH2 0xA0E JUMPI RETURNDATASIZE PUSH1 0x0 DUP1 RETURNDATACOPY RETURNDATASIZE PUSH1 0x0 REVERT JUMPDEST POP POP POP POP PUSH1 0x40 MLOAD RETURNDATASIZE PUSH1 0x1F NOT PUSH1 0x1F DUP3 ADD AND DUP3 ADD DUP1 PUSH1 0x40 MSTORE POP DUP2 ADD SWAP1 PUSH2 0xA32 SWAP2 SWAP1 PUSH2 0x1674 JUMP JUMPDEST PUSH2 0xA3C SWAP2 SWAP1 PUSH2 0x16ED JUMP JUMPDEST PUSH2 0xA46 SWAP2 SWAP1 PUSH2 0x170A JUMP JUMPDEST PUSH1 0x40 MLOAD PUSH4 0x70A08231 PUSH1 0xE0 SHL DUP2 MSTORE PUSH1 0x1 PUSH1 0x1 PUSH1 0xA0 SHL SUB DUP14 AND PUSH1 0x4 DUP3 ADD MSTORE SWAP1 SWAP6 POP PUSH20 0x77CA01483F379E58174739308945F044E1A764DC SWAP1 PUSH4 0x70A08231 SWAP1 PUSH1 0x24 ADD PUSH1 0x20 PUSH1 0x40 MLOAD DUP1 DUP4 SUB DUP2 DUP7 GAS STATICCALL ISZERO DUP1 ISZERO PUSH2 0xAA1 JUMPI RETURNDATASIZE PUSH1 0x0 DUP1 RETURNDATACOPY RETURNDATASIZE PUSH1 0x0 REVERT JUMPDEST POP POP POP POP PUSH1 0x40 MLOAD RETURNDATASIZE PUSH1 0x1F NOT PUSH1 0x1F DUP3 ADD AND DUP3 ADD DUP1 PUSH1 0x40 MSTORE POP DUP2 ADD SWAP1 PUSH2 0xAC5 SWAP2 SWAP1 PUSH2 0x1674 JUMP JUMPDEST SWAP4 POP DUP1 PUSH2 0xAD2 DUP4 DUP12 PUSH2 0x16ED JUMP JUMPDEST PUSH2 0xADC SWAP2 SWAP1 PUSH2 0x170A JUMP JUMPDEST SWAP3 POP DUP10 PUSH2 0xAF2 JUMPI PUSH2 0xAED DUP4 DUP7 PUSH2 0x172C JUMP JUMPDEST PUSH2 0xAFC JUMP JUMPDEST PUSH2 0xAFC DUP4 DUP7 PUSH2 0x173F JUMP JUMPDEST SWAP5 POP DUP5 ISZERO PUSH2 0xBDC JUMPI PUSH1 0x0 DUP6 ISZERO PUSH2 0xB2E JUMPI DUP6 PUSH2 0xB1F DUP7 PUSH8 0xDE0B6B3A7640000 PUSH2 0x16ED JUMP JUMPDEST PUSH2 0xB29 SWAP2 SWAP1 PUSH2 0x170A JUMP JUMPDEST PUSH2 0xB31 JUMP JUMPDEST PUSH1 0x0 JUMPDEST SWAP1 POP DUP9 DUP2 LT PUSH2 0xB41 JUMPI PUSH1 0x0 PUSH2 0xB44 JUMP JUMPDEST PUSH1 0x1 JUMPDEST SWAP8 POP DUP8 ISZERO PUSH2 0xB95 JUMPI PUSH2 0xB5E DUP10 PUSH8 0xDE0B6B3A7640000 PUSH2 0x172C JUMP JUMPDEST PUSH2 0xB70 DUP7 PUSH8 0xDE0B6B3A7640000 PUSH2 0x16ED JUMP JUMPDEST PUSH2 0xB7A DUP9 DUP13 PUSH2 0x16ED JUMP JUMPDEST PUSH2 0xB84 SWAP2 SWAP1 PUSH2 0x172C JUMP JUMPDEST PUSH2 0xB8E SWAP2 SWAP1 PUSH2 0x170A JUMP JUMPDEST SWAP7 POP PUSH2 0xBDA JUMP JUMPDEST PUSH2 0xBA7 DUP10 PUSH8 0xDE0B6B3A7640000 PUSH2 0x172C JUMP JUMPDEST PUSH2 0xBB1 DUP8 DUP12 PUSH2 0x16ED JUMP JUMPDEST PUSH2 0xBC3 DUP8 PUSH8 0xDE0B6B3A7640000 PUSH2 0x16ED JUMP JUMPDEST PUSH2 0xBCD SWAP2 SWAP1 PUSH2 0x172C JUMP JUMPDEST PUSH2 0xBD7 SWAP2 SWAP1 PUSH2 0x170A JUMP JUMPDEST SWAP7 POP JUMPDEST POP JUMPDEST POP POP POP POP POP SWAP5 POP SWAP5 SWAP3 POP POP POP JUMP JUMPDEST ADDRESS PUSH32 0x0 PUSH1 0x1 PUSH1 0x1 PUSH1 0xA0 SHL SUB AND SUB PUSH2 0xC32 JUMPI PUSH1 0x40 MLOAD PUSH3 0x461BCD PUSH1 0xE5 SHL DUP2 MSTORE PUSH1 0x4 ADD PUSH2 0x378 SWAP1 PUSH2 0x161E JUMP JUMPDEST PUSH2 0xC60 PUSH20 0x82AF49447D8A07E3BD95BD0D56F35241523FBAB1 PUSH1 0x0 DUP1 MLOAD PUSH1 0x20 PUSH2 0x17E3 DUP4 CODECOPY DUP2 MLOAD SWAP2 MSTORE PUSH1 0x0 PUSH2 0x11E7 JUMP JUMPDEST PUSH2 0xC8E PUSH20 0x5979D7B546E38E414F7E9822514BE443A4800529 PUSH1 0x0 DUP1 MLOAD PUSH1 0x20 PUSH2 0x17E3 DUP4 CODECOPY DUP2 MLOAD SWAP2 MSTORE PUSH1 0x0 PUSH2 0x11E7 JUMP JUMPDEST PUSH2 0x524 PUSH20 0x513C7E3A9C69CA3E22550EF58AC1C0088E918FFF PUSH1 0x0 DUP1 MLOAD PUSH1 0x20 PUSH2 0x17E3 DUP4 CODECOPY DUP2 MLOAD SWAP2 MSTORE PUSH1 0x0 PUSH2 0x11E7 JUMP JUMPDEST PUSH1 0x0 DUP1 PUSH1 0x0 DUP1 PUSH1 0x0 DUP1 PUSH2 0xCCE DUP8 PUSH2 0xE6B JUMP JUMPDEST SWAP1 SWAP3 POP SWAP1 POP PUSH2 0xCDD DUP3 DUP8 PUSH2 0x173F JUMP JUMPDEST SWAP6 POP PUSH2 0xCE9 DUP2 DUP7 PUSH2 0x173F JUMP JUMPDEST SWAP5 POP PUSH2 0xCF5 DUP6 DUP8 PUSH2 0x172C JUMP JUMPDEST SWAP4 POP DUP6 ISZERO PUSH2 0xD1F JUMPI DUP6 PUSH2 0xD10 DUP7 PUSH8 0xDE0B6B3A7640000 PUSH2 0x16ED JUMP JUMPDEST PUSH2 0xD1A SWAP2 SWAP1 PUSH2 0x170A JUMP JUMPDEST PUSH2 0xD22 JUMP JUMPDEST PUSH1 0x0 JUMPDEST SWAP3 POP POP POP SWAP2 SWAP4 POP SWAP2 SWAP4 JUMP JUMPDEST PUSH1 0x40 MLOAD PUSH4 0x2FE4A15F PUSH1 0xE2 SHL DUP2 MSTORE PUSH1 0x1 PUSH1 0x1 PUSH1 0xA0 SHL SUB DUP3 AND PUSH1 0x4 DUP3 ADD MSTORE PUSH1 0x0 SWAP1 DUP2 SWAP1 PUSH1 0x0 DUP1 MLOAD PUSH1 0x20 PUSH2 0x17E3 DUP4 CODECOPY DUP2 MLOAD SWAP2 MSTORE SWAP1 PUSH4 0xBF92857C SWAP1 PUSH1 0x24 ADD PUSH1 0xC0 PUSH1 0x40 MLOAD DUP1 DUP4 SUB DUP2 DUP7 GAS STATICCALL ISZERO DUP1 ISZERO PUSH2 0xD84 JUMPI RETURNDATASIZE PUSH1 0x0 DUP1 RETURNDATACOPY RETURNDATASIZE PUSH1 0x0 REVERT JUMPDEST POP POP POP POP PUSH1 0x40 MLOAD RETURNDATASIZE PUSH1 0x1F NOT PUSH1 0x1F DUP3 ADD AND DUP3 ADD DUP1 PUSH1 0x40 MSTORE POP DUP2 ADD SWAP1 PUSH2 0xDA8 SWAP2 SWAP1 PUSH2 0x168D JUMP JUMPDEST POP POP POP SWAP3 POP POP POP PUSH1 0x0 DUP2 GT ISZERO PUSH2 0xE65 JUMPI PUSH1 0x40 MLOAD PUSH4 0xB3596F07 PUSH1 0xE0 SHL DUP2 MSTORE PUSH20 0x82AF49447D8A07E3BD95BD0D56F35241523FBAB1 PUSH1 0x4 DUP3 ADD MSTORE PUSH1 0x0 SWAP1 PUSH20 0xB56C2F0B653B2E0B10C9B928C8580AC5DF02C7C7 SWAP1 PUSH4 0xB3596F07 SWAP1 PUSH1 0x24 ADD PUSH1 0x20 PUSH1 0x40 MLOAD DUP1 DUP4 SUB DUP2 DUP7 GAS STATICCALL ISZERO DUP1 ISZERO PUSH2 0xE1E JUMPI RETURNDATASIZE PUSH1 0x0 DUP1 RETURNDATACOPY RETURNDATASIZE PUSH1 0x0 REVERT JUMPDEST POP POP POP POP PUSH1 0x40 MLOAD RETURNDATASIZE PUSH1 0x1F NOT PUSH1 0x1F DUP3 ADD AND DUP3 ADD DUP1 PUSH1 0x40 MSTORE POP DUP2 ADD SWAP1 PUSH2 0xE42 SWAP2 SWAP1 PUSH2 0x1674 JUMP JUMPDEST SWAP1 POP DUP1 PUSH2 0xE57 DUP4 PUSH8 0xDE0B6B3A7640000 PUSH2 0x16ED JUMP JUMPDEST PUSH2 0xE61 SWAP2 SWAP1 PUSH2 0x170A JUMP JUMPDEST SWAP3 POP POP JUMPDEST POP SWAP2 SWAP1 POP JUMP JUMPDEST PUSH1 0x40 MLOAD PUSH4 0x70A08231 PUSH1 0xE0 SHL DUP2 MSTORE PUSH1 0x1 PUSH1 0x1 PUSH1 0xA0 SHL SUB DUP3 AND PUSH1 0x4 DUP3 ADD MSTORE PUSH1 0x0 SWAP1 DUP2 SWAP1 PUSH20 0x513C7E3A9C69CA3E22550EF58AC1C0088E918FFF SWAP1 PUSH4 0x70A08231 SWAP1 PUSH1 0x24 ADD PUSH1 0x20 PUSH1 0x40 MLOAD DUP1 DUP4 SUB DUP2 DUP7 GAS STATICCALL ISZERO DUP1 ISZERO PUSH2 0xEC8 JUMPI RETURNDATASIZE PUSH1 0x0 DUP1 RETURNDATACOPY RETURNDATASIZE PUSH1 0x0 REVERT JUMPDEST POP POP POP POP PUSH1 0x40 MLOAD RETURNDATASIZE PUSH1 0x1F NOT PUSH1 0x1F DUP3 ADD AND DUP3 ADD DUP1 PUSH1 0x40 MSTORE POP DUP2 ADD SWAP1 PUSH2 0xEEC SWAP2 SWAP1 PUSH2 0x1674 JUMP JUMPDEST PUSH1 0x40 MLOAD PUSH4 0x70A08231 PUSH1 0xE0 SHL DUP2 MSTORE PUSH1 0x1 PUSH1 0x1 PUSH1 0xA0 SHL SUB DUP6 AND PUSH1 0x4 DUP3 ADD MSTORE SWAP1 SWAP3 POP PUSH20 0x77CA01483F379E58174739308945F044E1A764DC SWAP1 PUSH4 0x70A08231 SWAP1 PUSH1 0x24 ADD PUSH1 0x20 PUSH1 0x40 MLOAD DUP1 DUP4 SUB DUP2 DUP7 GAS STATICCALL ISZERO DUP1 ISZERO PUSH2 0xF47 JUMPI RETURNDATASIZE PUSH1 0x0 DUP1 RETURNDATACOPY RETURNDATASIZE PUSH1 0x0 REVERT JUMPDEST POP POP POP POP PUSH1 0x40 MLOAD RETURNDATASIZE PUSH1 0x1F NOT PUSH1 0x1F DUP3 ADD AND DUP3 ADD DUP1 PUSH1 0x40 MSTORE POP DUP2 ADD SWAP1 PUSH2 0xF6B SWAP2 SWAP1 PUSH2 0x1674 JUMP JUMPDEST SWAP1 POP SWAP2 POP SWAP2 JUMP JUMPDEST PUSH1 0x40 MLOAD PUSH4 0x2FE4A15F PUSH1 0xE2 SHL DUP2 MSTORE PUSH1 0x1 PUSH1 0x1 PUSH1 0xA0 SHL SUB DUP3 AND PUSH1 0x4 DUP3 ADD MSTORE PUSH1 0x0 SWAP1 DUP2 SWAP1 DUP2 SWAP1 PUSH1 0x0 DUP1 MLOAD PUSH1 0x20 PUSH2 0x17E3 DUP4 CODECOPY DUP2 MLOAD SWAP2 MSTORE SWAP1 PUSH4 0xBF92857C SWAP1 PUSH1 0x24 ADD PUSH1 0xC0 PUSH1 0x40 MLOAD DUP1 DUP4 SUB DUP2 DUP7 GAS STATICCALL ISZERO DUP1 ISZERO PUSH2 0xFCB JUMPI RETURNDATASIZE PUSH1 0x0 DUP1 RETURNDATACOPY RETURNDATASIZE PUSH1 0x0 REVERT JUMPDEST POP POP POP POP PUSH1 0x40 MLOAD RETURNDATASIZE PUSH1 0x1F NOT PUSH1 0x1F DUP3 ADD AND DUP3 ADD DUP1 PUSH1 0x40 MSTORE POP DUP2 ADD SWAP1 PUSH2 0xFEF SWAP2 SWAP1 PUSH2 0x168D JUMP JUMPDEST POP POP POP POP SWAP2 POP SWAP2 POP DUP2 PUSH1 0x0 EQ PUSH2 0x1021 JUMPI DUP2 PUSH2 0x1012 DUP3 PUSH8 0xDE0B6B3A7640000 PUSH2 0x16ED JUMP JUMPDEST PUSH2 0x101C SWAP2 SWAP1 PUSH2 0x170A JUMP JUMPDEST PUSH2 0xE61 JUMP JUMPDEST PUSH1 0x0 SWAP5 SWAP4 POP POP POP POP JUMP JUMPDEST ADDRESS PUSH32 0x0 PUSH1 0x1 PUSH1 0x1 PUSH1 0xA0 SHL SUB AND SUB PUSH2 0x1073 JUMPI PUSH1 0x40 MLOAD PUSH3 0x461BCD PUSH1 0xE5 SHL DUP2 MSTORE PUSH1 0x4 ADD PUSH2 0x378 SWAP1 PUSH2 0x161E JUMP JUMPDEST PUSH1 0x1 PUSH1 0x1 PUSH1 0xA0 SHL SUB DUP3 AND PUSH20 0x5979D7B546E38E414F7E9822514BE443A4800529 EQ PUSH2 0x10AF JUMPI PUSH1 0x40 MLOAD PUSH3 0x461BCD PUSH1 0xE5 SHL DUP2 MSTORE PUSH1 0x4 ADD PUSH2 0x378 SWAP1 PUSH2 0x164E JUMP JUMPDEST PUSH1 0x40 MLOAD PUSH4 0x1A4CA37B PUSH1 0xE2 SHL DUP2 MSTORE PUSH20 0x5979D7B546E38E414F7E9822514BE443A4800529 PUSH1 0x4 DUP3 ADD MSTORE PUSH1 0x24 DUP2 ADD DUP3 SWAP1 MSTORE ADDRESS PUSH1 0x44 DUP3 ADD MSTORE PUSH1 0x0 DUP1 MLOAD PUSH1 0x20 PUSH2 0x17E3 DUP4 CODECOPY DUP2 MLOAD SWAP2 MSTORE SWAP1 PUSH4 0x69328DEC SWAP1 PUSH1 0x64 ADD PUSH2 0x407 JUMP JUMPDEST PUSH1 0x40 MLOAD PUSH4 0x6EB1769F PUSH1 0xE1 SHL DUP2 MSTORE ADDRESS PUSH1 0x4 DUP3 ADD MSTORE PUSH1 0x1 PUSH1 0x1 PUSH1 0xA0 SHL SUB DUP4 DUP2 AND PUSH1 0x24 DUP4 ADD MSTORE PUSH1 0x0 SWAP2 SWAP1 DUP6 AND SWAP1 PUSH4 0xDD62ED3E SWAP1 PUSH1 0x44 ADD PUSH1 0x20 PUSH1 0x40 MLOAD DUP1 DUP4 SUB DUP2 DUP7 GAS STATICCALL ISZERO DUP1 ISZERO PUSH2 0x1151 JUMPI RETURNDATASIZE PUSH1 0x0 DUP1 RETURNDATACOPY RETURNDATASIZE PUSH1 0x0 REVERT JUMPDEST POP POP POP POP PUSH1 0x40 MLOAD RETURNDATASIZE PUSH1 0x1F NOT PUSH1 0x1F DUP3 ADD AND DUP3 ADD DUP1 PUSH1 0x40 MSTORE POP DUP2 ADD SWAP1 PUSH2 0x1175 SWAP2 SWAP1 PUSH2 0x1674 JUMP JUMPDEST SWAP1 POP PUSH2 0x11E1 DUP5 PUSH4 0x95EA7B3 PUSH1 0xE0 SHL DUP6 PUSH2 0x118E DUP7 DUP7 PUSH2 0x173F JUMP JUMPDEST PUSH1 0x40 MLOAD PUSH1 0x1 PUSH1 0x1 PUSH1 0xA0 SHL SUB SWAP1 SWAP3 AND PUSH1 0x24 DUP4 ADD MSTORE PUSH1 0x44 DUP3 ADD MSTORE PUSH1 0x64 ADD JUMPDEST PUSH1 0x40 DUP1 MLOAD PUSH1 0x1F NOT DUP2 DUP5 SUB ADD DUP2 MSTORE SWAP2 SWAP1 MSTORE PUSH1 0x20 DUP2 ADD DUP1 MLOAD PUSH1 0x1 PUSH1 0x1 PUSH1 0xE0 SHL SUB AND PUSH1 0x1 PUSH1 0x1 PUSH1 0xE0 SHL SUB NOT SWAP1 SWAP4 AND SWAP3 SWAP1 SWAP3 OR SWAP1 SWAP2 MSTORE PUSH2 0x12FC JUMP JUMPDEST POP POP POP POP JUMP JUMPDEST DUP1 ISZERO DUP1 PUSH2 0x1261 JUMPI POP PUSH1 0x40 MLOAD PUSH4 0x6EB1769F PUSH1 0xE1 SHL DUP2 MSTORE ADDRESS PUSH1 0x4 DUP3 ADD MSTORE PUSH1 0x1 PUSH1 0x1 PUSH1 0xA0 SHL SUB DUP4 DUP2 AND PUSH1 0x24 DUP4 ADD MSTORE DUP5 AND SWAP1 PUSH4 0xDD62ED3E SWAP1 PUSH1 0x44 ADD PUSH1 0x20 PUSH1 0x40 MLOAD DUP1 DUP4 SUB DUP2 DUP7 GAS STATICCALL ISZERO DUP1 ISZERO PUSH2 0x123B JUMPI RETURNDATASIZE PUSH1 0x0 DUP1 RETURNDATACOPY RETURNDATASIZE PUSH1 0x0 REVERT JUMPDEST POP POP POP POP PUSH1 0x40 MLOAD RETURNDATASIZE PUSH1 0x1F NOT PUSH1 0x1F DUP3 ADD AND DUP3 ADD DUP1 PUSH1 0x40 MSTORE POP DUP2 ADD SWAP1 PUSH2 0x125F SWAP2 SWAP1 PUSH2 0x1674 JUMP JUMPDEST ISZERO JUMPDEST PUSH2 0x12CC JUMPI PUSH1 0x40 MLOAD PUSH3 0x461BCD PUSH1 0xE5 SHL DUP2 MSTORE PUSH1 0x20 PUSH1 0x4 DUP3 ADD MSTORE PUSH1 0x36 PUSH1 0x24 DUP3 ADD MSTORE PUSH32 0x5361666545524332303A20617070726F76652066726F6D206E6F6E2D7A65726F PUSH1 0x44 DUP3 ADD MSTORE PUSH22 0x20746F206E6F6E2D7A65726F20616C6C6F77616E6365 PUSH1 0x50 SHL PUSH1 0x64 DUP3 ADD MSTORE PUSH1 0x84 ADD PUSH2 0x378 JUMP JUMPDEST PUSH1 0x40 MLOAD PUSH1 0x1 PUSH1 0x1 PUSH1 0xA0 SHL SUB DUP4 AND PUSH1 0x24 DUP3 ADD MSTORE PUSH1 0x44 DUP2 ADD DUP3 SWAP1 MSTORE PUSH2 0x44A SWAP1 DUP5 SWAP1 PUSH4 0x95EA7B3 PUSH1 0xE0 SHL SWAP1 PUSH1 0x64 ADD PUSH2 0x11AA JUMP JUMPDEST PUSH1 0x0 PUSH2 0x1351 DUP3 PUSH1 0x40 MLOAD DUP1 PUSH1 0x40 ADD PUSH1 0x40 MSTORE DUP1 PUSH1 0x20 DUP2 MSTORE PUSH1 0x20 ADD PUSH32 0x5361666545524332303A206C6F772D6C6576656C2063616C6C206661696C6564 DUP2 MSTORE POP DUP6 PUSH1 0x1 PUSH1 0x1 PUSH1 0xA0 SHL SUB AND PUSH2 0x13D1 SWAP1 SWAP3 SWAP2 SWAP1 PUSH4 0xFFFFFFFF AND JUMP JUMPDEST SWAP1 POP DUP1 MLOAD PUSH1 0x0 EQ DUP1 PUSH2 0x1372 JUMPI POP DUP1 DUP1 PUSH1 0x20 ADD SWAP1 MLOAD DUP2 ADD SWAP1 PUSH2 0x1372 SWAP2 SWAP1 PUSH2 0x1752 JUMP JUMPDEST PUSH2 0x44A JUMPI PUSH1 0x40 MLOAD PUSH3 0x461BCD PUSH1 0xE5 SHL DUP2 MSTORE PUSH1 0x20 PUSH1 0x4 DUP3 ADD MSTORE PUSH1 0x2A PUSH1 0x24 DUP3 ADD MSTORE PUSH32 0x5361666545524332303A204552433230206F7065726174696F6E20646964206E PUSH1 0x44 DUP3 ADD MSTORE PUSH10 0x1BDD081CDD58D8D95959 PUSH1 0xB2 SHL PUSH1 0x64 DUP3 ADD MSTORE PUSH1 0x84 ADD PUSH2 0x378 JUMP JUMPDEST PUSH1 0x60 PUSH2 0x13E0 DUP5 DUP5 PUSH1 0x0 DUP6 PUSH2 0x13E8 JUMP JUMPDEST SWAP5 SWAP4 POP POP POP POP JUMP JUMPDEST PUSH1 0x60 DUP3 SELFBALANCE LT ISZERO PUSH2 0x1449 JUMPI PUSH1 0x40 MLOAD PUSH3 0x461BCD PUSH1 0xE5 SHL DUP2 MSTORE PUSH1 0x20 PUSH1 0x4 DUP3 ADD MSTORE PUSH1 0x26 PUSH1 0x24 DUP3 ADD MSTORE PUSH32 0x416464726573733A20696E73756666696369656E742062616C616E636520666F PUSH1 0x44 DUP3 ADD MSTORE PUSH6 0x1C8818D85B1B PUSH1 0xD2 SHL PUSH1 0x64 DUP3 ADD MSTORE PUSH1 0x84 ADD PUSH2 0x378 JUMP JUMPDEST PUSH1 0x0 DUP1 DUP7 PUSH1 0x1 PUSH1 0x1 PUSH1 0xA0 SHL SUB AND DUP6 DUP8 PUSH1 0x40 MLOAD PUSH2 0x1465 SWAP2 SWAP1 PUSH2 0x1793 JUMP JUMPDEST PUSH1 0x0 PUSH1 0x40 MLOAD DUP1 DUP4 SUB DUP2 DUP6 DUP8 GAS CALL SWAP3 POP POP POP RETURNDATASIZE DUP1 PUSH1 0x0 DUP2 EQ PUSH2 0x14A2 JUMPI PUSH1 0x40 MLOAD SWAP2 POP PUSH1 0x1F NOT PUSH1 0x3F RETURNDATASIZE ADD AND DUP3 ADD PUSH1 0x40 MSTORE RETURNDATASIZE DUP3 MSTORE RETURNDATASIZE PUSH1 0x0 PUSH1 0x20 DUP5 ADD RETURNDATACOPY PUSH2 0x14A7 JUMP JUMPDEST PUSH1 0x60 SWAP2 POP JUMPDEST POP SWAP2 POP SWAP2 POP PUSH2 0x14B8 DUP8 DUP4 DUP4 DUP8 PUSH2 0x14C3 JUMP JUMPDEST SWAP8 SWAP7 POP POP POP POP POP POP POP JUMP JUMPDEST PUSH1 0x60 DUP4 ISZERO PUSH2 0x1532 JUMPI DUP3 MLOAD PUSH1 0x0 SUB PUSH2 0x152B JUMPI PUSH1 0x1 PUSH1 0x1 PUSH1 0xA0 SHL SUB DUP6 AND EXTCODESIZE PUSH2 0x152B JUMPI PUSH1 0x40 MLOAD PUSH3 0x461BCD PUSH1 0xE5 SHL DUP2 MSTORE PUSH1 0x20 PUSH1 0x4 DUP3 ADD MSTORE PUSH1 0x1D PUSH1 0x24 DUP3 ADD MSTORE PUSH32 0x416464726573733A2063616C6C20746F206E6F6E2D636F6E7472616374000000 PUSH1 0x44 DUP3 ADD MSTORE PUSH1 0x64 ADD PUSH2 0x378 JUMP JUMPDEST POP DUP2 PUSH2 0x13E0 JUMP JUMPDEST PUSH2 0x13E0 DUP4 DUP4 DUP2 MLOAD ISZERO PUSH2 0x1547 JUMPI DUP2 MLOAD DUP1 DUP4 PUSH1 0x20 ADD REVERT JUMPDEST DUP1 PUSH1 0x40 MLOAD PUSH3 0x461BCD PUSH1 0xE5 SHL DUP2 MSTORE PUSH1 0x4 ADD PUSH2 0x378 SWAP2 SWAP1 PUSH2 0x17AF JUMP JUMPDEST DUP1 CALLDATALOAD PUSH1 0x1 PUSH1 0x1 PUSH1 0xA0 SHL SUB DUP2 AND DUP2 EQ PUSH2 0x1578 JUMPI PUSH1 0x0 DUP1 REVERT JUMPDEST SWAP2 SWAP1 POP JUMP JUMPDEST PUSH1 0x0 DUP1 PUSH1 0x40 DUP4 DUP6 SUB SLT ISZERO PUSH2 0x1590 JUMPI PUSH1 0x0 DUP1 REVERT JUMPDEST PUSH2 0x1599 DUP4 PUSH2 0x1561 JUMP JUMPDEST SWAP5 PUSH1 0x20 SWAP4 SWAP1 SWAP4 ADD CALLDATALOAD SWAP4 POP POP POP JUMP JUMPDEST PUSH1 0x0 PUSH1 0x20 DUP3 DUP5 SUB SLT ISZERO PUSH2 0x15B9 JUMPI PUSH1 0x0 DUP1 REVERT JUMPDEST PUSH2 0x15C2 DUP3 PUSH2 0x1561 JUMP JUMPDEST SWAP4 SWAP3 POP POP POP JUMP JUMPDEST DUP1 ISZERO ISZERO DUP2 EQ PUSH2 0x15D7 JUMPI PUSH1 0x0 DUP1 REVERT JUMPDEST POP JUMP JUMPDEST PUSH1 0x0 DUP1 PUSH1 0x0 DUP1 PUSH1 0x80 DUP6 DUP8 SUB SLT ISZERO PUSH2 0x15F0 JUMPI PUSH1 0x0 DUP1 REVERT JUMPDEST PUSH2 0x15F9 DUP6 PUSH2 0x1561 JUMP JUMPDEST SWAP4 POP PUSH1 0x20 DUP6 ADD CALLDATALOAD PUSH2 0x1609 DUP2 PUSH2 0x15C9 JUMP JUMPDEST SWAP4 SWAP7 SWAP4 SWAP6 POP POP POP POP PUSH1 0x40 DUP3 ADD CALLDATALOAD SWAP2 PUSH1 0x60 ADD CALLDATALOAD SWAP1 JUMP JUMPDEST PUSH1 0x20 DUP1 DUP3 MSTORE PUSH1 0x16 SWAP1 DUP3 ADD MSTORE PUSH22 0x27B7363C903337B9103232B632B3B0BA32B1B0B63617 PUSH1 0x51 SHL PUSH1 0x40 DUP3 ADD MSTORE PUSH1 0x60 ADD SWAP1 JUMP JUMPDEST PUSH1 0x20 DUP1 DUP3 MSTORE PUSH1 0xC SWAP1 DUP3 ADD MSTORE PUSH12 0x57726F6E6720617373657421 PUSH1 0xA0 SHL PUSH1 0x40 DUP3 ADD MSTORE PUSH1 0x60 ADD SWAP1 JUMP JUMPDEST PUSH1 0x0 PUSH1 0x20 DUP3 DUP5 SUB SLT ISZERO PUSH2 0x1686 JUMPI PUSH1 0x0 DUP1 REVERT JUMPDEST POP MLOAD SWAP2 SWAP1 POP JUMP JUMPDEST PUSH1 0x0 DUP1 PUSH1 0x0 DUP1 PUSH1 0x0 DUP1 PUSH1 0xC0 DUP8 DUP10 SUB SLT ISZERO PUSH2 0x16A6 JUMPI PUSH1 0x0 DUP1 REVERT JUMPDEST DUP7 MLOAD SWAP6 POP PUSH1 0x20 DUP8 ADD MLOAD SWAP5 POP PUSH1 0x40 DUP8 ADD MLOAD SWAP4 POP PUSH1 0x60 DUP8 ADD MLOAD SWAP3 POP PUSH1 0x80 DUP8 ADD MLOAD SWAP2 POP PUSH1 0xA0 DUP8 ADD MLOAD SWAP1 POP SWAP3 SWAP6 POP SWAP3 SWAP6 POP SWAP3 SWAP6 JUMP JUMPDEST PUSH4 0x4E487B71 PUSH1 0xE0 SHL PUSH1 0x0 MSTORE PUSH1 0x11 PUSH1 0x4 MSTORE PUSH1 0x24 PUSH1 0x0 REVERT JUMPDEST DUP1 DUP3 MUL DUP2 ISZERO DUP3 DUP3 DIV DUP5 EQ OR PUSH2 0x1704 JUMPI PUSH2 0x1704 PUSH2 0x16D7 JUMP JUMPDEST SWAP3 SWAP2 POP POP JUMP JUMPDEST PUSH1 0x0 DUP3 PUSH2 0x1727 JUMPI PUSH4 0x4E487B71 PUSH1 0xE0 SHL PUSH1 0x0 MSTORE PUSH1 0x12 PUSH1 0x4 MSTORE PUSH1 0x24 PUSH1 0x0 REVERT JUMPDEST POP DIV SWAP1 JUMP JUMPDEST DUP2 DUP2 SUB DUP2 DUP2 GT ISZERO PUSH2 0x1704 JUMPI PUSH2 0x1704 PUSH2 0x16D7 JUMP JUMPDEST DUP1 DUP3 ADD DUP1 DUP3 GT ISZERO PUSH2 0x1704 JUMPI PUSH2 0x1704 PUSH2 0x16D7 JUMP JUMPDEST PUSH1 0x0 PUSH1 0x20 DUP3 DUP5 SUB SLT ISZERO PUSH2 0x1764 JUMPI PUSH1 0x0 DUP1 REVERT JUMPDEST DUP2 MLOAD PUSH2 0x15C2 DUP2 PUSH2 0x15C9 JUMP JUMPDEST PUSH1 0x0 JUMPDEST DUP4 DUP2 LT ISZERO PUSH2 0x178A JUMPI DUP2 DUP2 ADD MLOAD DUP4 DUP3 ADD MSTORE PUSH1 0x20 ADD PUSH2 0x1772 JUMP JUMPDEST POP POP PUSH1 0x0 SWAP2 ADD MSTORE JUMP JUMPDEST PUSH1 0x0 DUP3 MLOAD PUSH2 0x17A5 DUP2 DUP5 PUSH1 0x20 DUP8 ADD PUSH2 0x176F JUMP JUMPDEST SWAP2 SWAP1 SWAP2 ADD SWAP3 SWAP2 POP POP JUMP JUMPDEST PUSH1 0x20 DUP2 MSTORE PUSH1 0x0 DUP3 MLOAD DUP1 PUSH1 0x20 DUP5 ADD MSTORE PUSH2 0x17CE DUP2 PUSH1 0x40 DUP6 ADD PUSH1 0x20 DUP8 ADD PUSH2 0x176F JUMP JUMPDEST PUSH1 0x1F ADD PUSH1 0x1F NOT AND SWAP2 SWAP1 SWAP2 ADD PUSH1 0x40 ADD SWAP3 SWAP2 POP POP JUMP INVALID STOP STOP STOP STOP STOP STOP STOP STOP STOP STOP STOP STOP PUSH26 0x4A61358D6845594F94DC1DB02A252B5B4814ADA2646970667358 0x22 SLT KECCAK256 SIGNEXTEND 0xE6 PUSH11 0x85AA03FD9D6C124E117AC4 DUP6 0x4F PUSH3 0xC81E2C 0x21 PUSH28 0xA43AAE57F13AED17991464736F6C6343000813003300000000000000 "},"methodIdentifiers":{"AAVE_ORACLE_V3()":"46961ece","AAVE_POOL_V3()":"a11d8c6b","A_WSTETH_ADDR_AAVEV3()":"85651c8c","D_WETH_ADDR_AAVEV3()":"37a62fa2","LOGIC_ADDRESS()":"43aeb899","WETH_ADDR()":"82dfc5f7","WSTETH_ADDR()":"e107e027","borrow(address,uint256)":"4b8a3529","deposit(address,uint256)":"47e7ef24","enterProtocol()":"40409c7e","exitProtocol()":"66d5f55d","getAvailableBorrowsETH(address)":"7ee113e5","getAvailableWithdrawsStETH(address)":"529b1d03","getNetAssetsInfo(address)":"6d459d74","getProtocolAccountData(address)":"88b03142","getProtocolCollateralRatio(address)":"8caff8ed","getProtocolLeverageAmount(address,bool,uint256,uint256)":"62d5380b","repay(address,uint256)":"22867d78","withdraw(address,uint256)":"f3fef3a3"}},"storageLayout":{"storage":[],"types":null}}}}