{"contracts/1inch/OneinchCaller.sol":{"OneinchCaller":{"abi":[{"inputs":[],"name":"ETH_ADDR","outputs":[{"internalType":"address","name":"","type":"address"}],"stateMutability":"view","type":"function"},{"inputs":[],"name":"oneInchRouter","outputs":[{"internalType":"address","name":"","type":"address"}],"stateMutability":"view","type":"function"}],"evm":{"bytecode":{"linkReferences":{},"object":"6080604052348015600f57600080fd5b5060bd8061001e6000396000f3fe6080604052348015600f57600080fd5b506004361060325760003560e01c80637753f47b146037578063ac3af20814606d575b600080fd5b605173eeeeeeeeeeeeeeeeeeeeeeeeeeeeeeeeeeeeeeee81565b6040516001600160a01b03909116815260200160405180910390f35b6051731111111254eeb25477b68fb85ed929f73a9605828156fea2646970667358221220598daadf13bd6b32fd8d8f450dda4382375a7404b77d7a68a098254527289d4864736f6c63430008130033","opcodes":"PUSH1 0x80 PUSH1 0x40 MSTORE CALLVALUE DUP1 ISZERO PUSH1 0xF JUMPI PUSH1 0x0 DUP1 REVERT JUMPDEST POP PUSH1 0xBD DUP1 PUSH2 0x1E PUSH1 0x0 CODECOPY PUSH1 0x0 RETURN INVALID PUSH1 0x80 PUSH1 0x40 MSTORE CALLVALUE DUP1 ISZERO PUSH1 0xF JUMPI PUSH1 0x0 DUP1 REVERT JUMPDEST POP PUSH1 0x4 CALLDATASIZE LT PUSH1 0x32 JUMPI PUSH1 0x0 CALLDATALOAD PUSH1 0xE0 SHR DUP1 PUSH4 0x7753F47B EQ PUSH1 0x37 JUMPI DUP1 PUSH4 0xAC3AF208 EQ PUSH1 0x6D JUMPI JUMPDEST PUSH1 0x0 DUP1 REVERT JUMPDEST PUSH1 0x51 PUSH20 0xEEEEEEEEEEEEEEEEEEEEEEEEEEEEEEEEEEEEEEEE DUP2 JUMP JUMPDEST PUSH1 0x40 MLOAD PUSH1 0x1 PUSH1 0x1 PUSH1 0xA0 SHL SUB SWAP1 SWAP2 AND DUP2 MSTORE PUSH1 0x20 ADD PUSH1 0x40 MLOAD DUP1 SWAP2 SUB SWAP1 RETURN JUMPDEST PUSH1 0x51 PUSH20 0x1111111254EEB25477B68FB85ED929F73A960582 DUP2 JUMP INVALID LOG2 PUSH5 0x6970667358 0x22 SLT KECCAK256 MSIZE DUP14 0xAA 0xDF SGT 0xBD PUSH12 0x32FD8D8F450DDA4382375A74 DIV 0xB7 PUSH30 0x7A68A098254527289D4864736F6C63430008130033000000000000000000 "},"methodIdentifiers":{"ETH_ADDR()":"7753f47b","oneInchRouter()":"ac3af208"}},"storageLayout":{"storage":[],"types":null}}}}