{"contracts/Vault.sol":{"Vault":{"abi":[{"anonymous":false,"inputs":[{"indexed":false,"internalType":"address","name":"previousAdmin","type":"address"},{"indexed":false,"internalType":"address","name":"newAdmin","type":"address"}],"name":"AdminChanged","type":"event"},{"anonymous":false,"inputs":[{"indexed":true,"internalType":"address","name":"owner","type":"address"},{"indexed":true,"internalType":"address","name":"spender","type":"address"},{"indexed":false,"internalType":"uint256","name":"value","type":"uint256"}],"name":"Approval","type":"event"},{"anonymous":false,"inputs":[{"indexed":true,"internalType":"address","name":"beacon","type":"address"}],"name":"BeaconUpgraded","type":"event"},{"anonymous":false,"inputs":[{"indexed":false,"internalType":"uint8","name":"protocolId","type":"uint8"},{"indexed":false,"internalType":"address","name":"owner","type":"address"},{"indexed":false,"internalType":"address","name":"receiver","type":"address"},{"indexed":false,"internalType":"address","name":"token","type":"address"},{"indexed":false,"internalType":"uint256","name":"assetsGet","type":"uint256"},{"indexed":false,"internalType":"uint256","name":"shares","type":"uint256"},{"indexed":false,"internalType":"uint256","name":"flashloanSelector","type":"uint256"}],"name":"DeleverageWithdraw","type":"event"},{"anonymous":false,"inputs":[{"indexed":true,"internalType":"address","name":"sender","type":"address"},{"indexed":true,"internalType":"address","name":"owner","type":"address"},{"indexed":false,"internalType":"uint256","name":"assets","type":"uint256"},{"indexed":false,"internalType":"uint256","name":"shares","type":"uint256"}],"name":"Deposit","type":"event"},{"anonymous":false,"inputs":[{"indexed":false,"internalType":"uint8","name":"version","type":"uint8"}],"name":"Initialized","type":"event"},{"anonymous":false,"inputs":[{"indexed":true,"internalType":"address","name":"previousOwner","type":"address"},{"indexed":true,"internalType":"address","name":"newOwner","type":"address"}],"name":"OwnershipTransferred","type":"event"},{"anonymous":false,"inputs":[{"indexed":false,"internalType":"address","name":"account","type":"address"}],"name":"Paused","type":"event"},{"anonymous":false,"inputs":[{"indexed":true,"internalType":"address","name":"from","type":"address"},{"indexed":true,"internalType":"address","name":"to","type":"address"},{"indexed":false,"internalType":"uint256","name":"value","type":"uint256"}],"name":"Transfer","type":"event"},{"anonymous":false,"inputs":[{"indexed":false,"internalType":"address","name":"account","type":"address"}],"name":"Unpaused","type":"event"},{"anonymous":false,"inputs":[{"indexed":false,"internalType":"uint256","name":"oldDeleverageExitFeeRate","type":"uint256"},{"indexed":false,"internalType":"uint256","name":"newDeleverageExitFeeRate","type":"uint256"}],"name":"UpdateDeleverageExitFeeRate","type":"event"},{"anonymous":false,"inputs":[{"indexed":false,"internalType":"uint256","name":"oldExitFeeRate","type":"uint256"},{"indexed":false,"internalType":"uint256","name":"newExitFeeRate","type":"uint256"}],"name":"UpdateExitFeeRate","type":"event"},{"anonymous":false,"inputs":[{"indexed":false,"internalType":"address","name":"oldFeeReceiver","type":"address"},{"indexed":false,"internalType":"address","name":"newFeeReceiver","type":"address"}],"name":"UpdateFeeReceiver","type":"event"},{"anonymous":false,"inputs":[{"indexed":false,"internalType":"uint256","name":"oldCapacityLimit","type":"uint256"},{"indexed":false,"internalType":"uint256","name":"newCapacityLimit","type":"uint256"}],"name":"UpdateMarketCapacity","type":"event"},{"anonymous":false,"inputs":[{"indexed":false,"internalType":"address","name":"oldStrategy","type":"address"},{"indexed":false,"internalType":"address","name":"newStrategy","type":"address"}],"name":"UpdateStrategy","type":"event"},{"anonymous":false,"inputs":[{"indexed":true,"internalType":"address","name":"implementation","type":"address"}],"name":"Upgraded","type":"event"},{"anonymous":false,"inputs":[{"indexed":true,"internalType":"address","name":"sender","type":"address"},{"indexed":true,"internalType":"address","name":"receiver","type":"address"},{"indexed":true,"internalType":"address","name":"owner","type":"address"},{"indexed":false,"internalType":"uint256","name":"assets","type":"uint256"},{"indexed":false,"internalType":"uint256","name":"shares","type":"uint256"}],"name":"Withdraw","type":"event"},{"inputs":[],"name":"MAX_SAFE_AGGREGATED_RATIO","outputs":[{"internalType":"uint256","name":"","type":"uint256"}],"stateMutability":"view","type":"function"},{"inputs":[],"name":"MIN_SAFE_AGGREGATED_RATIO","outputs":[{"internalType":"uint256","name":"","type":"uint256"}],"stateMutability":"view","type":"function"},{"inputs":[],"name":"PERMISSIBLE_LIMIT","outputs":[{"internalType":"uint256","name":"","type":"uint256"}],"stateMutability":"view","type":"function"},{"inputs":[],"name":"WETH_ADDR","outputs":[{"internalType":"address","name":"","type":"address"}],"stateMutability":"view","type":"function"},{"inputs":[],"name":"WSTETH_ADDR","outputs":[{"internalType":"address","name":"","type":"address"}],"stateMutability":"view","type":"function"},{"inputs":[{"internalType":"uint256","name":"_marketCapacity","type":"uint256"},{"internalType":"uint256","name":"_exitFeeRate","type":"uint256"},{"internalType":"uint256","name":"_deleverageExitFeeRate","type":"uint256"}],"name":"__Vault_init","outputs":[],"stateMutability":"nonpayable","type":"function"},{"inputs":[{"internalType":"address","name":"owner","type":"address"},{"internalType":"address","name":"spender","type":"address"}],"name":"allowance","outputs":[{"internalType":"uint256","name":"","type":"uint256"}],"stateMutability":"view","type":"function"},{"inputs":[{"internalType":"address","name":"spender","type":"address"},{"internalType":"uint256","name":"amount","type":"uint256"}],"name":"approve","outputs":[{"internalType":"bool","name":"","type":"bool"}],"stateMutability":"nonpayable","type":"function"},{"inputs":[],"name":"asset","outputs":[{"internalType":"address","name":"","type":"address"}],"stateMutability":"view","type":"function"},{"inputs":[],"name":"balance","outputs":[{"internalType":"uint256","name":"","type":"uint256"}],"stateMutability":"view","type":"function"},{"inputs":[{"internalType":"address","name":"account","type":"address"}],"name":"balanceOf","outputs":[{"internalType":"uint256","name":"","type":"uint256"}],"stateMutability":"view","type":"function"},{"inputs":[{"internalType":"uint256","name":"shares","type":"uint256"}],"name":"convertToAssets","outputs":[{"internalType":"uint256","name":"assets","type":"uint256"}],"stateMutability":"view","type":"function"},{"inputs":[{"internalType":"uint256","name":"assets","type":"uint256"}],"name":"convertToShares","outputs":[{"internalType":"uint256","name":"shares","type":"uint256"}],"stateMutability":"view","type":"function"},{"inputs":[],"name":"decimals","outputs":[{"internalType":"uint8","name":"","type":"uint8"}],"stateMutability":"view","type":"function"},{"inputs":[{"internalType":"address","name":"spender","type":"address"},{"internalType":"uint256","name":"subtractedValue","type":"uint256"}],"name":"decreaseAllowance","outputs":[{"internalType":"bool","name":"","type":"bool"}],"stateMutability":"nonpayable","type":"function"},{"inputs":[],"name":"deleverageExitFeeRate","outputs":[{"internalType":"uint256","name":"","type":"uint256"}],"stateMutability":"view","type":"function"},{"inputs":[{"internalType":"uint8","name":"_protocolId","type":"uint8"},{"internalType":"address","name":"_token","type":"address"},{"internalType":"uint256","name":"_assets","type":"uint256"},{"internalType":"bytes","name":"_swapData","type":"bytes"},{"internalType":"uint256","name":"_swapGetMin","type":"uint256"},{"internalType":"uint256","name":"_flashloanSelector","type":"uint256"},{"internalType":"address","name":"_owner","type":"address"},{"internalType":"address","name":"_receiver","type":"address"}],"name":"deleverageWithdraw","outputs":[{"internalType":"uint256","name":"shares","type":"uint256"}],"stateMutability":"nonpayable","type":"function"},{"inputs":[{"internalType":"uint256","name":"_assets","type":"uint256"},{"internalType":"address","name":"_receiver","type":"address"}],"name":"deposit","outputs":[{"internalType":"uint256","name":"shares","type":"uint256"}],"stateMutability":"nonpayable","type":"function"},{"inputs":[],"name":"exitFeeRate","outputs":[{"internalType":"uint256","name":"","type":"uint256"}],"stateMutability":"view","type":"function"},{"inputs":[],"name":"feeReceiver","outputs":[{"internalType":"address","name":"","type":"address"}],"stateMutability":"view","type":"function"},{"inputs":[{"internalType":"uint256","name":"_wstETHAmount","type":"uint256"}],"name":"getDeleverageWithdrawAmount","outputs":[{"internalType":"uint256","name":"amount","type":"uint256"}],"stateMutability":"view","type":"function"},{"inputs":[{"internalType":"uint256","name":"_wstETHAmount","type":"uint256"}],"name":"getDeleverageWithdrawFee","outputs":[{"internalType":"uint256","name":"","type":"uint256"}],"stateMutability":"view","type":"function"},{"inputs":[],"name":"getVersion","outputs":[{"internalType":"string","name":"","type":"string"}],"stateMutability":"pure","type":"function"},{"inputs":[{"internalType":"uint256","name":"_wstETHAmount","type":"uint256"}],"name":"getWithdrawFee","outputs":[{"internalType":"uint256","name":"","type":"uint256"}],"stateMutability":"view","type":"function"},{"inputs":[{"internalType":"address","name":"spender","type":"address"},{"internalType":"uint256","name":"addedValue","type":"uint256"}],"name":"increaseAllowance","outputs":[{"internalType":"bool","name":"","type":"bool"}],"stateMutability":"nonpayable","type":"function"},{"inputs":[],"name":"lastTimestamp","outputs":[{"internalType":"uint256","name":"","type":"uint256"}],"stateMutability":"view","type":"function"},{"inputs":[],"name":"marketCapacity","outputs":[{"internalType":"uint256","name":"","type":"uint256"}],"stateMutability":"view","type":"function"},{"inputs":[{"internalType":"address","name":"","type":"address"}],"name":"maxDeposit","outputs":[{"internalType":"uint256","name":"","type":"uint256"}],"stateMutability":"view","type":"function"},{"inputs":[{"internalType":"address","name":"","type":"address"}],"name":"maxMint","outputs":[{"internalType":"uint256","name":"","type":"uint256"}],"stateMutability":"view","type":"function"},{"inputs":[{"internalType":"address","name":"owner","type":"address"}],"name":"maxRedeem","outputs":[{"internalType":"uint256","name":"","type":"uint256"}],"stateMutability":"view","type":"function"},{"inputs":[{"internalType":"address","name":"owner","type":"address"}],"name":"maxWithdraw","outputs":[{"internalType":"uint256","name":"","type":"uint256"}],"stateMutability":"view","type":"function"},{"inputs":[{"internalType":"uint256","name":"_shares","type":"uint256"},{"internalType":"address","name":"_receiver","type":"address"}],"name":"mint","outputs":[{"internalType":"uint256","name":"assets","type":"uint256"}],"stateMutability":"nonpayable","type":"function"},{"inputs":[],"name":"name","outputs":[{"internalType":"string","name":"","type":"string"}],"stateMutability":"view","type":"function"},{"inputs":[],"name":"owner","outputs":[{"internalType":"address","name":"","type":"address"}],"stateMutability":"view","type":"function"},{"inputs":[],"name":"pause","outputs":[],"stateMutability":"nonpayable","type":"function"},{"inputs":[],"name":"paused","outputs":[{"internalType":"bool","name":"","type":"bool"}],"stateMutability":"view","type":"function"},{"inputs":[{"internalType":"uint256","name":"assets","type":"uint256"}],"name":"previewDeposit","outputs":[{"internalType":"uint256","name":"","type":"uint256"}],"stateMutability":"view","type":"function"},{"inputs":[{"internalType":"uint256","name":"shares","type":"uint256"}],"name":"previewMint","outputs":[{"internalType":"uint256","name":"","type":"uint256"}],"stateMutability":"view","type":"function"},{"inputs":[{"internalType":"uint256","name":"shares","type":"uint256"}],"name":"previewRedeem","outputs":[{"internalType":"uint256","name":"","type":"uint256"}],"stateMutability":"view","type":"function"},{"inputs":[{"internalType":"uint256","name":"assets","type":"uint256"}],"name":"previewWithdraw","outputs":[{"internalType":"uint256","name":"","type":"uint256"}],"stateMutability":"view","type":"function"},{"inputs":[],"name":"proxiableUUID","outputs":[{"internalType":"bytes32","name":"","type":"bytes32"}],"stateMutability":"view","type":"function"},{"inputs":[{"internalType":"uint256","name":"_shares","type":"uint256"},{"internalType":"address","name":"_receiver","type":"address"},{"internalType":"address","name":"_owner","type":"address"}],"name":"redeem","outputs":[{"internalType":"uint256","name":"assetsAfterFee","type":"uint256"}],"stateMutability":"nonpayable","type":"function"},{"inputs":[],"name":"renounceOwnership","outputs":[],"stateMutability":"nonpayable","type":"function"},{"inputs":[],"name":"strategy","outputs":[{"internalType":"contract IStrategy","name":"","type":"address"}],"stateMutability":"view","type":"function"},{"inputs":[{"internalType":"address","name":"_token","type":"address"}],"name":"sweep","outputs":[],"stateMutability":"nonpayable","type":"function"},{"inputs":[],"name":"symbol","outputs":[{"internalType":"string","name":"","type":"string"}],"stateMutability":"view","type":"function"},{"inputs":[],"name":"totalAssets","outputs":[{"internalType":"uint256","name":"","type":"uint256"}],"stateMutability":"view","type":"function"},{"inputs":[],"name":"totalLockedAmount","outputs":[{"internalType":"uint256","name":"","type":"uint256"}],"stateMutability":"view","type":"function"},{"inputs":[],"name":"totalSupply","outputs":[{"internalType":"uint256","name":"","type":"uint256"}],"stateMutability":"view","type":"function"},{"inputs":[{"internalType":"address","name":"to","type":"address"},{"internalType":"uint256","name":"amount","type":"uint256"}],"name":"transfer","outputs":[{"internalType":"bool","name":"","type":"bool"}],"stateMutability":"nonpayable","type":"function"},{"inputs":[{"internalType":"address","name":"from","type":"address"},{"internalType":"address","name":"to","type":"address"},{"internalType":"uint256","name":"amount","type":"uint256"}],"name":"transferFrom","outputs":[{"internalType":"bool","name":"","type":"bool"}],"stateMutability":"nonpayable","type":"function"},{"inputs":[{"internalType":"address","name":"newOwner","type":"address"}],"name":"transferOwnership","outputs":[],"stateMutability":"nonpayable","type":"function"},{"inputs":[],"name":"unpause","outputs":[],"stateMutability":"nonpayable","type":"function"},{"inputs":[{"internalType":"uint256","name":"_deleverageExitFeeRate","type":"uint256"}],"name":"updateDeleverageExitFeeRate","outputs":[],"stateMutability":"nonpayable","type":"function"},{"inputs":[{"internalType":"uint256","name":"_exitFeeRate","type":"uint256"}],"name":"updateExitFeeRate","outputs":[],"stateMutability":"nonpayable","type":"function"},{"inputs":[{"internalType":"uint256","name":"_newCapacityLimit","type":"uint256"}],"name":"updateMarketCapacity","outputs":[],"stateMutability":"nonpayable","type":"function"},{"inputs":[{"internalType":"address","name":"_newStrategy","type":"address"}],"name":"updateStrategy","outputs":[],"stateMutability":"nonpayable","type":"function"},{"inputs":[{"internalType":"address","name":"newImplementation","type":"address"}],"name":"upgradeTo","outputs":[],"stateMutability":"nonpayable","type":"function"},{"inputs":[{"internalType":"address","name":"newImplementation","type":"address"},{"internalType":"bytes","name":"data","type":"bytes"}],"name":"upgradeToAndCall","outputs":[],"stateMutability":"payable","type":"function"},{"inputs":[{"internalType":"uint256","name":"_assets","type":"uint256"},{"internalType":"address","name":"_receiver","type":"address"},{"internalType":"address","name":"_owner","type":"address"}],"name":"withdraw","outputs":[{"internalType":"uint256","name":"shares","type":"uint256"}],"stateMutability":"nonpayable","type":"function"},{"stateMutability":"payable","type":"receive"}],"evm":{"bytecode":{"linkReferences":{},"object":"60a06040523060805234801561001457600080fd5b50608051613b1061004c60003960008181610df101528181610e3101528181610f2201528181610f620152610ff50152613b106000f3fe60806040526004361061039b5760003560e01c8063734ae638116101dc578063b460af9411610102578063d905777e116100a0578063ef2cd24b1161006f578063ef2cd24b14610a65578063ef8b30f71461099d578063f2fde38b14610a81578063ff29375c14610aa157600080fd5b8063d905777e146109dd578063daccaf63146109fd578063dd62ed3e14610a1d578063e107e02714610a3d57600080fd5b8063ba087652116100dc578063ba0876521461095b578063c63d75b61461097b578063c6e6f5921461099d578063ce96cb77146109bd57600080fd5b8063b460af941461090f578063b6106f3f1461092f578063b69ef8a81461094657600080fd5b806395d89b411161017a578063a9059cbb11610149578063a9059cbb14610893578063af56c207146108b3578063b3d7f6b9146108ce578063b3f00674146108ee57600080fd5b806395d89b411461081d578063a457c2d714610832578063a4c611ab14610852578063a8c62e761461087257600080fd5b80638456cb59116101b65780638456cb59146107aa5780638da5cb5b146107bf5780638e3e721f146107dd57806394bf804d146107fd57600080fd5b8063734ae6381461074b5780637f6c81b71461076257806382dfc5f71461078257600080fd5b8063308b2b81116102c15780634cdad5061161025f57806365ae14b51161022e57806365ae14b5146106bf5780636e553f65146106df57806370a08231146106ff578063715018a61461073657600080fd5b80634cdad5061461042a5780634f1ef2861461067f57806352d1902d146106925780635c975abb146106a757600080fd5b806338d52e0f1161029b57806338d52e0f146105f7578063395093511461062a5780633f4ba83a1461064a578063402d267d1461065f57600080fd5b8063308b2b811461058e578063313ce567146105aa5780633659cfe6146105d757600080fd5b80630d8e6e2c1161033957806323b872dd1161030857806323b872dd1461050d57806325bd41421461052d57806329c23e4a1461054d5780632ca636301461056d57600080fd5b80630d8e6e2c1461049a57806318160ddd146104c957806319d8ac61146104df5780631dc51887146104f657600080fd5b806306fdde031161037557806306fdde031461040857806307a2d13a1461042a578063095ea7b31461044a5780630a28a4771461047a57600080fd5b806301681a62146103a757806301e1d114146103c957806305a9f274146103f157600080fd5b366103a257005b600080fd5b3480156103b357600080fd5b506103c76103c23660046133a6565b610ac1565b005b3480156103d557600080fd5b506103de610b83565b6040519081526020015b60405180910390f35b3480156103fd57600080fd5b506103de6101985481565b34801561041457600080fd5b5061041d610c29565b6040516103e89190613411565b34801561043657600080fd5b506103de610445366004613424565b610cbc565b34801561045657600080fd5b5061046a61046536600461343d565b610ccf565b60405190151581526020016103e8565b34801561048657600080fd5b506103de610495366004613424565b610ce7565b3480156104a657600080fd5b5060408051808201909152600681526576302e302e3160d01b602082015261041d565b3480156104d557600080fd5b50610130546103de565b3480156104eb57600080fd5b506103de6101975481565b34801561050257600080fd5b506103de6101965481565b34801561051957600080fd5b5061046a610528366004613467565b610cf4565b34801561053957600080fd5b506103c7610548366004613424565b610d1a565b34801561055957600080fd5b506103de610568366004613424565b610dc8565b34801561057957600080fd5b506103de610588366004613424565b50600090565b34801561059a57600080fd5b506103de6709b6e64a8ec6000081565b3480156105b657600080fd5b5061016054600160a01b900460ff1660405160ff90911681526020016103e8565b3480156105e357600080fd5b506103c76105f23660046133a6565b610de7565b34801561060357600080fd5b50610160546001600160a01b03165b6040516001600160a01b0390911681526020016103e8565b34801561063657600080fd5b5061046a61064536600461343d565b610ec6565b34801561065657600080fd5b506103c7610ee8565b34801561066b57600080fd5b506103de61067a3660046133a6565b610efa565b6103c761068d366004613546565b610f18565b34801561069e57600080fd5b506103de610fe8565b3480156106b357600080fd5b5060c95460ff1661046a565b3480156106cb57600080fd5b506103de6106da366004613594565b61109b565b3480156106eb57600080fd5b506103de6106fa366004613639565b611282565b34801561070b57600080fd5b506103de61071a3660046133a6565b6001600160a01b0316600090815261012e602052604090205490565b34801561074257600080fd5b506103c7611329565b34801561075757600080fd5b506103de6101945481565b34801561076e57600080fd5b506103c761077d366004613424565b61133b565b34801561078e57600080fd5b506106127382af49447d8a07e3bd95bd0d56f35241523fbab181565b3480156107b657600080fd5b506103c76113c7565b3480156107cb57600080fd5b506033546001600160a01b0316610612565b3480156107e957600080fd5b506103c76107f8366004613665565b6113d7565b34801561080957600080fd5b506103de610818366004613639565b61167a565b34801561082957600080fd5b5061041d611696565b34801561083e57600080fd5b5061046a61084d36600461343d565b6116a6565b34801561085e57600080fd5b506103c761086d366004613424565b61172c565b34801561087e57600080fd5b5061019254610612906001600160a01b031681565b34801561089f57600080fd5b5061046a6108ae36600461343d565b6117a5565b3480156108bf57600080fd5b506103de66071afd498d000081565b3480156108da57600080fd5b506103de6108e9366004613424565b6117b3565b3480156108fa57600080fd5b5061019354610612906001600160a01b031681565b34801561091b57600080fd5b506103de61092a366004613691565b6117c0565b34801561093b57600080fd5b506103de6101955481565b34801561095257600080fd5b506103de6118f4565b34801561096757600080fd5b506103de610976366004613691565b611962565b34801561098757600080fd5b506103de6109963660046133a6565b5060001990565b3480156109a957600080fd5b506103de6109b8366004613424565b611a8a565b3480156109c957600080fd5b506103de6109d83660046133a6565b611a97565b3480156109e957600080fd5b506103de6109f83660046133a6565b611abc565b348015610a0957600080fd5b506103c7610a183660046133a6565b611adb565b348015610a2957600080fd5b506103de610a383660046136cd565b611bb0565b348015610a4957600080fd5b50610612735979d7b546e38e414f7e9822514be443a480052981565b348015610a7157600080fd5b506103de670d2f13f7789f000081565b348015610a8d57600080fd5b506103c7610a9c3660046133a6565b611bdc565b348015610aad57600080fd5b506103de610abc366004613424565b611c52565b610ac9611c67565b6040516370a0823160e01b81523060048201526000906001600160a01b038316906370a0823190602401602060405180830381865afa158015610b10573d6000803e3d6000fd5b505050506040513d601f19601f82011682018060405250810190610b3491906136f7565b9050610b5c610b4b6033546001600160a01b031690565b6001600160a01b0384169083611cc1565b478015610b7e57610b7e610b786033546001600160a01b031690565b82611d13565b505050565b6000670de0b6b3a7640000610b986101305490565b61019260009054906101000a90046001600160a01b03166001600160a01b0316639e65741e6040518163ffffffff1660e01b8152600401602060405180830381865afa158015610bec573d6000803e3d6000fd5b505050506040513d601f19601f82011682018060405250810190610c1091906136f7565b610c1a9190613726565b610c249190613753565b905090565b60606101318054610c3990613775565b80601f0160208091040260200160405190810160405280929190818152602001828054610c6590613775565b8015610cb25780601f10610c8757610100808354040283529160200191610cb2565b820191906000526020600020905b815481529060010190602001808311610c9557829003601f168201915b5050505050905090565b6000610cc9826000611e2c565b92915050565b600033610cdd818585611e64565b5060019392505050565b6000610cc9826001611f89565b600033610d02858285611fbc565b610d0d858585612030565b60019150505b9392505050565b610d22611c67565b60018110158015610d34575060788111155b610d855760405162461bcd60e51b815260206004820152601b60248201527f4578697420666565206578636565647320746865206c696d697421000000000060448201526064015b60405180910390fd5b6101955460408051918252602082018390527f394967f6fe403cda0905b23e81b928c5ca79107000b1404c6b3185442f05213c910160405180910390a161019555565b6000806127106101955484610ddd9190613726565b610d139190613753565b6001600160a01b037f0000000000000000000000000000000000000000000000000000000000000000163003610e2f5760405162461bcd60e51b8152600401610d7c906137af565b7f00000000000000000000000000000000000000000000000000000000000000006001600160a01b0316610e78600080516020613a94833981519152546001600160a01b031690565b6001600160a01b031614610e9e5760405162461bcd60e51b8152600401610d7c906137fb565b610ea7816121dd565b60408051600080825260208201909252610ec3918391906121e5565b50565b600033610cdd818585610ed98383611bb0565b610ee39190613847565b611e64565b610ef0611c67565b610ef8612350565b565b6000610f046123a2565b610f0f576000610cc9565b60001992915050565b6001600160a01b037f0000000000000000000000000000000000000000000000000000000000000000163003610f605760405162461bcd60e51b8152600401610d7c906137af565b7f00000000000000000000000000000000000000000000000000000000000000006001600160a01b0316610fa9600080516020613a94833981519152546001600160a01b031690565b6001600160a01b031614610fcf5760405162461bcd60e51b8152600401610d7c906137fb565b610fd8826121dd565b610fe4828260016121e5565b5050565b6000306001600160a01b037f000000000000000000000000000000000000000000000000000000000000000016146110885760405162461bcd60e51b815260206004820152603860248201527f555550535570677261646561626c653a206d757374206e6f742062652063616c60448201527f6c6564207468726f7567682064656c656761746563616c6c00000000000000006064820152608401610d7c565b50600080516020613a9483398151915290565b60006110a56123bd565b6110ad612403565b60001987036110c6576110bf83611a97565b965061111e565b6110cf83611a97565b87111561111e5760405162461bcd60e51b815260206004820152601f60248201527f455243343632363a207769746864726177206d6f7265207468616e206d6178006044820152606401610d7c565b61112787610ce7565b9050600061113488611c52565b61113e908961385a565b9050336001600160a01b0385161461115b5761115b843384611fbc565b61019254604051631230762960e31b81526000916001600160a01b031690639183b14890611193908e9086908d908d9060040161386d565b6020604051808303816000875af11580156111b2573d6000803e3d6000fd5b505050506040513d601f19601f820116820180604052508101906111d691906136f7565b90506111e2858461245c565b611201735979d7b546e38e414f7e9822514be443a48005298583611cc1565b6040805160ff8d1681526001600160a01b038781166020830152868116828401528c1660608201526080810183905260a0810185905260c0810188905290517fbf42197cea68e17a6606f4c97561623fe935aa499de73253b38e5b0c5cbbc1a99181900360e00190a15050611276600160fb55565b98975050505050505050565b600061128c6123bd565b611294612403565b6000198303611313576040516370a0823160e01b8152336004820152735979d7b546e38e414f7e9822514be443a4800529906370a0823190602401602060405180830381865afa1580156112ec573d6000803e3d6000fd5b505050506040513d601f19601f8201168201806040525081019061131091906136f7565b92505b61131d8383612593565b9050610cc9600160fb55565b611331611c67565b610ef86000612606565b611343611c67565b6101945481116113845760405162461bcd60e51b815260206004820152600c60248201526b556e737570706f727465642160a01b6044820152606401610d7c565b6101945460408051918252602082018390527f7f3306669f28a6aa13d0f709be2bd4f3e21d2f37aee9358846a50e1988ee4832910160405180910390a161019455565b6113cf611c67565b610ef8612658565b600054610100900460ff16158080156113f75750600054600160ff909116105b806114115750303b158015611411575060005460ff166001145b6114745760405162461bcd60e51b815260206004820152602e60248201527f496e697469616c697a61626c653a20636f6e747261637420697320616c72656160448201526d191e481a5b9a5d1a585b1a5e995960921b6064820152608401610d7c565b6000805460ff191660011790558015611497576000805461ff0019166101001790555b61149f612695565b6114a76126c4565b6115036040518060400160405280601781526020017f4554482d737445544820737472617465677920706f6f6c000000000000000000815250604051806040016040528060058152602001640e4de8aa8960db1b8152506126eb565b611520735979d7b546e38e414f7e9822514be443a480052961271c565b68056bc75e2d6310000084116115705760405162461bcd60e51b815260206004820152601560248201527457726f6e67206d61726b657443617061636974792160581b6044820152606401610d7c565b61019484905560018310801590611588575060788311155b6115d45760405162461bcd60e51b815260206004820152601b60248201527f4578697420666565206578636565647320746865206c696d69742100000000006044820152606401610d7c565b610195839055600182108015906115ec575060788211155b6116085760405162461bcd60e51b8152600401610d7c906138a0565b610196829055426101975533600090815261012d60205260409020805460ff191660011790558015611674576000805461ff0019169055604051600181527f7f26b83ff96e1f2b6a682f133852f6798a09c465da95921460cefb38474024989060200160405180910390a15b50505050565b60006116846123bd565b61168c612403565b61131d838361274c565b60606101328054610c3990613775565b600033816116b48286611bb0565b9050838110156117145760405162461bcd60e51b815260206004820152602560248201527f45524332303a2064656372656173656420616c6c6f77616e63652062656c6f77604482015264207a65726f60d81b6064820152608401610d7c565b6117218286868403611e64565b506001949350505050565b611734611c67565b60018110158015611746575060788111155b6117625760405162461bcd60e51b8152600401610d7c906138a0565b6101965460408051918252602082018390527fb96285ed1b61973efc25abef1b7e839fba579e6ff4aa89f46caf0ad6a532e958910160405180910390a161019655565b600033610cdd818585612030565b6000610cc9826001611e2c565b60006117ca6123bd565b6117d2612403565b60001984036117eb576117e482611a97565b9350611843565b6117f482611a97565b8411156118435760405162461bcd60e51b815260206004820152601f60248201527f455243343632363a207769746864726177206d6f7265207468616e206d6178006044820152606401610d7c565b61184c84610ce7565b9050600061185985610dc8565b611863908661385a565b61019254604051632e1a7d4d60e01b8152600481018390529192506000916001600160a01b0390911690632e1a7d4d906024016020604051808303816000875af11580156118b5573d6000803e3d6000fd5b505050506040513d601f19601f820116820180604052508101906118d991906136f7565b90506118e83386868487612766565b5050610d13600160fb55565b6101925460408051628bb5fb60e41b815290516000926001600160a01b0316916308bb5fb09160048083019260209291908290030181865afa15801561193e573d6000803e3d6000fd5b505050506040513d601f19601f82011682018060405250810190610c2491906136f7565b600061196c6123bd565b611974612403565b600019840361198d5761198682611abc565b93506119e5565b61199682611abc565b8411156119e55760405162461bcd60e51b815260206004820152601d60248201527f455243343632363a2072656465656d206d6f7265207468616e206d61780000006044820152606401610d7c565b60006119f085610cbc565b90506119fb81610dc8565b611a05908261385a565b61019254604051632e1a7d4d60e01b8152600481018390529193506000916001600160a01b0390911690632e1a7d4d906024016020604051808303816000875af1158015611a57573d6000803e3d6000fd5b505050506040513d601f19601f82011682018060405250810190611a7b91906136f7565b90506118e8338686848a612766565b6000610cc9826000611f89565b6001600160a01b038116600090815261012e6020526040812054610cc9906000611e2c565b6001600160a01b038116600090815261012e6020526040812054610cc9565b611ae3611c67565b6001600160a01b038116611b2b5760405162461bcd60e51b815260206004820152600f60248201526e5374726174656779206572726f722160881b6044820152606401610d7c565b61019254604080516001600160a01b03928316815291831660208301527f1e0f9bc8b0f77d9ae5d0ad2b0a996f775d47a5d0b473e464166e7d559f384734910160405180910390a161019280546001600160a01b0319166001600160a01b038316179055610ec3735979d7b546e38e414f7e9822514be443a480052982600019612813565b6001600160a01b03918216600090815261012f6020908152604080832093909416825291909152205490565b611be4611c67565b6001600160a01b038116611c495760405162461bcd60e51b815260206004820152602660248201527f4f776e61626c653a206e6577206f776e657220697320746865207a65726f206160448201526564647265737360d01b6064820152608401610d7c565b610ec381612606565b6000806127106101965484610ddd9190613726565b6033546001600160a01b03163314610ef85760405162461bcd60e51b815260206004820181905260248201527f4f776e61626c653a2063616c6c6572206973206e6f7420746865206f776e65726044820152606401610d7c565b604080516001600160a01b038416602482015260448082018490528251808303909101815260649091019091526020810180516001600160e01b031663a9059cbb60e01b179052610b7e9084906128f8565b80471015611d635760405162461bcd60e51b815260206004820152601d60248201527f416464726573733a20696e73756666696369656e742062616c616e63650000006044820152606401610d7c565b6000826001600160a01b03168260405160006040518083038185875af1925050503d8060008114611db0576040519150601f19603f3d011682016040523d82523d6000602084013e611db5565b606091505b5050905080610b7e5760405162461bcd60e51b815260206004820152603a60248201527f416464726573733a20756e61626c6520746f2073656e642076616c75652c207260448201527f6563697069656e74206d617920686176652072657665727465640000000000006064820152608401610d7c565b600080611e396101305490565b90508015611e5a57611e55611e4c610b83565b859083866129cd565b611e5c565b835b949350505050565b6001600160a01b038316611ec65760405162461bcd60e51b8152602060048201526024808201527f45524332303a20617070726f76652066726f6d20746865207a65726f206164646044820152637265737360e01b6064820152608401610d7c565b6001600160a01b038216611f275760405162461bcd60e51b815260206004820152602260248201527f45524332303a20617070726f766520746f20746865207a65726f206164647265604482015261737360f01b6064820152608401610d7c565b6001600160a01b03838116600081815261012f602090815260408083209487168084529482529182902085905590518481527f8c5be1e5ebec7d5bd14f71427d1e84f3dd0314c0f7b2291e5b200ac8c7c3b925910160405180910390a3505050565b600080611f966101305490565b9050831580611fa3575080155b611e5a57611e5581611fb3610b83565b869190866129cd565b6000611fc88484611bb0565b9050600019811461167457818110156120235760405162461bcd60e51b815260206004820152601d60248201527f45524332303a20696e73756666696369656e7420616c6c6f77616e63650000006044820152606401610d7c565b6116748484848403611e64565b6001600160a01b0383166120945760405162461bcd60e51b815260206004820152602560248201527f45524332303a207472616e736665722066726f6d20746865207a65726f206164604482015264647265737360d81b6064820152608401610d7c565b6001600160a01b0382166120f65760405162461bcd60e51b815260206004820152602360248201527f45524332303a207472616e7366657220746f20746865207a65726f206164647260448201526265737360e81b6064820152608401610d7c565b6001600160a01b038316600090815261012e60205260409020548181101561216f5760405162461bcd60e51b815260206004820152602660248201527f45524332303a207472616e7366657220616d6f756e7420657863656564732062604482015265616c616e636560d01b6064820152608401610d7c565b6001600160a01b03808516600081815261012e602052604080822086860390559286168082529083902080548601905591517fddf252ad1be2c89b69c2b068fc378daa952ba7f163c4a11628f55a4df523b3ef906121d09086815260200190565b60405180910390a3611674565b610ec3611c67565b7f4910fdfa16fed3260ed0e7147f7cc6da11a60208b5b9406d12a635614ffd91435460ff161561221857610b7e83612a2a565b826001600160a01b03166352d1902d6040518163ffffffff1660e01b8152600401602060405180830381865afa925050508015612272575060408051601f3d908101601f1916820190925261226f918101906136f7565b60015b6122d55760405162461bcd60e51b815260206004820152602e60248201527f45524331393637557067726164653a206e657720696d706c656d656e7461746960448201526d6f6e206973206e6f74205555505360901b6064820152608401610d7c565b600080516020613a9483398151915281146123445760405162461bcd60e51b815260206004820152602960248201527f45524331393637557067726164653a20756e737570706f727465642070726f786044820152681a58589b195555525160ba1b6064820152608401610d7c565b50610b7e838383612ac6565b612358612aeb565b60c9805460ff191690557f5db9ee0a495bf2e6ff9c91a7834c1ba4fdd244a5e8aa4e537bd38aeae4b073aa335b6040516001600160a01b03909116815260200160405180910390a1565b6000806123ad610b83565b1180610c24575050610130541590565b60c95460ff1615610ef85760405162461bcd60e51b815260206004820152601060248201526f14185d5cd8589b194e881c185d5cd95960821b6044820152606401610d7c565b600260fb54036124555760405162461bcd60e51b815260206004820152601f60248201527f5265656e7472616e637947756172643a207265656e7472616e742063616c6c006044820152606401610d7c565b600260fb55565b6001600160a01b0382166124bc5760405162461bcd60e51b815260206004820152602160248201527f45524332303a206275726e2066726f6d20746865207a65726f206164647265736044820152607360f81b6064820152608401610d7c565b6001600160a01b038216600090815261012e6020526040902054818110156125315760405162461bcd60e51b815260206004820152602260248201527f45524332303a206275726e20616d6f756e7420657863656564732062616c616e604482015261636560f01b6064820152608401610d7c565b6001600160a01b038316600081815261012e60209081526040808320868603905561013080548790039055518581529192917fddf252ad1be2c89b69c2b068fc378daa952ba7f163c4a11628f55a4df523b3ef910160405180910390a3505050565b600061259e82610efa565b8311156125ed5760405162461bcd60e51b815260206004820152601e60248201527f455243343632363a206465706f736974206d6f7265207468616e206d617800006044820152606401610d7c565b60006125f884611a8a565b9050610d1333848684612b34565b603380546001600160a01b038381166001600160a01b0319831681179093556040519116919082907f8be0079c531659141344cd1fd0a4f28419497f9722a3daafe3b4186f6b6457e090600090a35050565b6126606123bd565b60c9805460ff191660011790557f62e78cea01bee320cd4e420270b5ea74000d11b0c9f74754ebdbfc544b05a2586123853390565b600054610100900460ff166126bc5760405162461bcd60e51b8152600401610d7c906138e6565b610ef8612c9a565b600054610100900460ff16610ef85760405162461bcd60e51b8152600401610d7c906138e6565b600054610100900460ff166127125760405162461bcd60e51b8152600401610d7c906138e6565b610fe48282612cca565b600054610100900460ff166127435760405162461bcd60e51b8152600401610d7c906138e6565b610ec381612d0c565b600080612758846117b3565b9050610d1333848387612b34565b826001600160a01b0316856001600160a01b03161461278a5761278a838683611fbc565b612794838261245c565b610160546127ac906001600160a01b03168584612d92565b826001600160a01b0316846001600160a01b0316866001600160a01b03167ffbde797d201c681b91056529119e0b02407c7bb96a4a2c75c01fc9667232c8db8585604051612804929190918252602082015260400190565b60405180910390a45050505050565b604051636eb1769f60e11b81523060048201526001600160a01b038381166024830152600091839186169063dd62ed3e90604401602060405180830381865afa158015612864573d6000803e3d6000fd5b505050506040513d601f19601f8201168201806040525081019061288891906136f7565b6128929190613847565b6040516001600160a01b03851660248201526044810182905290915061167490859063095ea7b360e01b906064015b60408051601f198184030181529190526020810180516001600160e01b03166001600160e01b031990931692909217909152612dc2565b600061294d826040518060400160405280602081526020017f5361666545524332303a206c6f772d6c6576656c2063616c6c206661696c6564815250856001600160a01b0316612e359092919063ffffffff16565b905080516000148061296e57508080602001905181019061296e9190613931565b610b7e5760405162461bcd60e51b815260206004820152602a60248201527f5361666545524332303a204552433230206f7065726174696f6e20646964206e6044820152691bdd081cdd58d8d9595960b21b6064820152608401610d7c565b6000806129db868686612e44565b905060018360028111156129f1576129f1613953565b148015612a0e575060008480612a0957612a0961373d565b868809115b15612a2157612a1e600182613847565b90505b95945050505050565b6001600160a01b0381163b612a975760405162461bcd60e51b815260206004820152602d60248201527f455243313936373a206e657720696d706c656d656e746174696f6e206973206e60448201526c1bdd08184818dbdb9d1c9858dd609a1b6064820152608401610d7c565b600080516020613a9483398151915280546001600160a01b0319166001600160a01b0392909216919091179055565b612acf83612ef3565b600082511180612adc5750805b15610b7e576116748383612f33565b60c95460ff16610ef85760405162461bcd60e51b815260206004820152601460248201527314185d5cd8589b194e881b9bdd081c185d5cd95960621b6044820152606401610d7c565b61019454612b40610b83565b612b4a9084613847565b1115612b985760405162461bcd60e51b815260206004820152601a60248201527f457863656564696e67206d61726b65742063617061636974792e0000000000006044820152606401610d7c565b612bb8735979d7b546e38e414f7e9822514be443a480052985308561301e565b612bc28382613056565b6101925460405163b6b55f2560e01b8152600481018490526001600160a01b039091169063b6b55f25906024016020604051808303816000875af1158015612c0e573d6000803e3d6000fd5b505050506040513d601f19601f82011682018060405250810190612c3291906136f7565b50816101986000828254612c469190613847565b909155505060408051838152602081018390526001600160a01b0380861692908716917fdcbc1c05240f31ff3ad067ef1ee35ce4997762752e3a095284754544f4c709d7910160405180910390a350505050565b600054610100900460ff16612cc15760405162461bcd60e51b8152600401610d7c906138e6565b610ef833612606565b600054610100900460ff16612cf15760405162461bcd60e51b8152600401610d7c906138e6565b610131612cfe83826139b7565b50610132610b7e82826139b7565b600054610100900460ff16612d335760405162461bcd60e51b8152600401610d7c906138e6565b600080612d3f83613119565b9150915081612d4f576012612d51565b805b61016080546001600160a01b039095166001600160a01b031960ff93909316600160a01b02929092166001600160a81b031990951694909417179092555050565b6040516001600160a01b038316602482015260448101829052610b7e90849063a9059cbb60e01b906064016128c1565b6000612e17826040518060400160405280602081526020017f5361666545524332303a206c6f772d6c6576656c2063616c6c206661696c6564815250856001600160a01b0316612e359092919063ffffffff16565b805190915015610b7e578080602001905181019061296e9190613931565b6060611e5c84846000856131f7565b6000808060001985870985870292508281108382030391505080600003612e7e57838281612e7457612e7461373d565b0492505050610d13565b808411612e8a57600080fd5b60008486880960026001871981018816978890046003810283188082028403028082028403028082028403028082028403028082028403029081029092039091026000889003889004909101858311909403939093029303949094049190911702949350505050565b612efc81612a2a565b6040516001600160a01b038216907fbc7cd75a20ee27fd9adebab32041f755214dbc6bffa90cc0225b39da2e5c2d3b90600090a250565b60606001600160a01b0383163b612f9b5760405162461bcd60e51b815260206004820152602660248201527f416464726573733a2064656c65676174652063616c6c20746f206e6f6e2d636f6044820152651b9d1c9858dd60d21b6064820152608401610d7c565b600080846001600160a01b031684604051612fb69190613a77565b600060405180830381855af49150503d8060008114612ff1576040519150601f19603f3d011682016040523d82523d6000602084013e612ff6565b606091505b5091509150612a218282604051806060016040528060278152602001613ab4602791396132d2565b6040516001600160a01b03808516602483015283166044820152606481018290526116749085906323b872dd60e01b906084016128c1565b6001600160a01b0382166130ac5760405162461bcd60e51b815260206004820152601f60248201527f45524332303a206d696e7420746f20746865207a65726f2061646472657373006044820152606401610d7c565b8061013060008282546130bf9190613847565b90915550506001600160a01b038216600081815261012e60209081526040808320805486019055518481527fddf252ad1be2c89b69c2b068fc378daa952ba7f163c4a11628f55a4df523b3ef910160405180910390a35050565b60408051600481526024810182526020810180516001600160e01b031663313ce56760e01b17905290516000918291829182916001600160a01b0387169161316091613a77565b6000604051808303816000865af19150503d806000811461319d576040519150601f19603f3d011682016040523d82523d6000602084013e6131a2565b606091505b50915091508180156131b657506020815110155b156131ea576000818060200190518101906131d191906136f7565b905060ff81116131e8576001969095509350505050565b505b5060009485945092505050565b6060824710156132585760405162461bcd60e51b815260206004820152602660248201527f416464726573733a20696e73756666696369656e742062616c616e636520666f6044820152651c8818d85b1b60d21b6064820152608401610d7c565b600080866001600160a01b031685876040516132749190613a77565b60006040518083038185875af1925050503d80600081146132b1576040519150601f19603f3d011682016040523d82523d6000602084013e6132b6565b606091505b50915091506132c7878383876132eb565b979650505050505050565b606083156132e1575081610d13565b610d138383613360565b6060831561335a578251600003613353576001600160a01b0385163b6133535760405162461bcd60e51b815260206004820152601d60248201527f416464726573733a2063616c6c20746f206e6f6e2d636f6e74726163740000006044820152606401610d7c565b5081611e5c565b611e5c83835b8151156133705781518083602001fd5b8060405162461bcd60e51b8152600401610d7c9190613411565b80356001600160a01b03811681146133a157600080fd5b919050565b6000602082840312156133b857600080fd5b610d138261338a565b60005b838110156133dc5781810151838201526020016133c4565b50506000910152565b600081518084526133fd8160208601602086016133c1565b601f01601f19169290920160200192915050565b602081526000610d1360208301846133e5565b60006020828403121561343657600080fd5b5035919050565b6000806040838503121561345057600080fd5b6134598361338a565b946020939093013593505050565b60008060006060848603121561347c57600080fd5b6134858461338a565b92506134936020850161338a565b9150604084013590509250925092565b634e487b7160e01b600052604160045260246000fd5b600082601f8301126134ca57600080fd5b813567ffffffffffffffff808211156134e5576134e56134a3565b604051601f8301601f19908116603f0116810190828211818310171561350d5761350d6134a3565b8160405283815286602085880101111561352657600080fd5b836020870160208301376000602085830101528094505050505092915050565b6000806040838503121561355957600080fd5b6135628361338a565b9150602083013567ffffffffffffffff81111561357e57600080fd5b61358a858286016134b9565b9150509250929050565b600080600080600080600080610100898b0312156135b157600080fd5b883560ff811681146135c257600080fd5b97506135d060208a0161338a565b965060408901359550606089013567ffffffffffffffff8111156135f357600080fd5b6135ff8b828c016134b9565b9550506080890135935060a0890135925061361c60c08a0161338a565b915061362a60e08a0161338a565b90509295985092959890939650565b6000806040838503121561364c57600080fd5b8235915061365c6020840161338a565b90509250929050565b60008060006060848603121561367a57600080fd5b505081359360208301359350604090920135919050565b6000806000606084860312156136a657600080fd5b833592506136b66020850161338a565b91506136c46040850161338a565b90509250925092565b600080604083850312156136e057600080fd5b6136e98361338a565b915061365c6020840161338a565b60006020828403121561370957600080fd5b5051919050565b634e487b7160e01b600052601160045260246000fd5b8082028115828204841417610cc957610cc9613710565b634e487b7160e01b600052601260045260246000fd5b60008261377057634e487b7160e01b600052601260045260246000fd5b500490565b600181811c9082168061378957607f821691505b6020821081036137a957634e487b7160e01b600052602260045260246000fd5b50919050565b6020808252602c908201527f46756e6374696f6e206d7573742062652063616c6c6564207468726f7567682060408201526b19195b1959d85d1958d85b1b60a21b606082015260800190565b6020808252602c908201527f46756e6374696f6e206d7573742062652063616c6c6564207468726f7567682060408201526b6163746976652070726f787960a01b606082015260800190565b80820180821115610cc957610cc9613710565b81810381811115610cc957610cc9613710565b60ff8516815283602082015260806040820152600061388f60808301856133e5565b905082606083015295945050505050565b60208082526026908201527f44656c65766572616765204578697420666565206578636565647320746865206040820152656c696d69742160d01b606082015260800190565b6020808252602b908201527f496e697469616c697a61626c653a20636f6e7472616374206973206e6f74206960408201526a6e697469616c697a696e6760a81b606082015260800190565b60006020828403121561394357600080fd5b81518015158114610d1357600080fd5b634e487b7160e01b600052602160045260246000fd5b601f821115610b7e57600081815260208120601f850160051c810160208610156139905750805b601f850160051c820191505b818110156139af5782815560010161399c565b505050505050565b815167ffffffffffffffff8111156139d1576139d16134a3565b6139e5816139df8454613775565b84613969565b602080601f831160018114613a1a5760008415613a025750858301515b600019600386901b1c1916600185901b1785556139af565b600085815260208120601f198616915b82811015613a4957888601518255948401946001909101908401613a2a565b5085821015613a675787850151600019600388901b60f8161c191681555b5050505050600190811b01905550565b60008251613a898184602087016133c1565b919091019291505056fe360894a13ba1a3210667c828492db98dca3e2076cc3735a920a3ca505d382bbc416464726573733a206c6f772d6c6576656c2064656c65676174652063616c6c206661696c6564a2646970667358221220753260983050fe4a69eafbbe4854d7fd6c1e3bf30b0d38917f33bb055a475af564736f6c63430008130033","opcodes":"PUSH1 0xA0 PUSH1 0x40 MSTORE ADDRESS PUSH1 0x80 MSTORE CALLVALUE DUP1 ISZERO PUSH2 0x14 JUMPI PUSH1 0x0 DUP1 REVERT JUMPDEST POP PUSH1 0x80 MLOAD PUSH2 0x3B10 PUSH2 0x4C PUSH1 0x0 CODECOPY PUSH1 0x0 DUP2 DUP2 PUSH2 0xDF1 ADD MSTORE DUP2 DUP2 PUSH2 0xE31 ADD MSTORE DUP2 DUP2 PUSH2 0xF22 ADD MSTORE DUP2 DUP2 PUSH2 0xF62 ADD MSTORE PUSH2 0xFF5 ADD MSTORE PUSH2 0x3B10 PUSH1 0x0 RETURN INVALID PUSH1 0x80 PUSH1 0x40 MSTORE PUSH1 0x4 CALLDATASIZE LT PUSH2 0x39B JUMPI PUSH1 0x0 CALLDATALOAD PUSH1 0xE0 SHR DUP1 PUSH4 0x734AE638 GT PUSH2 0x1DC JUMPI DUP1 PUSH4 0xB460AF94 GT PUSH2 0x102 JUMPI DUP1 PUSH4 0xD905777E GT PUSH2 0xA0 JUMPI DUP1 PUSH4 0xEF2CD24B GT PUSH2 0x6F JUMPI DUP1 PUSH4 0xEF2CD24B EQ PUSH2 0xA65 JUMPI DUP1 PUSH4 0xEF8B30F7 EQ PUSH2 0x99D JUMPI DUP1 PUSH4 0xF2FDE38B EQ PUSH2 0xA81 JUMPI DUP1 PUSH4 0xFF29375C EQ PUSH2 0xAA1 JUMPI PUSH1 0x0 DUP1 REVERT JUMPDEST DUP1 PUSH4 0xD905777E EQ PUSH2 0x9DD JUMPI DUP1 PUSH4 0xDACCAF63 EQ PUSH2 0x9FD JUMPI DUP1 PUSH4 0xDD62ED3E EQ PUSH2 0xA1D JUMPI DUP1 PUSH4 0xE107E027 EQ PUSH2 0xA3D JUMPI PUSH1 0x0 DUP1 REVERT JUMPDEST DUP1 PUSH4 0xBA087652 GT PUSH2 0xDC JUMPI DUP1 PUSH4 0xBA087652 EQ PUSH2 0x95B JUMPI DUP1 PUSH4 0xC63D75B6 EQ PUSH2 0x97B JUMPI DUP1 PUSH4 0xC6E6F592 EQ PUSH2 0x99D JUMPI DUP1 PUSH4 0xCE96CB77 EQ PUSH2 0x9BD JUMPI PUSH1 0x0 DUP1 REVERT JUMPDEST DUP1 PUSH4 0xB460AF94 EQ PUSH2 0x90F JUMPI DUP1 PUSH4 0xB6106F3F EQ PUSH2 0x92F JUMPI DUP1 PUSH4 0xB69EF8A8 EQ PUSH2 0x946 JUMPI PUSH1 0x0 DUP1 REVERT JUMPDEST DUP1 PUSH4 0x95D89B41 GT PUSH2 0x17A JUMPI DUP1 PUSH4 0xA9059CBB GT PUSH2 0x149 JUMPI DUP1 PUSH4 0xA9059CBB EQ PUSH2 0x893 JUMPI DUP1 PUSH4 0xAF56C207 EQ PUSH2 0x8B3 JUMPI DUP1 PUSH4 0xB3D7F6B9 EQ PUSH2 0x8CE JUMPI DUP1 PUSH4 0xB3F00674 EQ PUSH2 0x8EE JUMPI PUSH1 0x0 DUP1 REVERT JUMPDEST DUP1 PUSH4 0x95D89B41 EQ PUSH2 0x81D JUMPI DUP1 PUSH4 0xA457C2D7 EQ PUSH2 0x832 JUMPI DUP1 PUSH4 0xA4C611AB EQ PUSH2 0x852 JUMPI DUP1 PUSH4 0xA8C62E76 EQ PUSH2 0x872 JUMPI PUSH1 0x0 DUP1 REVERT JUMPDEST DUP1 PUSH4 0x8456CB59 GT PUSH2 0x1B6 JUMPI DUP1 PUSH4 0x8456CB59 EQ PUSH2 0x7AA JUMPI DUP1 PUSH4 0x8DA5CB5B EQ PUSH2 0x7BF JUMPI DUP1 PUSH4 0x8E3E721F EQ PUSH2 0x7DD JUMPI DUP1 PUSH4 0x94BF804D EQ PUSH2 0x7FD JUMPI PUSH1 0x0 DUP1 REVERT JUMPDEST DUP1 PUSH4 0x734AE638 EQ PUSH2 0x74B JUMPI DUP1 PUSH4 0x7F6C81B7 EQ PUSH2 0x762 JUMPI DUP1 PUSH4 0x82DFC5F7 EQ PUSH2 0x782 JUMPI PUSH1 0x0 DUP1 REVERT JUMPDEST DUP1 PUSH4 0x308B2B81 GT PUSH2 0x2C1 JUMPI DUP1 PUSH4 0x4CDAD506 GT PUSH2 0x25F JUMPI DUP1 PUSH4 0x65AE14B5 GT PUSH2 0x22E JUMPI DUP1 PUSH4 0x65AE14B5 EQ PUSH2 0x6BF JUMPI DUP1 PUSH4 0x6E553F65 EQ PUSH2 0x6DF JUMPI DUP1 PUSH4 0x70A08231 EQ PUSH2 0x6FF JUMPI DUP1 PUSH4 0x715018A6 EQ PUSH2 0x736 JUMPI PUSH1 0x0 DUP1 REVERT JUMPDEST DUP1 PUSH4 0x4CDAD506 EQ PUSH2 0x42A JUMPI DUP1 PUSH4 0x4F1EF286 EQ PUSH2 0x67F JUMPI DUP1 PUSH4 0x52D1902D EQ PUSH2 0x692 JUMPI DUP1 PUSH4 0x5C975ABB EQ PUSH2 0x6A7 JUMPI PUSH1 0x0 DUP1 REVERT JUMPDEST DUP1 PUSH4 0x38D52E0F GT PUSH2 0x29B JUMPI DUP1 PUSH4 0x38D52E0F EQ PUSH2 0x5F7 JUMPI DUP1 PUSH4 0x39509351 EQ PUSH2 0x62A JUMPI DUP1 PUSH4 0x3F4BA83A EQ PUSH2 0x64A JUMPI DUP1 PUSH4 0x402D267D EQ PUSH2 0x65F JUMPI PUSH1 0x0 DUP1 REVERT JUMPDEST DUP1 PUSH4 0x308B2B81 EQ PUSH2 0x58E JUMPI DUP1 PUSH4 0x313CE567 EQ PUSH2 0x5AA JUMPI DUP1 PUSH4 0x3659CFE6 EQ PUSH2 0x5D7 JUMPI PUSH1 0x0 DUP1 REVERT JUMPDEST DUP1 PUSH4 0xD8E6E2C GT PUSH2 0x339 JUMPI DUP1 PUSH4 0x23B872DD GT PUSH2 0x308 JUMPI DUP1 PUSH4 0x23B872DD EQ PUSH2 0x50D JUMPI DUP1 PUSH4 0x25BD4142 EQ PUSH2 0x52D JUMPI DUP1 PUSH4 0x29C23E4A EQ PUSH2 0x54D JUMPI DUP1 PUSH4 0x2CA63630 EQ PUSH2 0x56D JUMPI PUSH1 0x0 DUP1 REVERT JUMPDEST DUP1 PUSH4 0xD8E6E2C EQ PUSH2 0x49A JUMPI DUP1 PUSH4 0x18160DDD EQ PUSH2 0x4C9 JUMPI DUP1 PUSH4 0x19D8AC61 EQ PUSH2 0x4DF JUMPI DUP1 PUSH4 0x1DC51887 EQ PUSH2 0x4F6 JUMPI PUSH1 0x0 DUP1 REVERT JUMPDEST DUP1 PUSH4 0x6FDDE03 GT PUSH2 0x375 JUMPI DUP1 PUSH4 0x6FDDE03 EQ PUSH2 0x408 JUMPI DUP1 PUSH4 0x7A2D13A EQ PUSH2 0x42A JUMPI DUP1 PUSH4 0x95EA7B3 EQ PUSH2 0x44A JUMPI DUP1 PUSH4 0xA28A477 EQ PUSH2 0x47A JUMPI PUSH1 0x0 DUP1 REVERT JUMPDEST DUP1 PUSH4 0x1681A62 EQ PUSH2 0x3A7 JUMPI DUP1 PUSH4 0x1E1D114 EQ PUSH2 0x3C9 JUMPI DUP1 PUSH4 0x5A9F274 EQ PUSH2 0x3F1 JUMPI PUSH1 0x0 DUP1 REVERT JUMPDEST CALLDATASIZE PUSH2 0x3A2 JUMPI STOP JUMPDEST PUSH1 0x0 DUP1 REVERT JUMPDEST CALLVALUE DUP1 ISZERO PUSH2 0x3B3 JUMPI PUSH1 0x0 DUP1 REVERT JUMPDEST POP PUSH2 0x3C7 PUSH2 0x3C2 CALLDATASIZE PUSH1 0x4 PUSH2 0x33A6 JUMP JUMPDEST PUSH2 0xAC1 JUMP JUMPDEST STOP JUMPDEST CALLVALUE DUP1 ISZERO PUSH2 0x3D5 JUMPI PUSH1 0x0 DUP1 REVERT JUMPDEST POP PUSH2 0x3DE PUSH2 0xB83 JUMP JUMPDEST PUSH1 0x40 MLOAD SWAP1 DUP2 MSTORE PUSH1 0x20 ADD JUMPDEST PUSH1 0x40 MLOAD DUP1 SWAP2 SUB SWAP1 RETURN JUMPDEST CALLVALUE DUP1 ISZERO PUSH2 0x3FD JUMPI PUSH1 0x0 DUP1 REVERT JUMPDEST POP PUSH2 0x3DE PUSH2 0x198 SLOAD DUP2 JUMP JUMPDEST CALLVALUE DUP1 ISZERO PUSH2 0x414 JUMPI PUSH1 0x0 DUP1 REVERT JUMPDEST POP PUSH2 0x41D PUSH2 0xC29 JUMP JUMPDEST PUSH1 0x40 MLOAD PUSH2 0x3E8 SWAP2 SWAP1 PUSH2 0x3411 JUMP JUMPDEST CALLVALUE DUP1 ISZERO PUSH2 0x436 JUMPI PUSH1 0x0 DUP1 REVERT JUMPDEST POP PUSH2 0x3DE PUSH2 0x445 CALLDATASIZE PUSH1 0x4 PUSH2 0x3424 JUMP JUMPDEST PUSH2 0xCBC JUMP JUMPDEST CALLVALUE DUP1 ISZERO PUSH2 0x456 JUMPI PUSH1 0x0 DUP1 REVERT JUMPDEST POP PUSH2 0x46A PUSH2 0x465 CALLDATASIZE PUSH1 0x4 PUSH2 0x343D JUMP JUMPDEST PUSH2 0xCCF JUMP JUMPDEST PUSH1 0x40 MLOAD SWAP1 ISZERO ISZERO DUP2 MSTORE PUSH1 0x20 ADD PUSH2 0x3E8 JUMP JUMPDEST CALLVALUE DUP1 ISZERO PUSH2 0x486 JUMPI PUSH1 0x0 DUP1 REVERT JUMPDEST POP PUSH2 0x3DE PUSH2 0x495 CALLDATASIZE PUSH1 0x4 PUSH2 0x3424 JUMP JUMPDEST PUSH2 0xCE7 JUMP JUMPDEST CALLVALUE DUP1 ISZERO PUSH2 0x4A6 JUMPI PUSH1 0x0 DUP1 REVERT JUMPDEST POP PUSH1 0x40 DUP1 MLOAD DUP1 DUP3 ADD SWAP1 SWAP2 MSTORE PUSH1 0x6 DUP2 MSTORE PUSH6 0x76302E302E31 PUSH1 0xD0 SHL PUSH1 0x20 DUP3 ADD MSTORE PUSH2 0x41D JUMP JUMPDEST CALLVALUE DUP1 ISZERO PUSH2 0x4D5 JUMPI PUSH1 0x0 DUP1 REVERT JUMPDEST POP PUSH2 0x130 SLOAD PUSH2 0x3DE JUMP JUMPDEST CALLVALUE DUP1 ISZERO PUSH2 0x4EB JUMPI PUSH1 0x0 DUP1 REVERT JUMPDEST POP PUSH2 0x3DE PUSH2 0x197 SLOAD DUP2 JUMP JUMPDEST CALLVALUE DUP1 ISZERO PUSH2 0x502 JUMPI PUSH1 0x0 DUP1 REVERT JUMPDEST POP PUSH2 0x3DE PUSH2 0x196 SLOAD DUP2 JUMP JUMPDEST CALLVALUE DUP1 ISZERO PUSH2 0x519 JUMPI PUSH1 0x0 DUP1 REVERT JUMPDEST POP PUSH2 0x46A PUSH2 0x528 CALLDATASIZE PUSH1 0x4 PUSH2 0x3467 JUMP JUMPDEST PUSH2 0xCF4 JUMP JUMPDEST CALLVALUE DUP1 ISZERO PUSH2 0x539 JUMPI PUSH1 0x0 DUP1 REVERT JUMPDEST POP PUSH2 0x3C7 PUSH2 0x548 CALLDATASIZE PUSH1 0x4 PUSH2 0x3424 JUMP JUMPDEST PUSH2 0xD1A JUMP JUMPDEST CALLVALUE DUP1 ISZERO PUSH2 0x559 JUMPI PUSH1 0x0 DUP1 REVERT JUMPDEST POP PUSH2 0x3DE PUSH2 0x568 CALLDATASIZE PUSH1 0x4 PUSH2 0x3424 JUMP JUMPDEST PUSH2 0xDC8 JUMP JUMPDEST CALLVALUE DUP1 ISZERO PUSH2 0x579 JUMPI PUSH1 0x0 DUP1 REVERT JUMPDEST POP PUSH2 0x3DE PUSH2 0x588 CALLDATASIZE PUSH1 0x4 PUSH2 0x3424 JUMP JUMPDEST POP PUSH1 0x0 SWAP1 JUMP JUMPDEST CALLVALUE DUP1 ISZERO PUSH2 0x59A JUMPI PUSH1 0x0 DUP1 REVERT JUMPDEST POP PUSH2 0x3DE PUSH8 0x9B6E64A8EC60000 DUP2 JUMP JUMPDEST CALLVALUE DUP1 ISZERO PUSH2 0x5B6 JUMPI PUSH1 0x0 DUP1 REVERT JUMPDEST POP PUSH2 0x160 SLOAD PUSH1 0x1 PUSH1 0xA0 SHL SWAP1 DIV PUSH1 0xFF AND PUSH1 0x40 MLOAD PUSH1 0xFF SWAP1 SWAP2 AND DUP2 MSTORE PUSH1 0x20 ADD PUSH2 0x3E8 JUMP JUMPDEST CALLVALUE DUP1 ISZERO PUSH2 0x5E3 JUMPI PUSH1 0x0 DUP1 REVERT JUMPDEST POP PUSH2 0x3C7 PUSH2 0x5F2 CALLDATASIZE PUSH1 0x4 PUSH2 0x33A6 JUMP JUMPDEST PUSH2 0xDE7 JUMP JUMPDEST CALLVALUE DUP1 ISZERO PUSH2 0x603 JUMPI PUSH1 0x0 DUP1 REVERT JUMPDEST POP PUSH2 0x160 SLOAD PUSH1 0x1 PUSH1 0x1 PUSH1 0xA0 SHL SUB AND JUMPDEST PUSH1 0x40 MLOAD PUSH1 0x1 PUSH1 0x1 PUSH1 0xA0 SHL SUB SWAP1 SWAP2 AND DUP2 MSTORE PUSH1 0x20 ADD PUSH2 0x3E8 JUMP JUMPDEST CALLVALUE DUP1 ISZERO PUSH2 0x636 JUMPI PUSH1 0x0 DUP1 REVERT JUMPDEST POP PUSH2 0x46A PUSH2 0x645 CALLDATASIZE PUSH1 0x4 PUSH2 0x343D JUMP JUMPDEST PUSH2 0xEC6 JUMP JUMPDEST CALLVALUE DUP1 ISZERO PUSH2 0x656 JUMPI PUSH1 0x0 DUP1 REVERT JUMPDEST POP PUSH2 0x3C7 PUSH2 0xEE8 JUMP JUMPDEST CALLVALUE DUP1 ISZERO PUSH2 0x66B JUMPI PUSH1 0x0 DUP1 REVERT JUMPDEST POP PUSH2 0x3DE PUSH2 0x67A CALLDATASIZE PUSH1 0x4 PUSH2 0x33A6 JUMP JUMPDEST PUSH2 0xEFA JUMP JUMPDEST PUSH2 0x3C7 PUSH2 0x68D CALLDATASIZE PUSH1 0x4 PUSH2 0x3546 JUMP JUMPDEST PUSH2 0xF18 JUMP JUMPDEST CALLVALUE DUP1 ISZERO PUSH2 0x69E JUMPI PUSH1 0x0 DUP1 REVERT JUMPDEST POP PUSH2 0x3DE PUSH2 0xFE8 JUMP JUMPDEST CALLVALUE DUP1 ISZERO PUSH2 0x6B3 JUMPI PUSH1 0x0 DUP1 REVERT JUMPDEST POP PUSH1 0xC9 SLOAD PUSH1 0xFF AND PUSH2 0x46A JUMP JUMPDEST CALLVALUE DUP1 ISZERO PUSH2 0x6CB JUMPI PUSH1 0x0 DUP1 REVERT JUMPDEST POP PUSH2 0x3DE PUSH2 0x6DA CALLDATASIZE PUSH1 0x4 PUSH2 0x3594 JUMP JUMPDEST PUSH2 0x109B JUMP JUMPDEST CALLVALUE DUP1 ISZERO PUSH2 0x6EB JUMPI PUSH1 0x0 DUP1 REVERT JUMPDEST POP PUSH2 0x3DE PUSH2 0x6FA CALLDATASIZE PUSH1 0x4 PUSH2 0x3639 JUMP JUMPDEST PUSH2 0x1282 JUMP JUMPDEST CALLVALUE DUP1 ISZERO PUSH2 0x70B JUMPI PUSH1 0x0 DUP1 REVERT JUMPDEST POP PUSH2 0x3DE PUSH2 0x71A CALLDATASIZE PUSH1 0x4 PUSH2 0x33A6 JUMP JUMPDEST PUSH1 0x1 PUSH1 0x1 PUSH1 0xA0 SHL SUB AND PUSH1 0x0 SWAP1 DUP2 MSTORE PUSH2 0x12E PUSH1 0x20 MSTORE PUSH1 0x40 SWAP1 KECCAK256 SLOAD SWAP1 JUMP JUMPDEST CALLVALUE DUP1 ISZERO PUSH2 0x742 JUMPI PUSH1 0x0 DUP1 REVERT JUMPDEST POP PUSH2 0x3C7 PUSH2 0x1329 JUMP JUMPDEST CALLVALUE DUP1 ISZERO PUSH2 0x757 JUMPI PUSH1 0x0 DUP1 REVERT JUMPDEST POP PUSH2 0x3DE PUSH2 0x194 SLOAD DUP2 JUMP JUMPDEST CALLVALUE DUP1 ISZERO PUSH2 0x76E JUMPI PUSH1 0x0 DUP1 REVERT JUMPDEST POP PUSH2 0x3C7 PUSH2 0x77D CALLDATASIZE PUSH1 0x4 PUSH2 0x3424 JUMP JUMPDEST PUSH2 0x133B JUMP JUMPDEST CALLVALUE DUP1 ISZERO PUSH2 0x78E JUMPI PUSH1 0x0 DUP1 REVERT JUMPDEST POP PUSH2 0x612 PUSH20 0x82AF49447D8A07E3BD95BD0D56F35241523FBAB1 DUP2 JUMP JUMPDEST CALLVALUE DUP1 ISZERO PUSH2 0x7B6 JUMPI PUSH1 0x0 DUP1 REVERT JUMPDEST POP PUSH2 0x3C7 PUSH2 0x13C7 JUMP JUMPDEST CALLVALUE DUP1 ISZERO PUSH2 0x7CB JUMPI PUSH1 0x0 DUP1 REVERT JUMPDEST POP PUSH1 0x33 SLOAD PUSH1 0x1 PUSH1 0x1 PUSH1 0xA0 SHL SUB AND PUSH2 0x612 JUMP JUMPDEST CALLVALUE DUP1 ISZERO PUSH2 0x7E9 JUMPI PUSH1 0x0 DUP1 REVERT JUMPDEST POP PUSH2 0x3C7 PUSH2 0x7F8 CALLDATASIZE PUSH1 0x4 PUSH2 0x3665 JUMP JUMPDEST PUSH2 0x13D7 JUMP JUMPDEST CALLVALUE DUP1 ISZERO PUSH2 0x809 JUMPI PUSH1 0x0 DUP1 REVERT JUMPDEST POP PUSH2 0x3DE PUSH2 0x818 CALLDATASIZE PUSH1 0x4 PUSH2 0x3639 JUMP JUMPDEST PUSH2 0x167A JUMP JUMPDEST CALLVALUE DUP1 ISZERO PUSH2 0x829 JUMPI PUSH1 0x0 DUP1 REVERT JUMPDEST POP PUSH2 0x41D PUSH2 0x1696 JUMP JUMPDEST CALLVALUE DUP1 ISZERO PUSH2 0x83E JUMPI PUSH1 0x0 DUP1 REVERT JUMPDEST POP PUSH2 0x46A PUSH2 0x84D CALLDATASIZE PUSH1 0x4 PUSH2 0x343D JUMP JUMPDEST PUSH2 0x16A6 JUMP JUMPDEST CALLVALUE DUP1 ISZERO PUSH2 0x85E JUMPI PUSH1 0x0 DUP1 REVERT JUMPDEST POP PUSH2 0x3C7 PUSH2 0x86D CALLDATASIZE PUSH1 0x4 PUSH2 0x3424 JUMP JUMPDEST PUSH2 0x172C JUMP JUMPDEST CALLVALUE DUP1 ISZERO PUSH2 0x87E JUMPI PUSH1 0x0 DUP1 REVERT JUMPDEST POP PUSH2 0x192 SLOAD PUSH2 0x612 SWAP1 PUSH1 0x1 PUSH1 0x1 PUSH1 0xA0 SHL SUB AND DUP2 JUMP JUMPDEST CALLVALUE DUP1 ISZERO PUSH2 0x89F JUMPI PUSH1 0x0 DUP1 REVERT JUMPDEST POP PUSH2 0x46A PUSH2 0x8AE CALLDATASIZE PUSH1 0x4 PUSH2 0x343D JUMP JUMPDEST PUSH2 0x17A5 JUMP JUMPDEST CALLVALUE DUP1 ISZERO PUSH2 0x8BF JUMPI PUSH1 0x0 DUP1 REVERT JUMPDEST POP PUSH2 0x3DE PUSH7 0x71AFD498D0000 DUP2 JUMP JUMPDEST CALLVALUE DUP1 ISZERO PUSH2 0x8DA JUMPI PUSH1 0x0 DUP1 REVERT JUMPDEST POP PUSH2 0x3DE PUSH2 0x8E9 CALLDATASIZE PUSH1 0x4 PUSH2 0x3424 JUMP JUMPDEST PUSH2 0x17B3 JUMP JUMPDEST CALLVALUE DUP1 ISZERO PUSH2 0x8FA JUMPI PUSH1 0x0 DUP1 REVERT JUMPDEST POP PUSH2 0x193 SLOAD PUSH2 0x612 SWAP1 PUSH1 0x1 PUSH1 0x1 PUSH1 0xA0 SHL SUB AND DUP2 JUMP JUMPDEST CALLVALUE DUP1 ISZERO PUSH2 0x91B JUMPI PUSH1 0x0 DUP1 REVERT JUMPDEST POP PUSH2 0x3DE PUSH2 0x92A CALLDATASIZE PUSH1 0x4 PUSH2 0x3691 JUMP JUMPDEST PUSH2 0x17C0 JUMP JUMPDEST CALLVALUE DUP1 ISZERO PUSH2 0x93B JUMPI PUSH1 0x0 DUP1 REVERT JUMPDEST POP PUSH2 0x3DE PUSH2 0x195 SLOAD DUP2 JUMP JUMPDEST CALLVALUE DUP1 ISZERO PUSH2 0x952 JUMPI PUSH1 0x0 DUP1 REVERT JUMPDEST POP PUSH2 0x3DE PUSH2 0x18F4 JUMP JUMPDEST CALLVALUE DUP1 ISZERO PUSH2 0x967 JUMPI PUSH1 0x0 DUP1 REVERT JUMPDEST POP PUSH2 0x3DE PUSH2 0x976 CALLDATASIZE PUSH1 0x4 PUSH2 0x3691 JUMP JUMPDEST PUSH2 0x1962 JUMP JUMPDEST CALLVALUE DUP1 ISZERO PUSH2 0x987 JUMPI PUSH1 0x0 DUP1 REVERT JUMPDEST POP PUSH2 0x3DE PUSH2 0x996 CALLDATASIZE PUSH1 0x4 PUSH2 0x33A6 JUMP JUMPDEST POP PUSH1 0x0 NOT SWAP1 JUMP JUMPDEST CALLVALUE DUP1 ISZERO PUSH2 0x9A9 JUMPI PUSH1 0x0 DUP1 REVERT JUMPDEST POP PUSH2 0x3DE PUSH2 0x9B8 CALLDATASIZE PUSH1 0x4 PUSH2 0x3424 JUMP JUMPDEST PUSH2 0x1A8A JUMP JUMPDEST CALLVALUE DUP1 ISZERO PUSH2 0x9C9 JUMPI PUSH1 0x0 DUP1 REVERT JUMPDEST POP PUSH2 0x3DE PUSH2 0x9D8 CALLDATASIZE PUSH1 0x4 PUSH2 0x33A6 JUMP JUMPDEST PUSH2 0x1A97 JUMP JUMPDEST CALLVALUE DUP1 ISZERO PUSH2 0x9E9 JUMPI PUSH1 0x0 DUP1 REVERT JUMPDEST POP PUSH2 0x3DE PUSH2 0x9F8 CALLDATASIZE PUSH1 0x4 PUSH2 0x33A6 JUMP JUMPDEST PUSH2 0x1ABC JUMP JUMPDEST CALLVALUE DUP1 ISZERO PUSH2 0xA09 JUMPI PUSH1 0x0 DUP1 REVERT JUMPDEST POP PUSH2 0x3C7 PUSH2 0xA18 CALLDATASIZE PUSH1 0x4 PUSH2 0x33A6 JUMP JUMPDEST PUSH2 0x1ADB JUMP JUMPDEST CALLVALUE DUP1 ISZERO PUSH2 0xA29 JUMPI PUSH1 0x0 DUP1 REVERT JUMPDEST POP PUSH2 0x3DE PUSH2 0xA38 CALLDATASIZE PUSH1 0x4 PUSH2 0x36CD JUMP JUMPDEST PUSH2 0x1BB0 JUMP JUMPDEST CALLVALUE DUP1 ISZERO PUSH2 0xA49 JUMPI PUSH1 0x0 DUP1 REVERT JUMPDEST POP PUSH2 0x612 PUSH20 0x5979D7B546E38E414F7E9822514BE443A4800529 DUP2 JUMP JUMPDEST CALLVALUE DUP1 ISZERO PUSH2 0xA71 JUMPI PUSH1 0x0 DUP1 REVERT JUMPDEST POP PUSH2 0x3DE PUSH8 0xD2F13F7789F0000 DUP2 JUMP JUMPDEST CALLVALUE DUP1 ISZERO PUSH2 0xA8D JUMPI PUSH1 0x0 DUP1 REVERT JUMPDEST POP PUSH2 0x3C7 PUSH2 0xA9C CALLDATASIZE PUSH1 0x4 PUSH2 0x33A6 JUMP JUMPDEST PUSH2 0x1BDC JUMP JUMPDEST CALLVALUE DUP1 ISZERO PUSH2 0xAAD JUMPI PUSH1 0x0 DUP1 REVERT JUMPDEST POP PUSH2 0x3DE PUSH2 0xABC CALLDATASIZE PUSH1 0x4 PUSH2 0x3424 JUMP JUMPDEST PUSH2 0x1C52 JUMP JUMPDEST PUSH2 0xAC9 PUSH2 0x1C67 JUMP JUMPDEST PUSH1 0x40 MLOAD PUSH4 0x70A08231 PUSH1 0xE0 SHL DUP2 MSTORE ADDRESS PUSH1 0x4 DUP3 ADD MSTORE PUSH1 0x0 SWAP1 PUSH1 0x1 PUSH1 0x1 PUSH1 0xA0 SHL SUB DUP4 AND SWAP1 PUSH4 0x70A08231 SWAP1 PUSH1 0x24 ADD PUSH1 0x20 PUSH1 0x40 MLOAD DUP1 DUP4 SUB DUP2 DUP7 GAS STATICCALL ISZERO DUP1 ISZERO PUSH2 0xB10 JUMPI RETURNDATASIZE PUSH1 0x0 DUP1 RETURNDATACOPY RETURNDATASIZE PUSH1 0x0 REVERT JUMPDEST POP POP POP POP PUSH1 0x40 MLOAD RETURNDATASIZE PUSH1 0x1F NOT PUSH1 0x1F DUP3 ADD AND DUP3 ADD DUP1 PUSH1 0x40 MSTORE POP DUP2 ADD SWAP1 PUSH2 0xB34 SWAP2 SWAP1 PUSH2 0x36F7 JUMP JUMPDEST SWAP1 POP PUSH2 0xB5C PUSH2 0xB4B PUSH1 0x33 SLOAD PUSH1 0x1 PUSH1 0x1 PUSH1 0xA0 SHL SUB AND SWAP1 JUMP JUMPDEST PUSH1 0x1 PUSH1 0x1 PUSH1 0xA0 SHL SUB DUP5 AND SWAP1 DUP4 PUSH2 0x1CC1 JUMP JUMPDEST SELFBALANCE DUP1 ISZERO PUSH2 0xB7E JUMPI PUSH2 0xB7E PUSH2 0xB78 PUSH1 0x33 SLOAD PUSH1 0x1 PUSH1 0x1 PUSH1 0xA0 SHL SUB AND SWAP1 JUMP JUMPDEST DUP3 PUSH2 0x1D13 JUMP JUMPDEST POP POP POP JUMP JUMPDEST PUSH1 0x0 PUSH8 0xDE0B6B3A7640000 PUSH2 0xB98 PUSH2 0x130 SLOAD SWAP1 JUMP JUMPDEST PUSH2 0x192 PUSH1 0x0 SWAP1 SLOAD SWAP1 PUSH2 0x100 EXP SWAP1 DIV PUSH1 0x1 PUSH1 0x1 PUSH1 0xA0 SHL SUB AND PUSH1 0x1 PUSH1 0x1 PUSH1 0xA0 SHL SUB AND PUSH4 0x9E65741E PUSH1 0x40 MLOAD DUP2 PUSH4 0xFFFFFFFF AND PUSH1 0xE0 SHL DUP2 MSTORE PUSH1 0x4 ADD PUSH1 0x20 PUSH1 0x40 MLOAD DUP1 DUP4 SUB DUP2 DUP7 GAS STATICCALL ISZERO DUP1 ISZERO PUSH2 0xBEC JUMPI RETURNDATASIZE PUSH1 0x0 DUP1 RETURNDATACOPY RETURNDATASIZE PUSH1 0x0 REVERT JUMPDEST POP POP POP POP PUSH1 0x40 MLOAD RETURNDATASIZE PUSH1 0x1F NOT PUSH1 0x1F DUP3 ADD AND DUP3 ADD DUP1 PUSH1 0x40 MSTORE POP DUP2 ADD SWAP1 PUSH2 0xC10 SWAP2 SWAP1 PUSH2 0x36F7 JUMP JUMPDEST PUSH2 0xC1A SWAP2 SWAP1 PUSH2 0x3726 JUMP JUMPDEST PUSH2 0xC24 SWAP2 SWAP1 PUSH2 0x3753 JUMP JUMPDEST SWAP1 POP SWAP1 JUMP JUMPDEST PUSH1 0x60 PUSH2 0x131 DUP1 SLOAD PUSH2 0xC39 SWAP1 PUSH2 0x3775 JUMP JUMPDEST DUP1 PUSH1 0x1F ADD PUSH1 0x20 DUP1 SWAP2 DIV MUL PUSH1 0x20 ADD PUSH1 0x40 MLOAD SWAP1 DUP2 ADD PUSH1 0x40 MSTORE DUP1 SWAP3 SWAP2 SWAP1 DUP2 DUP2 MSTORE PUSH1 0x20 ADD DUP3 DUP1 SLOAD PUSH2 0xC65 SWAP1 PUSH2 0x3775 JUMP JUMPDEST DUP1 ISZERO PUSH2 0xCB2 JUMPI DUP1 PUSH1 0x1F LT PUSH2 0xC87 JUMPI PUSH2 0x100 DUP1 DUP4 SLOAD DIV MUL DUP4 MSTORE SWAP2 PUSH1 0x20 ADD SWAP2 PUSH2 0xCB2 JUMP JUMPDEST DUP3 ADD SWAP2 SWAP1 PUSH1 0x0 MSTORE PUSH1 0x20 PUSH1 0x0 KECCAK256 SWAP1 JUMPDEST DUP2 SLOAD DUP2 MSTORE SWAP1 PUSH1 0x1 ADD SWAP1 PUSH1 0x20 ADD DUP1 DUP4 GT PUSH2 0xC95 JUMPI DUP3 SWAP1 SUB PUSH1 0x1F AND DUP3 ADD SWAP2 JUMPDEST POP POP POP POP POP SWAP1 POP SWAP1 JUMP JUMPDEST PUSH1 0x0 PUSH2 0xCC9 DUP3 PUSH1 0x0 PUSH2 0x1E2C JUMP JUMPDEST SWAP3 SWAP2 POP POP JUMP JUMPDEST PUSH1 0x0 CALLER PUSH2 0xCDD DUP2 DUP6 DUP6 PUSH2 0x1E64 JUMP JUMPDEST POP PUSH1 0x1 SWAP4 SWAP3 POP POP POP JUMP JUMPDEST PUSH1 0x0 PUSH2 0xCC9 DUP3 PUSH1 0x1 PUSH2 0x1F89 JUMP JUMPDEST PUSH1 0x0 CALLER PUSH2 0xD02 DUP6 DUP3 DUP6 PUSH2 0x1FBC JUMP JUMPDEST PUSH2 0xD0D DUP6 DUP6 DUP6 PUSH2 0x2030 JUMP JUMPDEST PUSH1 0x1 SWAP2 POP POP JUMPDEST SWAP4 SWAP3 POP POP POP JUMP JUMPDEST PUSH2 0xD22 PUSH2 0x1C67 JUMP JUMPDEST PUSH1 0x1 DUP2 LT ISZERO DUP1 ISZERO PUSH2 0xD34 JUMPI POP PUSH1 0x78 DUP2 GT ISZERO JUMPDEST PUSH2 0xD85 JUMPI PUSH1 0x40 MLOAD PUSH3 0x461BCD PUSH1 0xE5 SHL DUP2 MSTORE PUSH1 0x20 PUSH1 0x4 DUP3 ADD MSTORE PUSH1 0x1B PUSH1 0x24 DUP3 ADD MSTORE PUSH32 0x4578697420666565206578636565647320746865206C696D6974210000000000 PUSH1 0x44 DUP3 ADD MSTORE PUSH1 0x64 ADD JUMPDEST PUSH1 0x40 MLOAD DUP1 SWAP2 SUB SWAP1 REVERT JUMPDEST PUSH2 0x195 SLOAD PUSH1 0x40 DUP1 MLOAD SWAP2 DUP3 MSTORE PUSH1 0x20 DUP3 ADD DUP4 SWAP1 MSTORE PUSH32 0x394967F6FE403CDA0905B23E81B928C5CA79107000B1404C6B3185442F05213C SWAP2 ADD PUSH1 0x40 MLOAD DUP1 SWAP2 SUB SWAP1 LOG1 PUSH2 0x195 SSTORE JUMP JUMPDEST PUSH1 0x0 DUP1 PUSH2 0x2710 PUSH2 0x195 SLOAD DUP5 PUSH2 0xDDD SWAP2 SWAP1 PUSH2 0x3726 JUMP JUMPDEST PUSH2 0xD13 SWAP2 SWAP1 PUSH2 0x3753 JUMP JUMPDEST PUSH1 0x1 PUSH1 0x1 PUSH1 0xA0 SHL SUB PUSH32 0x0 AND ADDRESS SUB PUSH2 0xE2F JUMPI PUSH1 0x40 MLOAD PUSH3 0x461BCD PUSH1 0xE5 SHL DUP2 MSTORE PUSH1 0x4 ADD PUSH2 0xD7C SWAP1 PUSH2 0x37AF JUMP JUMPDEST PUSH32 0x0 PUSH1 0x1 PUSH1 0x1 PUSH1 0xA0 SHL SUB AND PUSH2 0xE78 PUSH1 0x0 DUP1 MLOAD PUSH1 0x20 PUSH2 0x3A94 DUP4 CODECOPY DUP2 MLOAD SWAP2 MSTORE SLOAD PUSH1 0x1 PUSH1 0x1 PUSH1 0xA0 SHL SUB AND SWAP1 JUMP JUMPDEST PUSH1 0x1 PUSH1 0x1 PUSH1 0xA0 SHL SUB AND EQ PUSH2 0xE9E JUMPI PUSH1 0x40 MLOAD PUSH3 0x461BCD PUSH1 0xE5 SHL DUP2 MSTORE PUSH1 0x4 ADD PUSH2 0xD7C SWAP1 PUSH2 0x37FB JUMP JUMPDEST PUSH2 0xEA7 DUP2 PUSH2 0x21DD JUMP JUMPDEST PUSH1 0x40 DUP1 MLOAD PUSH1 0x0 DUP1 DUP3 MSTORE PUSH1 0x20 DUP3 ADD SWAP1 SWAP3 MSTORE PUSH2 0xEC3 SWAP2 DUP4 SWAP2 SWAP1 PUSH2 0x21E5 JUMP JUMPDEST POP JUMP JUMPDEST PUSH1 0x0 CALLER PUSH2 0xCDD DUP2 DUP6 DUP6 PUSH2 0xED9 DUP4 DUP4 PUSH2 0x1BB0 JUMP JUMPDEST PUSH2 0xEE3 SWAP2 SWAP1 PUSH2 0x3847 JUMP JUMPDEST PUSH2 0x1E64 JUMP JUMPDEST PUSH2 0xEF0 PUSH2 0x1C67 JUMP JUMPDEST PUSH2 0xEF8 PUSH2 0x2350 JUMP JUMPDEST JUMP JUMPDEST PUSH1 0x0 PUSH2 0xF04 PUSH2 0x23A2 JUMP JUMPDEST PUSH2 0xF0F JUMPI PUSH1 0x0 PUSH2 0xCC9 JUMP JUMPDEST PUSH1 0x0 NOT SWAP3 SWAP2 POP POP JUMP JUMPDEST PUSH1 0x1 PUSH1 0x1 PUSH1 0xA0 SHL SUB PUSH32 0x0 AND ADDRESS SUB PUSH2 0xF60 JUMPI PUSH1 0x40 MLOAD PUSH3 0x461BCD PUSH1 0xE5 SHL DUP2 MSTORE PUSH1 0x4 ADD PUSH2 0xD7C SWAP1 PUSH2 0x37AF JUMP JUMPDEST PUSH32 0x0 PUSH1 0x1 PUSH1 0x1 PUSH1 0xA0 SHL SUB AND PUSH2 0xFA9 PUSH1 0x0 DUP1 MLOAD PUSH1 0x20 PUSH2 0x3A94 DUP4 CODECOPY DUP2 MLOAD SWAP2 MSTORE SLOAD PUSH1 0x1 PUSH1 0x1 PUSH1 0xA0 SHL SUB AND SWAP1 JUMP JUMPDEST PUSH1 0x1 PUSH1 0x1 PUSH1 0xA0 SHL SUB AND EQ PUSH2 0xFCF JUMPI PUSH1 0x40 MLOAD PUSH3 0x461BCD PUSH1 0xE5 SHL DUP2 MSTORE PUSH1 0x4 ADD PUSH2 0xD7C SWAP1 PUSH2 0x37FB JUMP JUMPDEST PUSH2 0xFD8 DUP3 PUSH2 0x21DD JUMP JUMPDEST PUSH2 0xFE4 DUP3 DUP3 PUSH1 0x1 PUSH2 0x21E5 JUMP JUMPDEST POP POP JUMP JUMPDEST PUSH1 0x0 ADDRESS PUSH1 0x1 PUSH1 0x1 PUSH1 0xA0 SHL SUB PUSH32 0x0 AND EQ PUSH2 0x1088 JUMPI PUSH1 0x40 MLOAD PUSH3 0x461BCD PUSH1 0xE5 SHL DUP2 MSTORE PUSH1 0x20 PUSH1 0x4 DUP3 ADD MSTORE PUSH1 0x38 PUSH1 0x24 DUP3 ADD MSTORE PUSH32 0x555550535570677261646561626C653A206D757374206E6F742062652063616C PUSH1 0x44 DUP3 ADD MSTORE PUSH32 0x6C6564207468726F7567682064656C656761746563616C6C0000000000000000 PUSH1 0x64 DUP3 ADD MSTORE PUSH1 0x84 ADD PUSH2 0xD7C JUMP JUMPDEST POP PUSH1 0x0 DUP1 MLOAD PUSH1 0x20 PUSH2 0x3A94 DUP4 CODECOPY DUP2 MLOAD SWAP2 MSTORE SWAP1 JUMP JUMPDEST PUSH1 0x0 PUSH2 0x10A5 PUSH2 0x23BD JUMP JUMPDEST PUSH2 0x10AD PUSH2 0x2403 JUMP JUMPDEST PUSH1 0x0 NOT DUP8 SUB PUSH2 0x10C6 JUMPI PUSH2 0x10BF DUP4 PUSH2 0x1A97 JUMP JUMPDEST SWAP7 POP PUSH2 0x111E JUMP JUMPDEST PUSH2 0x10CF DUP4 PUSH2 0x1A97 JUMP JUMPDEST DUP8 GT ISZERO PUSH2 0x111E JUMPI PUSH1 0x40 MLOAD PUSH3 0x461BCD PUSH1 0xE5 SHL DUP2 MSTORE PUSH1 0x20 PUSH1 0x4 DUP3 ADD MSTORE PUSH1 0x1F PUSH1 0x24 DUP3 ADD MSTORE PUSH32 0x455243343632363A207769746864726177206D6F7265207468616E206D617800 PUSH1 0x44 DUP3 ADD MSTORE PUSH1 0x64 ADD PUSH2 0xD7C JUMP JUMPDEST PUSH2 0x1127 DUP8 PUSH2 0xCE7 JUMP JUMPDEST SWAP1 POP PUSH1 0x0 PUSH2 0x1134 DUP9 PUSH2 0x1C52 JUMP JUMPDEST PUSH2 0x113E SWAP1 DUP10 PUSH2 0x385A JUMP JUMPDEST SWAP1 POP CALLER PUSH1 0x1 PUSH1 0x1 PUSH1 0xA0 SHL SUB DUP6 AND EQ PUSH2 0x115B JUMPI PUSH2 0x115B DUP5 CALLER DUP5 PUSH2 0x1FBC JUMP JUMPDEST PUSH2 0x192 SLOAD PUSH1 0x40 MLOAD PUSH4 0x12307629 PUSH1 0xE3 SHL DUP2 MSTORE PUSH1 0x0 SWAP2 PUSH1 0x1 PUSH1 0x1 PUSH1 0xA0 SHL SUB AND SWAP1 PUSH4 0x9183B148 SWAP1 PUSH2 0x1193 SWAP1 DUP15 SWAP1 DUP7 SWAP1 DUP14 SWAP1 DUP14 SWAP1 PUSH1 0x4 ADD PUSH2 0x386D JUMP JUMPDEST PUSH1 0x20 PUSH1 0x40 MLOAD DUP1 DUP4 SUB DUP2 PUSH1 0x0 DUP8 GAS CALL ISZERO DUP1 ISZERO PUSH2 0x11B2 JUMPI RETURNDATASIZE PUSH1 0x0 DUP1 RETURNDATACOPY RETURNDATASIZE PUSH1 0x0 REVERT JUMPDEST POP POP POP POP PUSH1 0x40 MLOAD RETURNDATASIZE PUSH1 0x1F NOT PUSH1 0x1F DUP3 ADD AND DUP3 ADD DUP1 PUSH1 0x40 MSTORE POP DUP2 ADD SWAP1 PUSH2 0x11D6 SWAP2 SWAP1 PUSH2 0x36F7 JUMP JUMPDEST SWAP1 POP PUSH2 0x11E2 DUP6 DUP5 PUSH2 0x245C JUMP JUMPDEST PUSH2 0x1201 PUSH20 0x5979D7B546E38E414F7E9822514BE443A4800529 DUP6 DUP4 PUSH2 0x1CC1 JUMP JUMPDEST PUSH1 0x40 DUP1 MLOAD PUSH1 0xFF DUP14 AND DUP2 MSTORE PUSH1 0x1 PUSH1 0x1 PUSH1 0xA0 SHL SUB DUP8 DUP2 AND PUSH1 0x20 DUP4 ADD MSTORE DUP7 DUP2 AND DUP3 DUP5 ADD MSTORE DUP13 AND PUSH1 0x60 DUP3 ADD MSTORE PUSH1 0x80 DUP2 ADD DUP4 SWAP1 MSTORE PUSH1 0xA0 DUP2 ADD DUP6 SWAP1 MSTORE PUSH1 0xC0 DUP2 ADD DUP9 SWAP1 MSTORE SWAP1 MLOAD PUSH32 0xBF42197CEA68E17A6606F4C97561623FE935AA499DE73253B38E5B0C5CBBC1A9 SWAP2 DUP2 SWAP1 SUB PUSH1 0xE0 ADD SWAP1 LOG1 POP POP PUSH2 0x1276 PUSH1 0x1 PUSH1 0xFB SSTORE JUMP JUMPDEST SWAP9 SWAP8 POP POP POP POP POP POP POP POP JUMP JUMPDEST PUSH1 0x0 PUSH2 0x128C PUSH2 0x23BD JUMP JUMPDEST PUSH2 0x1294 PUSH2 0x2403 JUMP JUMPDEST PUSH1 0x0 NOT DUP4 SUB PUSH2 0x1313 JUMPI PUSH1 0x40 MLOAD PUSH4 0x70A08231 PUSH1 0xE0 SHL DUP2 MSTORE CALLER PUSH1 0x4 DUP3 ADD MSTORE PUSH20 0x5979D7B546E38E414F7E9822514BE443A4800529 SWAP1 PUSH4 0x70A08231 SWAP1 PUSH1 0x24 ADD PUSH1 0x20 PUSH1 0x40 MLOAD DUP1 DUP4 SUB DUP2 DUP7 GAS STATICCALL ISZERO DUP1 ISZERO PUSH2 0x12EC JUMPI RETURNDATASIZE PUSH1 0x0 DUP1 RETURNDATACOPY RETURNDATASIZE PUSH1 0x0 REVERT JUMPDEST POP POP POP POP PUSH1 0x40 MLOAD RETURNDATASIZE PUSH1 0x1F NOT PUSH1 0x1F DUP3 ADD AND DUP3 ADD DUP1 PUSH1 0x40 MSTORE POP DUP2 ADD SWAP1 PUSH2 0x1310 SWAP2 SWAP1 PUSH2 0x36F7 JUMP JUMPDEST SWAP3 POP JUMPDEST PUSH2 0x131D DUP4 DUP4 PUSH2 0x2593 JUMP JUMPDEST SWAP1 POP PUSH2 0xCC9 PUSH1 0x1 PUSH1 0xFB SSTORE JUMP JUMPDEST PUSH2 0x1331 PUSH2 0x1C67 JUMP JUMPDEST PUSH2 0xEF8 PUSH1 0x0 PUSH2 0x2606 JUMP JUMPDEST PUSH2 0x1343 PUSH2 0x1C67 JUMP JUMPDEST PUSH2 0x194 SLOAD DUP2 GT PUSH2 0x1384 JUMPI PUSH1 0x40 MLOAD PUSH3 0x461BCD PUSH1 0xE5 SHL DUP2 MSTORE PUSH1 0x20 PUSH1 0x4 DUP3 ADD MSTORE PUSH1 0xC PUSH1 0x24 DUP3 ADD MSTORE PUSH12 0x556E737570706F7274656421 PUSH1 0xA0 SHL PUSH1 0x44 DUP3 ADD MSTORE PUSH1 0x64 ADD PUSH2 0xD7C JUMP JUMPDEST PUSH2 0x194 SLOAD PUSH1 0x40 DUP1 MLOAD SWAP2 DUP3 MSTORE PUSH1 0x20 DUP3 ADD DUP4 SWAP1 MSTORE PUSH32 0x7F3306669F28A6AA13D0F709BE2BD4F3E21D2F37AEE9358846A50E1988EE4832 SWAP2 ADD PUSH1 0x40 MLOAD DUP1 SWAP2 SUB SWAP1 LOG1 PUSH2 0x194 SSTORE JUMP JUMPDEST PUSH2 0x13CF PUSH2 0x1C67 JUMP JUMPDEST PUSH2 0xEF8 PUSH2 0x2658 JUMP JUMPDEST PUSH1 0x0 SLOAD PUSH2 0x100 SWAP1 DIV PUSH1 0xFF AND ISZERO DUP1 DUP1 ISZERO PUSH2 0x13F7 JUMPI POP PUSH1 0x0 SLOAD PUSH1 0x1 PUSH1 0xFF SWAP1 SWAP2 AND LT JUMPDEST DUP1 PUSH2 0x1411 JUMPI POP ADDRESS EXTCODESIZE ISZERO DUP1 ISZERO PUSH2 0x1411 JUMPI POP PUSH1 0x0 SLOAD PUSH1 0xFF AND PUSH1 0x1 EQ JUMPDEST PUSH2 0x1474 JUMPI PUSH1 0x40 MLOAD PUSH3 0x461BCD PUSH1 0xE5 SHL DUP2 MSTORE PUSH1 0x20 PUSH1 0x4 DUP3 ADD MSTORE PUSH1 0x2E PUSH1 0x24 DUP3 ADD MSTORE PUSH32 0x496E697469616C697A61626C653A20636F6E747261637420697320616C726561 PUSH1 0x44 DUP3 ADD MSTORE PUSH14 0x191E481A5B9A5D1A585B1A5E9959 PUSH1 0x92 SHL PUSH1 0x64 DUP3 ADD MSTORE PUSH1 0x84 ADD PUSH2 0xD7C JUMP JUMPDEST PUSH1 0x0 DUP1 SLOAD PUSH1 0xFF NOT AND PUSH1 0x1 OR SWAP1 SSTORE DUP1 ISZERO PUSH2 0x1497 JUMPI PUSH1 0x0 DUP1 SLOAD PUSH2 0xFF00 NOT AND PUSH2 0x100 OR SWAP1 SSTORE JUMPDEST PUSH2 0x149F PUSH2 0x2695 JUMP JUMPDEST PUSH2 0x14A7 PUSH2 0x26C4 JUMP JUMPDEST PUSH2 0x1503 PUSH1 0x40 MLOAD DUP1 PUSH1 0x40 ADD PUSH1 0x40 MSTORE DUP1 PUSH1 0x17 DUP2 MSTORE PUSH1 0x20 ADD PUSH32 0x4554482D737445544820737472617465677920706F6F6C000000000000000000 DUP2 MSTORE POP PUSH1 0x40 MLOAD DUP1 PUSH1 0x40 ADD PUSH1 0x40 MSTORE DUP1 PUSH1 0x5 DUP2 MSTORE PUSH1 0x20 ADD PUSH5 0xE4DE8AA89 PUSH1 0xDB SHL DUP2 MSTORE POP PUSH2 0x26EB JUMP JUMPDEST PUSH2 0x1520 PUSH20 0x5979D7B546E38E414F7E9822514BE443A4800529 PUSH2 0x271C JUMP JUMPDEST PUSH9 0x56BC75E2D63100000 DUP5 GT PUSH2 0x1570 JUMPI PUSH1 0x40 MLOAD PUSH3 0x461BCD PUSH1 0xE5 SHL DUP2 MSTORE PUSH1 0x20 PUSH1 0x4 DUP3 ADD MSTORE PUSH1 0x15 PUSH1 0x24 DUP3 ADD MSTORE PUSH21 0x57726F6E67206D61726B6574436170616369747921 PUSH1 0x58 SHL PUSH1 0x44 DUP3 ADD MSTORE PUSH1 0x64 ADD PUSH2 0xD7C JUMP JUMPDEST PUSH2 0x194 DUP5 SWAP1 SSTORE PUSH1 0x1 DUP4 LT DUP1 ISZERO SWAP1 PUSH2 0x1588 JUMPI POP PUSH1 0x78 DUP4 GT ISZERO JUMPDEST PUSH2 0x15D4 JUMPI PUSH1 0x40 MLOAD PUSH3 0x461BCD PUSH1 0xE5 SHL DUP2 MSTORE PUSH1 0x20 PUSH1 0x4 DUP3 ADD MSTORE PUSH1 0x1B PUSH1 0x24 DUP3 ADD MSTORE PUSH32 0x4578697420666565206578636565647320746865206C696D6974210000000000 PUSH1 0x44 DUP3 ADD MSTORE PUSH1 0x64 ADD PUSH2 0xD7C JUMP JUMPDEST PUSH2 0x195 DUP4 SWAP1 SSTORE PUSH1 0x1 DUP3 LT DUP1 ISZERO SWAP1 PUSH2 0x15EC JUMPI POP PUSH1 0x78 DUP3 GT ISZERO JUMPDEST PUSH2 0x1608 JUMPI PUSH1 0x40 MLOAD PUSH3 0x461BCD PUSH1 0xE5 SHL DUP2 MSTORE PUSH1 0x4 ADD PUSH2 0xD7C SWAP1 PUSH2 0x38A0 JUMP JUMPDEST PUSH2 0x196 DUP3 SWAP1 SSTORE TIMESTAMP PUSH2 0x197 SSTORE CALLER PUSH1 0x0 SWAP1 DUP2 MSTORE PUSH2 0x12D PUSH1 0x20 MSTORE PUSH1 0x40 SWAP1 KECCAK256 DUP1 SLOAD PUSH1 0xFF NOT AND PUSH1 0x1 OR SWAP1 SSTORE DUP1 ISZERO PUSH2 0x1674 JUMPI PUSH1 0x0 DUP1 SLOAD PUSH2 0xFF00 NOT AND SWAP1 SSTORE PUSH1 0x40 MLOAD PUSH1 0x1 DUP2 MSTORE PUSH32 0x7F26B83FF96E1F2B6A682F133852F6798A09C465DA95921460CEFB3847402498 SWAP1 PUSH1 0x20 ADD PUSH1 0x40 MLOAD DUP1 SWAP2 SUB SWAP1 LOG1 JUMPDEST POP POP POP POP JUMP JUMPDEST PUSH1 0x0 PUSH2 0x1684 PUSH2 0x23BD JUMP JUMPDEST PUSH2 0x168C PUSH2 0x2403 JUMP JUMPDEST PUSH2 0x131D DUP4 DUP4 PUSH2 0x274C JUMP JUMPDEST PUSH1 0x60 PUSH2 0x132 DUP1 SLOAD PUSH2 0xC39 SWAP1 PUSH2 0x3775 JUMP JUMPDEST PUSH1 0x0 CALLER DUP2 PUSH2 0x16B4 DUP3 DUP7 PUSH2 0x1BB0 JUMP JUMPDEST SWAP1 POP DUP4 DUP2 LT ISZERO PUSH2 0x1714 JUMPI PUSH1 0x40 MLOAD PUSH3 0x461BCD PUSH1 0xE5 SHL DUP2 MSTORE PUSH1 0x20 PUSH1 0x4 DUP3 ADD MSTORE PUSH1 0x25 PUSH1 0x24 DUP3 ADD MSTORE PUSH32 0x45524332303A2064656372656173656420616C6C6F77616E63652062656C6F77 PUSH1 0x44 DUP3 ADD MSTORE PUSH5 0x207A65726F PUSH1 0xD8 SHL PUSH1 0x64 DUP3 ADD MSTORE PUSH1 0x84 ADD PUSH2 0xD7C JUMP JUMPDEST PUSH2 0x1721 DUP3 DUP7 DUP7 DUP5 SUB PUSH2 0x1E64 JUMP JUMPDEST POP PUSH1 0x1 SWAP5 SWAP4 POP POP POP POP JUMP JUMPDEST PUSH2 0x1734 PUSH2 0x1C67 JUMP JUMPDEST PUSH1 0x1 DUP2 LT ISZERO DUP1 ISZERO PUSH2 0x1746 JUMPI POP PUSH1 0x78 DUP2 GT ISZERO JUMPDEST PUSH2 0x1762 JUMPI PUSH1 0x40 MLOAD PUSH3 0x461BCD PUSH1 0xE5 SHL DUP2 MSTORE PUSH1 0x4 ADD PUSH2 0xD7C SWAP1 PUSH2 0x38A0 JUMP JUMPDEST PUSH2 0x196 SLOAD PUSH1 0x40 DUP1 MLOAD SWAP2 DUP3 MSTORE PUSH1 0x20 DUP3 ADD DUP4 SWAP1 MSTORE PUSH32 0xB96285ED1B61973EFC25ABEF1B7E839FBA579E6FF4AA89F46CAF0AD6A532E958 SWAP2 ADD PUSH1 0x40 MLOAD DUP1 SWAP2 SUB SWAP1 LOG1 PUSH2 0x196 SSTORE JUMP JUMPDEST PUSH1 0x0 CALLER PUSH2 0xCDD DUP2 DUP6 DUP6 PUSH2 0x2030 JUMP JUMPDEST PUSH1 0x0 PUSH2 0xCC9 DUP3 PUSH1 0x1 PUSH2 0x1E2C JUMP JUMPDEST PUSH1 0x0 PUSH2 0x17CA PUSH2 0x23BD JUMP JUMPDEST PUSH2 0x17D2 PUSH2 0x2403 JUMP JUMPDEST PUSH1 0x0 NOT DUP5 SUB PUSH2 0x17EB JUMPI PUSH2 0x17E4 DUP3 PUSH2 0x1A97 JUMP JUMPDEST SWAP4 POP PUSH2 0x1843 JUMP JUMPDEST PUSH2 0x17F4 DUP3 PUSH2 0x1A97 JUMP JUMPDEST DUP5 GT ISZERO PUSH2 0x1843 JUMPI PUSH1 0x40 MLOAD PUSH3 0x461BCD PUSH1 0xE5 SHL DUP2 MSTORE PUSH1 0x20 PUSH1 0x4 DUP3 ADD MSTORE PUSH1 0x1F PUSH1 0x24 DUP3 ADD MSTORE PUSH32 0x455243343632363A207769746864726177206D6F7265207468616E206D617800 PUSH1 0x44 DUP3 ADD MSTORE PUSH1 0x64 ADD PUSH2 0xD7C JUMP JUMPDEST PUSH2 0x184C DUP5 PUSH2 0xCE7 JUMP JUMPDEST SWAP1 POP PUSH1 0x0 PUSH2 0x1859 DUP6 PUSH2 0xDC8 JUMP JUMPDEST PUSH2 0x1863 SWAP1 DUP7 PUSH2 0x385A JUMP JUMPDEST PUSH2 0x192 SLOAD PUSH1 0x40 MLOAD PUSH4 0x2E1A7D4D PUSH1 0xE0 SHL DUP2 MSTORE PUSH1 0x4 DUP2 ADD DUP4 SWAP1 MSTORE SWAP2 SWAP3 POP PUSH1 0x0 SWAP2 PUSH1 0x1 PUSH1 0x1 PUSH1 0xA0 SHL SUB SWAP1 SWAP2 AND SWAP1 PUSH4 0x2E1A7D4D SWAP1 PUSH1 0x24 ADD PUSH1 0x20 PUSH1 0x40 MLOAD DUP1 DUP4 SUB DUP2 PUSH1 0x0 DUP8 GAS CALL ISZERO DUP1 ISZERO PUSH2 0x18B5 JUMPI RETURNDATASIZE PUSH1 0x0 DUP1 RETURNDATACOPY RETURNDATASIZE PUSH1 0x0 REVERT JUMPDEST POP POP POP POP PUSH1 0x40 MLOAD RETURNDATASIZE PUSH1 0x1F NOT PUSH1 0x1F DUP3 ADD AND DUP3 ADD DUP1 PUSH1 0x40 MSTORE POP DUP2 ADD SWAP1 PUSH2 0x18D9 SWAP2 SWAP1 PUSH2 0x36F7 JUMP JUMPDEST SWAP1 POP PUSH2 0x18E8 CALLER DUP7 DUP7 DUP5 DUP8 PUSH2 0x2766 JUMP JUMPDEST POP POP PUSH2 0xD13 PUSH1 0x1 PUSH1 0xFB SSTORE JUMP JUMPDEST PUSH2 0x192 SLOAD PUSH1 0x40 DUP1 MLOAD PUSH3 0x8BB5FB PUSH1 0xE4 SHL DUP2 MSTORE SWAP1 MLOAD PUSH1 0x0 SWAP3 PUSH1 0x1 PUSH1 0x1 PUSH1 0xA0 SHL SUB AND SWAP2 PUSH4 0x8BB5FB0 SWAP2 PUSH1 0x4 DUP1 DUP4 ADD SWAP3 PUSH1 0x20 SWAP3 SWAP2 SWAP1 DUP3 SWAP1 SUB ADD DUP2 DUP7 GAS STATICCALL ISZERO DUP1 ISZERO PUSH2 0x193E JUMPI RETURNDATASIZE PUSH1 0x0 DUP1 RETURNDATACOPY RETURNDATASIZE PUSH1 0x0 REVERT JUMPDEST POP POP POP POP PUSH1 0x40 MLOAD RETURNDATASIZE PUSH1 0x1F NOT PUSH1 0x1F DUP3 ADD AND DUP3 ADD DUP1 PUSH1 0x40 MSTORE POP DUP2 ADD SWAP1 PUSH2 0xC24 SWAP2 SWAP1 PUSH2 0x36F7 JUMP JUMPDEST PUSH1 0x0 PUSH2 0x196C PUSH2 0x23BD JUMP JUMPDEST PUSH2 0x1974 PUSH2 0x2403 JUMP JUMPDEST PUSH1 0x0 NOT DUP5 SUB PUSH2 0x198D JUMPI PUSH2 0x1986 DUP3 PUSH2 0x1ABC JUMP JUMPDEST SWAP4 POP PUSH2 0x19E5 JUMP JUMPDEST PUSH2 0x1996 DUP3 PUSH2 0x1ABC JUMP JUMPDEST DUP5 GT ISZERO PUSH2 0x19E5 JUMPI PUSH1 0x40 MLOAD PUSH3 0x461BCD PUSH1 0xE5 SHL DUP2 MSTORE PUSH1 0x20 PUSH1 0x4 DUP3 ADD MSTORE PUSH1 0x1D PUSH1 0x24 DUP3 ADD MSTORE PUSH32 0x455243343632363A2072656465656D206D6F7265207468616E206D6178000000 PUSH1 0x44 DUP3 ADD MSTORE PUSH1 0x64 ADD PUSH2 0xD7C JUMP JUMPDEST PUSH1 0x0 PUSH2 0x19F0 DUP6 PUSH2 0xCBC JUMP JUMPDEST SWAP1 POP PUSH2 0x19FB DUP2 PUSH2 0xDC8 JUMP JUMPDEST PUSH2 0x1A05 SWAP1 DUP3 PUSH2 0x385A JUMP JUMPDEST PUSH2 0x192 SLOAD PUSH1 0x40 MLOAD PUSH4 0x2E1A7D4D PUSH1 0xE0 SHL DUP2 MSTORE PUSH1 0x4 DUP2 ADD DUP4 SWAP1 MSTORE SWAP2 SWAP4 POP PUSH1 0x0 SWAP2 PUSH1 0x1 PUSH1 0x1 PUSH1 0xA0 SHL SUB SWAP1 SWAP2 AND SWAP1 PUSH4 0x2E1A7D4D SWAP1 PUSH1 0x24 ADD PUSH1 0x20 PUSH1 0x40 MLOAD DUP1 DUP4 SUB DUP2 PUSH1 0x0 DUP8 GAS CALL ISZERO DUP1 ISZERO PUSH2 0x1A57 JUMPI RETURNDATASIZE PUSH1 0x0 DUP1 RETURNDATACOPY RETURNDATASIZE PUSH1 0x0 REVERT JUMPDEST POP POP POP POP PUSH1 0x40 MLOAD RETURNDATASIZE PUSH1 0x1F NOT PUSH1 0x1F DUP3 ADD AND DUP3 ADD DUP1 PUSH1 0x40 MSTORE POP DUP2 ADD SWAP1 PUSH2 0x1A7B SWAP2 SWAP1 PUSH2 0x36F7 JUMP JUMPDEST SWAP1 POP PUSH2 0x18E8 CALLER DUP7 DUP7 DUP5 DUP11 PUSH2 0x2766 JUMP JUMPDEST PUSH1 0x0 PUSH2 0xCC9 DUP3 PUSH1 0x0 PUSH2 0x1F89 JUMP JUMPDEST PUSH1 0x1 PUSH1 0x1 PUSH1 0xA0 SHL SUB DUP2 AND PUSH1 0x0 SWAP1 DUP2 MSTORE PUSH2 0x12E PUSH1 0x20 MSTORE PUSH1 0x40 DUP2 KECCAK256 SLOAD PUSH2 0xCC9 SWAP1 PUSH1 0x0 PUSH2 0x1E2C JUMP JUMPDEST PUSH1 0x1 PUSH1 0x1 PUSH1 0xA0 SHL SUB DUP2 AND PUSH1 0x0 SWAP1 DUP2 MSTORE PUSH2 0x12E PUSH1 0x20 MSTORE PUSH1 0x40 DUP2 KECCAK256 SLOAD PUSH2 0xCC9 JUMP JUMPDEST PUSH2 0x1AE3 PUSH2 0x1C67 JUMP JUMPDEST PUSH1 0x1 PUSH1 0x1 PUSH1 0xA0 SHL SUB DUP2 AND PUSH2 0x1B2B JUMPI PUSH1 0x40 MLOAD PUSH3 0x461BCD PUSH1 0xE5 SHL DUP2 MSTORE PUSH1 0x20 PUSH1 0x4 DUP3 ADD MSTORE PUSH1 0xF PUSH1 0x24 DUP3 ADD MSTORE PUSH15 0x5374726174656779206572726F7221 PUSH1 0x88 SHL PUSH1 0x44 DUP3 ADD MSTORE PUSH1 0x64 ADD PUSH2 0xD7C JUMP JUMPDEST PUSH2 0x192 SLOAD PUSH1 0x40 DUP1 MLOAD PUSH1 0x1 PUSH1 0x1 PUSH1 0xA0 SHL SUB SWAP3 DUP4 AND DUP2 MSTORE SWAP2 DUP4 AND PUSH1 0x20 DUP4 ADD MSTORE PUSH32 0x1E0F9BC8B0F77D9AE5D0AD2B0A996F775D47A5D0B473E464166E7D559F384734 SWAP2 ADD PUSH1 0x40 MLOAD DUP1 SWAP2 SUB SWAP1 LOG1 PUSH2 0x192 DUP1 SLOAD PUSH1 0x1 PUSH1 0x1 PUSH1 0xA0 SHL SUB NOT AND PUSH1 0x1 PUSH1 0x1 PUSH1 0xA0 SHL SUB DUP4 AND OR SWAP1 SSTORE PUSH2 0xEC3 PUSH20 0x5979D7B546E38E414F7E9822514BE443A4800529 DUP3 PUSH1 0x0 NOT PUSH2 0x2813 JUMP JUMPDEST PUSH1 0x1 PUSH1 0x1 PUSH1 0xA0 SHL SUB SWAP2 DUP3 AND PUSH1 0x0 SWAP1 DUP2 MSTORE PUSH2 0x12F PUSH1 0x20 SWAP1 DUP2 MSTORE PUSH1 0x40 DUP1 DUP4 KECCAK256 SWAP4 SWAP1 SWAP5 AND DUP3 MSTORE SWAP2 SWAP1 SWAP2 MSTORE KECCAK256 SLOAD SWAP1 JUMP JUMPDEST PUSH2 0x1BE4 PUSH2 0x1C67 JUMP JUMPDEST PUSH1 0x1 PUSH1 0x1 PUSH1 0xA0 SHL SUB DUP2 AND PUSH2 0x1C49 JUMPI PUSH1 0x40 MLOAD PUSH3 0x461BCD PUSH1 0xE5 SHL DUP2 MSTORE PUSH1 0x20 PUSH1 0x4 DUP3 ADD MSTORE PUSH1 0x26 PUSH1 0x24 DUP3 ADD MSTORE PUSH32 0x4F776E61626C653A206E6577206F776E657220697320746865207A65726F2061 PUSH1 0x44 DUP3 ADD MSTORE PUSH6 0x646472657373 PUSH1 0xD0 SHL PUSH1 0x64 DUP3 ADD MSTORE PUSH1 0x84 ADD PUSH2 0xD7C JUMP JUMPDEST PUSH2 0xEC3 DUP2 PUSH2 0x2606 JUMP JUMPDEST PUSH1 0x0 DUP1 PUSH2 0x2710 PUSH2 0x196 SLOAD DUP5 PUSH2 0xDDD SWAP2 SWAP1 PUSH2 0x3726 JUMP JUMPDEST PUSH1 0x33 SLOAD PUSH1 0x1 PUSH1 0x1 PUSH1 0xA0 SHL SUB AND CALLER EQ PUSH2 0xEF8 JUMPI PUSH1 0x40 MLOAD PUSH3 0x461BCD PUSH1 0xE5 SHL DUP2 MSTORE PUSH1 0x20 PUSH1 0x4 DUP3 ADD DUP2 SWAP1 MSTORE PUSH1 0x24 DUP3 ADD MSTORE PUSH32 0x4F776E61626C653A2063616C6C6572206973206E6F7420746865206F776E6572 PUSH1 0x44 DUP3 ADD MSTORE PUSH1 0x64 ADD PUSH2 0xD7C JUMP JUMPDEST PUSH1 0x40 DUP1 MLOAD PUSH1 0x1 PUSH1 0x1 PUSH1 0xA0 SHL SUB DUP5 AND PUSH1 0x24 DUP3 ADD MSTORE PUSH1 0x44 DUP1 DUP3 ADD DUP5 SWAP1 MSTORE DUP3 MLOAD DUP1 DUP4 SUB SWAP1 SWAP2 ADD DUP2 MSTORE PUSH1 0x64 SWAP1 SWAP2 ADD SWAP1 SWAP2 MSTORE PUSH1 0x20 DUP2 ADD DUP1 MLOAD PUSH1 0x1 PUSH1 0x1 PUSH1 0xE0 SHL SUB AND PUSH4 0xA9059CBB PUSH1 0xE0 SHL OR SWAP1 MSTORE PUSH2 0xB7E SWAP1 DUP5 SWAP1 PUSH2 0x28F8 JUMP JUMPDEST DUP1 SELFBALANCE LT ISZERO PUSH2 0x1D63 JUMPI PUSH1 0x40 MLOAD PUSH3 0x461BCD PUSH1 0xE5 SHL DUP2 MSTORE PUSH1 0x20 PUSH1 0x4 DUP3 ADD MSTORE PUSH1 0x1D PUSH1 0x24 DUP3 ADD MSTORE PUSH32 0x416464726573733A20696E73756666696369656E742062616C616E6365000000 PUSH1 0x44 DUP3 ADD MSTORE PUSH1 0x64 ADD PUSH2 0xD7C JUMP JUMPDEST PUSH1 0x0 DUP3 PUSH1 0x1 PUSH1 0x1 PUSH1 0xA0 SHL SUB AND DUP3 PUSH1 0x40 MLOAD PUSH1 0x0 PUSH1 0x40 MLOAD DUP1 DUP4 SUB DUP2 DUP6 DUP8 GAS CALL SWAP3 POP POP POP RETURNDATASIZE DUP1 PUSH1 0x0 DUP2 EQ PUSH2 0x1DB0 JUMPI PUSH1 0x40 MLOAD SWAP2 POP PUSH1 0x1F NOT PUSH1 0x3F RETURNDATASIZE ADD AND DUP3 ADD PUSH1 0x40 MSTORE RETURNDATASIZE DUP3 MSTORE RETURNDATASIZE PUSH1 0x0 PUSH1 0x20 DUP5 ADD RETURNDATACOPY PUSH2 0x1DB5 JUMP JUMPDEST PUSH1 0x60 SWAP2 POP JUMPDEST POP POP SWAP1 POP DUP1 PUSH2 0xB7E JUMPI PUSH1 0x40 MLOAD PUSH3 0x461BCD PUSH1 0xE5 SHL DUP2 MSTORE PUSH1 0x20 PUSH1 0x4 DUP3 ADD MSTORE PUSH1 0x3A PUSH1 0x24 DUP3 ADD MSTORE PUSH32 0x416464726573733A20756E61626C6520746F2073656E642076616C75652C2072 PUSH1 0x44 DUP3 ADD MSTORE PUSH32 0x6563697069656E74206D61792068617665207265766572746564000000000000 PUSH1 0x64 DUP3 ADD MSTORE PUSH1 0x84 ADD PUSH2 0xD7C JUMP JUMPDEST PUSH1 0x0 DUP1 PUSH2 0x1E39 PUSH2 0x130 SLOAD SWAP1 JUMP JUMPDEST SWAP1 POP DUP1 ISZERO PUSH2 0x1E5A JUMPI PUSH2 0x1E55 PUSH2 0x1E4C PUSH2 0xB83 JUMP JUMPDEST DUP6 SWAP1 DUP4 DUP7 PUSH2 0x29CD JUMP JUMPDEST PUSH2 0x1E5C JUMP JUMPDEST DUP4 JUMPDEST SWAP5 SWAP4 POP POP POP POP JUMP JUMPDEST PUSH1 0x1 PUSH1 0x1 PUSH1 0xA0 SHL SUB DUP4 AND PUSH2 0x1EC6 JUMPI PUSH1 0x40 MLOAD PUSH3 0x461BCD PUSH1 0xE5 SHL DUP2 MSTORE PUSH1 0x20 PUSH1 0x4 DUP3 ADD MSTORE PUSH1 0x24 DUP1 DUP3 ADD MSTORE PUSH32 0x45524332303A20617070726F76652066726F6D20746865207A65726F20616464 PUSH1 0x44 DUP3 ADD MSTORE PUSH4 0x72657373 PUSH1 0xE0 SHL PUSH1 0x64 DUP3 ADD MSTORE PUSH1 0x84 ADD PUSH2 0xD7C JUMP JUMPDEST PUSH1 0x1 PUSH1 0x1 PUSH1 0xA0 SHL SUB DUP3 AND PUSH2 0x1F27 JUMPI PUSH1 0x40 MLOAD PUSH3 0x461BCD PUSH1 0xE5 SHL DUP2 MSTORE PUSH1 0x20 PUSH1 0x4 DUP3 ADD MSTORE PUSH1 0x22 PUSH1 0x24 DUP3 ADD MSTORE PUSH32 0x45524332303A20617070726F766520746F20746865207A65726F206164647265 PUSH1 0x44 DUP3 ADD MSTORE PUSH2 0x7373 PUSH1 0xF0 SHL PUSH1 0x64 DUP3 ADD MSTORE PUSH1 0x84 ADD PUSH2 0xD7C JUMP JUMPDEST PUSH1 0x1 PUSH1 0x1 PUSH1 0xA0 SHL SUB DUP4 DUP2 AND PUSH1 0x0 DUP2 DUP2 MSTORE PUSH2 0x12F PUSH1 0x20 SWAP1 DUP2 MSTORE PUSH1 0x40 DUP1 DUP4 KECCAK256 SWAP5 DUP8 AND DUP1 DUP5 MSTORE SWAP5 DUP3 MSTORE SWAP2 DUP3 SWAP1 KECCAK256 DUP6 SWAP1 SSTORE SWAP1 MLOAD DUP5 DUP2 MSTORE PUSH32 0x8C5BE1E5EBEC7D5BD14F71427D1E84F3DD0314C0F7B2291E5B200AC8C7C3B925 SWAP2 ADD PUSH1 0x40 MLOAD DUP1 SWAP2 SUB SWAP1 LOG3 POP POP POP JUMP JUMPDEST PUSH1 0x0 DUP1 PUSH2 0x1F96 PUSH2 0x130 SLOAD SWAP1 JUMP JUMPDEST SWAP1 POP DUP4 ISZERO DUP1 PUSH2 0x1FA3 JUMPI POP DUP1 ISZERO JUMPDEST PUSH2 0x1E5A JUMPI PUSH2 0x1E55 DUP2 PUSH2 0x1FB3 PUSH2 0xB83 JUMP JUMPDEST DUP7 SWAP2 SWAP1 DUP7 PUSH2 0x29CD JUMP JUMPDEST PUSH1 0x0 PUSH2 0x1FC8 DUP5 DUP5 PUSH2 0x1BB0 JUMP JUMPDEST SWAP1 POP PUSH1 0x0 NOT DUP2 EQ PUSH2 0x1674 JUMPI DUP2 DUP2 LT ISZERO PUSH2 0x2023 JUMPI PUSH1 0x40 MLOAD PUSH3 0x461BCD PUSH1 0xE5 SHL DUP2 MSTORE PUSH1 0x20 PUSH1 0x4 DUP3 ADD MSTORE PUSH1 0x1D PUSH1 0x24 DUP3 ADD MSTORE PUSH32 0x45524332303A20696E73756666696369656E7420616C6C6F77616E6365000000 PUSH1 0x44 DUP3 ADD MSTORE PUSH1 0x64 ADD PUSH2 0xD7C JUMP JUMPDEST PUSH2 0x1674 DUP5 DUP5 DUP5 DUP5 SUB PUSH2 0x1E64 JUMP JUMPDEST PUSH1 0x1 PUSH1 0x1 PUSH1 0xA0 SHL SUB DUP4 AND PUSH2 0x2094 JUMPI PUSH1 0x40 MLOAD PUSH3 0x461BCD PUSH1 0xE5 SHL DUP2 MSTORE PUSH1 0x20 PUSH1 0x4 DUP3 ADD MSTORE PUSH1 0x25 PUSH1 0x24 DUP3 ADD MSTORE PUSH32 0x45524332303A207472616E736665722066726F6D20746865207A65726F206164 PUSH1 0x44 DUP3 ADD MSTORE PUSH5 0x6472657373 PUSH1 0xD8 SHL PUSH1 0x64 DUP3 ADD MSTORE PUSH1 0x84 ADD PUSH2 0xD7C JUMP JUMPDEST PUSH1 0x1 PUSH1 0x1 PUSH1 0xA0 SHL SUB DUP3 AND PUSH2 0x20F6 JUMPI PUSH1 0x40 MLOAD PUSH3 0x461BCD PUSH1 0xE5 SHL DUP2 MSTORE PUSH1 0x20 PUSH1 0x4 DUP3 ADD MSTORE PUSH1 0x23 PUSH1 0x24 DUP3 ADD MSTORE PUSH32 0x45524332303A207472616E7366657220746F20746865207A65726F2061646472 PUSH1 0x44 DUP3 ADD MSTORE PUSH3 0x657373 PUSH1 0xE8 SHL PUSH1 0x64 DUP3 ADD MSTORE PUSH1 0x84 ADD PUSH2 0xD7C JUMP JUMPDEST PUSH1 0x1 PUSH1 0x1 PUSH1 0xA0 SHL SUB DUP4 AND PUSH1 0x0 SWAP1 DUP2 MSTORE PUSH2 0x12E PUSH1 0x20 MSTORE PUSH1 0x40 SWAP1 KECCAK256 SLOAD DUP2 DUP2 LT ISZERO PUSH2 0x216F JUMPI PUSH1 0x40 MLOAD PUSH3 0x461BCD PUSH1 0xE5 SHL DUP2 MSTORE PUSH1 0x20 PUSH1 0x4 DUP3 ADD MSTORE PUSH1 0x26 PUSH1 0x24 DUP3 ADD MSTORE PUSH32 0x45524332303A207472616E7366657220616D6F756E7420657863656564732062 PUSH1 0x44 DUP3 ADD MSTORE PUSH6 0x616C616E6365 PUSH1 0xD0 SHL PUSH1 0x64 DUP3 ADD MSTORE PUSH1 0x84 ADD PUSH2 0xD7C JUMP JUMPDEST PUSH1 0x1 PUSH1 0x1 PUSH1 0xA0 SHL SUB DUP1 DUP6 AND PUSH1 0x0 DUP2 DUP2 MSTORE PUSH2 0x12E PUSH1 0x20 MSTORE PUSH1 0x40 DUP1 DUP3 KECCAK256 DUP7 DUP7 SUB SWAP1 SSTORE SWAP3 DUP7 AND DUP1 DUP3 MSTORE SWAP1 DUP4 SWAP1 KECCAK256 DUP1 SLOAD DUP7 ADD SWAP1 SSTORE SWAP2 MLOAD PUSH32 0xDDF252AD1BE2C89B69C2B068FC378DAA952BA7F163C4A11628F55A4DF523B3EF SWAP1 PUSH2 0x21D0 SWAP1 DUP7 DUP2 MSTORE PUSH1 0x20 ADD SWAP1 JUMP JUMPDEST PUSH1 0x40 MLOAD DUP1 SWAP2 SUB SWAP1 LOG3 PUSH2 0x1674 JUMP JUMPDEST PUSH2 0xEC3 PUSH2 0x1C67 JUMP JUMPDEST PUSH32 0x4910FDFA16FED3260ED0E7147F7CC6DA11A60208B5B9406D12A635614FFD9143 SLOAD PUSH1 0xFF AND ISZERO PUSH2 0x2218 JUMPI PUSH2 0xB7E DUP4 PUSH2 0x2A2A JUMP JUMPDEST DUP3 PUSH1 0x1 PUSH1 0x1 PUSH1 0xA0 SHL SUB AND PUSH4 0x52D1902D PUSH1 0x40 MLOAD DUP2 PUSH4 0xFFFFFFFF AND PUSH1 0xE0 SHL DUP2 MSTORE PUSH1 0x4 ADD PUSH1 0x20 PUSH1 0x40 MLOAD DUP1 DUP4 SUB DUP2 DUP7 GAS STATICCALL SWAP3 POP POP POP DUP1 ISZERO PUSH2 0x2272 JUMPI POP PUSH1 0x40 DUP1 MLOAD PUSH1 0x1F RETURNDATASIZE SWAP1 DUP2 ADD PUSH1 0x1F NOT AND DUP3 ADD SWAP1 SWAP3 MSTORE PUSH2 0x226F SWAP2 DUP2 ADD SWAP1 PUSH2 0x36F7 JUMP JUMPDEST PUSH1 0x1 JUMPDEST PUSH2 0x22D5 JUMPI PUSH1 0x40 MLOAD PUSH3 0x461BCD PUSH1 0xE5 SHL DUP2 MSTORE PUSH1 0x20 PUSH1 0x4 DUP3 ADD MSTORE PUSH1 0x2E PUSH1 0x24 DUP3 ADD MSTORE PUSH32 0x45524331393637557067726164653A206E657720696D706C656D656E74617469 PUSH1 0x44 DUP3 ADD MSTORE PUSH14 0x6F6E206973206E6F742055555053 PUSH1 0x90 SHL PUSH1 0x64 DUP3 ADD MSTORE PUSH1 0x84 ADD PUSH2 0xD7C JUMP JUMPDEST PUSH1 0x0 DUP1 MLOAD PUSH1 0x20 PUSH2 0x3A94 DUP4 CODECOPY DUP2 MLOAD SWAP2 MSTORE DUP2 EQ PUSH2 0x2344 JUMPI PUSH1 0x40 MLOAD PUSH3 0x461BCD PUSH1 0xE5 SHL DUP2 MSTORE PUSH1 0x20 PUSH1 0x4 DUP3 ADD MSTORE PUSH1 0x29 PUSH1 0x24 DUP3 ADD MSTORE PUSH32 0x45524331393637557067726164653A20756E737570706F727465642070726F78 PUSH1 0x44 DUP3 ADD MSTORE PUSH9 0x1A58589B1955555251 PUSH1 0xBA SHL PUSH1 0x64 DUP3 ADD MSTORE PUSH1 0x84 ADD PUSH2 0xD7C JUMP JUMPDEST POP PUSH2 0xB7E DUP4 DUP4 DUP4 PUSH2 0x2AC6 JUMP JUMPDEST PUSH2 0x2358 PUSH2 0x2AEB JUMP JUMPDEST PUSH1 0xC9 DUP1 SLOAD PUSH1 0xFF NOT AND SWAP1 SSTORE PUSH32 0x5DB9EE0A495BF2E6FF9C91A7834C1BA4FDD244A5E8AA4E537BD38AEAE4B073AA CALLER JUMPDEST PUSH1 0x40 MLOAD PUSH1 0x1 PUSH1 0x1 PUSH1 0xA0 SHL SUB SWAP1 SWAP2 AND DUP2 MSTORE PUSH1 0x20 ADD PUSH1 0x40 MLOAD DUP1 SWAP2 SUB SWAP1 LOG1 JUMP JUMPDEST PUSH1 0x0 DUP1 PUSH2 0x23AD PUSH2 0xB83 JUMP JUMPDEST GT DUP1 PUSH2 0xC24 JUMPI POP POP PUSH2 0x130 SLOAD ISZERO SWAP1 JUMP JUMPDEST PUSH1 0xC9 SLOAD PUSH1 0xFF AND ISZERO PUSH2 0xEF8 JUMPI PUSH1 0x40 MLOAD PUSH3 0x461BCD PUSH1 0xE5 SHL DUP2 MSTORE PUSH1 0x20 PUSH1 0x4 DUP3 ADD MSTORE PUSH1 0x10 PUSH1 0x24 DUP3 ADD MSTORE PUSH16 0x14185D5CD8589B194E881C185D5CD959 PUSH1 0x82 SHL PUSH1 0x44 DUP3 ADD MSTORE PUSH1 0x64 ADD PUSH2 0xD7C JUMP JUMPDEST PUSH1 0x2 PUSH1 0xFB SLOAD SUB PUSH2 0x2455 JUMPI PUSH1 0x40 MLOAD PUSH3 0x461BCD PUSH1 0xE5 SHL DUP2 MSTORE PUSH1 0x20 PUSH1 0x4 DUP3 ADD MSTORE PUSH1 0x1F PUSH1 0x24 DUP3 ADD MSTORE PUSH32 0x5265656E7472616E637947756172643A207265656E7472616E742063616C6C00 PUSH1 0x44 DUP3 ADD MSTORE PUSH1 0x64 ADD PUSH2 0xD7C JUMP JUMPDEST PUSH1 0x2 PUSH1 0xFB SSTORE JUMP JUMPDEST PUSH1 0x1 PUSH1 0x1 PUSH1 0xA0 SHL SUB DUP3 AND PUSH2 0x24BC JUMPI PUSH1 0x40 MLOAD PUSH3 0x461BCD PUSH1 0xE5 SHL DUP2 MSTORE PUSH1 0x20 PUSH1 0x4 DUP3 ADD MSTORE PUSH1 0x21 PUSH1 0x24 DUP3 ADD MSTORE PUSH32 0x45524332303A206275726E2066726F6D20746865207A65726F20616464726573 PUSH1 0x44 DUP3 ADD MSTORE PUSH1 0x73 PUSH1 0xF8 SHL PUSH1 0x64 DUP3 ADD MSTORE PUSH1 0x84 ADD PUSH2 0xD7C JUMP JUMPDEST PUSH1 0x1 PUSH1 0x1 PUSH1 0xA0 SHL SUB DUP3 AND PUSH1 0x0 SWAP1 DUP2 MSTORE PUSH2 0x12E PUSH1 0x20 MSTORE PUSH1 0x40 SWAP1 KECCAK256 SLOAD DUP2 DUP2 LT ISZERO PUSH2 0x2531 JUMPI PUSH1 0x40 MLOAD PUSH3 0x461BCD PUSH1 0xE5 SHL DUP2 MSTORE PUSH1 0x20 PUSH1 0x4 DUP3 ADD MSTORE PUSH1 0x22 PUSH1 0x24 DUP3 ADD MSTORE PUSH32 0x45524332303A206275726E20616D6F756E7420657863656564732062616C616E PUSH1 0x44 DUP3 ADD MSTORE PUSH2 0x6365 PUSH1 0xF0 SHL PUSH1 0x64 DUP3 ADD MSTORE PUSH1 0x84 ADD PUSH2 0xD7C JUMP JUMPDEST PUSH1 0x1 PUSH1 0x1 PUSH1 0xA0 SHL SUB DUP4 AND PUSH1 0x0 DUP2 DUP2 MSTORE PUSH2 0x12E PUSH1 0x20 SWAP1 DUP2 MSTORE PUSH1 0x40 DUP1 DUP4 KECCAK256 DUP7 DUP7 SUB SWAP1 SSTORE PUSH2 0x130 DUP1 SLOAD DUP8 SWAP1 SUB SWAP1 SSTORE MLOAD DUP6 DUP2 MSTORE SWAP2 SWAP3 SWAP2 PUSH32 0xDDF252AD1BE2C89B69C2B068FC378DAA952BA7F163C4A11628F55A4DF523B3EF SWAP2 ADD PUSH1 0x40 MLOAD DUP1 SWAP2 SUB SWAP1 LOG3 POP POP POP JUMP JUMPDEST PUSH1 0x0 PUSH2 0x259E DUP3 PUSH2 0xEFA JUMP JUMPDEST DUP4 GT ISZERO PUSH2 0x25ED JUMPI PUSH1 0x40 MLOAD PUSH3 0x461BCD PUSH1 0xE5 SHL DUP2 MSTORE PUSH1 0x20 PUSH1 0x4 DUP3 ADD MSTORE PUSH1 0x1E PUSH1 0x24 DUP3 ADD MSTORE PUSH32 0x455243343632363A206465706F736974206D6F7265207468616E206D61780000 PUSH1 0x44 DUP3 ADD MSTORE PUSH1 0x64 ADD PUSH2 0xD7C JUMP JUMPDEST PUSH1 0x0 PUSH2 0x25F8 DUP5 PUSH2 0x1A8A JUMP JUMPDEST SWAP1 POP PUSH2 0xD13 CALLER DUP5 DUP7 DUP5 PUSH2 0x2B34 JUMP JUMPDEST PUSH1 0x33 DUP1 SLOAD PUSH1 0x1 PUSH1 0x1 PUSH1 0xA0 SHL SUB DUP4 DUP2 AND PUSH1 0x1 PUSH1 0x1 PUSH1 0xA0 SHL SUB NOT DUP4 AND DUP2 OR SWAP1 SWAP4 SSTORE PUSH1 0x40 MLOAD SWAP2 AND SWAP2 SWAP1 DUP3 SWAP1 PUSH32 0x8BE0079C531659141344CD1FD0A4F28419497F9722A3DAAFE3B4186F6B6457E0 SWAP1 PUSH1 0x0 SWAP1 LOG3 POP POP JUMP JUMPDEST PUSH2 0x2660 PUSH2 0x23BD JUMP JUMPDEST PUSH1 0xC9 DUP1 SLOAD PUSH1 0xFF NOT AND PUSH1 0x1 OR SWAP1 SSTORE PUSH32 0x62E78CEA01BEE320CD4E420270B5EA74000D11B0C9F74754EBDBFC544B05A258 PUSH2 0x2385 CALLER SWAP1 JUMP JUMPDEST PUSH1 0x0 SLOAD PUSH2 0x100 SWAP1 DIV PUSH1 0xFF AND PUSH2 0x26BC JUMPI PUSH1 0x40 MLOAD PUSH3 0x461BCD PUSH1 0xE5 SHL DUP2 MSTORE PUSH1 0x4 ADD PUSH2 0xD7C SWAP1 PUSH2 0x38E6 JUMP JUMPDEST PUSH2 0xEF8 PUSH2 0x2C9A JUMP JUMPDEST PUSH1 0x0 SLOAD PUSH2 0x100 SWAP1 DIV PUSH1 0xFF AND PUSH2 0xEF8 JUMPI PUSH1 0x40 MLOAD PUSH3 0x461BCD PUSH1 0xE5 SHL DUP2 MSTORE PUSH1 0x4 ADD PUSH2 0xD7C SWAP1 PUSH2 0x38E6 JUMP JUMPDEST PUSH1 0x0 SLOAD PUSH2 0x100 SWAP1 DIV PUSH1 0xFF AND PUSH2 0x2712 JUMPI PUSH1 0x40 MLOAD PUSH3 0x461BCD PUSH1 0xE5 SHL DUP2 MSTORE PUSH1 0x4 ADD PUSH2 0xD7C SWAP1 PUSH2 0x38E6 JUMP JUMPDEST PUSH2 0xFE4 DUP3 DUP3 PUSH2 0x2CCA JUMP JUMPDEST PUSH1 0x0 SLOAD PUSH2 0x100 SWAP1 DIV PUSH1 0xFF AND PUSH2 0x2743 JUMPI PUSH1 0x40 MLOAD PUSH3 0x461BCD PUSH1 0xE5 SHL DUP2 MSTORE PUSH1 0x4 ADD PUSH2 0xD7C SWAP1 PUSH2 0x38E6 JUMP JUMPDEST PUSH2 0xEC3 DUP2 PUSH2 0x2D0C JUMP JUMPDEST PUSH1 0x0 DUP1 PUSH2 0x2758 DUP5 PUSH2 0x17B3 JUMP JUMPDEST SWAP1 POP PUSH2 0xD13 CALLER DUP5 DUP4 DUP8 PUSH2 0x2B34 JUMP JUMPDEST DUP3 PUSH1 0x1 PUSH1 0x1 PUSH1 0xA0 SHL SUB AND DUP6 PUSH1 0x1 PUSH1 0x1 PUSH1 0xA0 SHL SUB AND EQ PUSH2 0x278A JUMPI PUSH2 0x278A DUP4 DUP7 DUP4 PUSH2 0x1FBC JUMP JUMPDEST PUSH2 0x2794 DUP4 DUP3 PUSH2 0x245C JUMP JUMPDEST PUSH2 0x160 SLOAD PUSH2 0x27AC SWAP1 PUSH1 0x1 PUSH1 0x1 PUSH1 0xA0 SHL SUB AND DUP6 DUP5 PUSH2 0x2D92 JUMP JUMPDEST DUP3 PUSH1 0x1 PUSH1 0x1 PUSH1 0xA0 SHL SUB AND DUP5 PUSH1 0x1 PUSH1 0x1 PUSH1 0xA0 SHL SUB AND DUP7 PUSH1 0x1 PUSH1 0x1 PUSH1 0xA0 SHL SUB AND PUSH32 0xFBDE797D201C681B91056529119E0B02407C7BB96A4A2C75C01FC9667232C8DB DUP6 DUP6 PUSH1 0x40 MLOAD PUSH2 0x2804 SWAP3 SWAP2 SWAP1 SWAP2 DUP3 MSTORE PUSH1 0x20 DUP3 ADD MSTORE PUSH1 0x40 ADD SWAP1 JUMP JUMPDEST PUSH1 0x40 MLOAD DUP1 SWAP2 SUB SWAP1 LOG4 POP POP POP POP POP JUMP JUMPDEST PUSH1 0x40 MLOAD PUSH4 0x6EB1769F PUSH1 0xE1 SHL DUP2 MSTORE ADDRESS PUSH1 0x4 DUP3 ADD MSTORE PUSH1 0x1 PUSH1 0x1 PUSH1 0xA0 SHL SUB DUP4 DUP2 AND PUSH1 0x24 DUP4 ADD MSTORE PUSH1 0x0 SWAP2 DUP4 SWAP2 DUP7 AND SWAP1 PUSH4 0xDD62ED3E SWAP1 PUSH1 0x44 ADD PUSH1 0x20 PUSH1 0x40 MLOAD DUP1 DUP4 SUB DUP2 DUP7 GAS STATICCALL ISZERO DUP1 ISZERO PUSH2 0x2864 JUMPI RETURNDATASIZE PUSH1 0x0 DUP1 RETURNDATACOPY RETURNDATASIZE PUSH1 0x0 REVERT JUMPDEST POP POP POP POP PUSH1 0x40 MLOAD RETURNDATASIZE PUSH1 0x1F NOT PUSH1 0x1F DUP3 ADD AND DUP3 ADD DUP1 PUSH1 0x40 MSTORE POP DUP2 ADD SWAP1 PUSH2 0x2888 SWAP2 SWAP1 PUSH2 0x36F7 JUMP JUMPDEST PUSH2 0x2892 SWAP2 SWAP1 PUSH2 0x3847 JUMP JUMPDEST PUSH1 0x40 MLOAD PUSH1 0x1 PUSH1 0x1 PUSH1 0xA0 SHL SUB DUP6 AND PUSH1 0x24 DUP3 ADD MSTORE PUSH1 0x44 DUP2 ADD DUP3 SWAP1 MSTORE SWAP1 SWAP2 POP PUSH2 0x1674 SWAP1 DUP6 SWAP1 PUSH4 0x95EA7B3 PUSH1 0xE0 SHL SWAP1 PUSH1 0x64 ADD JUMPDEST PUSH1 0x40 DUP1 MLOAD PUSH1 0x1F NOT DUP2 DUP5 SUB ADD DUP2 MSTORE SWAP2 SWAP1 MSTORE PUSH1 0x20 DUP2 ADD DUP1 MLOAD PUSH1 0x1 PUSH1 0x1 PUSH1 0xE0 SHL SUB AND PUSH1 0x1 PUSH1 0x1 PUSH1 0xE0 SHL SUB NOT SWAP1 SWAP4 AND SWAP3 SWAP1 SWAP3 OR SWAP1 SWAP2 MSTORE PUSH2 0x2DC2 JUMP JUMPDEST PUSH1 0x0 PUSH2 0x294D DUP3 PUSH1 0x40 MLOAD DUP1 PUSH1 0x40 ADD PUSH1 0x40 MSTORE DUP1 PUSH1 0x20 DUP2 MSTORE PUSH1 0x20 ADD PUSH32 0x5361666545524332303A206C6F772D6C6576656C2063616C6C206661696C6564 DUP2 MSTORE POP DUP6 PUSH1 0x1 PUSH1 0x1 PUSH1 0xA0 SHL SUB AND PUSH2 0x2E35 SWAP1 SWAP3 SWAP2 SWAP1 PUSH4 0xFFFFFFFF AND JUMP JUMPDEST SWAP1 POP DUP1 MLOAD PUSH1 0x0 EQ DUP1 PUSH2 0x296E JUMPI POP DUP1 DUP1 PUSH1 0x20 ADD SWAP1 MLOAD DUP2 ADD SWAP1 PUSH2 0x296E SWAP2 SWAP1 PUSH2 0x3931 JUMP JUMPDEST PUSH2 0xB7E JUMPI PUSH1 0x40 MLOAD PUSH3 0x461BCD PUSH1 0xE5 SHL DUP2 MSTORE PUSH1 0x20 PUSH1 0x4 DUP3 ADD MSTORE PUSH1 0x2A PUSH1 0x24 DUP3 ADD MSTORE PUSH32 0x5361666545524332303A204552433230206F7065726174696F6E20646964206E PUSH1 0x44 DUP3 ADD MSTORE PUSH10 0x1BDD081CDD58D8D95959 PUSH1 0xB2 SHL PUSH1 0x64 DUP3 ADD MSTORE PUSH1 0x84 ADD PUSH2 0xD7C JUMP JUMPDEST PUSH1 0x0 DUP1 PUSH2 0x29DB DUP7 DUP7 DUP7 PUSH2 0x2E44 JUMP JUMPDEST SWAP1 POP PUSH1 0x1 DUP4 PUSH1 0x2 DUP2 GT ISZERO PUSH2 0x29F1 JUMPI PUSH2 0x29F1 PUSH2 0x3953 JUMP JUMPDEST EQ DUP1 ISZERO PUSH2 0x2A0E JUMPI POP PUSH1 0x0 DUP5 DUP1 PUSH2 0x2A09 JUMPI PUSH2 0x2A09 PUSH2 0x373D JUMP JUMPDEST DUP7 DUP9 MULMOD GT JUMPDEST ISZERO PUSH2 0x2A21 JUMPI PUSH2 0x2A1E PUSH1 0x1 DUP3 PUSH2 0x3847 JUMP JUMPDEST SWAP1 POP JUMPDEST SWAP6 SWAP5 POP POP POP POP POP JUMP JUMPDEST PUSH1 0x1 PUSH1 0x1 PUSH1 0xA0 SHL SUB DUP2 AND EXTCODESIZE PUSH2 0x2A97 JUMPI PUSH1 0x40 MLOAD PUSH3 0x461BCD PUSH1 0xE5 SHL DUP2 MSTORE PUSH1 0x20 PUSH1 0x4 DUP3 ADD MSTORE PUSH1 0x2D PUSH1 0x24 DUP3 ADD MSTORE PUSH32 0x455243313936373A206E657720696D706C656D656E746174696F6E206973206E PUSH1 0x44 DUP3 ADD MSTORE PUSH13 0x1BDD08184818DBDB9D1C9858DD PUSH1 0x9A SHL PUSH1 0x64 DUP3 ADD MSTORE PUSH1 0x84 ADD PUSH2 0xD7C JUMP JUMPDEST PUSH1 0x0 DUP1 MLOAD PUSH1 0x20 PUSH2 0x3A94 DUP4 CODECOPY DUP2 MLOAD SWAP2 MSTORE DUP1 SLOAD PUSH1 0x1 PUSH1 0x1 PUSH1 0xA0 SHL SUB NOT AND PUSH1 0x1 PUSH1 0x1 PUSH1 0xA0 SHL SUB SWAP3 SWAP1 SWAP3 AND SWAP2 SWAP1 SWAP2 OR SWAP1 SSTORE JUMP JUMPDEST PUSH2 0x2ACF DUP4 PUSH2 0x2EF3 JUMP JUMPDEST PUSH1 0x0 DUP3 MLOAD GT DUP1 PUSH2 0x2ADC JUMPI POP DUP1 JUMPDEST ISZERO PUSH2 0xB7E JUMPI PUSH2 0x1674 DUP4 DUP4 PUSH2 0x2F33 JUMP JUMPDEST PUSH1 0xC9 SLOAD PUSH1 0xFF AND PUSH2 0xEF8 JUMPI PUSH1 0x40 MLOAD PUSH3 0x461BCD PUSH1 0xE5 SHL DUP2 MSTORE PUSH1 0x20 PUSH1 0x4 DUP3 ADD MSTORE PUSH1 0x14 PUSH1 0x24 DUP3 ADD MSTORE PUSH20 0x14185D5CD8589B194E881B9BDD081C185D5CD959 PUSH1 0x62 SHL PUSH1 0x44 DUP3 ADD MSTORE PUSH1 0x64 ADD PUSH2 0xD7C JUMP JUMPDEST PUSH2 0x194 SLOAD PUSH2 0x2B40 PUSH2 0xB83 JUMP JUMPDEST PUSH2 0x2B4A SWAP1 DUP5 PUSH2 0x3847 JUMP JUMPDEST GT ISZERO PUSH2 0x2B98 JUMPI PUSH1 0x40 MLOAD PUSH3 0x461BCD PUSH1 0xE5 SHL DUP2 MSTORE PUSH1 0x20 PUSH1 0x4 DUP3 ADD MSTORE PUSH1 0x1A PUSH1 0x24 DUP3 ADD MSTORE PUSH32 0x457863656564696E67206D61726B65742063617061636974792E000000000000 PUSH1 0x44 DUP3 ADD MSTORE PUSH1 0x64 ADD PUSH2 0xD7C JUMP JUMPDEST PUSH2 0x2BB8 PUSH20 0x5979D7B546E38E414F7E9822514BE443A4800529 DUP6 ADDRESS DUP6 PUSH2 0x301E JUMP JUMPDEST PUSH2 0x2BC2 DUP4 DUP3 PUSH2 0x3056 JUMP JUMPDEST PUSH2 0x192 SLOAD PUSH1 0x40 MLOAD PUSH4 0xB6B55F25 PUSH1 0xE0 SHL DUP2 MSTORE PUSH1 0x4 DUP2 ADD DUP5 SWAP1 MSTORE PUSH1 0x1 PUSH1 0x1 PUSH1 0xA0 SHL SUB SWAP1 SWAP2 AND SWAP1 PUSH4 0xB6B55F25 SWAP1 PUSH1 0x24 ADD PUSH1 0x20 PUSH1 0x40 MLOAD DUP1 DUP4 SUB DUP2 PUSH1 0x0 DUP8 GAS CALL ISZERO DUP1 ISZERO PUSH2 0x2C0E JUMPI RETURNDATASIZE PUSH1 0x0 DUP1 RETURNDATACOPY RETURNDATASIZE PUSH1 0x0 REVERT JUMPDEST POP POP POP POP PUSH1 0x40 MLOAD RETURNDATASIZE PUSH1 0x1F NOT PUSH1 0x1F DUP3 ADD AND DUP3 ADD DUP1 PUSH1 0x40 MSTORE POP DUP2 ADD SWAP1 PUSH2 0x2C32 SWAP2 SWAP1 PUSH2 0x36F7 JUMP JUMPDEST POP DUP2 PUSH2 0x198 PUSH1 0x0 DUP3 DUP3 SLOAD PUSH2 0x2C46 SWAP2 SWAP1 PUSH2 0x3847 JUMP JUMPDEST SWAP1 SWAP2 SSTORE POP POP PUSH1 0x40 DUP1 MLOAD DUP4 DUP2 MSTORE PUSH1 0x20 DUP2 ADD DUP4 SWAP1 MSTORE PUSH1 0x1 PUSH1 0x1 PUSH1 0xA0 SHL SUB DUP1 DUP7 AND SWAP3 SWAP1 DUP8 AND SWAP2 PUSH32 0xDCBC1C05240F31FF3AD067EF1EE35CE4997762752E3A095284754544F4C709D7 SWAP2 ADD PUSH1 0x40 MLOAD DUP1 SWAP2 SUB SWAP1 LOG3 POP POP POP POP JUMP JUMPDEST PUSH1 0x0 SLOAD PUSH2 0x100 SWAP1 DIV PUSH1 0xFF AND PUSH2 0x2CC1 JUMPI PUSH1 0x40 MLOAD PUSH3 0x461BCD PUSH1 0xE5 SHL DUP2 MSTORE PUSH1 0x4 ADD PUSH2 0xD7C SWAP1 PUSH2 0x38E6 JUMP JUMPDEST PUSH2 0xEF8 CALLER PUSH2 0x2606 JUMP JUMPDEST PUSH1 0x0 SLOAD PUSH2 0x100 SWAP1 DIV PUSH1 0xFF AND PUSH2 0x2CF1 JUMPI PUSH1 0x40 MLOAD PUSH3 0x461BCD PUSH1 0xE5 SHL DUP2 MSTORE PUSH1 0x4 ADD PUSH2 0xD7C SWAP1 PUSH2 0x38E6 JUMP JUMPDEST PUSH2 0x131 PUSH2 0x2CFE DUP4 DUP3 PUSH2 0x39B7 JUMP JUMPDEST POP PUSH2 0x132 PUSH2 0xB7E DUP3 DUP3 PUSH2 0x39B7 JUMP JUMPDEST PUSH1 0x0 SLOAD PUSH2 0x100 SWAP1 DIV PUSH1 0xFF AND PUSH2 0x2D33 JUMPI PUSH1 0x40 MLOAD PUSH3 0x461BCD PUSH1 0xE5 SHL DUP2 MSTORE PUSH1 0x4 ADD PUSH2 0xD7C SWAP1 PUSH2 0x38E6 JUMP JUMPDEST PUSH1 0x0 DUP1 PUSH2 0x2D3F DUP4 PUSH2 0x3119 JUMP JUMPDEST SWAP2 POP SWAP2 POP DUP2 PUSH2 0x2D4F JUMPI PUSH1 0x12 PUSH2 0x2D51 JUMP JUMPDEST DUP1 JUMPDEST PUSH2 0x160 DUP1 SLOAD PUSH1 0x1 PUSH1 0x1 PUSH1 0xA0 SHL SUB SWAP1 SWAP6 AND PUSH1 0x1 PUSH1 0x1 PUSH1 0xA0 SHL SUB NOT PUSH1 0xFF SWAP4 SWAP1 SWAP4 AND PUSH1 0x1 PUSH1 0xA0 SHL MUL SWAP3 SWAP1 SWAP3 AND PUSH1 0x1 PUSH1 0x1 PUSH1 0xA8 SHL SUB NOT SWAP1 SWAP6 AND SWAP5 SWAP1 SWAP5 OR OR SWAP1 SWAP3 SSTORE POP POP JUMP JUMPDEST PUSH1 0x40 MLOAD PUSH1 0x1 PUSH1 0x1 PUSH1 0xA0 SHL SUB DUP4 AND PUSH1 0x24 DUP3 ADD MSTORE PUSH1 0x44 DUP2 ADD DUP3 SWAP1 MSTORE PUSH2 0xB7E SWAP1 DUP5 SWAP1 PUSH4 0xA9059CBB PUSH1 0xE0 SHL SWAP1 PUSH1 0x64 ADD PUSH2 0x28C1 JUMP JUMPDEST PUSH1 0x0 PUSH2 0x2E17 DUP3 PUSH1 0x40 MLOAD DUP1 PUSH1 0x40 ADD PUSH1 0x40 MSTORE DUP1 PUSH1 0x20 DUP2 MSTORE PUSH1 0x20 ADD PUSH32 0x5361666545524332303A206C6F772D6C6576656C2063616C6C206661696C6564 DUP2 MSTORE POP DUP6 PUSH1 0x1 PUSH1 0x1 PUSH1 0xA0 SHL SUB AND PUSH2 0x2E35 SWAP1 SWAP3 SWAP2 SWAP1 PUSH4 0xFFFFFFFF AND JUMP JUMPDEST DUP1 MLOAD SWAP1 SWAP2 POP ISZERO PUSH2 0xB7E JUMPI DUP1 DUP1 PUSH1 0x20 ADD SWAP1 MLOAD DUP2 ADD SWAP1 PUSH2 0x296E SWAP2 SWAP1 PUSH2 0x3931 JUMP JUMPDEST PUSH1 0x60 PUSH2 0x1E5C DUP5 DUP5 PUSH1 0x0 DUP6 PUSH2 0x31F7 JUMP JUMPDEST PUSH1 0x0 DUP1 DUP1 PUSH1 0x0 NOT DUP6 DUP8 MULMOD DUP6 DUP8 MUL SWAP3 POP DUP3 DUP2 LT DUP4 DUP3 SUB SUB SWAP2 POP POP DUP1 PUSH1 0x0 SUB PUSH2 0x2E7E JUMPI DUP4 DUP3 DUP2 PUSH2 0x2E74 JUMPI PUSH2 0x2E74 PUSH2 0x373D JUMP JUMPDEST DIV SWAP3 POP POP POP PUSH2 0xD13 JUMP JUMPDEST DUP1 DUP5 GT PUSH2 0x2E8A JUMPI PUSH1 0x0 DUP1 REVERT JUMPDEST PUSH1 0x0 DUP5 DUP7 DUP9 MULMOD PUSH1 0x2 PUSH1 0x1 DUP8 NOT DUP2 ADD DUP9 AND SWAP8 DUP9 SWAP1 DIV PUSH1 0x3 DUP2 MUL DUP4 XOR DUP1 DUP3 MUL DUP5 SUB MUL DUP1 DUP3 MUL DUP5 SUB MUL DUP1 DUP3 MUL DUP5 SUB MUL DUP1 DUP3 MUL DUP5 SUB MUL DUP1 DUP3 MUL DUP5 SUB MUL SWAP1 DUP2 MUL SWAP1 SWAP3 SUB SWAP1 SWAP2 MUL PUSH1 0x0 DUP9 SWAP1 SUB DUP9 SWAP1 DIV SWAP1 SWAP2 ADD DUP6 DUP4 GT SWAP1 SWAP5 SUB SWAP4 SWAP1 SWAP4 MUL SWAP4 SUB SWAP5 SWAP1 SWAP5 DIV SWAP2 SWAP1 SWAP2 OR MUL SWAP5 SWAP4 POP POP POP POP JUMP JUMPDEST PUSH2 0x2EFC DUP2 PUSH2 0x2A2A JUMP JUMPDEST PUSH1 0x40 MLOAD PUSH1 0x1 PUSH1 0x1 PUSH1 0xA0 SHL SUB DUP3 AND SWAP1 PUSH32 0xBC7CD75A20EE27FD9ADEBAB32041F755214DBC6BFFA90CC0225B39DA2E5C2D3B SWAP1 PUSH1 0x0 SWAP1 LOG2 POP JUMP JUMPDEST PUSH1 0x60 PUSH1 0x1 PUSH1 0x1 PUSH1 0xA0 SHL SUB DUP4 AND EXTCODESIZE PUSH2 0x2F9B JUMPI PUSH1 0x40 MLOAD PUSH3 0x461BCD PUSH1 0xE5 SHL DUP2 MSTORE PUSH1 0x20 PUSH1 0x4 DUP3 ADD MSTORE PUSH1 0x26 PUSH1 0x24 DUP3 ADD MSTORE PUSH32 0x416464726573733A2064656C65676174652063616C6C20746F206E6F6E2D636F PUSH1 0x44 DUP3 ADD MSTORE PUSH6 0x1B9D1C9858DD PUSH1 0xD2 SHL PUSH1 0x64 DUP3 ADD MSTORE PUSH1 0x84 ADD PUSH2 0xD7C JUMP JUMPDEST PUSH1 0x0 DUP1 DUP5 PUSH1 0x1 PUSH1 0x1 PUSH1 0xA0 SHL SUB AND DUP5 PUSH1 0x40 MLOAD PUSH2 0x2FB6 SWAP2 SWAP1 PUSH2 0x3A77 JUMP JUMPDEST PUSH1 0x0 PUSH1 0x40 MLOAD DUP1 DUP4 SUB DUP2 DUP6 GAS DELEGATECALL SWAP2 POP POP RETURNDATASIZE DUP1 PUSH1 0x0 DUP2 EQ PUSH2 0x2FF1 JUMPI PUSH1 0x40 MLOAD SWAP2 POP PUSH1 0x1F NOT PUSH1 0x3F RETURNDATASIZE ADD AND DUP3 ADD PUSH1 0x40 MSTORE RETURNDATASIZE DUP3 MSTORE RETURNDATASIZE PUSH1 0x0 PUSH1 0x20 DUP5 ADD RETURNDATACOPY PUSH2 0x2FF6 JUMP JUMPDEST PUSH1 0x60 SWAP2 POP JUMPDEST POP SWAP2 POP SWAP2 POP PUSH2 0x2A21 DUP3 DUP3 PUSH1 0x40 MLOAD DUP1 PUSH1 0x60 ADD PUSH1 0x40 MSTORE DUP1 PUSH1 0x27 DUP2 MSTORE PUSH1 0x20 ADD PUSH2 0x3AB4 PUSH1 0x27 SWAP2 CODECOPY PUSH2 0x32D2 JUMP JUMPDEST PUSH1 0x40 MLOAD PUSH1 0x1 PUSH1 0x1 PUSH1 0xA0 SHL SUB DUP1 DUP6 AND PUSH1 0x24 DUP4 ADD MSTORE DUP4 AND PUSH1 0x44 DUP3 ADD MSTORE PUSH1 0x64 DUP2 ADD DUP3 SWAP1 MSTORE PUSH2 0x1674 SWAP1 DUP6 SWAP1 PUSH4 0x23B872DD PUSH1 0xE0 SHL SWAP1 PUSH1 0x84 ADD PUSH2 0x28C1 JUMP JUMPDEST PUSH1 0x1 PUSH1 0x1 PUSH1 0xA0 SHL SUB DUP3 AND PUSH2 0x30AC JUMPI PUSH1 0x40 MLOAD PUSH3 0x461BCD PUSH1 0xE5 SHL DUP2 MSTORE PUSH1 0x20 PUSH1 0x4 DUP3 ADD MSTORE PUSH1 0x1F PUSH1 0x24 DUP3 ADD MSTORE PUSH32 0x45524332303A206D696E7420746F20746865207A65726F206164647265737300 PUSH1 0x44 DUP3 ADD MSTORE PUSH1 0x64 ADD PUSH2 0xD7C JUMP JUMPDEST DUP1 PUSH2 0x130 PUSH1 0x0 DUP3 DUP3 SLOAD PUSH2 0x30BF SWAP2 SWAP1 PUSH2 0x3847 JUMP JUMPDEST SWAP1 SWAP2 SSTORE POP POP PUSH1 0x1 PUSH1 0x1 PUSH1 0xA0 SHL SUB DUP3 AND PUSH1 0x0 DUP2 DUP2 MSTORE PUSH2 0x12E PUSH1 0x20 SWAP1 DUP2 MSTORE PUSH1 0x40 DUP1 DUP4 KECCAK256 DUP1 SLOAD DUP7 ADD SWAP1 SSTORE MLOAD DUP5 DUP2 MSTORE PUSH32 0xDDF252AD1BE2C89B69C2B068FC378DAA952BA7F163C4A11628F55A4DF523B3EF SWAP2 ADD PUSH1 0x40 MLOAD DUP1 SWAP2 SUB SWAP1 LOG3 POP POP JUMP JUMPDEST PUSH1 0x40 DUP1 MLOAD PUSH1 0x4 DUP2 MSTORE PUSH1 0x24 DUP2 ADD DUP3 MSTORE PUSH1 0x20 DUP2 ADD DUP1 MLOAD PUSH1 0x1 PUSH1 0x1 PUSH1 0xE0 SHL SUB AND PUSH4 0x313CE567 PUSH1 0xE0 SHL OR SWAP1 MSTORE SWAP1 MLOAD PUSH1 0x0 SWAP2 DUP3 SWAP2 DUP3 SWAP2 DUP3 SWAP2 PUSH1 0x1 PUSH1 0x1 PUSH1 0xA0 SHL SUB DUP8 AND SWAP2 PUSH2 0x3160 SWAP2 PUSH2 0x3A77 JUMP JUMPDEST PUSH1 0x0 PUSH1 0x40 MLOAD DUP1 DUP4 SUB DUP2 PUSH1 0x0 DUP7 GAS CALL SWAP2 POP POP RETURNDATASIZE DUP1 PUSH1 0x0 DUP2 EQ PUSH2 0x319D JUMPI PUSH1 0x40 MLOAD SWAP2 POP PUSH1 0x1F NOT PUSH1 0x3F RETURNDATASIZE ADD AND DUP3 ADD PUSH1 0x40 MSTORE RETURNDATASIZE DUP3 MSTORE RETURNDATASIZE PUSH1 0x0 PUSH1 0x20 DUP5 ADD RETURNDATACOPY PUSH2 0x31A2 JUMP JUMPDEST PUSH1 0x60 SWAP2 POP JUMPDEST POP SWAP2 POP SWAP2 POP DUP2 DUP1 ISZERO PUSH2 0x31B6 JUMPI POP PUSH1 0x20 DUP2 MLOAD LT ISZERO JUMPDEST ISZERO PUSH2 0x31EA JUMPI PUSH1 0x0 DUP2 DUP1 PUSH1 0x20 ADD SWAP1 MLOAD DUP2 ADD SWAP1 PUSH2 0x31D1 SWAP2 SWAP1 PUSH2 0x36F7 JUMP JUMPDEST SWAP1 POP PUSH1 0xFF DUP2 GT PUSH2 0x31E8 JUMPI PUSH1 0x1 SWAP7 SWAP1 SWAP6 POP SWAP4 POP POP POP POP JUMP JUMPDEST POP JUMPDEST POP PUSH1 0x0 SWAP5 DUP6 SWAP5 POP SWAP3 POP POP POP JUMP JUMPDEST PUSH1 0x60 DUP3 SELFBALANCE LT ISZERO PUSH2 0x3258 JUMPI PUSH1 0x40 MLOAD PUSH3 0x461BCD PUSH1 0xE5 SHL DUP2 MSTORE PUSH1 0x20 PUSH1 0x4 DUP3 ADD MSTORE PUSH1 0x26 PUSH1 0x24 DUP3 ADD MSTORE PUSH32 0x416464726573733A20696E73756666696369656E742062616C616E636520666F PUSH1 0x44 DUP3 ADD MSTORE PUSH6 0x1C8818D85B1B PUSH1 0xD2 SHL PUSH1 0x64 DUP3 ADD MSTORE PUSH1 0x84 ADD PUSH2 0xD7C JUMP JUMPDEST PUSH1 0x0 DUP1 DUP7 PUSH1 0x1 PUSH1 0x1 PUSH1 0xA0 SHL SUB AND DUP6 DUP8 PUSH1 0x40 MLOAD PUSH2 0x3274 SWAP2 SWAP1 PUSH2 0x3A77 JUMP JUMPDEST PUSH1 0x0 PUSH1 0x40 MLOAD DUP1 DUP4 SUB DUP2 DUP6 DUP8 GAS CALL SWAP3 POP POP POP RETURNDATASIZE DUP1 PUSH1 0x0 DUP2 EQ PUSH2 0x32B1 JUMPI PUSH1 0x40 MLOAD SWAP2 POP PUSH1 0x1F NOT PUSH1 0x3F RETURNDATASIZE ADD AND DUP3 ADD PUSH1 0x40 MSTORE RETURNDATASIZE DUP3 MSTORE RETURNDATASIZE PUSH1 0x0 PUSH1 0x20 DUP5 ADD RETURNDATACOPY PUSH2 0x32B6 JUMP JUMPDEST PUSH1 0x60 SWAP2 POP JUMPDEST POP SWAP2 POP SWAP2 POP PUSH2 0x32C7 DUP8 DUP4 DUP4 DUP8 PUSH2 0x32EB JUMP JUMPDEST SWAP8 SWAP7 POP POP POP POP POP POP POP JUMP JUMPDEST PUSH1 0x60 DUP4 ISZERO PUSH2 0x32E1 JUMPI POP DUP2 PUSH2 0xD13 JUMP JUMPDEST PUSH2 0xD13 DUP4 DUP4 PUSH2 0x3360 JUMP JUMPDEST PUSH1 0x60 DUP4 ISZERO PUSH2 0x335A JUMPI DUP3 MLOAD PUSH1 0x0 SUB PUSH2 0x3353 JUMPI PUSH1 0x1 PUSH1 0x1 PUSH1 0xA0 SHL SUB DUP6 AND EXTCODESIZE PUSH2 0x3353 JUMPI PUSH1 0x40 MLOAD PUSH3 0x461BCD PUSH1 0xE5 SHL DUP2 MSTORE PUSH1 0x20 PUSH1 0x4 DUP3 ADD MSTORE PUSH1 0x1D PUSH1 0x24 DUP3 ADD MSTORE PUSH32 0x416464726573733A2063616C6C20746F206E6F6E2D636F6E7472616374000000 PUSH1 0x44 DUP3 ADD MSTORE PUSH1 0x64 ADD PUSH2 0xD7C JUMP JUMPDEST POP DUP2 PUSH2 0x1E5C JUMP JUMPDEST PUSH2 0x1E5C DUP4 DUP4 JUMPDEST DUP2 MLOAD ISZERO PUSH2 0x3370 JUMPI DUP2 MLOAD DUP1 DUP4 PUSH1 0x20 ADD REVERT JUMPDEST DUP1 PUSH1 0x40 MLOAD PUSH3 0x461BCD PUSH1 0xE5 SHL DUP2 MSTORE PUSH1 0x4 ADD PUSH2 0xD7C SWAP2 SWAP1 PUSH2 0x3411 JUMP JUMPDEST DUP1 CALLDATALOAD PUSH1 0x1 PUSH1 0x1 PUSH1 0xA0 SHL SUB DUP2 AND DUP2 EQ PUSH2 0x33A1 JUMPI PUSH1 0x0 DUP1 REVERT JUMPDEST SWAP2 SWAP1 POP JUMP JUMPDEST PUSH1 0x0 PUSH1 0x20 DUP3 DUP5 SUB SLT ISZERO PUSH2 0x33B8 JUMPI PUSH1 0x0 DUP1 REVERT JUMPDEST PUSH2 0xD13 DUP3 PUSH2 0x338A JUMP JUMPDEST PUSH1 0x0 JUMPDEST DUP4 DUP2 LT ISZERO PUSH2 0x33DC JUMPI DUP2 DUP2 ADD MLOAD DUP4 DUP3 ADD MSTORE PUSH1 0x20 ADD PUSH2 0x33C4 JUMP JUMPDEST POP POP PUSH1 0x0 SWAP2 ADD MSTORE JUMP JUMPDEST PUSH1 0x0 DUP2 MLOAD DUP1 DUP5 MSTORE PUSH2 0x33FD DUP2 PUSH1 0x20 DUP7 ADD PUSH1 0x20 DUP7 ADD PUSH2 0x33C1 JUMP JUMPDEST PUSH1 0x1F ADD PUSH1 0x1F NOT AND SWAP3 SWAP1 SWAP3 ADD PUSH1 0x20 ADD SWAP3 SWAP2 POP POP JUMP JUMPDEST PUSH1 0x20 DUP2 MSTORE PUSH1 0x0 PUSH2 0xD13 PUSH1 0x20 DUP4 ADD DUP5 PUSH2 0x33E5 JUMP JUMPDEST PUSH1 0x0 PUSH1 0x20 DUP3 DUP5 SUB SLT ISZERO PUSH2 0x3436 JUMPI PUSH1 0x0 DUP1 REVERT JUMPDEST POP CALLDATALOAD SWAP2 SWAP1 POP JUMP JUMPDEST PUSH1 0x0 DUP1 PUSH1 0x40 DUP4 DUP6 SUB SLT ISZERO PUSH2 0x3450 JUMPI PUSH1 0x0 DUP1 REVERT JUMPDEST PUSH2 0x3459 DUP4 PUSH2 0x338A JUMP JUMPDEST SWAP5 PUSH1 0x20 SWAP4 SWAP1 SWAP4 ADD CALLDATALOAD SWAP4 POP POP POP JUMP JUMPDEST PUSH1 0x0 DUP1 PUSH1 0x0 PUSH1 0x60 DUP5 DUP7 SUB SLT ISZERO PUSH2 0x347C JUMPI PUSH1 0x0 DUP1 REVERT JUMPDEST PUSH2 0x3485 DUP5 PUSH2 0x338A JUMP JUMPDEST SWAP3 POP PUSH2 0x3493 PUSH1 0x20 DUP6 ADD PUSH2 0x338A JUMP JUMPDEST SWAP2 POP PUSH1 0x40 DUP5 ADD CALLDATALOAD SWAP1 POP SWAP3 POP SWAP3 POP SWAP3 JUMP JUMPDEST PUSH4 0x4E487B71 PUSH1 0xE0 SHL PUSH1 0x0 MSTORE PUSH1 0x41 PUSH1 0x4 MSTORE PUSH1 0x24 PUSH1 0x0 REVERT JUMPDEST PUSH1 0x0 DUP3 PUSH1 0x1F DUP4 ADD SLT PUSH2 0x34CA JUMPI PUSH1 0x0 DUP1 REVERT JUMPDEST DUP2 CALLDATALOAD PUSH8 0xFFFFFFFFFFFFFFFF DUP1 DUP3 GT ISZERO PUSH2 0x34E5 JUMPI PUSH2 0x34E5 PUSH2 0x34A3 JUMP JUMPDEST PUSH1 0x40 MLOAD PUSH1 0x1F DUP4 ADD PUSH1 0x1F NOT SWAP1 DUP2 AND PUSH1 0x3F ADD AND DUP2 ADD SWAP1 DUP3 DUP3 GT DUP2 DUP4 LT OR ISZERO PUSH2 0x350D JUMPI PUSH2 0x350D PUSH2 0x34A3 JUMP JUMPDEST DUP2 PUSH1 0x40 MSTORE DUP4 DUP2 MSTORE DUP7 PUSH1 0x20 DUP6 DUP9 ADD ADD GT ISZERO PUSH2 0x3526 JUMPI PUSH1 0x0 DUP1 REVERT JUMPDEST DUP4 PUSH1 0x20 DUP8 ADD PUSH1 0x20 DUP4 ADD CALLDATACOPY PUSH1 0x0 PUSH1 0x20 DUP6 DUP4 ADD ADD MSTORE DUP1 SWAP5 POP POP POP POP POP SWAP3 SWAP2 POP POP JUMP JUMPDEST PUSH1 0x0 DUP1 PUSH1 0x40 DUP4 DUP6 SUB SLT ISZERO PUSH2 0x3559 JUMPI PUSH1 0x0 DUP1 REVERT JUMPDEST PUSH2 0x3562 DUP4 PUSH2 0x338A JUMP JUMPDEST SWAP2 POP PUSH1 0x20 DUP4 ADD CALLDATALOAD PUSH8 0xFFFFFFFFFFFFFFFF DUP2 GT ISZERO PUSH2 0x357E JUMPI PUSH1 0x0 DUP1 REVERT JUMPDEST PUSH2 0x358A DUP6 DUP3 DUP7 ADD PUSH2 0x34B9 JUMP JUMPDEST SWAP2 POP POP SWAP3 POP SWAP3 SWAP1 POP JUMP JUMPDEST PUSH1 0x0 DUP1 PUSH1 0x0 DUP1 PUSH1 0x0 DUP1 PUSH1 0x0 DUP1 PUSH2 0x100 DUP10 DUP12 SUB SLT ISZERO PUSH2 0x35B1 JUMPI PUSH1 0x0 DUP1 REVERT JUMPDEST DUP9 CALLDATALOAD PUSH1 0xFF DUP2 AND DUP2 EQ PUSH2 0x35C2 JUMPI PUSH1 0x0 DUP1 REVERT JUMPDEST SWAP8 POP PUSH2 0x35D0 PUSH1 0x20 DUP11 ADD PUSH2 0x338A JUMP JUMPDEST SWAP7 POP PUSH1 0x40 DUP10 ADD CALLDATALOAD SWAP6 POP PUSH1 0x60 DUP10 ADD CALLDATALOAD PUSH8 0xFFFFFFFFFFFFFFFF DUP2 GT ISZERO PUSH2 0x35F3 JUMPI PUSH1 0x0 DUP1 REVERT JUMPDEST PUSH2 0x35FF DUP12 DUP3 DUP13 ADD PUSH2 0x34B9 JUMP JUMPDEST SWAP6 POP POP PUSH1 0x80 DUP10 ADD CALLDATALOAD SWAP4 POP PUSH1 0xA0 DUP10 ADD CALLDATALOAD SWAP3 POP PUSH2 0x361C PUSH1 0xC0 DUP11 ADD PUSH2 0x338A JUMP JUMPDEST SWAP2 POP PUSH2 0x362A PUSH1 0xE0 DUP11 ADD PUSH2 0x338A JUMP JUMPDEST SWAP1 POP SWAP3 SWAP6 SWAP9 POP SWAP3 SWAP6 SWAP9 SWAP1 SWAP4 SWAP7 POP JUMP JUMPDEST PUSH1 0x0 DUP1 PUSH1 0x40 DUP4 DUP6 SUB SLT ISZERO PUSH2 0x364C JUMPI PUSH1 0x0 DUP1 REVERT JUMPDEST DUP3 CALLDATALOAD SWAP2 POP PUSH2 0x365C PUSH1 0x20 DUP5 ADD PUSH2 0x338A JUMP JUMPDEST SWAP1 POP SWAP3 POP SWAP3 SWAP1 POP JUMP JUMPDEST PUSH1 0x0 DUP1 PUSH1 0x0 PUSH1 0x60 DUP5 DUP7 SUB SLT ISZERO PUSH2 0x367A JUMPI PUSH1 0x0 DUP1 REVERT JUMPDEST POP POP DUP2 CALLDATALOAD SWAP4 PUSH1 0x20 DUP4 ADD CALLDATALOAD SWAP4 POP PUSH1 0x40 SWAP1 SWAP3 ADD CALLDATALOAD SWAP2 SWAP1 POP JUMP JUMPDEST PUSH1 0x0 DUP1 PUSH1 0x0 PUSH1 0x60 DUP5 DUP7 SUB SLT ISZERO PUSH2 0x36A6 JUMPI PUSH1 0x0 DUP1 REVERT JUMPDEST DUP4 CALLDATALOAD SWAP3 POP PUSH2 0x36B6 PUSH1 0x20 DUP6 ADD PUSH2 0x338A JUMP JUMPDEST SWAP2 POP PUSH2 0x36C4 PUSH1 0x40 DUP6 ADD PUSH2 0x338A JUMP JUMPDEST SWAP1 POP SWAP3 POP SWAP3 POP SWAP3 JUMP JUMPDEST PUSH1 0x0 DUP1 PUSH1 0x40 DUP4 DUP6 SUB SLT ISZERO PUSH2 0x36E0 JUMPI PUSH1 0x0 DUP1 REVERT JUMPDEST PUSH2 0x36E9 DUP4 PUSH2 0x338A JUMP JUMPDEST SWAP2 POP PUSH2 0x365C PUSH1 0x20 DUP5 ADD PUSH2 0x338A JUMP JUMPDEST PUSH1 0x0 PUSH1 0x20 DUP3 DUP5 SUB SLT ISZERO PUSH2 0x3709 JUMPI PUSH1 0x0 DUP1 REVERT JUMPDEST POP MLOAD SWAP2 SWAP1 POP JUMP JUMPDEST PUSH4 0x4E487B71 PUSH1 0xE0 SHL PUSH1 0x0 MSTORE PUSH1 0x11 PUSH1 0x4 MSTORE PUSH1 0x24 PUSH1 0x0 REVERT JUMPDEST DUP1 DUP3 MUL DUP2 ISZERO DUP3 DUP3 DIV DUP5 EQ OR PUSH2 0xCC9 JUMPI PUSH2 0xCC9 PUSH2 0x3710 JUMP JUMPDEST PUSH4 0x4E487B71 PUSH1 0xE0 SHL PUSH1 0x0 MSTORE PUSH1 0x12 PUSH1 0x4 MSTORE PUSH1 0x24 PUSH1 0x0 REVERT JUMPDEST PUSH1 0x0 DUP3 PUSH2 0x3770 JUMPI PUSH4 0x4E487B71 PUSH1 0xE0 SHL PUSH1 0x0 MSTORE PUSH1 0x12 PUSH1 0x4 MSTORE PUSH1 0x24 PUSH1 0x0 REVERT JUMPDEST POP DIV SWAP1 JUMP JUMPDEST PUSH1 0x1 DUP2 DUP2 SHR SWAP1 DUP3 AND DUP1 PUSH2 0x3789 JUMPI PUSH1 0x7F DUP3 AND SWAP2 POP JUMPDEST PUSH1 0x20 DUP3 LT DUP2 SUB PUSH2 0x37A9 JUMPI PUSH4 0x4E487B71 PUSH1 0xE0 SHL PUSH1 0x0 MSTORE PUSH1 0x22 PUSH1 0x4 MSTORE PUSH1 0x24 PUSH1 0x0 REVERT JUMPDEST POP SWAP2 SWAP1 POP JUMP JUMPDEST PUSH1 0x20 DUP1 DUP3 MSTORE PUSH1 0x2C SWAP1 DUP3 ADD MSTORE PUSH32 0x46756E6374696F6E206D7573742062652063616C6C6564207468726F75676820 PUSH1 0x40 DUP3 ADD MSTORE PUSH12 0x19195B1959D85D1958D85B1B PUSH1 0xA2 SHL PUSH1 0x60 DUP3 ADD MSTORE PUSH1 0x80 ADD SWAP1 JUMP JUMPDEST PUSH1 0x20 DUP1 DUP3 MSTORE PUSH1 0x2C SWAP1 DUP3 ADD MSTORE PUSH32 0x46756E6374696F6E206D7573742062652063616C6C6564207468726F75676820 PUSH1 0x40 DUP3 ADD MSTORE PUSH12 0x6163746976652070726F7879 PUSH1 0xA0 SHL PUSH1 0x60 DUP3 ADD MSTORE PUSH1 0x80 ADD SWAP1 JUMP JUMPDEST DUP1 DUP3 ADD DUP1 DUP3 GT ISZERO PUSH2 0xCC9 JUMPI PUSH2 0xCC9 PUSH2 0x3710 JUMP JUMPDEST DUP2 DUP2 SUB DUP2 DUP2 GT ISZERO PUSH2 0xCC9 JUMPI PUSH2 0xCC9 PUSH2 0x3710 JUMP JUMPDEST PUSH1 0xFF DUP6 AND DUP2 MSTORE DUP4 PUSH1 0x20 DUP3 ADD MSTORE PUSH1 0x80 PUSH1 0x40 DUP3 ADD MSTORE PUSH1 0x0 PUSH2 0x388F PUSH1 0x80 DUP4 ADD DUP6 PUSH2 0x33E5 JUMP JUMPDEST SWAP1 POP DUP3 PUSH1 0x60 DUP4 ADD MSTORE SWAP6 SWAP5 POP POP POP POP POP JUMP JUMPDEST PUSH1 0x20 DUP1 DUP3 MSTORE PUSH1 0x26 SWAP1 DUP3 ADD MSTORE PUSH32 0x44656C6576657261676520457869742066656520657863656564732074686520 PUSH1 0x40 DUP3 ADD MSTORE PUSH6 0x6C696D697421 PUSH1 0xD0 SHL PUSH1 0x60 DUP3 ADD MSTORE PUSH1 0x80 ADD SWAP1 JUMP JUMPDEST PUSH1 0x20 DUP1 DUP3 MSTORE PUSH1 0x2B SWAP1 DUP3 ADD MSTORE PUSH32 0x496E697469616C697A61626C653A20636F6E7472616374206973206E6F742069 PUSH1 0x40 DUP3 ADD MSTORE PUSH11 0x6E697469616C697A696E67 PUSH1 0xA8 SHL PUSH1 0x60 DUP3 ADD MSTORE PUSH1 0x80 ADD SWAP1 JUMP JUMPDEST PUSH1 0x0 PUSH1 0x20 DUP3 DUP5 SUB SLT ISZERO PUSH2 0x3943 JUMPI PUSH1 0x0 DUP1 REVERT JUMPDEST DUP2 MLOAD DUP1 ISZERO ISZERO DUP2 EQ PUSH2 0xD13 JUMPI PUSH1 0x0 DUP1 REVERT JUMPDEST PUSH4 0x4E487B71 PUSH1 0xE0 SHL PUSH1 0x0 MSTORE PUSH1 0x21 PUSH1 0x4 MSTORE PUSH1 0x24 PUSH1 0x0 REVERT JUMPDEST PUSH1 0x1F DUP3 GT ISZERO PUSH2 0xB7E JUMPI PUSH1 0x0 DUP2 DUP2 MSTORE PUSH1 0x20 DUP2 KECCAK256 PUSH1 0x1F DUP6 ADD PUSH1 0x5 SHR DUP2 ADD PUSH1 0x20 DUP7 LT ISZERO PUSH2 0x3990 JUMPI POP DUP1 JUMPDEST PUSH1 0x1F DUP6 ADD PUSH1 0x5 SHR DUP3 ADD SWAP2 POP JUMPDEST DUP2 DUP2 LT ISZERO PUSH2 0x39AF JUMPI DUP3 DUP2 SSTORE PUSH1 0x1 ADD PUSH2 0x399C JUMP JUMPDEST POP POP POP POP POP POP JUMP JUMPDEST DUP2 MLOAD PUSH8 0xFFFFFFFFFFFFFFFF DUP2 GT ISZERO PUSH2 0x39D1 JUMPI PUSH2 0x39D1 PUSH2 0x34A3 JUMP JUMPDEST PUSH2 0x39E5 DUP2 PUSH2 0x39DF DUP5 SLOAD PUSH2 0x3775 JUMP JUMPDEST DUP5 PUSH2 0x3969 JUMP JUMPDEST PUSH1 0x20 DUP1 PUSH1 0x1F DUP4 GT PUSH1 0x1 DUP2 EQ PUSH2 0x3A1A JUMPI PUSH1 0x0 DUP5 ISZERO PUSH2 0x3A02 JUMPI POP DUP6 DUP4 ADD MLOAD JUMPDEST PUSH1 0x0 NOT PUSH1 0x3 DUP7 SWAP1 SHL SHR NOT AND PUSH1 0x1 DUP6 SWAP1 SHL OR DUP6 SSTORE PUSH2 0x39AF JUMP JUMPDEST PUSH1 0x0 DUP6 DUP2 MSTORE PUSH1 0x20 DUP2 KECCAK256 PUSH1 0x1F NOT DUP7 AND SWAP2 JUMPDEST DUP3 DUP2 LT ISZERO PUSH2 0x3A49 JUMPI DUP9 DUP7 ADD MLOAD DUP3 SSTORE SWAP5 DUP5 ADD SWAP5 PUSH1 0x1 SWAP1 SWAP2 ADD SWAP1 DUP5 ADD PUSH2 0x3A2A JUMP JUMPDEST POP DUP6 DUP3 LT ISZERO PUSH2 0x3A67 JUMPI DUP8 DUP6 ADD MLOAD PUSH1 0x0 NOT PUSH1 0x3 DUP9 SWAP1 SHL PUSH1 0xF8 AND SHR NOT AND DUP2 SSTORE JUMPDEST POP POP POP POP POP PUSH1 0x1 SWAP1 DUP2 SHL ADD SWAP1 SSTORE POP JUMP JUMPDEST PUSH1 0x0 DUP3 MLOAD PUSH2 0x3A89 DUP2 DUP5 PUSH1 0x20 DUP8 ADD PUSH2 0x33C1 JUMP JUMPDEST SWAP2 SWAP1 SWAP2 ADD SWAP3 SWAP2 POP POP JUMP INVALID CALLDATASIZE ADDMOD SWAP5 LOG1 EXTCODESIZE LOG1 LOG3 0x21 MOD PUSH8 0xC828492DB98DCA3E KECCAK256 PUSH23 0xCC3735A920A3CA505D382BBC416464726573733A206C6F PUSH24 0x2D6C6576656C2064656C65676174652063616C6C20666169 PUSH13 0x6564A264697066735822122075 ORIGIN PUSH1 0x98 ADDRESS POP INVALID 0x4A PUSH10 0xEAFBBE4854D7FD6C1E3B RETURN SIGNEXTEND 0xD CODESIZE SWAP2 PUSH32 0x33BB055A475AF564736F6C634300081300330000000000000000000000000000 "},"methodIdentifiers":{"MAX_SAFE_AGGREGATED_RATIO()":"ef2cd24b","MIN_SAFE_AGGREGATED_RATIO()":"308b2b81","PERMISSIBLE_LIMIT()":"af56c207","WETH_ADDR()":"82dfc5f7","WSTETH_ADDR()":"e107e027","__Vault_init(uint256,uint256,uint256)":"8e3e721f","allowance(address,address)":"dd62ed3e","approve(address,uint256)":"095ea7b3","asset()":"38d52e0f","balance()":"b69ef8a8","balanceOf(address)":"70a08231","convertToAssets(uint256)":"07a2d13a","convertToShares(uint256)":"c6e6f592","decimals()":"313ce567","decreaseAllowance(address,uint256)":"a457c2d7","deleverageExitFeeRate()":"1dc51887","deleverageWithdraw(uint8,address,uint256,bytes,uint256,uint256,address,address)":"65ae14b5","deposit(uint256,address)":"6e553f65","exitFeeRate()":"b6106f3f","feeReceiver()":"b3f00674","getDeleverageWithdrawAmount(uint256)":"2ca63630","getDeleverageWithdrawFee(uint256)":"ff29375c","getVersion()":"0d8e6e2c","getWithdrawFee(uint256)":"29c23e4a","increaseAllowance(address,uint256)":"39509351","lastTimestamp()":"19d8ac61","marketCapacity()":"734ae638","maxDeposit(address)":"402d267d","maxMint(address)":"c63d75b6","maxRedeem(address)":"d905777e","maxWithdraw(address)":"ce96cb77","mint(uint256,address)":"94bf804d","name()":"06fdde03","owner()":"8da5cb5b","pause()":"8456cb59","paused()":"5c975abb","previewDeposit(uint256)":"ef8b30f7","previewMint(uint256)":"b3d7f6b9","previewRedeem(uint256)":"4cdad506","previewWithdraw(uint256)":"0a28a477","proxiableUUID()":"52d1902d","redeem(uint256,address,address)":"ba087652","renounceOwnership()":"715018a6","strategy()":"a8c62e76","sweep(address)":"01681a62","symbol()":"95d89b41","totalAssets()":"01e1d114","totalLockedAmount()":"05a9f274","totalSupply()":"18160ddd","transfer(address,uint256)":"a9059cbb","transferFrom(address,address,uint256)":"23b872dd","transferOwnership(address)":"f2fde38b","unpause()":"3f4ba83a","updateDeleverageExitFeeRate(uint256)":"a4c611ab","updateExitFeeRate(uint256)":"25bd4142","updateMarketCapacity(uint256)":"7f6c81b7","updateStrategy(address)":"daccaf63","upgradeTo(address)":"3659cfe6","upgradeToAndCall(address,bytes)":"4f1ef286","withdraw(uint256,address,address)":"b460af94"}},"storageLayout":{"storage":[{"astId":695,"contract":"contracts/Vault.sol:Vault","label":"_initialized","offset":0,"slot":"0","type":"t_uint8"},{"astId":698,"contract":"contracts/Vault.sol:Vault","label":"_initializing","offset":1,"slot":"0","type":"t_bool"},{"astId":3255,"contract":"contracts/Vault.sol:Vault","label":"__gap","offset":0,"slot":"1","type":"t_array(t_uint256)50_storage"},{"astId":10,"contract":"contracts/Vault.sol:Vault","label":"_owner","offset":0,"slot":"51","type":"t_address"},{"astId":130,"contract":"contracts/Vault.sol:Vault","label":"__gap","offset":0,"slot":"52","type":"t_array(t_uint256)49_storage"},{"astId":677,"contract":"contracts/Vault.sol:Vault","label":"__gap","offset":0,"slot":"101","type":"t_array(t_uint256)50_storage"},{"astId":992,"contract":"contracts/Vault.sol:Vault","label":"__gap","offset":0,"slot":"151","type":"t_array(t_uint256)50_storage"},{"astId":1014,"contract":"contracts/Vault.sol:Vault","label":"_paused","offset":0,"slot":"201","type":"t_bool"},{"astId":1119,"contract":"contracts/Vault.sol:Vault","label":"__gap","offset":0,"slot":"202","type":"t_array(t_uint256)49_storage"},{"astId":1134,"contract":"contracts/Vault.sol:Vault","label":"_status","offset":0,"slot":"251","type":"t_uint256"},{"astId":1192,"contract":"contracts/Vault.sol:Vault","label":"__gap","offset":0,"slot":"252","type":"t_array(t_uint256)49_storage"},{"astId":5234,"contract":"contracts/Vault.sol:Vault","label":"isAdmin","offset":0,"slot":"301","type":"t_mapping(t_address,t_bool)"},{"astId":1212,"contract":"contracts/Vault.sol:Vault","label":"_balances","offset":0,"slot":"302","type":"t_mapping(t_address,t_uint256)"},{"astId":1218,"contract":"contracts/Vault.sol:Vault","label":"_allowances","offset":0,"slot":"303","type":"t_mapping(t_address,t_mapping(t_address,t_uint256))"},{"astId":1220,"contract":"contracts/Vault.sol:Vault","label":"_totalSupply","offset":0,"slot":"304","type":"t_uint256"},{"astId":1222,"contract":"contracts/Vault.sol:Vault","label":"_name","offset":0,"slot":"305","type":"t_string_storage"},{"astId":1224,"contract":"contracts/Vault.sol:Vault","label":"_symbol","offset":0,"slot":"306","type":"t_string_storage"},{"astId":1804,"contract":"contracts/Vault.sol:Vault","label":"__gap","offset":0,"slot":"307","type":"t_array(t_uint256)45_storage"},{"astId":1903,"contract":"contracts/Vault.sol:Vault","label":"_asset","offset":0,"slot":"352","type":"t_contract(IERC20Upgradeable)1883"},{"astId":1905,"contract":"contracts/Vault.sol:Vault","label":"_decimals","offset":20,"slot":"352","type":"t_uint8"},{"astId":2587,"contract":"contracts/Vault.sol:Vault","label":"__gap","offset":0,"slot":"353","type":"t_array(t_uint256)49_storage"},{"astId":5268,"contract":"contracts/Vault.sol:Vault","label":"strategy","offset":0,"slot":"402","type":"t_contract(IStrategy)8735"},{"astId":5270,"contract":"contracts/Vault.sol:Vault","label":"feeReceiver","offset":0,"slot":"403","type":"t_address"},{"astId":5272,"contract":"contracts/Vault.sol:Vault","label":"marketCapacity","offset":0,"slot":"404","type":"t_uint256"},{"astId":5274,"contract":"contracts/Vault.sol:Vault","label":"exitFeeRate","offset":0,"slot":"405","type":"t_uint256"},{"astId":5276,"contract":"contracts/Vault.sol:Vault","label":"deleverageExitFeeRate","offset":0,"slot":"406","type":"t_uint256"},{"astId":5278,"contract":"contracts/Vault.sol:Vault","label":"lastTimestamp","offset":0,"slot":"407","type":"t_uint256"},{"astId":5280,"contract":"contracts/Vault.sol:Vault","label":"totalLockedAmount","offset":0,"slot":"408","type":"t_uint256"}],"types":{"t_address":{"encoding":"inplace","label":"address","numberOfBytes":"20"},"t_array(t_uint256)45_storage":{"base":"t_uint256","encoding":"inplace","label":"uint256[45]","numberOfBytes":"1440"},"t_array(t_uint256)49_storage":{"base":"t_uint256","encoding":"inplace","label":"uint256[49]","numberOfBytes":"1568"},"t_array(t_uint256)50_storage":{"base":"t_uint256","encoding":"inplace","label":"uint256[50]","numberOfBytes":"1600"},"t_bool":{"encoding":"inplace","label":"bool","numberOfBytes":"1"},"t_contract(IERC20Upgradeable)1883":{"encoding":"inplace","label":"contract IERC20Upgradeable","numberOfBytes":"20"},"t_contract(IStrategy)8735":{"encoding":"inplace","label":"contract IStrategy","numberOfBytes":"20"},"t_mapping(t_address,t_bool)":{"encoding":"mapping","key":"t_address","label":"mapping(address => bool)","numberOfBytes":"32","value":"t_bool"},"t_mapping(t_address,t_mapping(t_address,t_uint256))":{"encoding":"mapping","key":"t_address","label":"mapping(address => mapping(address => uint256))","numberOfBytes":"32","value":"t_mapping(t_address,t_uint256)"},"t_mapping(t_address,t_uint256)":{"encoding":"mapping","key":"t_address","label":"mapping(address => uint256)","numberOfBytes":"32","value":"t_uint256"},"t_string_storage":{"encoding":"bytes","label":"string","numberOfBytes":"32"},"t_uint256":{"encoding":"inplace","label":"uint256","numberOfBytes":"32"},"t_uint8":{"encoding":"inplace","label":"uint8","numberOfBytes":"1"}}}}}}