{"contracts/core/Strategy.sol":{"Strategy":{"abi":[{"anonymous":false,"inputs":[{"indexed":false,"internalType":"address","name":"previousAdmin","type":"address"},{"indexed":false,"internalType":"address","name":"newAdmin","type":"address"}],"name":"AdminChanged","type":"event"},{"anonymous":false,"inputs":[{"indexed":true,"internalType":"address","name":"beacon","type":"address"}],"name":"BeaconUpgraded","type":"event"},{"anonymous":false,"inputs":[{"indexed":false,"internalType":"uint256","name":"repayAmount","type":"uint256"},{"indexed":false,"internalType":"uint256","name":"withdrawAmount","type":"uint256"}],"name":"Deleverage","type":"event"},{"anonymous":false,"inputs":[{"indexed":false,"internalType":"uint256","name":"_amount","type":"uint256"}],"name":"Deposit","type":"event"},{"anonymous":false,"inputs":[{"indexed":false,"internalType":"uint8","name":"version","type":"uint8"}],"name":"Initialized","type":"event"},{"anonymous":false,"inputs":[{"indexed":false,"internalType":"uint256","name":"debitAmount","type":"uint256"},{"indexed":false,"internalType":"uint256","name":"borrowAmount","type":"uint256"}],"name":"Leverage","type":"event"},{"anonymous":false,"inputs":[{"indexed":true,"internalType":"address","name":"previousOwner","type":"address"},{"indexed":true,"internalType":"address","name":"newOwner","type":"address"}],"name":"OwnershipTransferred","type":"event"},{"anonymous":false,"inputs":[{"indexed":false,"internalType":"address","name":"account","type":"address"}],"name":"Paused","type":"event"},{"anonymous":false,"inputs":[{"indexed":false,"internalType":"address","name":"account","type":"address"}],"name":"Unpaused","type":"event"},{"anonymous":false,"inputs":[{"indexed":false,"internalType":"uint256","name":"newExchangePrice","type":"uint256"},{"indexed":false,"internalType":"uint256","name":"newRevenue","type":"uint256"}],"name":"UpdateExchangePrice","type":"event"},{"anonymous":false,"inputs":[{"indexed":true,"internalType":"address","name":"implementation","type":"address"}],"name":"Upgraded","type":"event"},{"anonymous":false,"inputs":[{"indexed":false,"internalType":"uint256","name":"_amount","type":"uint256"}],"name":"Withdraw","type":"event"},{"inputs":[],"name":"AAVE_ORACLE_V3","outputs":[{"internalType":"contract IAaveOracle","name":"","type":"address"}],"stateMutability":"view","type":"function"},{"inputs":[],"name":"AAVE_POOL_V3","outputs":[{"internalType":"contract IPoolV3","name":"","type":"address"}],"stateMutability":"view","type":"function"},{"inputs":[],"name":"A_WSTETH_ADDR_AAVEV3","outputs":[{"internalType":"address","name":"","type":"address"}],"stateMutability":"view","type":"function"},{"inputs":[],"name":"D_WETH_ADDR_AAVEV3","outputs":[{"internalType":"address","name":"","type":"address"}],"stateMutability":"view","type":"function"},{"inputs":[],"name":"ETH_ADDR","outputs":[{"internalType":"address","name":"","type":"address"}],"stateMutability":"view","type":"function"},{"inputs":[],"name":"MAX_SAFE_AGGREGATED_RATIO","outputs":[{"internalType":"uint256","name":"","type":"uint256"}],"stateMutability":"view","type":"function"},{"inputs":[],"name":"MIN_SAFE_AGGREGATED_RATIO","outputs":[{"internalType":"uint256","name":"","type":"uint256"}],"stateMutability":"view","type":"function"},{"inputs":[],"name":"PERMISSIBLE_LIMIT","outputs":[{"internalType":"uint256","name":"","type":"uint256"}],"stateMutability":"view","type":"function"},{"inputs":[],"name":"WETH_ADDR","outputs":[{"internalType":"address","name":"","type":"address"}],"stateMutability":"view","type":"function"},{"inputs":[],"name":"WSTETH_ADDR","outputs":[{"internalType":"address","name":"","type":"address"}],"stateMutability":"view","type":"function"},{"inputs":[{"internalType":"address","name":"_vault","type":"address"},{"internalType":"address","name":"_lendingLogic","type":"address"},{"internalType":"address","name":"_flashloanHelper","type":"address"},{"internalType":"uint256","name":"_safeAggregatedRatio","type":"uint256"},{"internalType":"uint256","name":"_safeRatio","type":"uint256"}],"name":"__Strategy_init","outputs":[],"stateMutability":"nonpayable","type":"function"},{"inputs":[{"internalType":"address","name":"_admin","type":"address"}],"name":"addAdmin","outputs":[],"stateMutability":"nonpayable","type":"function"},{"inputs":[{"internalType":"uint256","name":"_stETHWithdrawAmount","type":"uint256"},{"internalType":"uint256","name":"_wEthDebtDeleverageAmount","type":"uint256"},{"internalType":"bytes","name":"_swapData","type":"bytes"},{"internalType":"uint256","name":"_minimumAmount","type":"uint256"}],"name":"deleverage","outputs":[],"stateMutability":"nonpayable","type":"function"},{"inputs":[{"internalType":"uint256","name":"_amount","type":"uint256"}],"name":"deposit","outputs":[{"internalType":"uint256","name":"operateExchangePrice","type":"uint256"}],"stateMutability":"nonpayable","type":"function"},{"inputs":[],"name":"exchangePrice","outputs":[{"internalType":"uint256","name":"","type":"uint256"}],"stateMutability":"view","type":"function"},{"inputs":[],"name":"flashloanHelper","outputs":[{"internalType":"address","name":"","type":"address"}],"stateMutability":"view","type":"function"},{"inputs":[],"name":"getAvailableLogicBalance","outputs":[{"internalType":"uint256","name":"balance","type":"uint256"}],"stateMutability":"view","type":"function"},{"inputs":[],"name":"getNetAssets","outputs":[{"internalType":"uint256","name":"","type":"uint256"}],"stateMutability":"view","type":"function"},{"inputs":[],"name":"getProtocolCollateralRatio","outputs":[{"internalType":"uint256","name":"collateralRatio","type":"uint256"},{"internalType":"bool","name":"isOK","type":"bool"}],"stateMutability":"view","type":"function"},{"inputs":[],"name":"getProtocolNetAssets","outputs":[{"internalType":"uint256","name":"net","type":"uint256"}],"stateMutability":"view","type":"function"},{"inputs":[],"name":"getProtocolRatio","outputs":[{"internalType":"uint256","name":"ratio","type":"uint256"}],"stateMutability":"view","type":"function"},{"inputs":[],"name":"lendingLogic","outputs":[{"internalType":"address","name":"","type":"address"}],"stateMutability":"view","type":"function"},{"inputs":[{"internalType":"uint256","name":"_stETHDepositAmount","type":"uint256"},{"internalType":"uint256","name":"_wEthDebtAmount","type":"uint256"},{"internalType":"bytes","name":"_swapData","type":"bytes"},{"internalType":"uint256","name":"_minimumAmount","type":"uint256"}],"name":"leverage","outputs":[],"stateMutability":"nonpayable","type":"function"},{"inputs":[],"name":"logicDepositAmount","outputs":[{"internalType":"uint256","name":"","type":"uint256"}],"stateMutability":"view","type":"function"},{"inputs":[],"name":"logicWithdrawAmount","outputs":[{"internalType":"uint256","name":"","type":"uint256"}],"stateMutability":"view","type":"function"},{"inputs":[{"internalType":"address","name":"_initiator","type":"address"},{"internalType":"address","name":"_token","type":"address"},{"internalType":"uint256","name":"_amount","type":"uint256"},{"internalType":"uint256","name":"_fee","type":"uint256"},{"internalType":"bytes","name":"_params","type":"bytes"}],"name":"onFlashLoanOne","outputs":[{"internalType":"bytes32","name":"","type":"bytes32"}],"stateMutability":"nonpayable","type":"function"},{"inputs":[],"name":"oneInchRouter","outputs":[{"internalType":"address","name":"","type":"address"}],"stateMutability":"view","type":"function"},{"inputs":[],"name":"owner","outputs":[{"internalType":"address","name":"","type":"address"}],"stateMutability":"view","type":"function"},{"inputs":[],"name":"paused","outputs":[{"internalType":"bool","name":"","type":"bool"}],"stateMutability":"view","type":"function"},{"inputs":[],"name":"proxiableUUID","outputs":[{"internalType":"bytes32","name":"","type":"bytes32"}],"stateMutability":"view","type":"function"},{"inputs":[{"internalType":"address","name":"_admin","type":"address"}],"name":"removeAdmin","outputs":[],"stateMutability":"nonpayable","type":"function"},{"inputs":[],"name":"renounceOwnership","outputs":[],"stateMutability":"nonpayable","type":"function"},{"inputs":[],"name":"revenue","outputs":[{"internalType":"uint256","name":"","type":"uint256"}],"stateMutability":"view","type":"function"},{"inputs":[],"name":"revenueExchangePrice","outputs":[{"internalType":"uint256","name":"","type":"uint256"}],"stateMutability":"view","type":"function"},{"inputs":[],"name":"revenueRate","outputs":[{"internalType":"uint256","name":"","type":"uint256"}],"stateMutability":"view","type":"function"},{"inputs":[],"name":"safeAggregatedRatio","outputs":[{"internalType":"uint256","name":"","type":"uint256"}],"stateMutability":"view","type":"function"},{"inputs":[],"name":"safeRatio","outputs":[{"internalType":"uint256","name":"","type":"uint256"}],"stateMutability":"view","type":"function"},{"inputs":[{"internalType":"address","name":"newOwner","type":"address"}],"name":"transferOwnership","outputs":[],"stateMutability":"nonpayable","type":"function"},{"inputs":[],"name":"updateExchangePrice","outputs":[{"internalType":"uint256","name":"newExchangePrice","type":"uint256"},{"internalType":"uint256","name":"newRevenue","type":"uint256"}],"stateMutability":"nonpayable","type":"function"},{"inputs":[{"internalType":"address","name":"_newFlashloanHelper","type":"address"}],"name":"updateFlashloanHelper","outputs":[],"stateMutability":"nonpayable","type":"function"},{"inputs":[{"internalType":"uint256","name":"_safeAggregatorRatio","type":"uint256"},{"internalType":"uint256","name":"_safeRatio","type":"uint256"}],"name":"updateSafeRatio","outputs":[],"stateMutability":"nonpayable","type":"function"},{"inputs":[{"internalType":"address","name":"newImplementation","type":"address"}],"name":"upgradeTo","outputs":[],"stateMutability":"nonpayable","type":"function"},{"inputs":[{"internalType":"address","name":"newImplementation","type":"address"},{"internalType":"bytes","name":"data","type":"bytes"}],"name":"upgradeToAndCall","outputs":[],"stateMutability":"payable","type":"function"},{"inputs":[],"name":"vault","outputs":[{"internalType":"address","name":"","type":"address"}],"stateMutability":"view","type":"function"},{"inputs":[{"internalType":"uint256","name":"_amount","type":"uint256"}],"name":"withdraw","outputs":[{"internalType":"uint256","name":"withdrawAmount","type":"uint256"}],"stateMutability":"nonpayable","type":"function"}],"evm":{"bytecode":{"linkReferences":{},"object":"60a06040523060805234801561001457600080fd5b5060805161335a61004c60003960008181610d6201528181610da2015281816110b3015281816110f30152611186015261335a6000f3fe6080604052600436106102725760003560e01c806382dfc5f71161014f578063af8658ab116100c1578063e107e0271161007a578063e107e02714610745578063e549435b1461076d578063e77c41f614610784578063ef2cd24b1461079b578063f2fde38b146107b7578063fbfa77cf146107d757600080fd5b8063af8658ab1461068f578063afb56385146106af578063b1df9742146106d0578063b6b55f25146106f0578063c26c4dfe14610710578063d84d74a01461072557600080fd5b80639e65741e116101135780639e65741e146105e1578063a11d8c6b146105f8578063a849701514610620578063ab7ce24414610637578063ac3af2081461064c578063af56c2071461067457600080fd5b806382dfc5f71461053b57806385651c8c146105635780638da5cb5b1461058b57806398477390146105a957806398e1862c146105ca57600080fd5b80633e9491a2116101e857806359126926116101ac578063591269261461048f5780635c975abb146104a657806362e8564e146104c957806370480275146104de578063715018a6146104fe5780637753f47b1461051357600080fd5b80633e9491a2146103fe57806346961ece146104155780634f1ef2861461043d57806352d1902d14610450578063571ddf351461046557600080fd5b8063308b2b811161023a578063308b2b81146103215780633436042c1461033d5780633659cfe61461035457806337a62fa2146103745780633a54b841146103b45780633bfaa7e3146103d457600080fd5b806308bb5fb0146102775780630e8cc0181461029f5780631785f53c146102c157806319c63bfe146102e15780632e1a7d4d14610301575b600080fd5b34801561028357600080fd5b5061028c6107f8565b6040519081526020015b60405180910390f35b3480156102ab57600080fd5b506102bf6102ba366004612cac565b610902565b005b3480156102cd57600080fd5b506102bf6102dc366004612d23565b610acc565b3480156102ed57600080fd5b506102bf6102fc366004612cac565b610b3f565b34801561030d57600080fd5b5061028c61031c366004612d3e565b610c41565b34801561032d57600080fd5b5061028c6709b6e64a8ec6000081565b34801561034957600080fd5b5061028c6101385481565b34801561036057600080fd5b506102bf61036f366004612d23565b610d58565b34801561038057600080fd5b5061039c7377ca01483f379e58174739308945f044e1a764dc81565b6040516001600160a01b039091168152602001610296565b3480156103c057600080fd5b506102bf6103cf366004612d23565b610e37565b3480156103e057600080fd5b506103e9610eb1565b60408051928352602083019190915201610296565b34801561040a57600080fd5b5061028c6101315481565b34801561042157600080fd5b5061039c73b56c2f0b653b2e0b10c9b928c8580ac5df02c7c781565b6102bf61044b366004612dfa565b6110a9565b34801561045c57600080fd5b5061028c611179565b34801561047157600080fd5b5061047a61122c565b60408051928352901515602083015201610296565b34801561049b57600080fd5b5061028c6101365481565b3480156104b257600080fd5b5060c95460ff166040519015158152602001610296565b3480156104d557600080fd5b5061028c6112cc565b3480156104ea57600080fd5b506102bf6104f9366004612d23565b611353565b34801561050a57600080fd5b506102bf6113c9565b34801561051f57600080fd5b5061039c73eeeeeeeeeeeeeeeeeeeeeeeeeeeeeeeeeeeeeeee81565b34801561054757600080fd5b5061039c7382af49447d8a07e3bd95bd0d56f35241523fbab181565b34801561056f57600080fd5b5061039c73513c7e3a9c69ca3e22550ef58ac1c0088e918fff81565b34801561059757600080fd5b506033546001600160a01b031661039c565b3480156105b557600080fd5b5061012f5461039c906001600160a01b031681565b3480156105d657600080fd5b5061028c6101335481565b3480156105ed57600080fd5b5061028c6101325481565b34801561060457600080fd5b5061039c73794a61358d6845594f94dc1db02a252b5b4814ad81565b34801561062c57600080fd5b5061028c6101375481565b34801561064357600080fd5b5061028c6113dd565b34801561065857600080fd5b5061039c731111111254eeb25477b68fb85ed929f73a96058281565b34801561068057600080fd5b5061028c66071afd498d000081565b34801561069b57600080fd5b5061028c6106aa366004612e48565b611485565b3480156106bb57600080fd5b506101305461039c906001600160a01b031681565b3480156106dc57600080fd5b506102bf6106eb366004612ec0565b6118b8565b3480156106fc57600080fd5b5061028c61070b366004612d3e565b611b77565b34801561071c57600080fd5b5061028c611c88565b34801561073157600080fd5b506102bf610740366004612f15565b611d1b565b34801561075157600080fd5b5061039c735979d7b546e38e414f7e9822514be443a480052981565b34801561077957600080fd5b5061028c6101355481565b34801561079057600080fd5b5061028c6101345481565b3480156107a757600080fd5b5061028c670d2f13f7789f000081565b3480156107c357600080fd5b506102bf6107d2366004612d23565b611d97565b3480156107e357600080fd5b5061012e5461039c906001600160a01b031681565b61012f54604051631b51675d60e21b815230600482015260009182916001600160a01b0390911690636d459d7490602401608060405180830381865afa158015610846573d6000803e3d6000fd5b505050506040513d601f19601f8201168201806040525081019061086a9190612f37565b50610131546040516370a0823160e01b81523060048201529194509250735979d7b546e38e414f7e9822514be443a480052991506370a0823190602401602060405180830381865afa1580156108c4573d6000803e3d6000fd5b505050506040513d601f19601f820116820180604052508101906108e89190612f6d565b6108f29083612f9c565b6108fc9190612faf565b91505090565b33600090815261012d602052604090205460ff1661093b5760405162461bcd60e51b815260040161093290612fc2565b60405180910390fd5b6040516370a0823160e01b8152306004820152600090735979d7b546e38e414f7e9822514be443a4800529906370a0823190602401602060405180830381865afa15801561098d573d6000803e3d6000fd5b505050506040513d601f19601f820116820180604052508101906109b19190612f6d565b905085811015610a035760405162461bcd60e51b815260206004820152601a60248201527f496e73756666696369656e742073744554482062616c616e63650000000000006044820152606401610932565b6101378690556000805b86848787604051602001610a25959493929190612fe6565b60408051601f198184030181529082905261013054632e7ff4ef60e11b83529092506001600160a01b031690635cffe9de90610a7f9030907382af49447d8a07e3bd95bd0d56f35241523fbab1908b90879060040161307d565b6020604051808303816000875af1158015610a9e573d6000803e3d6000fd5b505050506040513d601f19601f82011682018060405250810190610ac291906130ba565b5050505050505050565b610ad4611e0d565b6001600160a01b038116610b1d5760405162461bcd60e51b815260206004820152601060248201526f496e76616c696420616464726573732160801b6044820152606401610932565b6001600160a01b0316600090815261012d60205260409020805460ff19169055565b33600090815261012d602052604090205460ff16610b6f5760405162461bcd60e51b815260040161093290612fc2565b61012f54604051631b51675d60e21b81523060048201526000916001600160a01b031690636d459d7490602401608060405180830381865afa158015610bb9573d6000803e3d6000fd5b505050506040513d601f19601f82011682018060405250810190610bdd9190612f37565b505050905084811015610c325760405162461bcd60e51b815260206004820152601860248201527f4e6f7420656e6f75676820746f6b656e2062616c616e636500000000000000006044820152606401610932565b61013886905560006001610a0d565b61012e546000906001600160a01b03163314610c9f5760405162461bcd60e51b815260206004820152601f60248201527f4f6e6c79207661756c742063616e2063616c6c2074686973206d6574686f64006044820152606401610932565b60008211610cef5760405162461bcd60e51b815260206004820152601960248201527f77697468647261773a20496e76616c696420616d6f756e742e000000000000006044820152606401610932565b61012e54610d1c90735979d7b546e38e414f7e9822514be443a4800529906001600160a01b031684611e67565b5060405181815281907f5b6b431d4476a211bb7d41c20d1aab9ae2321deee0d20be3d9fc9b1093fa6e3d906020015b60405180910390a1919050565b6001600160a01b037f0000000000000000000000000000000000000000000000000000000000000000163003610da05760405162461bcd60e51b8152600401610932906130dc565b7f00000000000000000000000000000000000000000000000000000000000000006001600160a01b0316610de96000805160206132b5833981519152546001600160a01b031690565b6001600160a01b031614610e0f5760405162461bcd60e51b815260040161093290613128565b610e1881611ecf565b60408051600080825260208201909252610e3491839190611ed7565b50565b610e3f611e0d565b6001600160a01b038116610e8e5760405162461bcd60e51b815260206004820152601660248201527557726f6e6720666c6173686c6f616e48656c7065722160501b6044820152606401610932565b61013080546001600160a01b0319166001600160a01b0392909216919091179055565b33600090815261012d6020526040812054819060ff16610ee35760405162461bcd60e51b815260040161093290612fc2565b61012e54604080516318160ddd60e01b815290516000926001600160a01b0316916318160ddd9160048083019260209291908290030181865afa158015610f2e573d6000803e3d6000fd5b505050506040513d601f19601f82011682018060405250810190610f529190612f6d565b905080600003610f6d57610132546101315492509250509091565b6000610f776107f8565b905081610f8c82670de0b6b3a7640000613174565b610f96919061318b565b9350610133548411156110635761013354600003610fc557505050610133819055610132819055610131549091565b6000670de0b6b3a76400008361013254610fdf9190613174565b610fe9919061318b565b610ff39083612faf565b905061271061013454826110079190613174565b611011919061318b565b93508361013160008282546110269190612f9c565b909155508390506110378584612faf565b61104990670de0b6b3a7640000613174565b611053919061318b565b610132819055610133555061106a565b6101328490555b60408051858152602081018590527f83d2ad38a3d31bbc70811535dd8943b0140df344c23e6e167ee1ca32f9a1a459910160405180910390a150509091565b6001600160a01b037f00000000000000000000000000000000000000000000000000000000000000001630036110f15760405162461bcd60e51b8152600401610932906130dc565b7f00000000000000000000000000000000000000000000000000000000000000006001600160a01b031661113a6000805160206132b5833981519152546001600160a01b031690565b6001600160a01b0316146111605760405162461bcd60e51b815260040161093290613128565b61116982611ecf565b61117582826001611ed7565b5050565b6000306001600160a01b037f000000000000000000000000000000000000000000000000000000000000000016146112195760405162461bcd60e51b815260206004820152603860248201527f555550535570677261646561626c653a206d757374206e6f742062652063616c60448201527f6c6564207468726f7567682064656c656761746563616c6c00000000000000006064820152608401610932565b506000805160206132b583398151915290565b61012f54604051638caff8ed60e01b815230600482015260009182916001600160a01b0390911690638caff8ed90602401602060405180830381865afa15801561127a573d6000803e3d6000fd5b505050506040513d601f19601f8201168201806040525081019061129e9190612f6d565b91508166071afd498d0000610136546112b79190612f9c565b116112c35760006112c6565b60015b90509091565b61012f5460405163445818a160e11b8152306004820152600091829182916001600160a01b0316906388b03142906024016040805180830381865afa158015611319573d6000803e3d6000fd5b505050506040513d601f19601f8201168201806040525081019061133d91906131ad565b909250905061134c8183612faf565b9250505090565b61135b611e0d565b6001600160a01b0381166113a45760405162461bcd60e51b815260206004820152601060248201526f496e76616c696420616464726573732160801b6044820152606401610932565b6001600160a01b0316600090815261012d60205260409020805460ff19166001179055565b6113d1611e0d565b6113db6000612042565b565b33600090815261012d602052604081205460ff1661140d5760405162461bcd60e51b815260040161093290612fc2565b6040516370a0823160e01b8152306004820152735979d7b546e38e414f7e9822514be443a4800529906370a0823190602401602060405180830381865afa15801561145c573d6000803e3d6000fd5b505050506040513d601f19601f820116820180604052508101906114809190612f6d565b905090565b60006001600160a01b03871630146114df5760405162461bcd60e51b815260206004820152601c60248201527f43616e6e6f742063616c6c20466c6173684c6f616e206d6f64756c65000000006044820152606401610932565b600080806114ef858701876131d1565b92955093509091505060ff831661161c576000611522897382af49447d8a07e3bd95bd0d56f35241523fbab18486612094565b9050611552735979d7b546e38e414f7e9822514be443a4800529610137548361154b9190612f9c565b600161229a565b61012f54604051637ee113e560e01b81523060048201526000916001600160a01b031690637ee113e590602401602060405180830381865afa15801561159c573d6000803e3d6000fd5b505050506040513d601f19601f820116820180604052508101906115c09190612f6d565b90506115ce8b8260016123c6565b7fde65598329a5a506b0865240860eae7975d48fadcbb543933019d2095ba7860b61013754836115fe9190612f9c565b60408051918252602082018490520160405180910390a150506117ff565b60405163b3596f0760e01b81527382af49447d8a07e3bd95bd0d56f35241523fbab1600482015260009073b56c2f0b653b2e0b10c9b928c8580ac5df02c7c79063b3596f0790602401602060405180830381865afa158015611682573d6000803e3d6000fd5b505050506040513d601f19601f820116820180604052508101906116a69190612f6d565b60405163b3596f0760e01b8152735979d7b546e38e414f7e9822514be443a4800529600482015290915060009073b56c2f0b653b2e0b10c9b928c8580ac5df02c7c79063b3596f0790602401602060405180830381865afa15801561170f573d6000803e3d6000fd5b505050506040513d601f19601f820116820180604052508101906117339190612f6d565b905060006117418a8c612f9c565b9050610138546000146117755782826101385461175e9190613174565b611768919061318b565b6117729082612f9c565b90505b6117818c8260006123c6565b6117a1735979d7b546e38e414f7e9822514be443a480052982600061229a565b6117c18b735979d7b546e38e414f7e9822514be443a48005298688612094565b5060408051828152602081018d90527ff046ccb25549004f529afb60ef0287081f2111cc083f5a96895cc6732a61ff99910160405180910390a15050505b6001600160a01b03891663095ea7b3336118198a8c612f9c565b6040516001600160e01b031960e085901b1681526001600160a01b03909216600483015260248201526044016020604051808303816000875af1158015611864573d6000803e3d6000fd5b505050506040513d601f19601f8201168201806040525081019061188891906130ba565b507f439148f0bbc682ca079e46d6e2c2f0c1e3b820f1a291b069d8882abf8cf18dd99a9950505050505050505050565b600054610100900460ff16158080156118d85750600054600160ff909116105b806118f25750303b1580156118f2575060005460ff166001145b6119555760405162461bcd60e51b815260206004820152602e60248201527f496e697469616c697a61626c653a20636f6e747261637420697320616c72656160448201526d191e481a5b9a5d1a585b1a5e995960921b6064820152608401610932565b6000805460ff191660011790558015611978576000805461ff0019166101001790555b611980612488565b6119886124af565b6001600160a01b038616158015906119a857506001600160a01b03841615155b80156119bc57506001600160a01b03851615155b611a085760405162461bcd60e51b815260206004820152601960248201527f496e76616c696420636f6e7472616374206164647265737321000000000000006044820152606401610932565b61012f80546001600160a01b038088166001600160a01b03199283161790925561012e8054898416908316179055610130805492871692909116919091179055670de0b6b3a7640000610132556709b6e64a8ec600008310801590611a745750670d2f13f7789f000083105b611abc5760405162461bcd60e51b8152602060048201526019602482015278496e76616c6964206167677265676174656420526174696f2160381b6044820152606401610932565b61013682905561013583905533600090815261012d60205260409020805460ff19166001908117909155611aef906124de565b611b0c7382af49447d8a07e3bd95bd0d56f35241523fbab16125dd565b611b29735979d7b546e38e414f7e9822514be443a48005296125dd565b8015611b6f576000805461ff0019169055604051600181527f7f26b83ff96e1f2b6a682f133852f6798a09c465da95921460cefb38474024989060200160405180910390a15b505050505050565b61012e546000906001600160a01b03163314611bd55760405162461bcd60e51b815260206004820152601f60248201527f4f6e6c79207661756c742063616e2063616c6c2074686973206d6574686f64006044820152606401610932565b60008211611c255760405162461bcd60e51b815260206004820152601860248201527f6465706f7369743a20496e76616c696420616d6f756e742e00000000000000006044820152606401610932565b506101325461012e54611c5890735979d7b546e38e414f7e9822514be443a4800529906001600160a01b03163085612663565b6040518281527f4d6ce1e535dbade1c23defba91e23b8f791ce5edc0cc320257a2b364e4e3842690602001610d4b565b61012f5460405163445818a160e11b8152306004820152600091829182916001600160a01b0316906388b03142906024016040805180830381865afa158015611cd5573d6000803e3d6000fd5b505050506040513d601f19601f82011682018060405250810190611cf991906131ad565b909250905081611d1182670de0b6b3a7640000613174565b61134c919061318b565b611d23611e0d565b6709b6e64a8ec600008210158015611d425750670d2f13f7789f000082105b611d8a5760405162461bcd60e51b8152602060048201526019602482015278496e76616c6964206167677265676174656420526174696f2160381b6044820152606401610932565b6101359190915561013655565b611d9f611e0d565b6001600160a01b038116611e045760405162461bcd60e51b815260206004820152602660248201527f4f776e61626c653a206e6577206f776e657220697320746865207a65726f206160448201526564647265737360d01b6064820152608401610932565b610e3481612042565b6033546001600160a01b031633146113db5760405162461bcd60e51b815260206004820181905260248201527f4f776e61626c653a2063616c6c6572206973206e6f7420746865206f776e65726044820152606401610932565b6040516001600160a01b038316602482015260448101829052611eca90849063a9059cbb60e01b906064015b60408051601f198184030181529190526020810180516001600160e01b03166001600160e01b03199093169290921790915261269b565b505050565b610e34611e0d565b7f4910fdfa16fed3260ed0e7147f7cc6da11a60208b5b9406d12a635614ffd91435460ff1615611f0a57611eca83612770565b826001600160a01b03166352d1902d6040518163ffffffff1660e01b8152600401602060405180830381865afa925050508015611f64575060408051601f3d908101601f19168201909252611f6191810190612f6d565b60015b611fc75760405162461bcd60e51b815260206004820152602e60248201527f45524331393637557067726164653a206e657720696d706c656d656e7461746960448201526d6f6e206973206e6f74205555505360901b6064820152608401610932565b6000805160206132b583398151915281146120365760405162461bcd60e51b815260206004820152602960248201527f45524331393637557067726164653a20756e737570706f727465642070726f786044820152681a58589b195555525160ba1b6064820152608401610932565b50611eca83838361280c565b603380546001600160a01b038381166001600160a01b0319831681179093556040519116919082907f8be0079c531659141344cd1fd0a4f28419497f9722a3daafe3b4186f6b6457e090600090a35050565b602482015160448301516000916001600160a01b03868116908216146120f45760405162461bcd60e51b815260206004820152601560248201527431696e63683a20496e76616c696420746f6b656e2160581b6044820152606401610932565b868210156121445760405162461bcd60e51b815260206004820152601c60248201527f31696e63683a20496e76616c696420696e70757420616d6f756e7421000000006044820152606401610932565b60405163095ea7b360e01b8152731111111254eeb25477b68fb85ed929f73a9605826004820152602481018890526001600160a01b0387169063095ea7b3906044016020604051808303816000875af11580156121a5573d6000803e3d6000fd5b505050506040513d601f19601f820116820180604052508101906121c991906130ba565b50606073eeeeeeeeeeeeeeeeeeeeeeeeeeeeeeeeeeeeeeed196001600160a01b0388160161221757612210731111111254eeb25477b68fb85ed929f73a960582878a612831565b9050612238565b612235731111111254eeb25477b68fb85ed929f73a96058287612861565b90505b602081015193508484101561228f5760405162461bcd60e51b815260206004820152601f60248201527f31696e63683a20756e65787065637465642072657475726e416d6f756e742e006044820152606401610932565b505050949350505050565b816000036122a757600080fd5b80156123345760405163617ba03760e01b81526001600160a01b0384166004820152602481018390523060448201526000606482015273794a61358d6845594f94dc1db02a252b5b4814ad9063617ba037906084015b600060405180830381600087803b15801561231757600080fd5b505af115801561232b573d6000803e3d6000fd5b50505050505050565b604051631a4ca37b60e21b81526001600160a01b03841660048201526024810183905230604482015273794a61358d6845594f94dc1db02a252b5b4814ad906369328dec906064015b6020604051808303816000875af115801561239c573d6000803e3d6000fd5b505050506040513d601f19601f820116820180604052508101906123c09190612f6d565b50505050565b816000036123d357600080fd5b80156124345760405163a415bcad60e01b81526001600160a01b038416600482015260248101839052600260448201526000606482015230608482015273794a61358d6845594f94dc1db02a252b5b4814ad9063a415bcad9060a4016122fd565b60405163573ade8160e01b81526001600160a01b0384166004820152602481018390526002604482015230606482015273794a61358d6845594f94dc1db02a252b5b4814ad9063573ade819060840161237d565b600054610100900460ff166113db5760405162461bcd60e51b81526004016109329061323a565b600054610100900460ff166124d65760405162461bcd60e51b81526004016109329061323a565b6113db6128ae565b61012f546001600160a01b03166125375760405162461bcd60e51b815260206004820152601c60248201527f4c656e64696e674c6f676963206e6f74207365747465642079657421000000006044820152606401610932565b6000811561254457506000195b6125777382af49447d8a07e3bd95bd0d56f35241523fbab173794a61358d6845594f94dc1db02a252b5b4814ad836128de565b6125aa735979d7b546e38e414f7e9822514be443a480052973794a61358d6845594f94dc1db02a252b5b4814ad836128de565b61117573513c7e3a9c69ca3e22550ef58ac1c0088e918fff73794a61358d6845594f94dc1db02a252b5b4814ad836128de565b60405163095ea7b360e01b8152731111111254eeb25477b68fb85ed929f73a960582600482015260001960248201526001600160a01b0382169063095ea7b3906044016020604051808303816000875af115801561263f573d6000803e3d6000fd5b505050506040513d601f19601f8201168201806040525081019061117591906130ba565b6040516001600160a01b03808516602483015283166044820152606481018290526123c09085906323b872dd60e01b90608401611e93565b60006126f0826040518060400160405280602081526020017f5361666545524332303a206c6f772d6c6576656c2063616c6c206661696c6564815250856001600160a01b031661298b9092919063ffffffff16565b905080516000148061271157508080602001905181019061271191906130ba565b611eca5760405162461bcd60e51b815260206004820152602a60248201527f5361666545524332303a204552433230206f7065726174696f6e20646964206e6044820152691bdd081cdd58d8d9595960b21b6064820152608401610932565b6001600160a01b0381163b6127dd5760405162461bcd60e51b815260206004820152602d60248201527f455243313936373a206e657720696d706c656d656e746174696f6e206973206e60448201526c1bdd08184818dbdb9d1c9858dd609a1b6064820152608401610932565b6000805160206132b583398151915280546001600160a01b0319166001600160a01b0392909216919091179055565b6128158361299a565b6000825111806128225750805b15611eca576123c083836129da565b60606128578484846040518060600160405280602981526020016132d560299139612ace565b90505b9392505050565b60606128a5838360006040518060400160405280601e81526020017f416464726573733a206c6f772d6c6576656c2063616c6c206661696c65640000815250612ace565b90505b92915050565b600054610100900460ff166128d55760405162461bcd60e51b81526004016109329061323a565b6113db33612042565b604051636eb1769f60e11b81523060048201526001600160a01b0383811660248301526000919085169063dd62ed3e90604401602060405180830381865afa15801561292e573d6000803e3d6000fd5b505050506040513d601f19601f820116820180604052508101906129529190612f6d565b90506123c08463095ea7b360e01b8561296b8686612f9c565b6040516001600160a01b0390921660248301526044820152606401611e93565b60606128578484600085612ace565b6129a381612770565b6040516001600160a01b038216907fbc7cd75a20ee27fd9adebab32041f755214dbc6bffa90cc0225b39da2e5c2d3b90600090a250565b60606001600160a01b0383163b612a425760405162461bcd60e51b815260206004820152602660248201527f416464726573733a2064656c65676174652063616c6c20746f206e6f6e2d636f6044820152651b9d1c9858dd60d21b6064820152608401610932565b600080846001600160a01b031684604051612a5d9190613285565b600060405180830381855af49150503d8060008114612a98576040519150601f19603f3d011682016040523d82523d6000602084013e612a9d565b606091505b5091509150612ac582826040518060600160405280602781526020016132fe60279139612bab565b95945050505050565b606082471015612b2f5760405162461bcd60e51b815260206004820152602660248201527f416464726573733a20696e73756666696369656e742062616c616e636520666f6044820152651c8818d85b1b60d21b6064820152608401610932565b600080866001600160a01b03168587604051612b4b9190613285565b60006040518083038185875af1925050503d8060008114612b88576040519150601f19603f3d011682016040523d82523d6000602084013e612b8d565b606091505b5091509150612b9e87838387612bc4565b925050505b949350505050565b60608315612bba57508161285a565b61285a8383612c39565b60608315612c33578251600003612c2c576001600160a01b0385163b612c2c5760405162461bcd60e51b815260206004820152601d60248201527f416464726573733a2063616c6c20746f206e6f6e2d636f6e74726163740000006044820152606401610932565b5081612ba3565b612ba383835b815115612c495781518083602001fd5b8060405162461bcd60e51b815260040161093291906132a1565b60008083601f840112612c7557600080fd5b50813567ffffffffffffffff811115612c8d57600080fd5b602083019150836020828501011115612ca557600080fd5b9250929050565b600080600080600060808688031215612cc457600080fd5b8535945060208601359350604086013567ffffffffffffffff811115612ce957600080fd5b612cf588828901612c63565b96999598509660600135949350505050565b80356001600160a01b0381168114612d1e57600080fd5b919050565b600060208284031215612d3557600080fd5b6128a582612d07565b600060208284031215612d5057600080fd5b5035919050565b634e487b7160e01b600052604160045260246000fd5b600082601f830112612d7e57600080fd5b813567ffffffffffffffff80821115612d9957612d99612d57565b604051601f8301601f19908116603f01168101908282118183101715612dc157612dc1612d57565b81604052838152866020858801011115612dda57600080fd5b836020870160208301376000602085830101528094505050505092915050565b60008060408385031215612e0d57600080fd5b612e1683612d07565b9150602083013567ffffffffffffffff811115612e3257600080fd5b612e3e85828601612d6d565b9150509250929050565b60008060008060008060a08789031215612e6157600080fd5b612e6a87612d07565b9550612e7860208801612d07565b94506040870135935060608701359250608087013567ffffffffffffffff811115612ea257600080fd5b612eae89828a01612c63565b979a9699509497509295939492505050565b600080600080600060a08688031215612ed857600080fd5b612ee186612d07565b9450612eef60208701612d07565b9350612efd60408701612d07565b94979396509394606081013594506080013592915050565b60008060408385031215612f2857600080fd5b50508035926020909101359150565b60008060008060808587031215612f4d57600080fd5b505082516020840151604085015160609095015191969095509092509050565b600060208284031215612f7f57600080fd5b5051919050565b634e487b7160e01b600052601160045260246000fd5b808201808211156128a8576128a8612f86565b818103818111156128a8576128a8612f86565b6020808252600a90820152694e6f742061646d696e2160b01b604082015260600190565b60ff8616815284602082015283604082015260806060820152816080820152818360a0830137600081830160a090810191909152601f909201601f19160101949350505050565b60005b83811015613048578181015183820152602001613030565b50506000910152565b6000815180845261306981602086016020860161302d565b601f01601f19169290920160200192915050565b6001600160a01b03858116825284166020820152604081018390526080606082018190526000906130b090830184613051565b9695505050505050565b6000602082840312156130cc57600080fd5b8151801515811461285a57600080fd5b6020808252602c908201527f46756e6374696f6e206d7573742062652063616c6c6564207468726f7567682060408201526b19195b1959d85d1958d85b1b60a21b606082015260800190565b6020808252602c908201527f46756e6374696f6e206d7573742062652063616c6c6564207468726f7567682060408201526b6163746976652070726f787960a01b606082015260800190565b80820281158282048414176128a8576128a8612f86565b6000826131a857634e487b7160e01b600052601260045260246000fd5b500490565b600080604083850312156131c057600080fd5b505080516020909101519092909150565b600080600080608085870312156131e757600080fd5b843560ff811681146131f857600080fd5b93506020850135925060408501359150606085013567ffffffffffffffff81111561322257600080fd5b61322e87828801612d6d565b91505092959194509250565b6020808252602b908201527f496e697469616c697a61626c653a20636f6e7472616374206973206e6f74206960408201526a6e697469616c697a696e6760a81b606082015260800190565b6000825161329781846020870161302d565b9190910192915050565b6020815260006128a5602083018461305156fe360894a13ba1a3210667c828492db98dca3e2076cc3735a920a3ca505d382bbc416464726573733a206c6f772d6c6576656c2063616c6c20776974682076616c7565206661696c6564416464726573733a206c6f772d6c6576656c2064656c65676174652063616c6c206661696c6564a2646970667358221220f539b87b0980a5418dcf171a178174d8094a095a51c9d8e27ec36c62a6515e8964736f6c63430008130033","opcodes":"PUSH1 0xA0 PUSH1 0x40 MSTORE ADDRESS PUSH1 0x80 MSTORE CALLVALUE DUP1 ISZERO PUSH2 0x14 JUMPI PUSH1 0x0 DUP1 REVERT JUMPDEST POP PUSH1 0x80 MLOAD PUSH2 0x335A PUSH2 0x4C PUSH1 0x0 CODECOPY PUSH1 0x0 DUP2 DUP2 PUSH2 0xD62 ADD MSTORE DUP2 DUP2 PUSH2 0xDA2 ADD MSTORE DUP2 DUP2 PUSH2 0x10B3 ADD MSTORE DUP2 DUP2 PUSH2 0x10F3 ADD MSTORE PUSH2 0x1186 ADD MSTORE PUSH2 0x335A PUSH1 0x0 RETURN INVALID PUSH1 0x80 PUSH1 0x40 MSTORE PUSH1 0x4 CALLDATASIZE LT PUSH2 0x272 JUMPI PUSH1 0x0 CALLDATALOAD PUSH1 0xE0 SHR DUP1 PUSH4 0x82DFC5F7 GT PUSH2 0x14F JUMPI DUP1 PUSH4 0xAF8658AB GT PUSH2 0xC1 JUMPI DUP1 PUSH4 0xE107E027 GT PUSH2 0x7A JUMPI DUP1 PUSH4 0xE107E027 EQ PUSH2 0x745 JUMPI DUP1 PUSH4 0xE549435B EQ PUSH2 0x76D JUMPI DUP1 PUSH4 0xE77C41F6 EQ PUSH2 0x784 JUMPI DUP1 PUSH4 0xEF2CD24B EQ PUSH2 0x79B JUMPI DUP1 PUSH4 0xF2FDE38B EQ PUSH2 0x7B7 JUMPI DUP1 PUSH4 0xFBFA77CF EQ PUSH2 0x7D7 JUMPI PUSH1 0x0 DUP1 REVERT JUMPDEST DUP1 PUSH4 0xAF8658AB EQ PUSH2 0x68F JUMPI DUP1 PUSH4 0xAFB56385 EQ PUSH2 0x6AF JUMPI DUP1 PUSH4 0xB1DF9742 EQ PUSH2 0x6D0 JUMPI DUP1 PUSH4 0xB6B55F25 EQ PUSH2 0x6F0 JUMPI DUP1 PUSH4 0xC26C4DFE EQ PUSH2 0x710 JUMPI DUP1 PUSH4 0xD84D74A0 EQ PUSH2 0x725 JUMPI PUSH1 0x0 DUP1 REVERT JUMPDEST DUP1 PUSH4 0x9E65741E GT PUSH2 0x113 JUMPI DUP1 PUSH4 0x9E65741E EQ PUSH2 0x5E1 JUMPI DUP1 PUSH4 0xA11D8C6B EQ PUSH2 0x5F8 JUMPI DUP1 PUSH4 0xA8497015 EQ PUSH2 0x620 JUMPI DUP1 PUSH4 0xAB7CE244 EQ PUSH2 0x637 JUMPI DUP1 PUSH4 0xAC3AF208 EQ PUSH2 0x64C JUMPI DUP1 PUSH4 0xAF56C207 EQ PUSH2 0x674 JUMPI PUSH1 0x0 DUP1 REVERT JUMPDEST DUP1 PUSH4 0x82DFC5F7 EQ PUSH2 0x53B JUMPI DUP1 PUSH4 0x85651C8C EQ PUSH2 0x563 JUMPI DUP1 PUSH4 0x8DA5CB5B EQ PUSH2 0x58B JUMPI DUP1 PUSH4 0x98477390 EQ PUSH2 0x5A9 JUMPI DUP1 PUSH4 0x98E1862C EQ PUSH2 0x5CA JUMPI PUSH1 0x0 DUP1 REVERT JUMPDEST DUP1 PUSH4 0x3E9491A2 GT PUSH2 0x1E8 JUMPI DUP1 PUSH4 0x59126926 GT PUSH2 0x1AC JUMPI DUP1 PUSH4 0x59126926 EQ PUSH2 0x48F JUMPI DUP1 PUSH4 0x5C975ABB EQ PUSH2 0x4A6 JUMPI DUP1 PUSH4 0x62E8564E EQ PUSH2 0x4C9 JUMPI DUP1 PUSH4 0x70480275 EQ PUSH2 0x4DE JUMPI DUP1 PUSH4 0x715018A6 EQ PUSH2 0x4FE JUMPI DUP1 PUSH4 0x7753F47B EQ PUSH2 0x513 JUMPI PUSH1 0x0 DUP1 REVERT JUMPDEST DUP1 PUSH4 0x3E9491A2 EQ PUSH2 0x3FE JUMPI DUP1 PUSH4 0x46961ECE EQ PUSH2 0x415 JUMPI DUP1 PUSH4 0x4F1EF286 EQ PUSH2 0x43D JUMPI DUP1 PUSH4 0x52D1902D EQ PUSH2 0x450 JUMPI DUP1 PUSH4 0x571DDF35 EQ PUSH2 0x465 JUMPI PUSH1 0x0 DUP1 REVERT JUMPDEST DUP1 PUSH4 0x308B2B81 GT PUSH2 0x23A JUMPI DUP1 PUSH4 0x308B2B81 EQ PUSH2 0x321 JUMPI DUP1 PUSH4 0x3436042C EQ PUSH2 0x33D JUMPI DUP1 PUSH4 0x3659CFE6 EQ PUSH2 0x354 JUMPI DUP1 PUSH4 0x37A62FA2 EQ PUSH2 0x374 JUMPI DUP1 PUSH4 0x3A54B841 EQ PUSH2 0x3B4 JUMPI DUP1 PUSH4 0x3BFAA7E3 EQ PUSH2 0x3D4 JUMPI PUSH1 0x0 DUP1 REVERT JUMPDEST DUP1 PUSH4 0x8BB5FB0 EQ PUSH2 0x277 JUMPI DUP1 PUSH4 0xE8CC018 EQ PUSH2 0x29F JUMPI DUP1 PUSH4 0x1785F53C EQ PUSH2 0x2C1 JUMPI DUP1 PUSH4 0x19C63BFE EQ PUSH2 0x2E1 JUMPI DUP1 PUSH4 0x2E1A7D4D EQ PUSH2 0x301 JUMPI JUMPDEST PUSH1 0x0 DUP1 REVERT JUMPDEST CALLVALUE DUP1 ISZERO PUSH2 0x283 JUMPI PUSH1 0x0 DUP1 REVERT JUMPDEST POP PUSH2 0x28C PUSH2 0x7F8 JUMP JUMPDEST PUSH1 0x40 MLOAD SWAP1 DUP2 MSTORE PUSH1 0x20 ADD JUMPDEST PUSH1 0x40 MLOAD DUP1 SWAP2 SUB SWAP1 RETURN JUMPDEST CALLVALUE DUP1 ISZERO PUSH2 0x2AB JUMPI PUSH1 0x0 DUP1 REVERT JUMPDEST POP PUSH2 0x2BF PUSH2 0x2BA CALLDATASIZE PUSH1 0x4 PUSH2 0x2CAC JUMP JUMPDEST PUSH2 0x902 JUMP JUMPDEST STOP JUMPDEST CALLVALUE DUP1 ISZERO PUSH2 0x2CD JUMPI PUSH1 0x0 DUP1 REVERT JUMPDEST POP PUSH2 0x2BF PUSH2 0x2DC CALLDATASIZE PUSH1 0x4 PUSH2 0x2D23 JUMP JUMPDEST PUSH2 0xACC JUMP JUMPDEST CALLVALUE DUP1 ISZERO PUSH2 0x2ED JUMPI PUSH1 0x0 DUP1 REVERT JUMPDEST POP PUSH2 0x2BF PUSH2 0x2FC CALLDATASIZE PUSH1 0x4 PUSH2 0x2CAC JUMP JUMPDEST PUSH2 0xB3F JUMP JUMPDEST CALLVALUE DUP1 ISZERO PUSH2 0x30D JUMPI PUSH1 0x0 DUP1 REVERT JUMPDEST POP PUSH2 0x28C PUSH2 0x31C CALLDATASIZE PUSH1 0x4 PUSH2 0x2D3E JUMP JUMPDEST PUSH2 0xC41 JUMP JUMPDEST CALLVALUE DUP1 ISZERO PUSH2 0x32D JUMPI PUSH1 0x0 DUP1 REVERT JUMPDEST POP PUSH2 0x28C PUSH8 0x9B6E64A8EC60000 DUP2 JUMP JUMPDEST CALLVALUE DUP1 ISZERO PUSH2 0x349 JUMPI PUSH1 0x0 DUP1 REVERT JUMPDEST POP PUSH2 0x28C PUSH2 0x138 SLOAD DUP2 JUMP JUMPDEST CALLVALUE DUP1 ISZERO PUSH2 0x360 JUMPI PUSH1 0x0 DUP1 REVERT JUMPDEST POP PUSH2 0x2BF PUSH2 0x36F CALLDATASIZE PUSH1 0x4 PUSH2 0x2D23 JUMP JUMPDEST PUSH2 0xD58 JUMP JUMPDEST CALLVALUE DUP1 ISZERO PUSH2 0x380 JUMPI PUSH1 0x0 DUP1 REVERT JUMPDEST POP PUSH2 0x39C PUSH20 0x77CA01483F379E58174739308945F044E1A764DC DUP2 JUMP JUMPDEST PUSH1 0x40 MLOAD PUSH1 0x1 PUSH1 0x1 PUSH1 0xA0 SHL SUB SWAP1 SWAP2 AND DUP2 MSTORE PUSH1 0x20 ADD PUSH2 0x296 JUMP JUMPDEST CALLVALUE DUP1 ISZERO PUSH2 0x3C0 JUMPI PUSH1 0x0 DUP1 REVERT JUMPDEST POP PUSH2 0x2BF PUSH2 0x3CF CALLDATASIZE PUSH1 0x4 PUSH2 0x2D23 JUMP JUMPDEST PUSH2 0xE37 JUMP JUMPDEST CALLVALUE DUP1 ISZERO PUSH2 0x3E0 JUMPI PUSH1 0x0 DUP1 REVERT JUMPDEST POP PUSH2 0x3E9 PUSH2 0xEB1 JUMP JUMPDEST PUSH1 0x40 DUP1 MLOAD SWAP3 DUP4 MSTORE PUSH1 0x20 DUP4 ADD SWAP2 SWAP1 SWAP2 MSTORE ADD PUSH2 0x296 JUMP JUMPDEST CALLVALUE DUP1 ISZERO PUSH2 0x40A JUMPI PUSH1 0x0 DUP1 REVERT JUMPDEST POP PUSH2 0x28C PUSH2 0x131 SLOAD DUP2 JUMP JUMPDEST CALLVALUE DUP1 ISZERO PUSH2 0x421 JUMPI PUSH1 0x0 DUP1 REVERT JUMPDEST POP PUSH2 0x39C PUSH20 0xB56C2F0B653B2E0B10C9B928C8580AC5DF02C7C7 DUP2 JUMP JUMPDEST PUSH2 0x2BF PUSH2 0x44B CALLDATASIZE PUSH1 0x4 PUSH2 0x2DFA JUMP JUMPDEST PUSH2 0x10A9 JUMP JUMPDEST CALLVALUE DUP1 ISZERO PUSH2 0x45C JUMPI PUSH1 0x0 DUP1 REVERT JUMPDEST POP PUSH2 0x28C PUSH2 0x1179 JUMP JUMPDEST CALLVALUE DUP1 ISZERO PUSH2 0x471 JUMPI PUSH1 0x0 DUP1 REVERT JUMPDEST POP PUSH2 0x47A PUSH2 0x122C JUMP JUMPDEST PUSH1 0x40 DUP1 MLOAD SWAP3 DUP4 MSTORE SWAP1 ISZERO ISZERO PUSH1 0x20 DUP4 ADD MSTORE ADD PUSH2 0x296 JUMP JUMPDEST CALLVALUE DUP1 ISZERO PUSH2 0x49B JUMPI PUSH1 0x0 DUP1 REVERT JUMPDEST POP PUSH2 0x28C PUSH2 0x136 SLOAD DUP2 JUMP JUMPDEST CALLVALUE DUP1 ISZERO PUSH2 0x4B2 JUMPI PUSH1 0x0 DUP1 REVERT JUMPDEST POP PUSH1 0xC9 SLOAD PUSH1 0xFF AND PUSH1 0x40 MLOAD SWAP1 ISZERO ISZERO DUP2 MSTORE PUSH1 0x20 ADD PUSH2 0x296 JUMP JUMPDEST CALLVALUE DUP1 ISZERO PUSH2 0x4D5 JUMPI PUSH1 0x0 DUP1 REVERT JUMPDEST POP PUSH2 0x28C PUSH2 0x12CC JUMP JUMPDEST CALLVALUE DUP1 ISZERO PUSH2 0x4EA JUMPI PUSH1 0x0 DUP1 REVERT JUMPDEST POP PUSH2 0x2BF PUSH2 0x4F9 CALLDATASIZE PUSH1 0x4 PUSH2 0x2D23 JUMP JUMPDEST PUSH2 0x1353 JUMP JUMPDEST CALLVALUE DUP1 ISZERO PUSH2 0x50A JUMPI PUSH1 0x0 DUP1 REVERT JUMPDEST POP PUSH2 0x2BF PUSH2 0x13C9 JUMP JUMPDEST CALLVALUE DUP1 ISZERO PUSH2 0x51F JUMPI PUSH1 0x0 DUP1 REVERT JUMPDEST POP PUSH2 0x39C PUSH20 0xEEEEEEEEEEEEEEEEEEEEEEEEEEEEEEEEEEEEEEEE DUP2 JUMP JUMPDEST CALLVALUE DUP1 ISZERO PUSH2 0x547 JUMPI PUSH1 0x0 DUP1 REVERT JUMPDEST POP PUSH2 0x39C PUSH20 0x82AF49447D8A07E3BD95BD0D56F35241523FBAB1 DUP2 JUMP JUMPDEST CALLVALUE DUP1 ISZERO PUSH2 0x56F JUMPI PUSH1 0x0 DUP1 REVERT JUMPDEST POP PUSH2 0x39C PUSH20 0x513C7E3A9C69CA3E22550EF58AC1C0088E918FFF DUP2 JUMP JUMPDEST CALLVALUE DUP1 ISZERO PUSH2 0x597 JUMPI PUSH1 0x0 DUP1 REVERT JUMPDEST POP PUSH1 0x33 SLOAD PUSH1 0x1 PUSH1 0x1 PUSH1 0xA0 SHL SUB AND PUSH2 0x39C JUMP JUMPDEST CALLVALUE DUP1 ISZERO PUSH2 0x5B5 JUMPI PUSH1 0x0 DUP1 REVERT JUMPDEST POP PUSH2 0x12F SLOAD PUSH2 0x39C SWAP1 PUSH1 0x1 PUSH1 0x1 PUSH1 0xA0 SHL SUB AND DUP2 JUMP JUMPDEST CALLVALUE DUP1 ISZERO PUSH2 0x5D6 JUMPI PUSH1 0x0 DUP1 REVERT JUMPDEST POP PUSH2 0x28C PUSH2 0x133 SLOAD DUP2 JUMP JUMPDEST CALLVALUE DUP1 ISZERO PUSH2 0x5ED JUMPI PUSH1 0x0 DUP1 REVERT JUMPDEST POP PUSH2 0x28C PUSH2 0x132 SLOAD DUP2 JUMP JUMPDEST CALLVALUE DUP1 ISZERO PUSH2 0x604 JUMPI PUSH1 0x0 DUP1 REVERT JUMPDEST POP PUSH2 0x39C PUSH20 0x794A61358D6845594F94DC1DB02A252B5B4814AD DUP2 JUMP JUMPDEST CALLVALUE DUP1 ISZERO PUSH2 0x62C JUMPI PUSH1 0x0 DUP1 REVERT JUMPDEST POP PUSH2 0x28C PUSH2 0x137 SLOAD DUP2 JUMP JUMPDEST CALLVALUE DUP1 ISZERO PUSH2 0x643 JUMPI PUSH1 0x0 DUP1 REVERT JUMPDEST POP PUSH2 0x28C PUSH2 0x13DD JUMP JUMPDEST CALLVALUE DUP1 ISZERO PUSH2 0x658 JUMPI PUSH1 0x0 DUP1 REVERT JUMPDEST POP PUSH2 0x39C PUSH20 0x1111111254EEB25477B68FB85ED929F73A960582 DUP2 JUMP JUMPDEST CALLVALUE DUP1 ISZERO PUSH2 0x680 JUMPI PUSH1 0x0 DUP1 REVERT JUMPDEST POP PUSH2 0x28C PUSH7 0x71AFD498D0000 DUP2 JUMP JUMPDEST CALLVALUE DUP1 ISZERO PUSH2 0x69B JUMPI PUSH1 0x0 DUP1 REVERT JUMPDEST POP PUSH2 0x28C PUSH2 0x6AA CALLDATASIZE PUSH1 0x4 PUSH2 0x2E48 JUMP JUMPDEST PUSH2 0x1485 JUMP JUMPDEST CALLVALUE DUP1 ISZERO PUSH2 0x6BB JUMPI PUSH1 0x0 DUP1 REVERT JUMPDEST POP PUSH2 0x130 SLOAD PUSH2 0x39C SWAP1 PUSH1 0x1 PUSH1 0x1 PUSH1 0xA0 SHL SUB AND DUP2 JUMP JUMPDEST CALLVALUE DUP1 ISZERO PUSH2 0x6DC JUMPI PUSH1 0x0 DUP1 REVERT JUMPDEST POP PUSH2 0x2BF PUSH2 0x6EB CALLDATASIZE PUSH1 0x4 PUSH2 0x2EC0 JUMP JUMPDEST PUSH2 0x18B8 JUMP JUMPDEST CALLVALUE DUP1 ISZERO PUSH2 0x6FC JUMPI PUSH1 0x0 DUP1 REVERT JUMPDEST POP PUSH2 0x28C PUSH2 0x70B CALLDATASIZE PUSH1 0x4 PUSH2 0x2D3E JUMP JUMPDEST PUSH2 0x1B77 JUMP JUMPDEST CALLVALUE DUP1 ISZERO PUSH2 0x71C JUMPI PUSH1 0x0 DUP1 REVERT JUMPDEST POP PUSH2 0x28C PUSH2 0x1C88 JUMP JUMPDEST CALLVALUE DUP1 ISZERO PUSH2 0x731 JUMPI PUSH1 0x0 DUP1 REVERT JUMPDEST POP PUSH2 0x2BF PUSH2 0x740 CALLDATASIZE PUSH1 0x4 PUSH2 0x2F15 JUMP JUMPDEST PUSH2 0x1D1B JUMP JUMPDEST CALLVALUE DUP1 ISZERO PUSH2 0x751 JUMPI PUSH1 0x0 DUP1 REVERT JUMPDEST POP PUSH2 0x39C PUSH20 0x5979D7B546E38E414F7E9822514BE443A4800529 DUP2 JUMP JUMPDEST CALLVALUE DUP1 ISZERO PUSH2 0x779 JUMPI PUSH1 0x0 DUP1 REVERT JUMPDEST POP PUSH2 0x28C PUSH2 0x135 SLOAD DUP2 JUMP JUMPDEST CALLVALUE DUP1 ISZERO PUSH2 0x790 JUMPI PUSH1 0x0 DUP1 REVERT JUMPDEST POP PUSH2 0x28C PUSH2 0x134 SLOAD DUP2 JUMP JUMPDEST CALLVALUE DUP1 ISZERO PUSH2 0x7A7 JUMPI PUSH1 0x0 DUP1 REVERT JUMPDEST POP PUSH2 0x28C PUSH8 0xD2F13F7789F0000 DUP2 JUMP JUMPDEST CALLVALUE DUP1 ISZERO PUSH2 0x7C3 JUMPI PUSH1 0x0 DUP1 REVERT JUMPDEST POP PUSH2 0x2BF PUSH2 0x7D2 CALLDATASIZE PUSH1 0x4 PUSH2 0x2D23 JUMP JUMPDEST PUSH2 0x1D97 JUMP JUMPDEST CALLVALUE DUP1 ISZERO PUSH2 0x7E3 JUMPI PUSH1 0x0 DUP1 REVERT JUMPDEST POP PUSH2 0x12E SLOAD PUSH2 0x39C SWAP1 PUSH1 0x1 PUSH1 0x1 PUSH1 0xA0 SHL SUB AND DUP2 JUMP JUMPDEST PUSH2 0x12F SLOAD PUSH1 0x40 MLOAD PUSH4 0x1B51675D PUSH1 0xE2 SHL DUP2 MSTORE ADDRESS PUSH1 0x4 DUP3 ADD MSTORE PUSH1 0x0 SWAP2 DUP3 SWAP2 PUSH1 0x1 PUSH1 0x1 PUSH1 0xA0 SHL SUB SWAP1 SWAP2 AND SWAP1 PUSH4 0x6D459D74 SWAP1 PUSH1 0x24 ADD PUSH1 0x80 PUSH1 0x40 MLOAD DUP1 DUP4 SUB DUP2 DUP7 GAS STATICCALL ISZERO DUP1 ISZERO PUSH2 0x846 JUMPI RETURNDATASIZE PUSH1 0x0 DUP1 RETURNDATACOPY RETURNDATASIZE PUSH1 0x0 REVERT JUMPDEST POP POP POP POP PUSH1 0x40 MLOAD RETURNDATASIZE PUSH1 0x1F NOT PUSH1 0x1F DUP3 ADD AND DUP3 ADD DUP1 PUSH1 0x40 MSTORE POP DUP2 ADD SWAP1 PUSH2 0x86A SWAP2 SWAP1 PUSH2 0x2F37 JUMP JUMPDEST POP PUSH2 0x131 SLOAD PUSH1 0x40 MLOAD PUSH4 0x70A08231 PUSH1 0xE0 SHL DUP2 MSTORE ADDRESS PUSH1 0x4 DUP3 ADD MSTORE SWAP2 SWAP5 POP SWAP3 POP PUSH20 0x5979D7B546E38E414F7E9822514BE443A4800529 SWAP2 POP PUSH4 0x70A08231 SWAP1 PUSH1 0x24 ADD PUSH1 0x20 PUSH1 0x40 MLOAD DUP1 DUP4 SUB DUP2 DUP7 GAS STATICCALL ISZERO DUP1 ISZERO PUSH2 0x8C4 JUMPI RETURNDATASIZE PUSH1 0x0 DUP1 RETURNDATACOPY RETURNDATASIZE PUSH1 0x0 REVERT JUMPDEST POP POP POP POP PUSH1 0x40 MLOAD RETURNDATASIZE PUSH1 0x1F NOT PUSH1 0x1F DUP3 ADD AND DUP3 ADD DUP1 PUSH1 0x40 MSTORE POP DUP2 ADD SWAP1 PUSH2 0x8E8 SWAP2 SWAP1 PUSH2 0x2F6D JUMP JUMPDEST PUSH2 0x8F2 SWAP1 DUP4 PUSH2 0x2F9C JUMP JUMPDEST PUSH2 0x8FC SWAP2 SWAP1 PUSH2 0x2FAF JUMP JUMPDEST SWAP2 POP POP SWAP1 JUMP JUMPDEST CALLER PUSH1 0x0 SWAP1 DUP2 MSTORE PUSH2 0x12D PUSH1 0x20 MSTORE PUSH1 0x40 SWAP1 KECCAK256 SLOAD PUSH1 0xFF AND PUSH2 0x93B JUMPI PUSH1 0x40 MLOAD PUSH3 0x461BCD PUSH1 0xE5 SHL DUP2 MSTORE PUSH1 0x4 ADD PUSH2 0x932 SWAP1 PUSH2 0x2FC2 JUMP JUMPDEST PUSH1 0x40 MLOAD DUP1 SWAP2 SUB SWAP1 REVERT JUMPDEST PUSH1 0x40 MLOAD PUSH4 0x70A08231 PUSH1 0xE0 SHL DUP2 MSTORE ADDRESS PUSH1 0x4 DUP3 ADD MSTORE PUSH1 0x0 SWAP1 PUSH20 0x5979D7B546E38E414F7E9822514BE443A4800529 SWAP1 PUSH4 0x70A08231 SWAP1 PUSH1 0x24 ADD PUSH1 0x20 PUSH1 0x40 MLOAD DUP1 DUP4 SUB DUP2 DUP7 GAS STATICCALL ISZERO DUP1 ISZERO PUSH2 0x98D JUMPI RETURNDATASIZE PUSH1 0x0 DUP1 RETURNDATACOPY RETURNDATASIZE PUSH1 0x0 REVERT JUMPDEST POP POP POP POP PUSH1 0x40 MLOAD RETURNDATASIZE PUSH1 0x1F NOT PUSH1 0x1F DUP3 ADD AND DUP3 ADD DUP1 PUSH1 0x40 MSTORE POP DUP2 ADD SWAP1 PUSH2 0x9B1 SWAP2 SWAP1 PUSH2 0x2F6D JUMP JUMPDEST SWAP1 POP DUP6 DUP2 LT ISZERO PUSH2 0xA03 JUMPI PUSH1 0x40 MLOAD PUSH3 0x461BCD PUSH1 0xE5 SHL DUP2 MSTORE PUSH1 0x20 PUSH1 0x4 DUP3 ADD MSTORE PUSH1 0x1A PUSH1 0x24 DUP3 ADD MSTORE PUSH32 0x496E73756666696369656E742073744554482062616C616E6365000000000000 PUSH1 0x44 DUP3 ADD MSTORE PUSH1 0x64 ADD PUSH2 0x932 JUMP JUMPDEST PUSH2 0x137 DUP7 SWAP1 SSTORE PUSH1 0x0 DUP1 JUMPDEST DUP7 DUP5 DUP8 DUP8 PUSH1 0x40 MLOAD PUSH1 0x20 ADD PUSH2 0xA25 SWAP6 SWAP5 SWAP4 SWAP3 SWAP2 SWAP1 PUSH2 0x2FE6 JUMP JUMPDEST PUSH1 0x40 DUP1 MLOAD PUSH1 0x1F NOT DUP2 DUP5 SUB ADD DUP2 MSTORE SWAP1 DUP3 SWAP1 MSTORE PUSH2 0x130 SLOAD PUSH4 0x2E7FF4EF PUSH1 0xE1 SHL DUP4 MSTORE SWAP1 SWAP3 POP PUSH1 0x1 PUSH1 0x1 PUSH1 0xA0 SHL SUB AND SWAP1 PUSH4 0x5CFFE9DE SWAP1 PUSH2 0xA7F SWAP1 ADDRESS SWAP1 PUSH20 0x82AF49447D8A07E3BD95BD0D56F35241523FBAB1 SWAP1 DUP12 SWAP1 DUP8 SWAP1 PUSH1 0x4 ADD PUSH2 0x307D JUMP JUMPDEST PUSH1 0x20 PUSH1 0x40 MLOAD DUP1 DUP4 SUB DUP2 PUSH1 0x0 DUP8 GAS CALL ISZERO DUP1 ISZERO PUSH2 0xA9E JUMPI RETURNDATASIZE PUSH1 0x0 DUP1 RETURNDATACOPY RETURNDATASIZE PUSH1 0x0 REVERT JUMPDEST POP POP POP POP PUSH1 0x40 MLOAD RETURNDATASIZE PUSH1 0x1F NOT PUSH1 0x1F DUP3 ADD AND DUP3 ADD DUP1 PUSH1 0x40 MSTORE POP DUP2 ADD SWAP1 PUSH2 0xAC2 SWAP2 SWAP1 PUSH2 0x30BA JUMP JUMPDEST POP POP POP POP POP POP POP POP JUMP JUMPDEST PUSH2 0xAD4 PUSH2 0x1E0D JUMP JUMPDEST PUSH1 0x1 PUSH1 0x1 PUSH1 0xA0 SHL SUB DUP2 AND PUSH2 0xB1D JUMPI PUSH1 0x40 MLOAD PUSH3 0x461BCD PUSH1 0xE5 SHL DUP2 MSTORE PUSH1 0x20 PUSH1 0x4 DUP3 ADD MSTORE PUSH1 0x10 PUSH1 0x24 DUP3 ADD MSTORE PUSH16 0x496E76616C6964206164647265737321 PUSH1 0x80 SHL PUSH1 0x44 DUP3 ADD MSTORE PUSH1 0x64 ADD PUSH2 0x932 JUMP JUMPDEST PUSH1 0x1 PUSH1 0x1 PUSH1 0xA0 SHL SUB AND PUSH1 0x0 SWAP1 DUP2 MSTORE PUSH2 0x12D PUSH1 0x20 MSTORE PUSH1 0x40 SWAP1 KECCAK256 DUP1 SLOAD PUSH1 0xFF NOT AND SWAP1 SSTORE JUMP JUMPDEST CALLER PUSH1 0x0 SWAP1 DUP2 MSTORE PUSH2 0x12D PUSH1 0x20 MSTORE PUSH1 0x40 SWAP1 KECCAK256 SLOAD PUSH1 0xFF AND PUSH2 0xB6F JUMPI PUSH1 0x40 MLOAD PUSH3 0x461BCD PUSH1 0xE5 SHL DUP2 MSTORE PUSH1 0x4 ADD PUSH2 0x932 SWAP1 PUSH2 0x2FC2 JUMP JUMPDEST PUSH2 0x12F SLOAD PUSH1 0x40 MLOAD PUSH4 0x1B51675D PUSH1 0xE2 SHL DUP2 MSTORE ADDRESS PUSH1 0x4 DUP3 ADD MSTORE PUSH1 0x0 SWAP2 PUSH1 0x1 PUSH1 0x1 PUSH1 0xA0 SHL SUB AND SWAP1 PUSH4 0x6D459D74 SWAP1 PUSH1 0x24 ADD PUSH1 0x80 PUSH1 0x40 MLOAD DUP1 DUP4 SUB DUP2 DUP7 GAS STATICCALL ISZERO DUP1 ISZERO PUSH2 0xBB9 JUMPI RETURNDATASIZE PUSH1 0x0 DUP1 RETURNDATACOPY RETURNDATASIZE PUSH1 0x0 REVERT JUMPDEST POP POP POP POP PUSH1 0x40 MLOAD RETURNDATASIZE PUSH1 0x1F NOT PUSH1 0x1F DUP3 ADD AND DUP3 ADD DUP1 PUSH1 0x40 MSTORE POP DUP2 ADD SWAP1 PUSH2 0xBDD SWAP2 SWAP1 PUSH2 0x2F37 JUMP JUMPDEST POP POP POP SWAP1 POP DUP5 DUP2 LT ISZERO PUSH2 0xC32 JUMPI PUSH1 0x40 MLOAD PUSH3 0x461BCD PUSH1 0xE5 SHL DUP2 MSTORE PUSH1 0x20 PUSH1 0x4 DUP3 ADD MSTORE PUSH1 0x18 PUSH1 0x24 DUP3 ADD MSTORE PUSH32 0x4E6F7420656E6F75676820746F6B656E2062616C616E63650000000000000000 PUSH1 0x44 DUP3 ADD MSTORE PUSH1 0x64 ADD PUSH2 0x932 JUMP JUMPDEST PUSH2 0x138 DUP7 SWAP1 SSTORE PUSH1 0x0 PUSH1 0x1 PUSH2 0xA0D JUMP JUMPDEST PUSH2 0x12E SLOAD PUSH1 0x0 SWAP1 PUSH1 0x1 PUSH1 0x1 PUSH1 0xA0 SHL SUB AND CALLER EQ PUSH2 0xC9F JUMPI PUSH1 0x40 MLOAD PUSH3 0x461BCD PUSH1 0xE5 SHL DUP2 MSTORE PUSH1 0x20 PUSH1 0x4 DUP3 ADD MSTORE PUSH1 0x1F PUSH1 0x24 DUP3 ADD MSTORE PUSH32 0x4F6E6C79207661756C742063616E2063616C6C2074686973206D6574686F6400 PUSH1 0x44 DUP3 ADD MSTORE PUSH1 0x64 ADD PUSH2 0x932 JUMP JUMPDEST PUSH1 0x0 DUP3 GT PUSH2 0xCEF JUMPI PUSH1 0x40 MLOAD PUSH3 0x461BCD PUSH1 0xE5 SHL DUP2 MSTORE PUSH1 0x20 PUSH1 0x4 DUP3 ADD MSTORE PUSH1 0x19 PUSH1 0x24 DUP3 ADD MSTORE PUSH32 0x77697468647261773A20496E76616C696420616D6F756E742E00000000000000 PUSH1 0x44 DUP3 ADD MSTORE PUSH1 0x64 ADD PUSH2 0x932 JUMP JUMPDEST PUSH2 0x12E SLOAD PUSH2 0xD1C SWAP1 PUSH20 0x5979D7B546E38E414F7E9822514BE443A4800529 SWAP1 PUSH1 0x1 PUSH1 0x1 PUSH1 0xA0 SHL SUB AND DUP5 PUSH2 0x1E67 JUMP JUMPDEST POP PUSH1 0x40 MLOAD DUP2 DUP2 MSTORE DUP2 SWAP1 PUSH32 0x5B6B431D4476A211BB7D41C20D1AAB9AE2321DEEE0D20BE3D9FC9B1093FA6E3D SWAP1 PUSH1 0x20 ADD JUMPDEST PUSH1 0x40 MLOAD DUP1 SWAP2 SUB SWAP1 LOG1 SWAP2 SWAP1 POP JUMP JUMPDEST PUSH1 0x1 PUSH1 0x1 PUSH1 0xA0 SHL SUB PUSH32 0x0 AND ADDRESS SUB PUSH2 0xDA0 JUMPI PUSH1 0x40 MLOAD PUSH3 0x461BCD PUSH1 0xE5 SHL DUP2 MSTORE PUSH1 0x4 ADD PUSH2 0x932 SWAP1 PUSH2 0x30DC JUMP JUMPDEST PUSH32 0x0 PUSH1 0x1 PUSH1 0x1 PUSH1 0xA0 SHL SUB AND PUSH2 0xDE9 PUSH1 0x0 DUP1 MLOAD PUSH1 0x20 PUSH2 0x32B5 DUP4 CODECOPY DUP2 MLOAD SWAP2 MSTORE SLOAD PUSH1 0x1 PUSH1 0x1 PUSH1 0xA0 SHL SUB AND SWAP1 JUMP JUMPDEST PUSH1 0x1 PUSH1 0x1 PUSH1 0xA0 SHL SUB AND EQ PUSH2 0xE0F JUMPI PUSH1 0x40 MLOAD PUSH3 0x461BCD PUSH1 0xE5 SHL DUP2 MSTORE PUSH1 0x4 ADD PUSH2 0x932 SWAP1 PUSH2 0x3128 JUMP JUMPDEST PUSH2 0xE18 DUP2 PUSH2 0x1ECF JUMP JUMPDEST PUSH1 0x40 DUP1 MLOAD PUSH1 0x0 DUP1 DUP3 MSTORE PUSH1 0x20 DUP3 ADD SWAP1 SWAP3 MSTORE PUSH2 0xE34 SWAP2 DUP4 SWAP2 SWAP1 PUSH2 0x1ED7 JUMP JUMPDEST POP JUMP JUMPDEST PUSH2 0xE3F PUSH2 0x1E0D JUMP JUMPDEST PUSH1 0x1 PUSH1 0x1 PUSH1 0xA0 SHL SUB DUP2 AND PUSH2 0xE8E JUMPI PUSH1 0x40 MLOAD PUSH3 0x461BCD PUSH1 0xE5 SHL DUP2 MSTORE PUSH1 0x20 PUSH1 0x4 DUP3 ADD MSTORE PUSH1 0x16 PUSH1 0x24 DUP3 ADD MSTORE PUSH22 0x57726F6E6720666C6173686C6F616E48656C70657221 PUSH1 0x50 SHL PUSH1 0x44 DUP3 ADD MSTORE PUSH1 0x64 ADD PUSH2 0x932 JUMP JUMPDEST PUSH2 0x130 DUP1 SLOAD PUSH1 0x1 PUSH1 0x1 PUSH1 0xA0 SHL SUB NOT AND PUSH1 0x1 PUSH1 0x1 PUSH1 0xA0 SHL SUB SWAP3 SWAP1 SWAP3 AND SWAP2 SWAP1 SWAP2 OR SWAP1 SSTORE JUMP JUMPDEST CALLER PUSH1 0x0 SWAP1 DUP2 MSTORE PUSH2 0x12D PUSH1 0x20 MSTORE PUSH1 0x40 DUP2 KECCAK256 SLOAD DUP2 SWAP1 PUSH1 0xFF AND PUSH2 0xEE3 JUMPI PUSH1 0x40 MLOAD PUSH3 0x461BCD PUSH1 0xE5 SHL DUP2 MSTORE PUSH1 0x4 ADD PUSH2 0x932 SWAP1 PUSH2 0x2FC2 JUMP JUMPDEST PUSH2 0x12E SLOAD PUSH1 0x40 DUP1 MLOAD PUSH4 0x18160DDD PUSH1 0xE0 SHL DUP2 MSTORE SWAP1 MLOAD PUSH1 0x0 SWAP3 PUSH1 0x1 PUSH1 0x1 PUSH1 0xA0 SHL SUB AND SWAP2 PUSH4 0x18160DDD SWAP2 PUSH1 0x4 DUP1 DUP4 ADD SWAP3 PUSH1 0x20 SWAP3 SWAP2 SWAP1 DUP3 SWAP1 SUB ADD DUP2 DUP7 GAS STATICCALL ISZERO DUP1 ISZERO PUSH2 0xF2E JUMPI RETURNDATASIZE PUSH1 0x0 DUP1 RETURNDATACOPY RETURNDATASIZE PUSH1 0x0 REVERT JUMPDEST POP POP POP POP PUSH1 0x40 MLOAD RETURNDATASIZE PUSH1 0x1F NOT PUSH1 0x1F DUP3 ADD AND DUP3 ADD DUP1 PUSH1 0x40 MSTORE POP DUP2 ADD SWAP1 PUSH2 0xF52 SWAP2 SWAP1 PUSH2 0x2F6D JUMP JUMPDEST SWAP1 POP DUP1 PUSH1 0x0 SUB PUSH2 0xF6D JUMPI PUSH2 0x132 SLOAD PUSH2 0x131 SLOAD SWAP3 POP SWAP3 POP POP SWAP1 SWAP2 JUMP JUMPDEST PUSH1 0x0 PUSH2 0xF77 PUSH2 0x7F8 JUMP JUMPDEST SWAP1 POP DUP2 PUSH2 0xF8C DUP3 PUSH8 0xDE0B6B3A7640000 PUSH2 0x3174 JUMP JUMPDEST PUSH2 0xF96 SWAP2 SWAP1 PUSH2 0x318B JUMP JUMPDEST SWAP4 POP PUSH2 0x133 SLOAD DUP5 GT ISZERO PUSH2 0x1063 JUMPI PUSH2 0x133 SLOAD PUSH1 0x0 SUB PUSH2 0xFC5 JUMPI POP POP POP PUSH2 0x133 DUP2 SWAP1 SSTORE PUSH2 0x132 DUP2 SWAP1 SSTORE PUSH2 0x131 SLOAD SWAP1 SWAP2 JUMP JUMPDEST PUSH1 0x0 PUSH8 0xDE0B6B3A7640000 DUP4 PUSH2 0x132 SLOAD PUSH2 0xFDF SWAP2 SWAP1 PUSH2 0x3174 JUMP JUMPDEST PUSH2 0xFE9 SWAP2 SWAP1 PUSH2 0x318B JUMP JUMPDEST PUSH2 0xFF3 SWAP1 DUP4 PUSH2 0x2FAF JUMP JUMPDEST SWAP1 POP PUSH2 0x2710 PUSH2 0x134 SLOAD DUP3 PUSH2 0x1007 SWAP2 SWAP1 PUSH2 0x3174 JUMP JUMPDEST PUSH2 0x1011 SWAP2 SWAP1 PUSH2 0x318B JUMP JUMPDEST SWAP4 POP DUP4 PUSH2 0x131 PUSH1 0x0 DUP3 DUP3 SLOAD PUSH2 0x1026 SWAP2 SWAP1 PUSH2 0x2F9C JUMP JUMPDEST SWAP1 SWAP2 SSTORE POP DUP4 SWAP1 POP PUSH2 0x1037 DUP6 DUP5 PUSH2 0x2FAF JUMP JUMPDEST PUSH2 0x1049 SWAP1 PUSH8 0xDE0B6B3A7640000 PUSH2 0x3174 JUMP JUMPDEST PUSH2 0x1053 SWAP2 SWAP1 PUSH2 0x318B JUMP JUMPDEST PUSH2 0x132 DUP2 SWAP1 SSTORE PUSH2 0x133 SSTORE POP PUSH2 0x106A JUMP JUMPDEST PUSH2 0x132 DUP5 SWAP1 SSTORE JUMPDEST PUSH1 0x40 DUP1 MLOAD DUP6 DUP2 MSTORE PUSH1 0x20 DUP2 ADD DUP6 SWAP1 MSTORE PUSH32 0x83D2AD38A3D31BBC70811535DD8943B0140DF344C23E6E167EE1CA32F9A1A459 SWAP2 ADD PUSH1 0x40 MLOAD DUP1 SWAP2 SUB SWAP1 LOG1 POP POP SWAP1 SWAP2 JUMP JUMPDEST PUSH1 0x1 PUSH1 0x1 PUSH1 0xA0 SHL SUB PUSH32 0x0 AND ADDRESS SUB PUSH2 0x10F1 JUMPI PUSH1 0x40 MLOAD PUSH3 0x461BCD PUSH1 0xE5 SHL DUP2 MSTORE PUSH1 0x4 ADD PUSH2 0x932 SWAP1 PUSH2 0x30DC JUMP JUMPDEST PUSH32 0x0 PUSH1 0x1 PUSH1 0x1 PUSH1 0xA0 SHL SUB AND PUSH2 0x113A PUSH1 0x0 DUP1 MLOAD PUSH1 0x20 PUSH2 0x32B5 DUP4 CODECOPY DUP2 MLOAD SWAP2 MSTORE SLOAD PUSH1 0x1 PUSH1 0x1 PUSH1 0xA0 SHL SUB AND SWAP1 JUMP JUMPDEST PUSH1 0x1 PUSH1 0x1 PUSH1 0xA0 SHL SUB AND EQ PUSH2 0x1160 JUMPI PUSH1 0x40 MLOAD PUSH3 0x461BCD PUSH1 0xE5 SHL DUP2 MSTORE PUSH1 0x4 ADD PUSH2 0x932 SWAP1 PUSH2 0x3128 JUMP JUMPDEST PUSH2 0x1169 DUP3 PUSH2 0x1ECF JUMP JUMPDEST PUSH2 0x1175 DUP3 DUP3 PUSH1 0x1 PUSH2 0x1ED7 JUMP JUMPDEST POP POP JUMP JUMPDEST PUSH1 0x0 ADDRESS PUSH1 0x1 PUSH1 0x1 PUSH1 0xA0 SHL SUB PUSH32 0x0 AND EQ PUSH2 0x1219 JUMPI PUSH1 0x40 MLOAD PUSH3 0x461BCD PUSH1 0xE5 SHL DUP2 MSTORE PUSH1 0x20 PUSH1 0x4 DUP3 ADD MSTORE PUSH1 0x38 PUSH1 0x24 DUP3 ADD MSTORE PUSH32 0x555550535570677261646561626C653A206D757374206E6F742062652063616C PUSH1 0x44 DUP3 ADD MSTORE PUSH32 0x6C6564207468726F7567682064656C656761746563616C6C0000000000000000 PUSH1 0x64 DUP3 ADD MSTORE PUSH1 0x84 ADD PUSH2 0x932 JUMP JUMPDEST POP PUSH1 0x0 DUP1 MLOAD PUSH1 0x20 PUSH2 0x32B5 DUP4 CODECOPY DUP2 MLOAD SWAP2 MSTORE SWAP1 JUMP JUMPDEST PUSH2 0x12F SLOAD PUSH1 0x40 MLOAD PUSH4 0x8CAFF8ED PUSH1 0xE0 SHL DUP2 MSTORE ADDRESS PUSH1 0x4 DUP3 ADD MSTORE PUSH1 0x0 SWAP2 DUP3 SWAP2 PUSH1 0x1 PUSH1 0x1 PUSH1 0xA0 SHL SUB SWAP1 SWAP2 AND SWAP1 PUSH4 0x8CAFF8ED SWAP1 PUSH1 0x24 ADD PUSH1 0x20 PUSH1 0x40 MLOAD DUP1 DUP4 SUB DUP2 DUP7 GAS STATICCALL ISZERO DUP1 ISZERO PUSH2 0x127A JUMPI RETURNDATASIZE PUSH1 0x0 DUP1 RETURNDATACOPY RETURNDATASIZE PUSH1 0x0 REVERT JUMPDEST POP POP POP POP PUSH1 0x40 MLOAD RETURNDATASIZE PUSH1 0x1F NOT PUSH1 0x1F DUP3 ADD AND DUP3 ADD DUP1 PUSH1 0x40 MSTORE POP DUP2 ADD SWAP1 PUSH2 0x129E SWAP2 SWAP1 PUSH2 0x2F6D JUMP JUMPDEST SWAP2 POP DUP2 PUSH7 0x71AFD498D0000 PUSH2 0x136 SLOAD PUSH2 0x12B7 SWAP2 SWAP1 PUSH2 0x2F9C JUMP JUMPDEST GT PUSH2 0x12C3 JUMPI PUSH1 0x0 PUSH2 0x12C6 JUMP JUMPDEST PUSH1 0x1 JUMPDEST SWAP1 POP SWAP1 SWAP2 JUMP JUMPDEST PUSH2 0x12F SLOAD PUSH1 0x40 MLOAD PUSH4 0x445818A1 PUSH1 0xE1 SHL DUP2 MSTORE ADDRESS PUSH1 0x4 DUP3 ADD MSTORE PUSH1 0x0 SWAP2 DUP3 SWAP2 DUP3 SWAP2 PUSH1 0x1 PUSH1 0x1 PUSH1 0xA0 SHL SUB AND SWAP1 PUSH4 0x88B03142 SWAP1 PUSH1 0x24 ADD PUSH1 0x40 DUP1 MLOAD DUP1 DUP4 SUB DUP2 DUP7 GAS STATICCALL ISZERO DUP1 ISZERO PUSH2 0x1319 JUMPI RETURNDATASIZE PUSH1 0x0 DUP1 RETURNDATACOPY RETURNDATASIZE PUSH1 0x0 REVERT JUMPDEST POP POP POP POP PUSH1 0x40 MLOAD RETURNDATASIZE PUSH1 0x1F NOT PUSH1 0x1F DUP3 ADD AND DUP3 ADD DUP1 PUSH1 0x40 MSTORE POP DUP2 ADD SWAP1 PUSH2 0x133D SWAP2 SWAP1 PUSH2 0x31AD JUMP JUMPDEST SWAP1 SWAP3 POP SWAP1 POP PUSH2 0x134C DUP2 DUP4 PUSH2 0x2FAF JUMP JUMPDEST SWAP3 POP POP POP SWAP1 JUMP JUMPDEST PUSH2 0x135B PUSH2 0x1E0D JUMP JUMPDEST PUSH1 0x1 PUSH1 0x1 PUSH1 0xA0 SHL SUB DUP2 AND PUSH2 0x13A4 JUMPI PUSH1 0x40 MLOAD PUSH3 0x461BCD PUSH1 0xE5 SHL DUP2 MSTORE PUSH1 0x20 PUSH1 0x4 DUP3 ADD MSTORE PUSH1 0x10 PUSH1 0x24 DUP3 ADD MSTORE PUSH16 0x496E76616C6964206164647265737321 PUSH1 0x80 SHL PUSH1 0x44 DUP3 ADD MSTORE PUSH1 0x64 ADD PUSH2 0x932 JUMP JUMPDEST PUSH1 0x1 PUSH1 0x1 PUSH1 0xA0 SHL SUB AND PUSH1 0x0 SWAP1 DUP2 MSTORE PUSH2 0x12D PUSH1 0x20 MSTORE PUSH1 0x40 SWAP1 KECCAK256 DUP1 SLOAD PUSH1 0xFF NOT AND PUSH1 0x1 OR SWAP1 SSTORE JUMP JUMPDEST PUSH2 0x13D1 PUSH2 0x1E0D JUMP JUMPDEST PUSH2 0x13DB PUSH1 0x0 PUSH2 0x2042 JUMP JUMPDEST JUMP JUMPDEST CALLER PUSH1 0x0 SWAP1 DUP2 MSTORE PUSH2 0x12D PUSH1 0x20 MSTORE PUSH1 0x40 DUP2 KECCAK256 SLOAD PUSH1 0xFF AND PUSH2 0x140D JUMPI PUSH1 0x40 MLOAD PUSH3 0x461BCD PUSH1 0xE5 SHL DUP2 MSTORE PUSH1 0x4 ADD PUSH2 0x932 SWAP1 PUSH2 0x2FC2 JUMP JUMPDEST PUSH1 0x40 MLOAD PUSH4 0x70A08231 PUSH1 0xE0 SHL DUP2 MSTORE ADDRESS PUSH1 0x4 DUP3 ADD MSTORE PUSH20 0x5979D7B546E38E414F7E9822514BE443A4800529 SWAP1 PUSH4 0x70A08231 SWAP1 PUSH1 0x24 ADD PUSH1 0x20 PUSH1 0x40 MLOAD DUP1 DUP4 SUB DUP2 DUP7 GAS STATICCALL ISZERO DUP1 ISZERO PUSH2 0x145C JUMPI RETURNDATASIZE PUSH1 0x0 DUP1 RETURNDATACOPY RETURNDATASIZE PUSH1 0x0 REVERT JUMPDEST POP POP POP POP PUSH1 0x40 MLOAD RETURNDATASIZE PUSH1 0x1F NOT PUSH1 0x1F DUP3 ADD AND DUP3 ADD DUP1 PUSH1 0x40 MSTORE POP DUP2 ADD SWAP1 PUSH2 0x1480 SWAP2 SWAP1 PUSH2 0x2F6D JUMP JUMPDEST SWAP1 POP SWAP1 JUMP JUMPDEST PUSH1 0x0 PUSH1 0x1 PUSH1 0x1 PUSH1 0xA0 SHL SUB DUP8 AND ADDRESS EQ PUSH2 0x14DF JUMPI PUSH1 0x40 MLOAD PUSH3 0x461BCD PUSH1 0xE5 SHL DUP2 MSTORE PUSH1 0x20 PUSH1 0x4 DUP3 ADD MSTORE PUSH1 0x1C PUSH1 0x24 DUP3 ADD MSTORE PUSH32 0x43616E6E6F742063616C6C20466C6173684C6F616E206D6F64756C6500000000 PUSH1 0x44 DUP3 ADD MSTORE PUSH1 0x64 ADD PUSH2 0x932 JUMP JUMPDEST PUSH1 0x0 DUP1 DUP1 PUSH2 0x14EF DUP6 DUP8 ADD DUP8 PUSH2 0x31D1 JUMP JUMPDEST SWAP3 SWAP6 POP SWAP4 POP SWAP1 SWAP2 POP POP PUSH1 0xFF DUP4 AND PUSH2 0x161C JUMPI PUSH1 0x0 PUSH2 0x1522 DUP10 PUSH20 0x82AF49447D8A07E3BD95BD0D56F35241523FBAB1 DUP5 DUP7 PUSH2 0x2094 JUMP JUMPDEST SWAP1 POP PUSH2 0x1552 PUSH20 0x5979D7B546E38E414F7E9822514BE443A4800529 PUSH2 0x137 SLOAD DUP4 PUSH2 0x154B SWAP2 SWAP1 PUSH2 0x2F9C JUMP JUMPDEST PUSH1 0x1 PUSH2 0x229A JUMP JUMPDEST PUSH2 0x12F SLOAD PUSH1 0x40 MLOAD PUSH4 0x7EE113E5 PUSH1 0xE0 SHL DUP2 MSTORE ADDRESS PUSH1 0x4 DUP3 ADD MSTORE PUSH1 0x0 SWAP2 PUSH1 0x1 PUSH1 0x1 PUSH1 0xA0 SHL SUB AND SWAP1 PUSH4 0x7EE113E5 SWAP1 PUSH1 0x24 ADD PUSH1 0x20 PUSH1 0x40 MLOAD DUP1 DUP4 SUB DUP2 DUP7 GAS STATICCALL ISZERO DUP1 ISZERO PUSH2 0x159C JUMPI RETURNDATASIZE PUSH1 0x0 DUP1 RETURNDATACOPY RETURNDATASIZE PUSH1 0x0 REVERT JUMPDEST POP POP POP POP PUSH1 0x40 MLOAD RETURNDATASIZE PUSH1 0x1F NOT PUSH1 0x1F DUP3 ADD AND DUP3 ADD DUP1 PUSH1 0x40 MSTORE POP DUP2 ADD SWAP1 PUSH2 0x15C0 SWAP2 SWAP1 PUSH2 0x2F6D JUMP JUMPDEST SWAP1 POP PUSH2 0x15CE DUP12 DUP3 PUSH1 0x1 PUSH2 0x23C6 JUMP JUMPDEST PUSH32 0xDE65598329A5A506B0865240860EAE7975D48FADCBB543933019D2095BA7860B PUSH2 0x137 SLOAD DUP4 PUSH2 0x15FE SWAP2 SWAP1 PUSH2 0x2F9C JUMP JUMPDEST PUSH1 0x40 DUP1 MLOAD SWAP2 DUP3 MSTORE PUSH1 0x20 DUP3 ADD DUP5 SWAP1 MSTORE ADD PUSH1 0x40 MLOAD DUP1 SWAP2 SUB SWAP1 LOG1 POP POP PUSH2 0x17FF JUMP JUMPDEST PUSH1 0x40 MLOAD PUSH4 0xB3596F07 PUSH1 0xE0 SHL DUP2 MSTORE PUSH20 0x82AF49447D8A07E3BD95BD0D56F35241523FBAB1 PUSH1 0x4 DUP3 ADD MSTORE PUSH1 0x0 SWAP1 PUSH20 0xB56C2F0B653B2E0B10C9B928C8580AC5DF02C7C7 SWAP1 PUSH4 0xB3596F07 SWAP1 PUSH1 0x24 ADD PUSH1 0x20 PUSH1 0x40 MLOAD DUP1 DUP4 SUB DUP2 DUP7 GAS STATICCALL ISZERO DUP1 ISZERO PUSH2 0x1682 JUMPI RETURNDATASIZE PUSH1 0x0 DUP1 RETURNDATACOPY RETURNDATASIZE PUSH1 0x0 REVERT JUMPDEST POP POP POP POP PUSH1 0x40 MLOAD RETURNDATASIZE PUSH1 0x1F NOT PUSH1 0x1F DUP3 ADD AND DUP3 ADD DUP1 PUSH1 0x40 MSTORE POP DUP2 ADD SWAP1 PUSH2 0x16A6 SWAP2 SWAP1 PUSH2 0x2F6D JUMP JUMPDEST PUSH1 0x40 MLOAD PUSH4 0xB3596F07 PUSH1 0xE0 SHL DUP2 MSTORE PUSH20 0x5979D7B546E38E414F7E9822514BE443A4800529 PUSH1 0x4 DUP3 ADD MSTORE SWAP1 SWAP2 POP PUSH1 0x0 SWAP1 PUSH20 0xB56C2F0B653B2E0B10C9B928C8580AC5DF02C7C7 SWAP1 PUSH4 0xB3596F07 SWAP1 PUSH1 0x24 ADD PUSH1 0x20 PUSH1 0x40 MLOAD DUP1 DUP4 SUB DUP2 DUP7 GAS STATICCALL ISZERO DUP1 ISZERO PUSH2 0x170F JUMPI RETURNDATASIZE PUSH1 0x0 DUP1 RETURNDATACOPY RETURNDATASIZE PUSH1 0x0 REVERT JUMPDEST POP POP POP POP PUSH1 0x40 MLOAD RETURNDATASIZE PUSH1 0x1F NOT PUSH1 0x1F DUP3 ADD AND DUP3 ADD DUP1 PUSH1 0x40 MSTORE POP DUP2 ADD SWAP1 PUSH2 0x1733 SWAP2 SWAP1 PUSH2 0x2F6D JUMP JUMPDEST SWAP1 POP PUSH1 0x0 PUSH2 0x1741 DUP11 DUP13 PUSH2 0x2F9C JUMP JUMPDEST SWAP1 POP PUSH2 0x138 SLOAD PUSH1 0x0 EQ PUSH2 0x1775 JUMPI DUP3 DUP3 PUSH2 0x138 SLOAD PUSH2 0x175E SWAP2 SWAP1 PUSH2 0x3174 JUMP JUMPDEST PUSH2 0x1768 SWAP2 SWAP1 PUSH2 0x318B JUMP JUMPDEST PUSH2 0x1772 SWAP1 DUP3 PUSH2 0x2F9C JUMP JUMPDEST SWAP1 POP JUMPDEST PUSH2 0x1781 DUP13 DUP3 PUSH1 0x0 PUSH2 0x23C6 JUMP JUMPDEST PUSH2 0x17A1 PUSH20 0x5979D7B546E38E414F7E9822514BE443A4800529 DUP3 PUSH1 0x0 PUSH2 0x229A JUMP JUMPDEST PUSH2 0x17C1 DUP12 PUSH20 0x5979D7B546E38E414F7E9822514BE443A4800529 DUP7 DUP9 PUSH2 0x2094 JUMP JUMPDEST POP PUSH1 0x40 DUP1 MLOAD DUP3 DUP2 MSTORE PUSH1 0x20 DUP2 ADD DUP14 SWAP1 MSTORE PUSH32 0xF046CCB25549004F529AFB60EF0287081F2111CC083F5A96895CC6732A61FF99 SWAP2 ADD PUSH1 0x40 MLOAD DUP1 SWAP2 SUB SWAP1 LOG1 POP POP POP JUMPDEST PUSH1 0x1 PUSH1 0x1 PUSH1 0xA0 SHL SUB DUP10 AND PUSH4 0x95EA7B3 CALLER PUSH2 0x1819 DUP11 DUP13 PUSH2 0x2F9C JUMP JUMPDEST PUSH1 0x40 MLOAD PUSH1 0x1 PUSH1 0x1 PUSH1 0xE0 SHL SUB NOT PUSH1 0xE0 DUP6 SWAP1 SHL AND DUP2 MSTORE PUSH1 0x1 PUSH1 0x1 PUSH1 0xA0 SHL SUB SWAP1 SWAP3 AND PUSH1 0x4 DUP4 ADD MSTORE PUSH1 0x24 DUP3 ADD MSTORE PUSH1 0x44 ADD PUSH1 0x20 PUSH1 0x40 MLOAD DUP1 DUP4 SUB DUP2 PUSH1 0x0 DUP8 GAS CALL ISZERO DUP1 ISZERO PUSH2 0x1864 JUMPI RETURNDATASIZE PUSH1 0x0 DUP1 RETURNDATACOPY RETURNDATASIZE PUSH1 0x0 REVERT JUMPDEST POP POP POP POP PUSH1 0x40 MLOAD RETURNDATASIZE PUSH1 0x1F NOT PUSH1 0x1F DUP3 ADD AND DUP3 ADD DUP1 PUSH1 0x40 MSTORE POP DUP2 ADD SWAP1 PUSH2 0x1888 SWAP2 SWAP1 PUSH2 0x30BA JUMP JUMPDEST POP PUSH32 0x439148F0BBC682CA079E46D6E2C2F0C1E3B820F1A291B069D8882ABF8CF18DD9 SWAP11 SWAP10 POP POP POP POP POP POP POP POP POP POP JUMP JUMPDEST PUSH1 0x0 SLOAD PUSH2 0x100 SWAP1 DIV PUSH1 0xFF AND ISZERO DUP1 DUP1 ISZERO PUSH2 0x18D8 JUMPI POP PUSH1 0x0 SLOAD PUSH1 0x1 PUSH1 0xFF SWAP1 SWAP2 AND LT JUMPDEST DUP1 PUSH2 0x18F2 JUMPI POP ADDRESS EXTCODESIZE ISZERO DUP1 ISZERO PUSH2 0x18F2 JUMPI POP PUSH1 0x0 SLOAD PUSH1 0xFF AND PUSH1 0x1 EQ JUMPDEST PUSH2 0x1955 JUMPI PUSH1 0x40 MLOAD PUSH3 0x461BCD PUSH1 0xE5 SHL DUP2 MSTORE PUSH1 0x20 PUSH1 0x4 DUP3 ADD MSTORE PUSH1 0x2E PUSH1 0x24 DUP3 ADD MSTORE PUSH32 0x496E697469616C697A61626C653A20636F6E747261637420697320616C726561 PUSH1 0x44 DUP3 ADD MSTORE PUSH14 0x191E481A5B9A5D1A585B1A5E9959 PUSH1 0x92 SHL PUSH1 0x64 DUP3 ADD MSTORE PUSH1 0x84 ADD PUSH2 0x932 JUMP JUMPDEST PUSH1 0x0 DUP1 SLOAD PUSH1 0xFF NOT AND PUSH1 0x1 OR SWAP1 SSTORE DUP1 ISZERO PUSH2 0x1978 JUMPI PUSH1 0x0 DUP1 SLOAD PUSH2 0xFF00 NOT AND PUSH2 0x100 OR SWAP1 SSTORE JUMPDEST PUSH2 0x1980 PUSH2 0x2488 JUMP JUMPDEST PUSH2 0x1988 PUSH2 0x24AF JUMP JUMPDEST PUSH1 0x1 PUSH1 0x1 PUSH1 0xA0 SHL SUB DUP7 AND ISZERO DUP1 ISZERO SWAP1 PUSH2 0x19A8 JUMPI POP PUSH1 0x1 PUSH1 0x1 PUSH1 0xA0 SHL SUB DUP5 AND ISZERO ISZERO JUMPDEST DUP1 ISZERO PUSH2 0x19BC JUMPI POP PUSH1 0x1 PUSH1 0x1 PUSH1 0xA0 SHL SUB DUP6 AND ISZERO ISZERO JUMPDEST PUSH2 0x1A08 JUMPI PUSH1 0x40 MLOAD PUSH3 0x461BCD PUSH1 0xE5 SHL DUP2 MSTORE PUSH1 0x20 PUSH1 0x4 DUP3 ADD MSTORE PUSH1 0x19 PUSH1 0x24 DUP3 ADD MSTORE PUSH32 0x496E76616C696420636F6E747261637420616464726573732100000000000000 PUSH1 0x44 DUP3 ADD MSTORE PUSH1 0x64 ADD PUSH2 0x932 JUMP JUMPDEST PUSH2 0x12F DUP1 SLOAD PUSH1 0x1 PUSH1 0x1 PUSH1 0xA0 SHL SUB DUP1 DUP9 AND PUSH1 0x1 PUSH1 0x1 PUSH1 0xA0 SHL SUB NOT SWAP3 DUP4 AND OR SWAP1 SWAP3 SSTORE PUSH2 0x12E DUP1 SLOAD DUP10 DUP5 AND SWAP1 DUP4 AND OR SWAP1 SSTORE PUSH2 0x130 DUP1 SLOAD SWAP3 DUP8 AND SWAP3 SWAP1 SWAP2 AND SWAP2 SWAP1 SWAP2 OR SWAP1 SSTORE PUSH8 0xDE0B6B3A7640000 PUSH2 0x132 SSTORE PUSH8 0x9B6E64A8EC60000 DUP4 LT DUP1 ISZERO SWAP1 PUSH2 0x1A74 JUMPI POP PUSH8 0xD2F13F7789F0000 DUP4 LT JUMPDEST PUSH2 0x1ABC JUMPI PUSH1 0x40 MLOAD PUSH3 0x461BCD PUSH1 0xE5 SHL DUP2 MSTORE PUSH1 0x20 PUSH1 0x4 DUP3 ADD MSTORE PUSH1 0x19 PUSH1 0x24 DUP3 ADD MSTORE PUSH25 0x496E76616C6964206167677265676174656420526174696F21 PUSH1 0x38 SHL PUSH1 0x44 DUP3 ADD MSTORE PUSH1 0x64 ADD PUSH2 0x932 JUMP JUMPDEST PUSH2 0x136 DUP3 SWAP1 SSTORE PUSH2 0x135 DUP4 SWAP1 SSTORE CALLER PUSH1 0x0 SWAP1 DUP2 MSTORE PUSH2 0x12D PUSH1 0x20 MSTORE PUSH1 0x40 SWAP1 KECCAK256 DUP1 SLOAD PUSH1 0xFF NOT AND PUSH1 0x1 SWAP1 DUP2 OR SWAP1 SWAP2 SSTORE PUSH2 0x1AEF SWAP1 PUSH2 0x24DE JUMP JUMPDEST PUSH2 0x1B0C PUSH20 0x82AF49447D8A07E3BD95BD0D56F35241523FBAB1 PUSH2 0x25DD JUMP JUMPDEST PUSH2 0x1B29 PUSH20 0x5979D7B546E38E414F7E9822514BE443A4800529 PUSH2 0x25DD JUMP JUMPDEST DUP1 ISZERO PUSH2 0x1B6F JUMPI PUSH1 0x0 DUP1 SLOAD PUSH2 0xFF00 NOT AND SWAP1 SSTORE PUSH1 0x40 MLOAD PUSH1 0x1 DUP2 MSTORE PUSH32 0x7F26B83FF96E1F2B6A682F133852F6798A09C465DA95921460CEFB3847402498 SWAP1 PUSH1 0x20 ADD PUSH1 0x40 MLOAD DUP1 SWAP2 SUB SWAP1 LOG1 JUMPDEST POP POP POP POP POP POP JUMP JUMPDEST PUSH2 0x12E SLOAD PUSH1 0x0 SWAP1 PUSH1 0x1 PUSH1 0x1 PUSH1 0xA0 SHL SUB AND CALLER EQ PUSH2 0x1BD5 JUMPI PUSH1 0x40 MLOAD PUSH3 0x461BCD PUSH1 0xE5 SHL DUP2 MSTORE PUSH1 0x20 PUSH1 0x4 DUP3 ADD MSTORE PUSH1 0x1F PUSH1 0x24 DUP3 ADD MSTORE PUSH32 0x4F6E6C79207661756C742063616E2063616C6C2074686973206D6574686F6400 PUSH1 0x44 DUP3 ADD MSTORE PUSH1 0x64 ADD PUSH2 0x932 JUMP JUMPDEST PUSH1 0x0 DUP3 GT PUSH2 0x1C25 JUMPI PUSH1 0x40 MLOAD PUSH3 0x461BCD PUSH1 0xE5 SHL DUP2 MSTORE PUSH1 0x20 PUSH1 0x4 DUP3 ADD MSTORE PUSH1 0x18 PUSH1 0x24 DUP3 ADD MSTORE PUSH32 0x6465706F7369743A20496E76616C696420616D6F756E742E0000000000000000 PUSH1 0x44 DUP3 ADD MSTORE PUSH1 0x64 ADD PUSH2 0x932 JUMP JUMPDEST POP PUSH2 0x132 SLOAD PUSH2 0x12E SLOAD PUSH2 0x1C58 SWAP1 PUSH20 0x5979D7B546E38E414F7E9822514BE443A4800529 SWAP1 PUSH1 0x1 PUSH1 0x1 PUSH1 0xA0 SHL SUB AND ADDRESS DUP6 PUSH2 0x2663 JUMP JUMPDEST PUSH1 0x40 MLOAD DUP3 DUP2 MSTORE PUSH32 0x4D6CE1E535DBADE1C23DEFBA91E23B8F791CE5EDC0CC320257A2B364E4E38426 SWAP1 PUSH1 0x20 ADD PUSH2 0xD4B JUMP JUMPDEST PUSH2 0x12F SLOAD PUSH1 0x40 MLOAD PUSH4 0x445818A1 PUSH1 0xE1 SHL DUP2 MSTORE ADDRESS PUSH1 0x4 DUP3 ADD MSTORE PUSH1 0x0 SWAP2 DUP3 SWAP2 DUP3 SWAP2 PUSH1 0x1 PUSH1 0x1 PUSH1 0xA0 SHL SUB AND SWAP1 PUSH4 0x88B03142 SWAP1 PUSH1 0x24 ADD PUSH1 0x40 DUP1 MLOAD DUP1 DUP4 SUB DUP2 DUP7 GAS STATICCALL ISZERO DUP1 ISZERO PUSH2 0x1CD5 JUMPI RETURNDATASIZE PUSH1 0x0 DUP1 RETURNDATACOPY RETURNDATASIZE PUSH1 0x0 REVERT JUMPDEST POP POP POP POP PUSH1 0x40 MLOAD RETURNDATASIZE PUSH1 0x1F NOT PUSH1 0x1F DUP3 ADD AND DUP3 ADD DUP1 PUSH1 0x40 MSTORE POP DUP2 ADD SWAP1 PUSH2 0x1CF9 SWAP2 SWAP1 PUSH2 0x31AD JUMP JUMPDEST SWAP1 SWAP3 POP SWAP1 POP DUP2 PUSH2 0x1D11 DUP3 PUSH8 0xDE0B6B3A7640000 PUSH2 0x3174 JUMP JUMPDEST PUSH2 0x134C SWAP2 SWAP1 PUSH2 0x318B JUMP JUMPDEST PUSH2 0x1D23 PUSH2 0x1E0D JUMP JUMPDEST PUSH8 0x9B6E64A8EC60000 DUP3 LT ISZERO DUP1 ISZERO PUSH2 0x1D42 JUMPI POP PUSH8 0xD2F13F7789F0000 DUP3 LT JUMPDEST PUSH2 0x1D8A JUMPI PUSH1 0x40 MLOAD PUSH3 0x461BCD PUSH1 0xE5 SHL DUP2 MSTORE PUSH1 0x20 PUSH1 0x4 DUP3 ADD MSTORE PUSH1 0x19 PUSH1 0x24 DUP3 ADD MSTORE PUSH25 0x496E76616C6964206167677265676174656420526174696F21 PUSH1 0x38 SHL PUSH1 0x44 DUP3 ADD MSTORE PUSH1 0x64 ADD PUSH2 0x932 JUMP JUMPDEST PUSH2 0x135 SWAP2 SWAP1 SWAP2 SSTORE PUSH2 0x136 SSTORE JUMP JUMPDEST PUSH2 0x1D9F PUSH2 0x1E0D JUMP JUMPDEST PUSH1 0x1 PUSH1 0x1 PUSH1 0xA0 SHL SUB DUP2 AND PUSH2 0x1E04 JUMPI PUSH1 0x40 MLOAD PUSH3 0x461BCD PUSH1 0xE5 SHL DUP2 MSTORE PUSH1 0x20 PUSH1 0x4 DUP3 ADD MSTORE PUSH1 0x26 PUSH1 0x24 DUP3 ADD MSTORE PUSH32 0x4F776E61626C653A206E6577206F776E657220697320746865207A65726F2061 PUSH1 0x44 DUP3 ADD MSTORE PUSH6 0x646472657373 PUSH1 0xD0 SHL PUSH1 0x64 DUP3 ADD MSTORE PUSH1 0x84 ADD PUSH2 0x932 JUMP JUMPDEST PUSH2 0xE34 DUP2 PUSH2 0x2042 JUMP JUMPDEST PUSH1 0x33 SLOAD PUSH1 0x1 PUSH1 0x1 PUSH1 0xA0 SHL SUB AND CALLER EQ PUSH2 0x13DB JUMPI PUSH1 0x40 MLOAD PUSH3 0x461BCD PUSH1 0xE5 SHL DUP2 MSTORE PUSH1 0x20 PUSH1 0x4 DUP3 ADD DUP2 SWAP1 MSTORE PUSH1 0x24 DUP3 ADD MSTORE PUSH32 0x4F776E61626C653A2063616C6C6572206973206E6F7420746865206F776E6572 PUSH1 0x44 DUP3 ADD MSTORE PUSH1 0x64 ADD PUSH2 0x932 JUMP JUMPDEST PUSH1 0x40 MLOAD PUSH1 0x1 PUSH1 0x1 PUSH1 0xA0 SHL SUB DUP4 AND PUSH1 0x24 DUP3 ADD MSTORE PUSH1 0x44 DUP2 ADD DUP3 SWAP1 MSTORE PUSH2 0x1ECA SWAP1 DUP5 SWAP1 PUSH4 0xA9059CBB PUSH1 0xE0 SHL SWAP1 PUSH1 0x64 ADD JUMPDEST PUSH1 0x40 DUP1 MLOAD PUSH1 0x1F NOT DUP2 DUP5 SUB ADD DUP2 MSTORE SWAP2 SWAP1 MSTORE PUSH1 0x20 DUP2 ADD DUP1 MLOAD PUSH1 0x1 PUSH1 0x1 PUSH1 0xE0 SHL SUB AND PUSH1 0x1 PUSH1 0x1 PUSH1 0xE0 SHL SUB NOT SWAP1 SWAP4 AND SWAP3 SWAP1 SWAP3 OR SWAP1 SWAP2 MSTORE PUSH2 0x269B JUMP JUMPDEST POP POP POP JUMP JUMPDEST PUSH2 0xE34 PUSH2 0x1E0D JUMP JUMPDEST PUSH32 0x4910FDFA16FED3260ED0E7147F7CC6DA11A60208B5B9406D12A635614FFD9143 SLOAD PUSH1 0xFF AND ISZERO PUSH2 0x1F0A JUMPI PUSH2 0x1ECA DUP4 PUSH2 0x2770 JUMP JUMPDEST DUP3 PUSH1 0x1 PUSH1 0x1 PUSH1 0xA0 SHL SUB AND PUSH4 0x52D1902D PUSH1 0x40 MLOAD DUP2 PUSH4 0xFFFFFFFF AND PUSH1 0xE0 SHL DUP2 MSTORE PUSH1 0x4 ADD PUSH1 0x20 PUSH1 0x40 MLOAD DUP1 DUP4 SUB DUP2 DUP7 GAS STATICCALL SWAP3 POP POP POP DUP1 ISZERO PUSH2 0x1F64 JUMPI POP PUSH1 0x40 DUP1 MLOAD PUSH1 0x1F RETURNDATASIZE SWAP1 DUP2 ADD PUSH1 0x1F NOT AND DUP3 ADD SWAP1 SWAP3 MSTORE PUSH2 0x1F61 SWAP2 DUP2 ADD SWAP1 PUSH2 0x2F6D JUMP JUMPDEST PUSH1 0x1 JUMPDEST PUSH2 0x1FC7 JUMPI PUSH1 0x40 MLOAD PUSH3 0x461BCD PUSH1 0xE5 SHL DUP2 MSTORE PUSH1 0x20 PUSH1 0x4 DUP3 ADD MSTORE PUSH1 0x2E PUSH1 0x24 DUP3 ADD MSTORE PUSH32 0x45524331393637557067726164653A206E657720696D706C656D656E74617469 PUSH1 0x44 DUP3 ADD MSTORE PUSH14 0x6F6E206973206E6F742055555053 PUSH1 0x90 SHL PUSH1 0x64 DUP3 ADD MSTORE PUSH1 0x84 ADD PUSH2 0x932 JUMP JUMPDEST PUSH1 0x0 DUP1 MLOAD PUSH1 0x20 PUSH2 0x32B5 DUP4 CODECOPY DUP2 MLOAD SWAP2 MSTORE DUP2 EQ PUSH2 0x2036 JUMPI PUSH1 0x40 MLOAD PUSH3 0x461BCD PUSH1 0xE5 SHL DUP2 MSTORE PUSH1 0x20 PUSH1 0x4 DUP3 ADD MSTORE PUSH1 0x29 PUSH1 0x24 DUP3 ADD MSTORE PUSH32 0x45524331393637557067726164653A20756E737570706F727465642070726F78 PUSH1 0x44 DUP3 ADD MSTORE PUSH9 0x1A58589B1955555251 PUSH1 0xBA SHL PUSH1 0x64 DUP3 ADD MSTORE PUSH1 0x84 ADD PUSH2 0x932 JUMP JUMPDEST POP PUSH2 0x1ECA DUP4 DUP4 DUP4 PUSH2 0x280C JUMP JUMPDEST PUSH1 0x33 DUP1 SLOAD PUSH1 0x1 PUSH1 0x1 PUSH1 0xA0 SHL SUB DUP4 DUP2 AND PUSH1 0x1 PUSH1 0x1 PUSH1 0xA0 SHL SUB NOT DUP4 AND DUP2 OR SWAP1 SWAP4 SSTORE PUSH1 0x40 MLOAD SWAP2 AND SWAP2 SWAP1 DUP3 SWAP1 PUSH32 0x8BE0079C531659141344CD1FD0A4F28419497F9722A3DAAFE3B4186F6B6457E0 SWAP1 PUSH1 0x0 SWAP1 LOG3 POP POP JUMP JUMPDEST PUSH1 0x24 DUP3 ADD MLOAD PUSH1 0x44 DUP4 ADD MLOAD PUSH1 0x0 SWAP2 PUSH1 0x1 PUSH1 0x1 PUSH1 0xA0 SHL SUB DUP7 DUP2 AND SWAP1 DUP3 AND EQ PUSH2 0x20F4 JUMPI PUSH1 0x40 MLOAD PUSH3 0x461BCD PUSH1 0xE5 SHL DUP2 MSTORE PUSH1 0x20 PUSH1 0x4 DUP3 ADD MSTORE PUSH1 0x15 PUSH1 0x24 DUP3 ADD MSTORE PUSH21 0x31696E63683A20496E76616C696420746F6B656E21 PUSH1 0x58 SHL PUSH1 0x44 DUP3 ADD MSTORE PUSH1 0x64 ADD PUSH2 0x932 JUMP JUMPDEST DUP7 DUP3 LT ISZERO PUSH2 0x2144 JUMPI PUSH1 0x40 MLOAD PUSH3 0x461BCD PUSH1 0xE5 SHL DUP2 MSTORE PUSH1 0x20 PUSH1 0x4 DUP3 ADD MSTORE PUSH1 0x1C PUSH1 0x24 DUP3 ADD MSTORE PUSH32 0x31696E63683A20496E76616C696420696E70757420616D6F756E742100000000 PUSH1 0x44 DUP3 ADD MSTORE PUSH1 0x64 ADD PUSH2 0x932 JUMP JUMPDEST PUSH1 0x40 MLOAD PUSH4 0x95EA7B3 PUSH1 0xE0 SHL DUP2 MSTORE PUSH20 0x1111111254EEB25477B68FB85ED929F73A960582 PUSH1 0x4 DUP3 ADD MSTORE PUSH1 0x24 DUP2 ADD DUP9 SWAP1 MSTORE PUSH1 0x1 PUSH1 0x1 PUSH1 0xA0 SHL SUB DUP8 AND SWAP1 PUSH4 0x95EA7B3 SWAP1 PUSH1 0x44 ADD PUSH1 0x20 PUSH1 0x40 MLOAD DUP1 DUP4 SUB DUP2 PUSH1 0x0 DUP8 GAS CALL ISZERO DUP1 ISZERO PUSH2 0x21A5 JUMPI RETURNDATASIZE PUSH1 0x0 DUP1 RETURNDATACOPY RETURNDATASIZE PUSH1 0x0 REVERT JUMPDEST POP POP POP POP PUSH1 0x40 MLOAD RETURNDATASIZE PUSH1 0x1F NOT PUSH1 0x1F DUP3 ADD AND DUP3 ADD DUP1 PUSH1 0x40 MSTORE POP DUP2 ADD SWAP1 PUSH2 0x21C9 SWAP2 SWAP1 PUSH2 0x30BA JUMP JUMPDEST POP PUSH1 0x60 PUSH20 0xEEEEEEEEEEEEEEEEEEEEEEEEEEEEEEEEEEEEEEED NOT PUSH1 0x1 PUSH1 0x1 PUSH1 0xA0 SHL SUB DUP9 AND ADD PUSH2 0x2217 JUMPI PUSH2 0x2210 PUSH20 0x1111111254EEB25477B68FB85ED929F73A960582 DUP8 DUP11 PUSH2 0x2831 JUMP JUMPDEST SWAP1 POP PUSH2 0x2238 JUMP JUMPDEST PUSH2 0x2235 PUSH20 0x1111111254EEB25477B68FB85ED929F73A960582 DUP8 PUSH2 0x2861 JUMP JUMPDEST SWAP1 POP JUMPDEST PUSH1 0x20 DUP2 ADD MLOAD SWAP4 POP DUP5 DUP5 LT ISZERO PUSH2 0x228F JUMPI PUSH1 0x40 MLOAD PUSH3 0x461BCD PUSH1 0xE5 SHL DUP2 MSTORE PUSH1 0x20 PUSH1 0x4 DUP3 ADD MSTORE PUSH1 0x1F PUSH1 0x24 DUP3 ADD MSTORE PUSH32 0x31696E63683A20756E65787065637465642072657475726E416D6F756E742E00 PUSH1 0x44 DUP3 ADD MSTORE PUSH1 0x64 ADD PUSH2 0x932 JUMP JUMPDEST POP POP POP SWAP5 SWAP4 POP POP POP POP JUMP JUMPDEST DUP2 PUSH1 0x0 SUB PUSH2 0x22A7 JUMPI PUSH1 0x0 DUP1 REVERT JUMPDEST DUP1 ISZERO PUSH2 0x2334 JUMPI PUSH1 0x40 MLOAD PUSH4 0x617BA037 PUSH1 0xE0 SHL DUP2 MSTORE PUSH1 0x1 PUSH1 0x1 PUSH1 0xA0 SHL SUB DUP5 AND PUSH1 0x4 DUP3 ADD MSTORE PUSH1 0x24 DUP2 ADD DUP4 SWAP1 MSTORE ADDRESS PUSH1 0x44 DUP3 ADD MSTORE PUSH1 0x0 PUSH1 0x64 DUP3 ADD MSTORE PUSH20 0x794A61358D6845594F94DC1DB02A252B5B4814AD SWAP1 PUSH4 0x617BA037 SWAP1 PUSH1 0x84 ADD JUMPDEST PUSH1 0x0 PUSH1 0x40 MLOAD DUP1 DUP4 SUB DUP2 PUSH1 0x0 DUP8 DUP1 EXTCODESIZE ISZERO DUP1 ISZERO PUSH2 0x2317 JUMPI PUSH1 0x0 DUP1 REVERT JUMPDEST POP GAS CALL ISZERO DUP1 ISZERO PUSH2 0x232B JUMPI RETURNDATASIZE PUSH1 0x0 DUP1 RETURNDATACOPY RETURNDATASIZE PUSH1 0x0 REVERT JUMPDEST POP POP POP POP POP POP POP JUMP JUMPDEST PUSH1 0x40 MLOAD PUSH4 0x1A4CA37B PUSH1 0xE2 SHL DUP2 MSTORE PUSH1 0x1 PUSH1 0x1 PUSH1 0xA0 SHL SUB DUP5 AND PUSH1 0x4 DUP3 ADD MSTORE PUSH1 0x24 DUP2 ADD DUP4 SWAP1 MSTORE ADDRESS PUSH1 0x44 DUP3 ADD MSTORE PUSH20 0x794A61358D6845594F94DC1DB02A252B5B4814AD SWAP1 PUSH4 0x69328DEC SWAP1 PUSH1 0x64 ADD JUMPDEST PUSH1 0x20 PUSH1 0x40 MLOAD DUP1 DUP4 SUB DUP2 PUSH1 0x0 DUP8 GAS CALL ISZERO DUP1 ISZERO PUSH2 0x239C JUMPI RETURNDATASIZE PUSH1 0x0 DUP1 RETURNDATACOPY RETURNDATASIZE PUSH1 0x0 REVERT JUMPDEST POP POP POP POP PUSH1 0x40 MLOAD RETURNDATASIZE PUSH1 0x1F NOT PUSH1 0x1F DUP3 ADD AND DUP3 ADD DUP1 PUSH1 0x40 MSTORE POP DUP2 ADD SWAP1 PUSH2 0x23C0 SWAP2 SWAP1 PUSH2 0x2F6D JUMP JUMPDEST POP POP POP POP JUMP JUMPDEST DUP2 PUSH1 0x0 SUB PUSH2 0x23D3 JUMPI PUSH1 0x0 DUP1 REVERT JUMPDEST DUP1 ISZERO PUSH2 0x2434 JUMPI PUSH1 0x40 MLOAD PUSH4 0xA415BCAD PUSH1 0xE0 SHL DUP2 MSTORE PUSH1 0x1 PUSH1 0x1 PUSH1 0xA0 SHL SUB DUP5 AND PUSH1 0x4 DUP3 ADD MSTORE PUSH1 0x24 DUP2 ADD DUP4 SWAP1 MSTORE PUSH1 0x2 PUSH1 0x44 DUP3 ADD MSTORE PUSH1 0x0 PUSH1 0x64 DUP3 ADD MSTORE ADDRESS PUSH1 0x84 DUP3 ADD MSTORE PUSH20 0x794A61358D6845594F94DC1DB02A252B5B4814AD SWAP1 PUSH4 0xA415BCAD SWAP1 PUSH1 0xA4 ADD PUSH2 0x22FD JUMP JUMPDEST PUSH1 0x40 MLOAD PUSH4 0x573ADE81 PUSH1 0xE0 SHL DUP2 MSTORE PUSH1 0x1 PUSH1 0x1 PUSH1 0xA0 SHL SUB DUP5 AND PUSH1 0x4 DUP3 ADD MSTORE PUSH1 0x24 DUP2 ADD DUP4 SWAP1 MSTORE PUSH1 0x2 PUSH1 0x44 DUP3 ADD MSTORE ADDRESS PUSH1 0x64 DUP3 ADD MSTORE PUSH20 0x794A61358D6845594F94DC1DB02A252B5B4814AD SWAP1 PUSH4 0x573ADE81 SWAP1 PUSH1 0x84 ADD PUSH2 0x237D JUMP JUMPDEST PUSH1 0x0 SLOAD PUSH2 0x100 SWAP1 DIV PUSH1 0xFF AND PUSH2 0x13DB JUMPI PUSH1 0x40 MLOAD PUSH3 0x461BCD PUSH1 0xE5 SHL DUP2 MSTORE PUSH1 0x4 ADD PUSH2 0x932 SWAP1 PUSH2 0x323A JUMP JUMPDEST PUSH1 0x0 SLOAD PUSH2 0x100 SWAP1 DIV PUSH1 0xFF AND PUSH2 0x24D6 JUMPI PUSH1 0x40 MLOAD PUSH3 0x461BCD PUSH1 0xE5 SHL DUP2 MSTORE PUSH1 0x4 ADD PUSH2 0x932 SWAP1 PUSH2 0x323A JUMP JUMPDEST PUSH2 0x13DB PUSH2 0x28AE JUMP JUMPDEST PUSH2 0x12F SLOAD PUSH1 0x1 PUSH1 0x1 PUSH1 0xA0 SHL SUB AND PUSH2 0x2537 JUMPI PUSH1 0x40 MLOAD PUSH3 0x461BCD PUSH1 0xE5 SHL DUP2 MSTORE PUSH1 0x20 PUSH1 0x4 DUP3 ADD MSTORE PUSH1 0x1C PUSH1 0x24 DUP3 ADD MSTORE PUSH32 0x4C656E64696E674C6F676963206E6F7420736574746564207965742100000000 PUSH1 0x44 DUP3 ADD MSTORE PUSH1 0x64 ADD PUSH2 0x932 JUMP JUMPDEST PUSH1 0x0 DUP2 ISZERO PUSH2 0x2544 JUMPI POP PUSH1 0x0 NOT JUMPDEST PUSH2 0x2577 PUSH20 0x82AF49447D8A07E3BD95BD0D56F35241523FBAB1 PUSH20 0x794A61358D6845594F94DC1DB02A252B5B4814AD DUP4 PUSH2 0x28DE JUMP JUMPDEST PUSH2 0x25AA PUSH20 0x5979D7B546E38E414F7E9822514BE443A4800529 PUSH20 0x794A61358D6845594F94DC1DB02A252B5B4814AD DUP4 PUSH2 0x28DE JUMP JUMPDEST PUSH2 0x1175 PUSH20 0x513C7E3A9C69CA3E22550EF58AC1C0088E918FFF PUSH20 0x794A61358D6845594F94DC1DB02A252B5B4814AD DUP4 PUSH2 0x28DE JUMP JUMPDEST PUSH1 0x40 MLOAD PUSH4 0x95EA7B3 PUSH1 0xE0 SHL DUP2 MSTORE PUSH20 0x1111111254EEB25477B68FB85ED929F73A960582 PUSH1 0x4 DUP3 ADD MSTORE PUSH1 0x0 NOT PUSH1 0x24 DUP3 ADD MSTORE PUSH1 0x1 PUSH1 0x1 PUSH1 0xA0 SHL SUB DUP3 AND SWAP1 PUSH4 0x95EA7B3 SWAP1 PUSH1 0x44 ADD PUSH1 0x20 PUSH1 0x40 MLOAD DUP1 DUP4 SUB DUP2 PUSH1 0x0 DUP8 GAS CALL ISZERO DUP1 ISZERO PUSH2 0x263F JUMPI RETURNDATASIZE PUSH1 0x0 DUP1 RETURNDATACOPY RETURNDATASIZE PUSH1 0x0 REVERT JUMPDEST POP POP POP POP PUSH1 0x40 MLOAD RETURNDATASIZE PUSH1 0x1F NOT PUSH1 0x1F DUP3 ADD AND DUP3 ADD DUP1 PUSH1 0x40 MSTORE POP DUP2 ADD SWAP1 PUSH2 0x1175 SWAP2 SWAP1 PUSH2 0x30BA JUMP JUMPDEST PUSH1 0x40 MLOAD PUSH1 0x1 PUSH1 0x1 PUSH1 0xA0 SHL SUB DUP1 DUP6 AND PUSH1 0x24 DUP4 ADD MSTORE DUP4 AND PUSH1 0x44 DUP3 ADD MSTORE PUSH1 0x64 DUP2 ADD DUP3 SWAP1 MSTORE PUSH2 0x23C0 SWAP1 DUP6 SWAP1 PUSH4 0x23B872DD PUSH1 0xE0 SHL SWAP1 PUSH1 0x84 ADD PUSH2 0x1E93 JUMP JUMPDEST PUSH1 0x0 PUSH2 0x26F0 DUP3 PUSH1 0x40 MLOAD DUP1 PUSH1 0x40 ADD PUSH1 0x40 MSTORE DUP1 PUSH1 0x20 DUP2 MSTORE PUSH1 0x20 ADD PUSH32 0x5361666545524332303A206C6F772D6C6576656C2063616C6C206661696C6564 DUP2 MSTORE POP DUP6 PUSH1 0x1 PUSH1 0x1 PUSH1 0xA0 SHL SUB AND PUSH2 0x298B SWAP1 SWAP3 SWAP2 SWAP1 PUSH4 0xFFFFFFFF AND JUMP JUMPDEST SWAP1 POP DUP1 MLOAD PUSH1 0x0 EQ DUP1 PUSH2 0x2711 JUMPI POP DUP1 DUP1 PUSH1 0x20 ADD SWAP1 MLOAD DUP2 ADD SWAP1 PUSH2 0x2711 SWAP2 SWAP1 PUSH2 0x30BA JUMP JUMPDEST PUSH2 0x1ECA JUMPI PUSH1 0x40 MLOAD PUSH3 0x461BCD PUSH1 0xE5 SHL DUP2 MSTORE PUSH1 0x20 PUSH1 0x4 DUP3 ADD MSTORE PUSH1 0x2A PUSH1 0x24 DUP3 ADD MSTORE PUSH32 0x5361666545524332303A204552433230206F7065726174696F6E20646964206E PUSH1 0x44 DUP3 ADD MSTORE PUSH10 0x1BDD081CDD58D8D95959 PUSH1 0xB2 SHL PUSH1 0x64 DUP3 ADD MSTORE PUSH1 0x84 ADD PUSH2 0x932 JUMP JUMPDEST PUSH1 0x1 PUSH1 0x1 PUSH1 0xA0 SHL SUB DUP2 AND EXTCODESIZE PUSH2 0x27DD JUMPI PUSH1 0x40 MLOAD PUSH3 0x461BCD PUSH1 0xE5 SHL DUP2 MSTORE PUSH1 0x20 PUSH1 0x4 DUP3 ADD MSTORE PUSH1 0x2D PUSH1 0x24 DUP3 ADD MSTORE PUSH32 0x455243313936373A206E657720696D706C656D656E746174696F6E206973206E PUSH1 0x44 DUP3 ADD MSTORE PUSH13 0x1BDD08184818DBDB9D1C9858DD PUSH1 0x9A SHL PUSH1 0x64 DUP3 ADD MSTORE PUSH1 0x84 ADD PUSH2 0x932 JUMP JUMPDEST PUSH1 0x0 DUP1 MLOAD PUSH1 0x20 PUSH2 0x32B5 DUP4 CODECOPY DUP2 MLOAD SWAP2 MSTORE DUP1 SLOAD PUSH1 0x1 PUSH1 0x1 PUSH1 0xA0 SHL SUB NOT AND PUSH1 0x1 PUSH1 0x1 PUSH1 0xA0 SHL SUB SWAP3 SWAP1 SWAP3 AND SWAP2 SWAP1 SWAP2 OR SWAP1 SSTORE JUMP JUMPDEST PUSH2 0x2815 DUP4 PUSH2 0x299A JUMP JUMPDEST PUSH1 0x0 DUP3 MLOAD GT DUP1 PUSH2 0x2822 JUMPI POP DUP1 JUMPDEST ISZERO PUSH2 0x1ECA JUMPI PUSH2 0x23C0 DUP4 DUP4 PUSH2 0x29DA JUMP JUMPDEST PUSH1 0x60 PUSH2 0x2857 DUP5 DUP5 DUP5 PUSH1 0x40 MLOAD DUP1 PUSH1 0x60 ADD PUSH1 0x40 MSTORE DUP1 PUSH1 0x29 DUP2 MSTORE PUSH1 0x20 ADD PUSH2 0x32D5 PUSH1 0x29 SWAP2 CODECOPY PUSH2 0x2ACE JUMP JUMPDEST SWAP1 POP JUMPDEST SWAP4 SWAP3 POP POP POP JUMP JUMPDEST PUSH1 0x60 PUSH2 0x28A5 DUP4 DUP4 PUSH1 0x0 PUSH1 0x40 MLOAD DUP1 PUSH1 0x40 ADD PUSH1 0x40 MSTORE DUP1 PUSH1 0x1E DUP2 MSTORE PUSH1 0x20 ADD PUSH32 0x416464726573733A206C6F772D6C6576656C2063616C6C206661696C65640000 DUP2 MSTORE POP PUSH2 0x2ACE JUMP JUMPDEST SWAP1 POP JUMPDEST SWAP3 SWAP2 POP POP JUMP JUMPDEST PUSH1 0x0 SLOAD PUSH2 0x100 SWAP1 DIV PUSH1 0xFF AND PUSH2 0x28D5 JUMPI PUSH1 0x40 MLOAD PUSH3 0x461BCD PUSH1 0xE5 SHL DUP2 MSTORE PUSH1 0x4 ADD PUSH2 0x932 SWAP1 PUSH2 0x323A JUMP JUMPDEST PUSH2 0x13DB CALLER PUSH2 0x2042 JUMP JUMPDEST PUSH1 0x40 MLOAD PUSH4 0x6EB1769F PUSH1 0xE1 SHL DUP2 MSTORE ADDRESS PUSH1 0x4 DUP3 ADD MSTORE PUSH1 0x1 PUSH1 0x1 PUSH1 0xA0 SHL SUB DUP4 DUP2 AND PUSH1 0x24 DUP4 ADD MSTORE PUSH1 0x0 SWAP2 SWAP1 DUP6 AND SWAP1 PUSH4 0xDD62ED3E SWAP1 PUSH1 0x44 ADD PUSH1 0x20 PUSH1 0x40 MLOAD DUP1 DUP4 SUB DUP2 DUP7 GAS STATICCALL ISZERO DUP1 ISZERO PUSH2 0x292E JUMPI RETURNDATASIZE PUSH1 0x0 DUP1 RETURNDATACOPY RETURNDATASIZE PUSH1 0x0 REVERT JUMPDEST POP POP POP POP PUSH1 0x40 MLOAD RETURNDATASIZE PUSH1 0x1F NOT PUSH1 0x1F DUP3 ADD AND DUP3 ADD DUP1 PUSH1 0x40 MSTORE POP DUP2 ADD SWAP1 PUSH2 0x2952 SWAP2 SWAP1 PUSH2 0x2F6D JUMP JUMPDEST SWAP1 POP PUSH2 0x23C0 DUP5 PUSH4 0x95EA7B3 PUSH1 0xE0 SHL DUP6 PUSH2 0x296B DUP7 DUP7 PUSH2 0x2F9C JUMP JUMPDEST PUSH1 0x40 MLOAD PUSH1 0x1 PUSH1 0x1 PUSH1 0xA0 SHL SUB SWAP1 SWAP3 AND PUSH1 0x24 DUP4 ADD MSTORE PUSH1 0x44 DUP3 ADD MSTORE PUSH1 0x64 ADD PUSH2 0x1E93 JUMP JUMPDEST PUSH1 0x60 PUSH2 0x2857 DUP5 DUP5 PUSH1 0x0 DUP6 PUSH2 0x2ACE JUMP JUMPDEST PUSH2 0x29A3 DUP2 PUSH2 0x2770 JUMP JUMPDEST PUSH1 0x40 MLOAD PUSH1 0x1 PUSH1 0x1 PUSH1 0xA0 SHL SUB DUP3 AND SWAP1 PUSH32 0xBC7CD75A20EE27FD9ADEBAB32041F755214DBC6BFFA90CC0225B39DA2E5C2D3B SWAP1 PUSH1 0x0 SWAP1 LOG2 POP JUMP JUMPDEST PUSH1 0x60 PUSH1 0x1 PUSH1 0x1 PUSH1 0xA0 SHL SUB DUP4 AND EXTCODESIZE PUSH2 0x2A42 JUMPI PUSH1 0x40 MLOAD PUSH3 0x461BCD PUSH1 0xE5 SHL DUP2 MSTORE PUSH1 0x20 PUSH1 0x4 DUP3 ADD MSTORE PUSH1 0x26 PUSH1 0x24 DUP3 ADD MSTORE PUSH32 0x416464726573733A2064656C65676174652063616C6C20746F206E6F6E2D636F PUSH1 0x44 DUP3 ADD MSTORE PUSH6 0x1B9D1C9858DD PUSH1 0xD2 SHL PUSH1 0x64 DUP3 ADD MSTORE PUSH1 0x84 ADD PUSH2 0x932 JUMP JUMPDEST PUSH1 0x0 DUP1 DUP5 PUSH1 0x1 PUSH1 0x1 PUSH1 0xA0 SHL SUB AND DUP5 PUSH1 0x40 MLOAD PUSH2 0x2A5D SWAP2 SWAP1 PUSH2 0x3285 JUMP JUMPDEST PUSH1 0x0 PUSH1 0x40 MLOAD DUP1 DUP4 SUB DUP2 DUP6 GAS DELEGATECALL SWAP2 POP POP RETURNDATASIZE DUP1 PUSH1 0x0 DUP2 EQ PUSH2 0x2A98 JUMPI PUSH1 0x40 MLOAD SWAP2 POP PUSH1 0x1F NOT PUSH1 0x3F RETURNDATASIZE ADD AND DUP3 ADD PUSH1 0x40 MSTORE RETURNDATASIZE DUP3 MSTORE RETURNDATASIZE PUSH1 0x0 PUSH1 0x20 DUP5 ADD RETURNDATACOPY PUSH2 0x2A9D JUMP JUMPDEST PUSH1 0x60 SWAP2 POP JUMPDEST POP SWAP2 POP SWAP2 POP PUSH2 0x2AC5 DUP3 DUP3 PUSH1 0x40 MLOAD DUP1 PUSH1 0x60 ADD PUSH1 0x40 MSTORE DUP1 PUSH1 0x27 DUP2 MSTORE PUSH1 0x20 ADD PUSH2 0x32FE PUSH1 0x27 SWAP2 CODECOPY PUSH2 0x2BAB JUMP JUMPDEST SWAP6 SWAP5 POP POP POP POP POP JUMP JUMPDEST PUSH1 0x60 DUP3 SELFBALANCE LT ISZERO PUSH2 0x2B2F JUMPI PUSH1 0x40 MLOAD PUSH3 0x461BCD PUSH1 0xE5 SHL DUP2 MSTORE PUSH1 0x20 PUSH1 0x4 DUP3 ADD MSTORE PUSH1 0x26 PUSH1 0x24 DUP3 ADD MSTORE PUSH32 0x416464726573733A20696E73756666696369656E742062616C616E636520666F PUSH1 0x44 DUP3 ADD MSTORE PUSH6 0x1C8818D85B1B PUSH1 0xD2 SHL PUSH1 0x64 DUP3 ADD MSTORE PUSH1 0x84 ADD PUSH2 0x932 JUMP JUMPDEST PUSH1 0x0 DUP1 DUP7 PUSH1 0x1 PUSH1 0x1 PUSH1 0xA0 SHL SUB AND DUP6 DUP8 PUSH1 0x40 MLOAD PUSH2 0x2B4B SWAP2 SWAP1 PUSH2 0x3285 JUMP JUMPDEST PUSH1 0x0 PUSH1 0x40 MLOAD DUP1 DUP4 SUB DUP2 DUP6 DUP8 GAS CALL SWAP3 POP POP POP RETURNDATASIZE DUP1 PUSH1 0x0 DUP2 EQ PUSH2 0x2B88 JUMPI PUSH1 0x40 MLOAD SWAP2 POP PUSH1 0x1F NOT PUSH1 0x3F RETURNDATASIZE ADD AND DUP3 ADD PUSH1 0x40 MSTORE RETURNDATASIZE DUP3 MSTORE RETURNDATASIZE PUSH1 0x0 PUSH1 0x20 DUP5 ADD RETURNDATACOPY PUSH2 0x2B8D JUMP JUMPDEST PUSH1 0x60 SWAP2 POP JUMPDEST POP SWAP2 POP SWAP2 POP PUSH2 0x2B9E DUP8 DUP4 DUP4 DUP8 PUSH2 0x2BC4 JUMP JUMPDEST SWAP3 POP POP POP JUMPDEST SWAP5 SWAP4 POP POP POP POP JUMP JUMPDEST PUSH1 0x60 DUP4 ISZERO PUSH2 0x2BBA JUMPI POP DUP2 PUSH2 0x285A JUMP JUMPDEST PUSH2 0x285A DUP4 DUP4 PUSH2 0x2C39 JUMP JUMPDEST PUSH1 0x60 DUP4 ISZERO PUSH2 0x2C33 JUMPI DUP3 MLOAD PUSH1 0x0 SUB PUSH2 0x2C2C JUMPI PUSH1 0x1 PUSH1 0x1 PUSH1 0xA0 SHL SUB DUP6 AND EXTCODESIZE PUSH2 0x2C2C JUMPI PUSH1 0x40 MLOAD PUSH3 0x461BCD PUSH1 0xE5 SHL DUP2 MSTORE PUSH1 0x20 PUSH1 0x4 DUP3 ADD MSTORE PUSH1 0x1D PUSH1 0x24 DUP3 ADD MSTORE PUSH32 0x416464726573733A2063616C6C20746F206E6F6E2D636F6E7472616374000000 PUSH1 0x44 DUP3 ADD MSTORE PUSH1 0x64 ADD PUSH2 0x932 JUMP JUMPDEST POP DUP2 PUSH2 0x2BA3 JUMP JUMPDEST PUSH2 0x2BA3 DUP4 DUP4 JUMPDEST DUP2 MLOAD ISZERO PUSH2 0x2C49 JUMPI DUP2 MLOAD DUP1 DUP4 PUSH1 0x20 ADD REVERT JUMPDEST DUP1 PUSH1 0x40 MLOAD PUSH3 0x461BCD PUSH1 0xE5 SHL DUP2 MSTORE PUSH1 0x4 ADD PUSH2 0x932 SWAP2 SWAP1 PUSH2 0x32A1 JUMP JUMPDEST PUSH1 0x0 DUP1 DUP4 PUSH1 0x1F DUP5 ADD SLT PUSH2 0x2C75 JUMPI PUSH1 0x0 DUP1 REVERT JUMPDEST POP DUP2 CALLDATALOAD PUSH8 0xFFFFFFFFFFFFFFFF DUP2 GT ISZERO PUSH2 0x2C8D JUMPI PUSH1 0x0 DUP1 REVERT JUMPDEST PUSH1 0x20 DUP4 ADD SWAP2 POP DUP4 PUSH1 0x20 DUP3 DUP6 ADD ADD GT ISZERO PUSH2 0x2CA5 JUMPI PUSH1 0x0 DUP1 REVERT JUMPDEST SWAP3 POP SWAP3 SWAP1 POP JUMP JUMPDEST PUSH1 0x0 DUP1 PUSH1 0x0 DUP1 PUSH1 0x0 PUSH1 0x80 DUP7 DUP9 SUB SLT ISZERO PUSH2 0x2CC4 JUMPI PUSH1 0x0 DUP1 REVERT JUMPDEST DUP6 CALLDATALOAD SWAP5 POP PUSH1 0x20 DUP7 ADD CALLDATALOAD SWAP4 POP PUSH1 0x40 DUP7 ADD CALLDATALOAD PUSH8 0xFFFFFFFFFFFFFFFF DUP2 GT ISZERO PUSH2 0x2CE9 JUMPI PUSH1 0x0 DUP1 REVERT JUMPDEST PUSH2 0x2CF5 DUP9 DUP3 DUP10 ADD PUSH2 0x2C63 JUMP JUMPDEST SWAP7 SWAP10 SWAP6 SWAP9 POP SWAP7 PUSH1 0x60 ADD CALLDATALOAD SWAP5 SWAP4 POP POP POP POP JUMP JUMPDEST DUP1 CALLDATALOAD PUSH1 0x1 PUSH1 0x1 PUSH1 0xA0 SHL SUB DUP2 AND DUP2 EQ PUSH2 0x2D1E JUMPI PUSH1 0x0 DUP1 REVERT JUMPDEST SWAP2 SWAP1 POP JUMP JUMPDEST PUSH1 0x0 PUSH1 0x20 DUP3 DUP5 SUB SLT ISZERO PUSH2 0x2D35 JUMPI PUSH1 0x0 DUP1 REVERT JUMPDEST PUSH2 0x28A5 DUP3 PUSH2 0x2D07 JUMP JUMPDEST PUSH1 0x0 PUSH1 0x20 DUP3 DUP5 SUB SLT ISZERO PUSH2 0x2D50 JUMPI PUSH1 0x0 DUP1 REVERT JUMPDEST POP CALLDATALOAD SWAP2 SWAP1 POP JUMP JUMPDEST PUSH4 0x4E487B71 PUSH1 0xE0 SHL PUSH1 0x0 MSTORE PUSH1 0x41 PUSH1 0x4 MSTORE PUSH1 0x24 PUSH1 0x0 REVERT JUMPDEST PUSH1 0x0 DUP3 PUSH1 0x1F DUP4 ADD SLT PUSH2 0x2D7E JUMPI PUSH1 0x0 DUP1 REVERT JUMPDEST DUP2 CALLDATALOAD PUSH8 0xFFFFFFFFFFFFFFFF DUP1 DUP3 GT ISZERO PUSH2 0x2D99 JUMPI PUSH2 0x2D99 PUSH2 0x2D57 JUMP JUMPDEST PUSH1 0x40 MLOAD PUSH1 0x1F DUP4 ADD PUSH1 0x1F NOT SWAP1 DUP2 AND PUSH1 0x3F ADD AND DUP2 ADD SWAP1 DUP3 DUP3 GT DUP2 DUP4 LT OR ISZERO PUSH2 0x2DC1 JUMPI PUSH2 0x2DC1 PUSH2 0x2D57 JUMP JUMPDEST DUP2 PUSH1 0x40 MSTORE DUP4 DUP2 MSTORE DUP7 PUSH1 0x20 DUP6 DUP9 ADD ADD GT ISZERO PUSH2 0x2DDA JUMPI PUSH1 0x0 DUP1 REVERT JUMPDEST DUP4 PUSH1 0x20 DUP8 ADD PUSH1 0x20 DUP4 ADD CALLDATACOPY PUSH1 0x0 PUSH1 0x20 DUP6 DUP4 ADD ADD MSTORE DUP1 SWAP5 POP POP POP POP POP SWAP3 SWAP2 POP POP JUMP JUMPDEST PUSH1 0x0 DUP1 PUSH1 0x40 DUP4 DUP6 SUB SLT ISZERO PUSH2 0x2E0D JUMPI PUSH1 0x0 DUP1 REVERT JUMPDEST PUSH2 0x2E16 DUP4 PUSH2 0x2D07 JUMP JUMPDEST SWAP2 POP PUSH1 0x20 DUP4 ADD CALLDATALOAD PUSH8 0xFFFFFFFFFFFFFFFF DUP2 GT ISZERO PUSH2 0x2E32 JUMPI PUSH1 0x0 DUP1 REVERT JUMPDEST PUSH2 0x2E3E DUP6 DUP3 DUP7 ADD PUSH2 0x2D6D JUMP JUMPDEST SWAP2 POP POP SWAP3 POP SWAP3 SWAP1 POP JUMP JUMPDEST PUSH1 0x0 DUP1 PUSH1 0x0 DUP1 PUSH1 0x0 DUP1 PUSH1 0xA0 DUP8 DUP10 SUB SLT ISZERO PUSH2 0x2E61 JUMPI PUSH1 0x0 DUP1 REVERT JUMPDEST PUSH2 0x2E6A DUP8 PUSH2 0x2D07 JUMP JUMPDEST SWAP6 POP PUSH2 0x2E78 PUSH1 0x20 DUP9 ADD PUSH2 0x2D07 JUMP JUMPDEST SWAP5 POP PUSH1 0x40 DUP8 ADD CALLDATALOAD SWAP4 POP PUSH1 0x60 DUP8 ADD CALLDATALOAD SWAP3 POP PUSH1 0x80 DUP8 ADD CALLDATALOAD PUSH8 0xFFFFFFFFFFFFFFFF DUP2 GT ISZERO PUSH2 0x2EA2 JUMPI PUSH1 0x0 DUP1 REVERT JUMPDEST PUSH2 0x2EAE DUP10 DUP3 DUP11 ADD PUSH2 0x2C63 JUMP JUMPDEST SWAP8 SWAP11 SWAP7 SWAP10 POP SWAP5 SWAP8 POP SWAP3 SWAP6 SWAP4 SWAP5 SWAP3 POP POP POP JUMP JUMPDEST PUSH1 0x0 DUP1 PUSH1 0x0 DUP1 PUSH1 0x0 PUSH1 0xA0 DUP7 DUP9 SUB SLT ISZERO PUSH2 0x2ED8 JUMPI PUSH1 0x0 DUP1 REVERT JUMPDEST PUSH2 0x2EE1 DUP7 PUSH2 0x2D07 JUMP JUMPDEST SWAP5 POP PUSH2 0x2EEF PUSH1 0x20 DUP8 ADD PUSH2 0x2D07 JUMP JUMPDEST SWAP4 POP PUSH2 0x2EFD PUSH1 0x40 DUP8 ADD PUSH2 0x2D07 JUMP JUMPDEST SWAP5 SWAP8 SWAP4 SWAP7 POP SWAP4 SWAP5 PUSH1 0x60 DUP2 ADD CALLDATALOAD SWAP5 POP PUSH1 0x80 ADD CALLDATALOAD SWAP3 SWAP2 POP POP JUMP JUMPDEST PUSH1 0x0 DUP1 PUSH1 0x40 DUP4 DUP6 SUB SLT ISZERO PUSH2 0x2F28 JUMPI PUSH1 0x0 DUP1 REVERT JUMPDEST POP POP DUP1 CALLDATALOAD SWAP3 PUSH1 0x20 SWAP1 SWAP2 ADD CALLDATALOAD SWAP2 POP JUMP JUMPDEST PUSH1 0x0 DUP1 PUSH1 0x0 DUP1 PUSH1 0x80 DUP6 DUP8 SUB SLT ISZERO PUSH2 0x2F4D JUMPI PUSH1 0x0 DUP1 REVERT JUMPDEST POP POP DUP3 MLOAD PUSH1 0x20 DUP5 ADD MLOAD PUSH1 0x40 DUP6 ADD MLOAD PUSH1 0x60 SWAP1 SWAP6 ADD MLOAD SWAP2 SWAP7 SWAP1 SWAP6 POP SWAP1 SWAP3 POP SWAP1 POP JUMP JUMPDEST PUSH1 0x0 PUSH1 0x20 DUP3 DUP5 SUB SLT ISZERO PUSH2 0x2F7F JUMPI PUSH1 0x0 DUP1 REVERT JUMPDEST POP MLOAD SWAP2 SWAP1 POP JUMP JUMPDEST PUSH4 0x4E487B71 PUSH1 0xE0 SHL PUSH1 0x0 MSTORE PUSH1 0x11 PUSH1 0x4 MSTORE PUSH1 0x24 PUSH1 0x0 REVERT JUMPDEST DUP1 DUP3 ADD DUP1 DUP3 GT ISZERO PUSH2 0x28A8 JUMPI PUSH2 0x28A8 PUSH2 0x2F86 JUMP JUMPDEST DUP2 DUP2 SUB DUP2 DUP2 GT ISZERO PUSH2 0x28A8 JUMPI PUSH2 0x28A8 PUSH2 0x2F86 JUMP JUMPDEST PUSH1 0x20 DUP1 DUP3 MSTORE PUSH1 0xA SWAP1 DUP3 ADD MSTORE PUSH10 0x4E6F742061646D696E21 PUSH1 0xB0 SHL PUSH1 0x40 DUP3 ADD MSTORE PUSH1 0x60 ADD SWAP1 JUMP JUMPDEST PUSH1 0xFF DUP7 AND DUP2 MSTORE DUP5 PUSH1 0x20 DUP3 ADD MSTORE DUP4 PUSH1 0x40 DUP3 ADD MSTORE PUSH1 0x80 PUSH1 0x60 DUP3 ADD MSTORE DUP2 PUSH1 0x80 DUP3 ADD MSTORE DUP2 DUP4 PUSH1 0xA0 DUP4 ADD CALLDATACOPY PUSH1 0x0 DUP2 DUP4 ADD PUSH1 0xA0 SWAP1 DUP2 ADD SWAP2 SWAP1 SWAP2 MSTORE PUSH1 0x1F SWAP1 SWAP3 ADD PUSH1 0x1F NOT AND ADD ADD SWAP5 SWAP4 POP POP POP POP JUMP JUMPDEST PUSH1 0x0 JUMPDEST DUP4 DUP2 LT ISZERO PUSH2 0x3048 JUMPI DUP2 DUP2 ADD MLOAD DUP4 DUP3 ADD MSTORE PUSH1 0x20 ADD PUSH2 0x3030 JUMP JUMPDEST POP POP PUSH1 0x0 SWAP2 ADD MSTORE JUMP JUMPDEST PUSH1 0x0 DUP2 MLOAD DUP1 DUP5 MSTORE PUSH2 0x3069 DUP2 PUSH1 0x20 DUP7 ADD PUSH1 0x20 DUP7 ADD PUSH2 0x302D JUMP JUMPDEST PUSH1 0x1F ADD PUSH1 0x1F NOT AND SWAP3 SWAP1 SWAP3 ADD PUSH1 0x20 ADD SWAP3 SWAP2 POP POP JUMP JUMPDEST PUSH1 0x1 PUSH1 0x1 PUSH1 0xA0 SHL SUB DUP6 DUP2 AND DUP3 MSTORE DUP5 AND PUSH1 0x20 DUP3 ADD MSTORE PUSH1 0x40 DUP2 ADD DUP4 SWAP1 MSTORE PUSH1 0x80 PUSH1 0x60 DUP3 ADD DUP2 SWAP1 MSTORE PUSH1 0x0 SWAP1 PUSH2 0x30B0 SWAP1 DUP4 ADD DUP5 PUSH2 0x3051 JUMP JUMPDEST SWAP7 SWAP6 POP POP POP POP POP POP JUMP JUMPDEST PUSH1 0x0 PUSH1 0x20 DUP3 DUP5 SUB SLT ISZERO PUSH2 0x30CC JUMPI PUSH1 0x0 DUP1 REVERT JUMPDEST DUP2 MLOAD DUP1 ISZERO ISZERO DUP2 EQ PUSH2 0x285A JUMPI PUSH1 0x0 DUP1 REVERT JUMPDEST PUSH1 0x20 DUP1 DUP3 MSTORE PUSH1 0x2C SWAP1 DUP3 ADD MSTORE PUSH32 0x46756E6374696F6E206D7573742062652063616C6C6564207468726F75676820 PUSH1 0x40 DUP3 ADD MSTORE PUSH12 0x19195B1959D85D1958D85B1B PUSH1 0xA2 SHL PUSH1 0x60 DUP3 ADD MSTORE PUSH1 0x80 ADD SWAP1 JUMP JUMPDEST PUSH1 0x20 DUP1 DUP3 MSTORE PUSH1 0x2C SWAP1 DUP3 ADD MSTORE PUSH32 0x46756E6374696F6E206D7573742062652063616C6C6564207468726F75676820 PUSH1 0x40 DUP3 ADD MSTORE PUSH12 0x6163746976652070726F7879 PUSH1 0xA0 SHL PUSH1 0x60 DUP3 ADD MSTORE PUSH1 0x80 ADD SWAP1 JUMP JUMPDEST DUP1 DUP3 MUL DUP2 ISZERO DUP3 DUP3 DIV DUP5 EQ OR PUSH2 0x28A8 JUMPI PUSH2 0x28A8 PUSH2 0x2F86 JUMP JUMPDEST PUSH1 0x0 DUP3 PUSH2 0x31A8 JUMPI PUSH4 0x4E487B71 PUSH1 0xE0 SHL PUSH1 0x0 MSTORE PUSH1 0x12 PUSH1 0x4 MSTORE PUSH1 0x24 PUSH1 0x0 REVERT JUMPDEST POP DIV SWAP1 JUMP JUMPDEST PUSH1 0x0 DUP1 PUSH1 0x40 DUP4 DUP6 SUB SLT ISZERO PUSH2 0x31C0 JUMPI PUSH1 0x0 DUP1 REVERT JUMPDEST POP POP DUP1 MLOAD PUSH1 0x20 SWAP1 SWAP2 ADD MLOAD SWAP1 SWAP3 SWAP1 SWAP2 POP JUMP JUMPDEST PUSH1 0x0 DUP1 PUSH1 0x0 DUP1 PUSH1 0x80 DUP6 DUP8 SUB SLT ISZERO PUSH2 0x31E7 JUMPI PUSH1 0x0 DUP1 REVERT JUMPDEST DUP5 CALLDATALOAD PUSH1 0xFF DUP2 AND DUP2 EQ PUSH2 0x31F8 JUMPI PUSH1 0x0 DUP1 REVERT JUMPDEST SWAP4 POP PUSH1 0x20 DUP6 ADD CALLDATALOAD SWAP3 POP PUSH1 0x40 DUP6 ADD CALLDATALOAD SWAP2 POP PUSH1 0x60 DUP6 ADD CALLDATALOAD PUSH8 0xFFFFFFFFFFFFFFFF DUP2 GT ISZERO PUSH2 0x3222 JUMPI PUSH1 0x0 DUP1 REVERT JUMPDEST PUSH2 0x322E DUP8 DUP3 DUP9 ADD PUSH2 0x2D6D JUMP JUMPDEST SWAP2 POP POP SWAP3 SWAP6 SWAP2 SWAP5 POP SWAP3 POP JUMP JUMPDEST PUSH1 0x20 DUP1 DUP3 MSTORE PUSH1 0x2B SWAP1 DUP3 ADD MSTORE PUSH32 0x496E697469616C697A61626C653A20636F6E7472616374206973206E6F742069 PUSH1 0x40 DUP3 ADD MSTORE PUSH11 0x6E697469616C697A696E67 PUSH1 0xA8 SHL PUSH1 0x60 DUP3 ADD MSTORE PUSH1 0x80 ADD SWAP1 JUMP JUMPDEST PUSH1 0x0 DUP3 MLOAD PUSH2 0x3297 DUP2 DUP5 PUSH1 0x20 DUP8 ADD PUSH2 0x302D JUMP JUMPDEST SWAP2 SWAP1 SWAP2 ADD SWAP3 SWAP2 POP POP JUMP JUMPDEST PUSH1 0x20 DUP2 MSTORE PUSH1 0x0 PUSH2 0x28A5 PUSH1 0x20 DUP4 ADD DUP5 PUSH2 0x3051 JUMP INVALID CALLDATASIZE ADDMOD SWAP5 LOG1 EXTCODESIZE LOG1 LOG3 0x21 MOD PUSH8 0xC828492DB98DCA3E KECCAK256 PUSH23 0xCC3735A920A3CA505D382BBC416464726573733A206C6F PUSH24 0x2D6C6576656C2063616C6C20776974682076616C75652066 PUSH2 0x696C PUSH6 0x644164647265 PUSH20 0x733A206C6F772D6C6576656C2064656C65676174 PUSH6 0x2063616C6C20 PUSH7 0x61696C6564A264 PUSH10 0x70667358221220F539B8 PUSH28 0x980A5418DCF171A178174D8094A095A51C9D8E27EC36C62A6515E89 PUSH5 0x736F6C6343 STOP ADDMOD SGT STOP CALLER "},"methodIdentifiers":{"AAVE_ORACLE_V3()":"46961ece","AAVE_POOL_V3()":"a11d8c6b","A_WSTETH_ADDR_AAVEV3()":"85651c8c","D_WETH_ADDR_AAVEV3()":"37a62fa2","ETH_ADDR()":"7753f47b","MAX_SAFE_AGGREGATED_RATIO()":"ef2cd24b","MIN_SAFE_AGGREGATED_RATIO()":"308b2b81","PERMISSIBLE_LIMIT()":"af56c207","WETH_ADDR()":"82dfc5f7","WSTETH_ADDR()":"e107e027","__Strategy_init(address,address,address,uint256,uint256)":"b1df9742","addAdmin(address)":"70480275","deleverage(uint256,uint256,bytes,uint256)":"19c63bfe","deposit(uint256)":"b6b55f25","exchangePrice()":"9e65741e","flashloanHelper()":"afb56385","getAvailableLogicBalance()":"ab7ce244","getNetAssets()":"08bb5fb0","getProtocolCollateralRatio()":"571ddf35","getProtocolNetAssets()":"62e8564e","getProtocolRatio()":"c26c4dfe","lendingLogic()":"98477390","leverage(uint256,uint256,bytes,uint256)":"0e8cc018","logicDepositAmount()":"a8497015","logicWithdrawAmount()":"3436042c","onFlashLoanOne(address,address,uint256,uint256,bytes)":"af8658ab","oneInchRouter()":"ac3af208","owner()":"8da5cb5b","paused()":"5c975abb","proxiableUUID()":"52d1902d","removeAdmin(address)":"1785f53c","renounceOwnership()":"715018a6","revenue()":"3e9491a2","revenueExchangePrice()":"98e1862c","revenueRate()":"e77c41f6","safeAggregatedRatio()":"e549435b","safeRatio()":"59126926","transferOwnership(address)":"f2fde38b","updateExchangePrice()":"3bfaa7e3","updateFlashloanHelper(address)":"3a54b841","updateSafeRatio(uint256,uint256)":"d84d74a0","upgradeTo(address)":"3659cfe6","upgradeToAndCall(address,bytes)":"4f1ef286","vault()":"fbfa77cf","withdraw(uint256)":"2e1a7d4d"}},"storageLayout":{"storage":[{"astId":695,"contract":"contracts/core/Strategy.sol:Strategy","label":"_initialized","offset":0,"slot":"0","type":"t_uint8"},{"astId":698,"contract":"contracts/core/Strategy.sol:Strategy","label":"_initializing","offset":1,"slot":"0","type":"t_bool"},{"astId":3255,"contract":"contracts/core/Strategy.sol:Strategy","label":"__gap","offset":0,"slot":"1","type":"t_array(t_uint256)50_storage"},{"astId":10,"contract":"contracts/core/Strategy.sol:Strategy","label":"_owner","offset":0,"slot":"51","type":"t_address"},{"astId":130,"contract":"contracts/core/Strategy.sol:Strategy","label":"__gap","offset":0,"slot":"52","type":"t_array(t_uint256)49_storage"},{"astId":677,"contract":"contracts/core/Strategy.sol:Strategy","label":"__gap","offset":0,"slot":"101","type":"t_array(t_uint256)50_storage"},{"astId":992,"contract":"contracts/core/Strategy.sol:Strategy","label":"__gap","offset":0,"slot":"151","type":"t_array(t_uint256)50_storage"},{"astId":1014,"contract":"contracts/core/Strategy.sol:Strategy","label":"_paused","offset":0,"slot":"201","type":"t_bool"},{"astId":1119,"contract":"contracts/core/Strategy.sol:Strategy","label":"__gap","offset":0,"slot":"202","type":"t_array(t_uint256)49_storage"},{"astId":1134,"contract":"contracts/core/Strategy.sol:Strategy","label":"_status","offset":0,"slot":"251","type":"t_uint256"},{"astId":1192,"contract":"contracts/core/Strategy.sol:Strategy","label":"__gap","offset":0,"slot":"252","type":"t_array(t_uint256)49_storage"},{"astId":5234,"contract":"contracts/core/Strategy.sol:Strategy","label":"isAdmin","offset":0,"slot":"301","type":"t_mapping(t_address,t_bool)"},{"astId":6921,"contract":"contracts/core/Strategy.sol:Strategy","label":"vault","offset":0,"slot":"302","type":"t_address"},{"astId":6923,"contract":"contracts/core/Strategy.sol:Strategy","label":"lendingLogic","offset":0,"slot":"303","type":"t_address"},{"astId":6925,"contract":"contracts/core/Strategy.sol:Strategy","label":"flashloanHelper","offset":0,"slot":"304","type":"t_address"},{"astId":6927,"contract":"contracts/core/Strategy.sol:Strategy","label":"revenue","offset":0,"slot":"305","type":"t_uint256"},{"astId":6929,"contract":"contracts/core/Strategy.sol:Strategy","label":"exchangePrice","offset":0,"slot":"306","type":"t_uint256"},{"astId":6931,"contract":"contracts/core/Strategy.sol:Strategy","label":"revenueExchangePrice","offset":0,"slot":"307","type":"t_uint256"},{"astId":6933,"contract":"contracts/core/Strategy.sol:Strategy","label":"revenueRate","offset":0,"slot":"308","type":"t_uint256"},{"astId":6935,"contract":"contracts/core/Strategy.sol:Strategy","label":"safeAggregatedRatio","offset":0,"slot":"309","type":"t_uint256"},{"astId":6937,"contract":"contracts/core/Strategy.sol:Strategy","label":"safeRatio","offset":0,"slot":"310","type":"t_uint256"},{"astId":6939,"contract":"contracts/core/Strategy.sol:Strategy","label":"logicDepositAmount","offset":0,"slot":"311","type":"t_uint256"},{"astId":6941,"contract":"contracts/core/Strategy.sol:Strategy","label":"logicWithdrawAmount","offset":0,"slot":"312","type":"t_uint256"}],"types":{"t_address":{"encoding":"inplace","label":"address","numberOfBytes":"20"},"t_array(t_uint256)49_storage":{"base":"t_uint256","encoding":"inplace","label":"uint256[49]","numberOfBytes":"1568"},"t_array(t_uint256)50_storage":{"base":"t_uint256","encoding":"inplace","label":"uint256[50]","numberOfBytes":"1600"},"t_bool":{"encoding":"inplace","label":"bool","numberOfBytes":"1"},"t_mapping(t_address,t_bool)":{"encoding":"mapping","key":"t_address","label":"mapping(address => bool)","numberOfBytes":"32","value":"t_bool"},"t_uint256":{"encoding":"inplace","label":"uint256","numberOfBytes":"32"},"t_uint8":{"encoding":"inplace","label":"uint8","numberOfBytes":"1"}}}}}}