{
  "_format": "hh-sol-artifact-1",
  "contractName": "Strategy",
  "sourceName": "contracts/core/Strategy.sol",
  "abi": [
    {
      "anonymous": false,
      "inputs": [
        {
          "indexed": false,
          "internalType": "address",
          "name": "previousAdmin",
          "type": "address"
        },
        {
          "indexed": false,
          "internalType": "address",
          "name": "newAdmin",
          "type": "address"
        }
      ],
      "name": "AdminChanged",
      "type": "event"
    },
    {
      "anonymous": false,
      "inputs": [
        {
          "indexed": true,
          "internalType": "address",
          "name": "beacon",
          "type": "address"
        }
      ],
      "name": "BeaconUpgraded",
      "type": "event"
    },
    {
      "anonymous": false,
      "inputs": [
        {
          "indexed": false,
          "internalType": "uint256",
          "name": "repayAmount",
          "type": "uint256"
        },
        {
          "indexed": false,
          "internalType": "uint256",
          "name": "withdrawAmount",
          "type": "uint256"
        }
      ],
      "name": "Deleverage",
      "type": "event"
    },
    {
      "anonymous": false,
      "inputs": [
        {
          "indexed": false,
          "internalType": "uint256",
          "name": "_amount",
          "type": "uint256"
        }
      ],
      "name": "Deposit",
      "type": "event"
    },
    {
      "anonymous": false,
      "inputs": [
        {
          "indexed": false,
          "internalType": "uint8",
          "name": "version",
          "type": "uint8"
        }
      ],
      "name": "Initialized",
      "type": "event"
    },
    {
      "anonymous": false,
      "inputs": [
        {
          "indexed": false,
          "internalType": "uint256",
          "name": "debitAmount",
          "type": "uint256"
        },
        {
          "indexed": false,
          "internalType": "uint256",
          "name": "borrowAmount",
          "type": "uint256"
        }
      ],
      "name": "Leverage",
      "type": "event"
    },
    {
      "anonymous": false,
      "inputs": [
        {
          "indexed": true,
          "internalType": "address",
          "name": "previousOwner",
          "type": "address"
        },
        {
          "indexed": true,
          "internalType": "address",
          "name": "newOwner",
          "type": "address"
        }
      ],
      "name": "OwnershipTransferred",
      "type": "event"
    },
    {
      "anonymous": false,
      "inputs": [
        {
          "indexed": false,
          "internalType": "address",
          "name": "account",
          "type": "address"
        }
      ],
      "name": "Paused",
      "type": "event"
    },
    {
      "anonymous": false,
      "inputs": [
        {
          "indexed": false,
          "internalType": "address",
          "name": "account",
          "type": "address"
        }
      ],
      "name": "Unpaused",
      "type": "event"
    },
    {
      "anonymous": false,
      "inputs": [
        {
          "indexed": false,
          "internalType": "uint256",
          "name": "newExchangePrice",
          "type": "uint256"
        },
        {
          "indexed": false,
          "internalType": "uint256",
          "name": "newRevenue",
          "type": "uint256"
        }
      ],
      "name": "UpdateExchangePrice",
      "type": "event"
    },
    {
      "anonymous": false,
      "inputs": [
        {
          "indexed": true,
          "internalType": "address",
          "name": "implementation",
          "type": "address"
        }
      ],
      "name": "Upgraded",
      "type": "event"
    },
    {
      "anonymous": false,
      "inputs": [
        {
          "indexed": false,
          "internalType": "uint256",
          "name": "_amount",
          "type": "uint256"
        }
      ],
      "name": "Withdraw",
      "type": "event"
    },
    {
      "inputs": [],
      "name": "AAVE_ORACLE_V3",
      "outputs": [
        {
          "internalType": "contract IAaveOracle",
          "name": "",
          "type": "address"
        }
      ],
      "stateMutability": "view",
      "type": "function"
    },
    {
      "inputs": [],
      "name": "AAVE_POOL_V3",
      "outputs": [
        {
          "internalType": "contract IPoolV3",
          "name": "",
          "type": "address"
        }
      ],
      "stateMutability": "view",
      "type": "function"
    },
    {
      "inputs": [],
      "name": "A_WSTETH_ADDR_AAVEV3",
      "outputs": [
        {
          "internalType": "address",
          "name": "",
          "type": "address"
        }
      ],
      "stateMutability": "view",
      "type": "function"
    },
    {
      "inputs": [],
      "name": "D_WETH_ADDR_AAVEV3",
      "outputs": [
        {
          "internalType": "address",
          "name": "",
          "type": "address"
        }
      ],
      "stateMutability": "view",
      "type": "function"
    },
    {
      "inputs": [],
      "name": "ETH_ADDR",
      "outputs": [
        {
          "internalType": "address",
          "name": "",
          "type": "address"
        }
      ],
      "stateMutability": "view",
      "type": "function"
    },
    {
      "inputs": [],
      "name": "MAX_SAFE_AGGREGATED_RATIO",
      "outputs": [
        {
          "internalType": "uint256",
          "name": "",
          "type": "uint256"
        }
      ],
      "stateMutability": "view",
      "type": "function"
    },
    {
      "inputs": [],
      "name": "MINIMUM_AMOUNT",
      "outputs": [
        {
          "internalType": "uint256",
          "name": "",
          "type": "uint256"
        }
      ],
      "stateMutability": "view",
      "type": "function"
    },
    {
      "inputs": [],
      "name": "MIN_SAFE_AGGREGATED_RATIO",
      "outputs": [
        {
          "internalType": "uint256",
          "name": "",
          "type": "uint256"
        }
      ],
      "stateMutability": "view",
      "type": "function"
    },
    {
      "inputs": [],
      "name": "PERMISSIBLE_LIMIT",
      "outputs": [
        {
          "internalType": "uint256",
          "name": "",
          "type": "uint256"
        }
      ],
      "stateMutability": "view",
      "type": "function"
    },
    {
      "inputs": [],
      "name": "WETH_ADDR",
      "outputs": [
        {
          "internalType": "address",
          "name": "",
          "type": "address"
        }
      ],
      "stateMutability": "view",
      "type": "function"
    },
    {
      "inputs": [],
      "name": "WSTETH_ADDR",
      "outputs": [
        {
          "internalType": "address",
          "name": "",
          "type": "address"
        }
      ],
      "stateMutability": "view",
      "type": "function"
    },
    {
      "inputs": [
        {
          "internalType": "address",
          "name": "_vault",
          "type": "address"
        },
        {
          "internalType": "address",
          "name": "_lendingLogic",
          "type": "address"
        },
        {
          "internalType": "address",
          "name": "_flashloanHelper",
          "type": "address"
        },
        {
          "internalType": "uint256",
          "name": "_safeAggregatedRatio",
          "type": "uint256"
        },
        {
          "internalType": "uint256",
          "name": "_safeRatio",
          "type": "uint256"
        }
      ],
      "name": "__Strategy_init",
      "outputs": [],
      "stateMutability": "nonpayable",
      "type": "function"
    },
    {
      "inputs": [
        {
          "internalType": "address",
          "name": "_admin",
          "type": "address"
        }
      ],
      "name": "addAdmin",
      "outputs": [],
      "stateMutability": "nonpayable",
      "type": "function"
    },
    {
      "inputs": [
        {
          "internalType": "uint256",
          "name": "_stETHWithdrawAmount",
          "type": "uint256"
        },
        {
          "internalType": "uint256",
          "name": "_wEthDebtDeleverageAmount",
          "type": "uint256"
        },
        {
          "internalType": "bytes",
          "name": "_swapData",
          "type": "bytes"
        },
        {
          "internalType": "uint256",
          "name": "_minimumAmount",
          "type": "uint256"
        }
      ],
      "name": "deleverage",
      "outputs": [],
      "stateMutability": "nonpayable",
      "type": "function"
    },
    {
      "inputs": [
        {
          "internalType": "uint256",
          "name": "_stETHWithdrawAmount",
          "type": "uint256"
        },
        {
          "internalType": "uint256",
          "name": "_wEthDebtDeleverageAmount",
          "type": "uint256"
        },
        {
          "internalType": "bytes",
          "name": "_swapData",
          "type": "bytes"
        },
        {
          "internalType": "uint256",
          "name": "_minimumAmount",
          "type": "uint256"
        }
      ],
      "name": "deleverageAndWithdraw",
      "outputs": [
        {
          "internalType": "uint256",
          "name": "",
          "type": "uint256"
        }
      ],
      "stateMutability": "nonpayable",
      "type": "function"
    },
    {
      "inputs": [
        {
          "internalType": "uint256",
          "name": "_amount",
          "type": "uint256"
        }
      ],
      "name": "deposit",
      "outputs": [
        {
          "internalType": "uint256",
          "name": "operateExchangePrice",
          "type": "uint256"
        }
      ],
      "stateMutability": "nonpayable",
      "type": "function"
    },
    {
      "inputs": [],
      "name": "exchangePrice",
      "outputs": [
        {
          "internalType": "uint256",
          "name": "",
          "type": "uint256"
        }
      ],
      "stateMutability": "view",
      "type": "function"
    },
    {
      "inputs": [],
      "name": "flashloanHelper",
      "outputs": [
        {
          "internalType": "address",
          "name": "",
          "type": "address"
        }
      ],
      "stateMutability": "view",
      "type": "function"
    },
    {
      "inputs": [
        {
          "internalType": "address",
          "name": "_token",
          "type": "address"
        }
      ],
      "name": "getAssestPrice",
      "outputs": [
        {
          "internalType": "uint256",
          "name": "price",
          "type": "uint256"
        }
      ],
      "stateMutability": "view",
      "type": "function"
    },
    {
      "inputs": [],
      "name": "getAvailableLogicBalance",
      "outputs": [
        {
          "internalType": "uint256",
          "name": "balance",
          "type": "uint256"
        }
      ],
      "stateMutability": "view",
      "type": "function"
    },
    {
      "inputs": [],
      "name": "getNetAssets",
      "outputs": [
        {
          "internalType": "uint256",
          "name": "",
          "type": "uint256"
        }
      ],
      "stateMutability": "view",
      "type": "function"
    },
    {
      "inputs": [],
      "name": "getProtocolCollateralRatio",
      "outputs": [
        {
          "internalType": "uint256",
          "name": "collateralRatio",
          "type": "uint256"
        },
        {
          "internalType": "bool",
          "name": "isOK",
          "type": "bool"
        }
      ],
      "stateMutability": "view",
      "type": "function"
    },
    {
      "inputs": [],
      "name": "getProtocolNetAssets",
      "outputs": [
        {
          "internalType": "uint256",
          "name": "net",
          "type": "uint256"
        }
      ],
      "stateMutability": "view",
      "type": "function"
    },
    {
      "inputs": [],
      "name": "getProtocolRatio",
      "outputs": [
        {
          "internalType": "uint256",
          "name": "ratio",
          "type": "uint256"
        }
      ],
      "stateMutability": "view",
      "type": "function"
    },
    {
      "inputs": [],
      "name": "lendingLogic",
      "outputs": [
        {
          "internalType": "address",
          "name": "",
          "type": "address"
        }
      ],
      "stateMutability": "view",
      "type": "function"
    },
    {
      "inputs": [
        {
          "internalType": "uint256",
          "name": "_stETHDepositAmount",
          "type": "uint256"
        },
        {
          "internalType": "uint256",
          "name": "_wEthDebtAmount",
          "type": "uint256"
        },
        {
          "internalType": "bytes",
          "name": "_swapData",
          "type": "bytes"
        },
        {
          "internalType": "uint256",
          "name": "_minimumAmount",
          "type": "uint256"
        }
      ],
      "name": "leverage",
      "outputs": [],
      "stateMutability": "nonpayable",
      "type": "function"
    },
    {
      "inputs": [],
      "name": "logicDepositAmount",
      "outputs": [
        {
          "internalType": "uint256",
          "name": "",
          "type": "uint256"
        }
      ],
      "stateMutability": "view",
      "type": "function"
    },
    {
      "inputs": [],
      "name": "logicWithdrawAmount",
      "outputs": [
        {
          "internalType": "uint256",
          "name": "",
          "type": "uint256"
        }
      ],
      "stateMutability": "view",
      "type": "function"
    },
    {
      "inputs": [
        {
          "internalType": "address",
          "name": "_initiator",
          "type": "address"
        },
        {
          "internalType": "address",
          "name": "_token",
          "type": "address"
        },
        {
          "internalType": "uint256",
          "name": "_amount",
          "type": "uint256"
        },
        {
          "internalType": "uint256",
          "name": "_fee",
          "type": "uint256"
        },
        {
          "internalType": "bytes",
          "name": "_params",
          "type": "bytes"
        }
      ],
      "name": "onFlashLoanOne",
      "outputs": [
        {
          "internalType": "bytes32",
          "name": "",
          "type": "bytes32"
        }
      ],
      "stateMutability": "nonpayable",
      "type": "function"
    },
    {
      "inputs": [],
      "name": "oneInchRouter",
      "outputs": [
        {
          "internalType": "address",
          "name": "",
          "type": "address"
        }
      ],
      "stateMutability": "view",
      "type": "function"
    },
    {
      "inputs": [],
      "name": "owner",
      "outputs": [
        {
          "internalType": "address",
          "name": "",
          "type": "address"
        }
      ],
      "stateMutability": "view",
      "type": "function"
    },
    {
      "inputs": [],
      "name": "paused",
      "outputs": [
        {
          "internalType": "bool",
          "name": "",
          "type": "bool"
        }
      ],
      "stateMutability": "view",
      "type": "function"
    },
    {
      "inputs": [],
      "name": "proxiableUUID",
      "outputs": [
        {
          "internalType": "bytes32",
          "name": "",
          "type": "bytes32"
        }
      ],
      "stateMutability": "view",
      "type": "function"
    },
    {
      "inputs": [
        {
          "internalType": "address",
          "name": "_admin",
          "type": "address"
        }
      ],
      "name": "removeAdmin",
      "outputs": [],
      "stateMutability": "nonpayable",
      "type": "function"
    },
    {
      "inputs": [],
      "name": "renounceOwnership",
      "outputs": [],
      "stateMutability": "nonpayable",
      "type": "function"
    },
    {
      "inputs": [],
      "name": "revenue",
      "outputs": [
        {
          "internalType": "uint256",
          "name": "",
          "type": "uint256"
        }
      ],
      "stateMutability": "view",
      "type": "function"
    },
    {
      "inputs": [],
      "name": "revenueExchangePrice",
      "outputs": [
        {
          "internalType": "uint256",
          "name": "",
          "type": "uint256"
        }
      ],
      "stateMutability": "view",
      "type": "function"
    },
    {
      "inputs": [],
      "name": "revenueRate",
      "outputs": [
        {
          "internalType": "uint256",
          "name": "",
          "type": "uint256"
        }
      ],
      "stateMutability": "view",
      "type": "function"
    },
    {
      "inputs": [],
      "name": "safeAggregatedRatio",
      "outputs": [
        {
          "internalType": "uint256",
          "name": "",
          "type": "uint256"
        }
      ],
      "stateMutability": "view",
      "type": "function"
    },
    {
      "inputs": [],
      "name": "safeRatio",
      "outputs": [
        {
          "internalType": "uint256",
          "name": "",
          "type": "uint256"
        }
      ],
      "stateMutability": "view",
      "type": "function"
    },
    {
      "inputs": [
        {
          "internalType": "address",
          "name": "newOwner",
          "type": "address"
        }
      ],
      "name": "transferOwnership",
      "outputs": [],
      "stateMutability": "nonpayable",
      "type": "function"
    },
    {
      "inputs": [],
      "name": "updateExchangePrice",
      "outputs": [
        {
          "internalType": "uint256",
          "name": "newExchangePrice",
          "type": "uint256"
        },
        {
          "internalType": "uint256",
          "name": "newRevenue",
          "type": "uint256"
        }
      ],
      "stateMutability": "nonpayable",
      "type": "function"
    },
    {
      "inputs": [
        {
          "internalType": "address",
          "name": "_newFlashloanHelper",
          "type": "address"
        }
      ],
      "name": "updateFlashloanHelper",
      "outputs": [],
      "stateMutability": "nonpayable",
      "type": "function"
    },
    {
      "inputs": [
        {
          "internalType": "uint256",
          "name": "_safeAggregatorRatio",
          "type": "uint256"
        },
        {
          "internalType": "uint256",
          "name": "_safeRatio",
          "type": "uint256"
        }
      ],
      "name": "updateSafeRatio",
      "outputs": [],
      "stateMutability": "nonpayable",
      "type": "function"
    },
    {
      "inputs": [
        {
          "internalType": "address",
          "name": "newImplementation",
          "type": "address"
        }
      ],
      "name": "upgradeTo",
      "outputs": [],
      "stateMutability": "nonpayable",
      "type": "function"
    },
    {
      "inputs": [
        {
          "internalType": "address",
          "name": "newImplementation",
          "type": "address"
        },
        {
          "internalType": "bytes",
          "name": "data",
          "type": "bytes"
        }
      ],
      "name": "upgradeToAndCall",
      "outputs": [],
      "stateMutability": "payable",
      "type": "function"
    },
    {
      "inputs": [],
      "name": "vault",
      "outputs": [
        {
          "internalType": "address",
          "name": "",
          "type": "address"
        }
      ],
      "stateMutability": "view",
      "type": "function"
    },
    {
      "inputs": [
        {
          "internalType": "uint256",
          "name": "_amount",
          "type": "uint256"
        }
      ],
      "name": "withdraw",
      "outputs": [
        {
          "internalType": "uint256",
          "name": "withdrawAmount",
          "type": "uint256"
        }
      ],
      "stateMutability": "nonpayable",
      "type": "function"
    }
  ],
  "bytecode": "0x60a06040523060805234801561001457600080fd5b506080516139bf61004c60003960008181610f9b01528181610fdb015281816112ec0152818161132c01526113bf01526139bf6000f3fe6080604052600436106102935760003560e01c806382dfc5f71161015a578063af8658ab116100c1578063e107e0271161007a578063e107e027146107bd578063e549435b146107df578063e77c41f6146107f6578063ef2cd24b1461080d578063f2fde38b14610829578063fbfa77cf1461084957600080fd5b8063af8658ab14610707578063afb5638514610727578063b1df974214610748578063b6b55f2514610768578063c26c4dfe14610788578063d84d74a01461079d57600080fd5b80639e65741e116101135780639e65741e14610659578063a11d8c6b14610670578063a849701514610698578063ab7ce244146106af578063ac3af208146106c4578063af56c207146106ec57600080fd5b806382dfc5f71461059357806383abd695146105bb57806385651c8c146105db5780638da5cb5b14610603578063984773901461062157806398e1862c1461064257600080fd5b80633e9491a2116101fe5780635c16591a116101b75780635c16591a146104de5780635c975abb146104fe57806362e8564e146105215780637048027514610536578063715018a6146105565780637753f47b1461056b57600080fd5b80633e9491a21461043657806346961ece1461044d5780634f1ef2861461047557806352d1902d14610488578063571ddf351461049d57806359126926146104c757600080fd5b8063308b2b8111610250578063308b2b81146103595780633436042c146103755780633659cfe61461038c57806337a62fa2146103ac5780633a54b841146103ec5780633bfaa7e31461040c57600080fd5b806308bb5fb0146102985780630e8cc018146102c05780631785f53c146102e257806319c63bfe14610302578063257d9bb8146103225780632e1a7d4d14610339575b600080fd5b3480156102a457600080fd5b506102ad61086a565b6040519081526020015b60405180910390f35b3480156102cc57600080fd5b506102e06102db366004613283565b61096e565b005b3480156102ee57600080fd5b506102e06102fd3660046132fa565b610b54565b34801561030e57600080fd5b506102e061031d366004613283565b610bc7565b34801561032e57600080fd5b506102ad6298968081565b34801561034557600080fd5b506102ad610354366004613315565b610eb0565b34801561036557600080fd5b506102ad6709b6e64a8ec6000081565b34801561038157600080fd5b506102ad6101385481565b34801561039857600080fd5b506102e06103a73660046132fa565b610f91565b3480156103b857600080fd5b506103d47377ca01483f379e58174739308945f044e1a764dc81565b6040516001600160a01b0390911681526020016102b7565b3480156103f857600080fd5b506102e06104073660046132fa565b611070565b34801561041857600080fd5b506104216110ea565b604080519283526020830191909152016102b7565b34801561044257600080fd5b506102ad6101315481565b34801561045957600080fd5b506103d473b56c2f0b653b2e0b10c9b928c8580ac5df02c7c781565b6102e06104833660046133d1565b6112e2565b34801561049457600080fd5b506102ad6113b2565b3480156104a957600080fd5b506104b2611465565b604080519283529015156020830152016102b7565b3480156104d357600080fd5b506102ad6101365481565b3480156104ea57600080fd5b506102ad6104f9366004613283565b611505565b34801561050a57600080fd5b5060c95460ff1660405190151581526020016102b7565b34801561052d57600080fd5b506102ad61191d565b34801561054257600080fd5b506102e06105513660046132fa565b6119a4565b34801561056257600080fd5b506102e0611a1a565b34801561057757600080fd5b506103d473eeeeeeeeeeeeeeeeeeeeeeeeeeeeeeeeeeeeeeee81565b34801561059f57600080fd5b506103d47382af49447d8a07e3bd95bd0d56f35241523fbab181565b3480156105c757600080fd5b506102ad6105d63660046132fa565b611a2e565b3480156105e757600080fd5b506103d473513c7e3a9c69ca3e22550ef58ac1c0088e918fff81565b34801561060f57600080fd5b506033546001600160a01b03166103d4565b34801561062d57600080fd5b5061012f546103d4906001600160a01b031681565b34801561064e57600080fd5b506102ad6101335481565b34801561066557600080fd5b506102ad6101325481565b34801561067c57600080fd5b506103d473794a61358d6845594f94dc1db02a252b5b4814ad81565b3480156106a457600080fd5b506102ad6101375481565b3480156106bb57600080fd5b506102ad611ab3565b3480156106d057600080fd5b506103d4731111111254eeb25477b68fb85ed929f73a96058281565b3480156106f857600080fd5b506102ad66071afd498d000081565b34801561071357600080fd5b506102ad61072236600461341f565b611b55565b34801561073357600080fd5b50610130546103d4906001600160a01b031681565b34801561075457600080fd5b506102e0610763366004613497565b611eda565b34801561077457600080fd5b506102ad610783366004613315565b612193565b34801561079457600080fd5b506102ad61226e565b3480156107a957600080fd5b506102e06107b83660046134ec565b612301565b3480156107c957600080fd5b506103d460008051602061396a83398151915281565b3480156107eb57600080fd5b506102ad6101355481565b34801561080257600080fd5b506102ad6101345481565b34801561081957600080fd5b506102ad670d2f13f7789f000081565b34801561083557600080fd5b506102e06108443660046132fa565b61237d565b34801561085557600080fd5b5061012e546103d4906001600160a01b031681565b61012f54604051631b51675d60e21b815230600482015260009182916001600160a01b0390911690636d459d7490602401608060405180830381865afa1580156108b8573d6000803e3d6000fd5b505050506040513d601f19601f820116820180604052508101906108dc919061350e565b50610131546040516370a0823160e01b8152306004820152919450925060008051602061396a83398151915291506370a0823190602401602060405180830381865afa158015610930573d6000803e3d6000fd5b505050506040513d601f19601f820116820180604052508101906109549190613544565b61095e9083613573565b6109689190613586565b91505090565b33600090815261012d602052604090205460ff166109a75760405162461bcd60e51b815260040161099e90613599565b60405180910390fd5b629896808510156109ca5760405162461bcd60e51b815260040161099e906135bd565b6040516370a0823160e01b815230600482015260009060008051602061396a833981519152906370a0823190602401602060405180830381865afa158015610a16573d6000803e3d6000fd5b505050506040513d601f19601f82011682018060405250810190610a3a9190613544565b905085811015610a8c5760405162461bcd60e51b815260206004820152601b60248201527f496e73756666696369656e74207773744554482062616c616e63650000000000604482015260640161099e565b61013786905560008086848787604051602001610aad9594939291906135f4565b60408051601f198184030181529082905261013054632e7ff4ef60e11b83529092506001600160a01b031690635cffe9de90610b079030907382af49447d8a07e3bd95bd0d56f35241523fbab1908b90879060040161368b565b6020604051808303816000875af1158015610b26573d6000803e3d6000fd5b505050506040513d601f19601f82011682018060405250810190610b4a91906136c8565b5050505050505050565b610b5c6123f3565b6001600160a01b038116610ba55760405162461bcd60e51b815260206004820152601060248201526f496e76616c696420616464726573732160801b604482015260640161099e565b6001600160a01b0316600090815261012d60205260409020805460ff19169055565b33600090815261012d602052604090205460ff16610bf75760405162461bcd60e51b815260040161099e90613599565b62989680851015610c1a5760405162461bcd60e51b815260040161099e906135bd565b61012f54604051631b51675d60e21b81523060048201526000916001600160a01b031690636d459d7490602401608060405180830381865afa158015610c64573d6000803e3d6000fd5b505050506040513d601f19601f82011682018060405250810190610c88919061350e565b505050905084811015610cd85760405162461bcd60e51b81526020600482015260186024820152772737ba1032b737bab3b41031b7b63630b137b930ba34b7b760411b604482015260640161099e565b6000610cf77382af49447d8a07e3bd95bd0d56f35241523fbab1611a2e565b90506000610d1260008051602061396a833981519152611a2e565b6040516370a0823160e01b81523060048201529091506000907382af49447d8a07e3bd95bd0d56f35241523fbab1906370a0823190602401602060405180830381865afa158015610d67573d6000803e3d6000fd5b505050506040513d601f19601f82011682018060405250810190610d8b9190613544565b9050610d9783826136ea565b610da1838b6136ea565b1115610de45760405162461bcd60e51b81526020600482015260126024820152714e6f7420656e6f7567682062616c616e636560701b604482015260640161099e565b6101388990556000600189878a8a604051602001610e069594939291906135f4565b60408051601f198184030181529082905261013054632e7ff4ef60e11b83529092506001600160a01b031690635cffe9de90610e609030907382af49447d8a07e3bd95bd0d56f35241523fbab1908e90879060040161368b565b6020604051808303816000875af1158015610e7f573d6000803e3d6000fd5b505050506040513d601f19601f82011682018060405250810190610ea391906136c8565b5050505050505050505050565b61012e546000906001600160a01b03163314610ede5760405162461bcd60e51b815260040161099e90613701565b60008211610f2e5760405162461bcd60e51b815260206004820152601960248201527f77697468647261773a20496e76616c696420616d6f756e742e00000000000000604482015260640161099e565b61012e54610f559060008051602061396a833981519152906001600160a01b03168461244d565b5060405181815281907f5b6b431d4476a211bb7d41c20d1aab9ae2321deee0d20be3d9fc9b1093fa6e3d906020015b60405180910390a1919050565b6001600160a01b037f0000000000000000000000000000000000000000000000000000000000000000163003610fd95760405162461bcd60e51b815260040161099e90613738565b7f00000000000000000000000000000000000000000000000000000000000000006001600160a01b03166110226000805160206138fa833981519152546001600160a01b031690565b6001600160a01b0316146110485760405162461bcd60e51b815260040161099e90613784565b611051816124b5565b6040805160008082526020820190925261106d918391906124bd565b50565b6110786123f3565b6001600160a01b0381166110c75760405162461bcd60e51b815260206004820152601660248201527557726f6e6720666c6173686c6f616e48656c7065722160501b604482015260640161099e565b61013080546001600160a01b0319166001600160a01b0392909216919091179055565b33600090815261012d6020526040812054819060ff1661111c5760405162461bcd60e51b815260040161099e90613599565b61012e54604080516318160ddd60e01b815290516000926001600160a01b0316916318160ddd9160048083019260209291908290030181865afa158015611167573d6000803e3d6000fd5b505050506040513d601f19601f8201168201806040525081019061118b9190613544565b9050806000036111a657610132546101315492509250509091565b60006111b061086a565b9050816111c582670de0b6b3a76400006136ea565b6111cf91906137d0565b93506101335484111561129c57610133546000036111fe57505050610133819055610132819055610131549091565b6000670de0b6b3a7640000836101325461121891906136ea565b61122291906137d0565b61122c9083613586565b9050612710610134548261124091906136ea565b61124a91906137d0565b935083610131600082825461125f9190613573565b909155508390506112708584613586565b61128290670de0b6b3a76400006136ea565b61128c91906137d0565b61013281905561013355506112a3565b6101328490555b60408051858152602081018590527f83d2ad38a3d31bbc70811535dd8943b0140df344c23e6e167ee1ca32f9a1a459910160405180910390a150509091565b6001600160a01b037f000000000000000000000000000000000000000000000000000000000000000016300361132a5760405162461bcd60e51b815260040161099e90613738565b7f00000000000000000000000000000000000000000000000000000000000000006001600160a01b03166113736000805160206138fa833981519152546001600160a01b031690565b6001600160a01b0316146113995760405162461bcd60e51b815260040161099e90613784565b6113a2826124b5565b6113ae828260016124bd565b5050565b6000306001600160a01b037f000000000000000000000000000000000000000000000000000000000000000016146114525760405162461bcd60e51b815260206004820152603860248201527f555550535570677261646561626c653a206d757374206e6f742062652063616c60448201527f6c6564207468726f7567682064656c656761746563616c6c0000000000000000606482015260840161099e565b506000805160206138fa83398151915290565b61012f54604051638caff8ed60e01b815230600482015260009182916001600160a01b0390911690638caff8ed90602401602060405180830381865afa1580156114b3573d6000803e3d6000fd5b505050506040513d601f19601f820116820180604052508101906114d79190613544565b91508166071afd498d0000610136546114f09190613573565b116114fc5760006114ff565b60015b90509091565b61012e546000906001600160a01b031633146115335760405162461bcd60e51b815260040161099e90613701565b629896808610156115565760405162461bcd60e51b815260040161099e906135bd565b61012f54604051631b51675d60e21b81523060048201526000916001600160a01b031690636d459d7490602401608060405180830381865afa1580156115a0573d6000803e3d6000fd5b505050506040513d601f19601f820116820180604052508101906115c4919061350e565b5050509050858110156116145760405162461bcd60e51b81526020600482015260186024820152772737ba1032b737bab3b41031b7b63630b137b930ba34b7b760411b604482015260640161099e565b60006116337382af49447d8a07e3bd95bd0d56f35241523fbab1611a2e565b9050600061164e60008051602061396a833981519152611a2e565b6040516370a0823160e01b81523060048201529091506000907382af49447d8a07e3bd95bd0d56f35241523fbab1906370a0823190602401602060405180830381865afa1580156116a3573d6000803e3d6000fd5b505050506040513d601f19601f820116820180604052508101906116c79190613544565b90506116d383826136ea565b6116dd838c6136ea565b11156117205760405162461bcd60e51b81526020600482015260126024820152714e6f7420656e6f7567682062616c616e636560701b604482015260640161099e565b6101388a9055600060018a888b8b6040516020016117429594939291906135f4565b60408051808303601f19018152908290526370a0823160e01b8252306004830152915060009060008051602061396a833981519152906370a0823190602401602060405180830381865afa15801561179e573d6000803e3d6000fd5b505050506040513d601f19601f820116820180604052508101906117c29190613544565b905061013060009054906101000a90046001600160a01b03166001600160a01b0316635cffe9de307382af49447d8a07e3bd95bd0d56f35241523fbab18e866040518563ffffffff1660e01b8152600401611820949392919061368b565b6020604051808303816000875af115801561183f573d6000803e3d6000fd5b505050506040513d601f19601f8201168201806040525081019061186391906136c8565b506040516370a0823160e01b815230600482015260009060008051602061396a833981519152906370a0823190602401602060405180830381865afa1580156118b0573d6000803e3d6000fd5b505050506040513d601f19601f820116820180604052508101906118d49190613544565b905060006118e28383613586565b61012e5490915061190c9060008051602061396a833981519152906001600160a01b03168361244d565b9d9c50505050505050505050505050565b61012f5460405163445818a160e11b8152306004820152600091829182916001600160a01b0316906388b03142906024016040805180830381865afa15801561196a573d6000803e3d6000fd5b505050506040513d601f19601f8201168201806040525081019061198e91906137f2565b909250905061199d8183613586565b9250505090565b6119ac6123f3565b6001600160a01b0381166119f55760405162461bcd60e51b815260206004820152601060248201526f496e76616c696420616464726573732160801b604482015260640161099e565b6001600160a01b0316600090815261012d60205260409020805460ff19166001179055565b611a226123f3565b611a2c6000612628565b565b60405163b3596f0760e01b81526001600160a01b038216600482015260009073b56c2f0b653b2e0b10c9b928c8580ac5df02c7c79063b3596f0790602401602060405180830381865afa158015611a89573d6000803e3d6000fd5b505050506040513d601f19601f82011682018060405250810190611aad9190613544565b92915050565b33600090815261012d602052604081205460ff16611ae35760405162461bcd60e51b815260040161099e90613599565b6040516370a0823160e01b815230600482015260008051602061396a833981519152906370a0823190602401602060405180830381865afa158015611b2c573d6000803e3d6000fd5b505050506040513d601f19601f82011682018060405250810190611b509190613544565b905090565b60006001600160a01b0387163014611baf5760405162461bcd60e51b815260206004820152601c60248201527f43616e6e6f742063616c6c20466c6173684c6f616e206d6f64756c6500000000604482015260640161099e565b60008080611bbf85870187613816565b92955093509091505060ff8316611ce6576000611bf2897382af49447d8a07e3bd95bd0d56f35241523fbab1848661267a565b9050611c1c60008051602061396a8339815191526101375483611c159190613573565b6001612880565b61012f54604051637ee113e560e01b81523060048201526000916001600160a01b031690637ee113e590602401602060405180830381865afa158015611c66573d6000803e3d6000fd5b505050506040513d601f19601f82011682018060405250810190611c8a9190613544565b9050611c988b8260016129ac565b7fde65598329a5a506b0865240860eae7975d48fadcbb543933019d2095ba7860b6101375483611cc89190613573565b60408051918252602082018490520160405180910390a15050611e21565b6000611d057382af49447d8a07e3bd95bd0d56f35241523fbab1611a2e565b90506000611d2060008051602061396a833981519152611a2e565b90506000611d2e8a8c613573565b905061013854600014611d6257828261013854611d4b91906136ea565b611d5591906137d0565b611d5f9082613573565b90505b611d6e8c8260006129ac565b600082611d7b85846136ea565b611d8591906137d0565b9050611da160008051602061396a833981519152826000612880565b600083858d8f611db19190613573565b611dbb91906136ea565b611dc591906137d0565b9050611de18160008051602061396a833981519152888a61267a565b5060408051848152602081018f90527ff046ccb25549004f529afb60ef0287081f2111cc083f5a96895cc6732a61ff99910160405180910390a150505050505b6001600160a01b03891663095ea7b333611e3b8a8c613573565b6040516001600160e01b031960e085901b1681526001600160a01b03909216600483015260248201526044016020604051808303816000875af1158015611e86573d6000803e3d6000fd5b505050506040513d601f19601f82011682018060405250810190611eaa91906136c8565b507f439148f0bbc682ca079e46d6e2c2f0c1e3b820f1a291b069d8882abf8cf18dd99a9950505050505050505050565b600054610100900460ff1615808015611efa5750600054600160ff909116105b80611f145750303b158015611f14575060005460ff166001145b611f775760405162461bcd60e51b815260206004820152602e60248201527f496e697469616c697a61626c653a20636f6e747261637420697320616c72656160448201526d191e481a5b9a5d1a585b1a5e995960921b606482015260840161099e565b6000805460ff191660011790558015611f9a576000805461ff0019166101001790555b611fa2612a6e565b611faa612a95565b6001600160a01b03861615801590611fca57506001600160a01b03841615155b8015611fde57506001600160a01b03851615155b61202a5760405162461bcd60e51b815260206004820152601960248201527f496e76616c696420636f6e747261637420616464726573732100000000000000604482015260640161099e565b61012f80546001600160a01b038088166001600160a01b03199283161790925561012e8054898416908316179055610130805492871692909116919091179055670de0b6b3a7640000610132556709b6e64a8ec6000083108015906120965750670d2f13f7789f000083105b6120de5760405162461bcd60e51b8152602060048201526019602482015278496e76616c6964206167677265676174656420526174696f2160381b604482015260640161099e565b61013682905561013583905533600090815261012d60205260409020805460ff1916600190811790915561211190612ac4565b61212e7382af49447d8a07e3bd95bd0d56f35241523fbab1612bbd565b61214560008051602061396a833981519152612bbd565b801561218b576000805461ff0019169055604051600181527f7f26b83ff96e1f2b6a682f133852f6798a09c465da95921460cefb38474024989060200160405180910390a15b505050505050565b61012e546000906001600160a01b031633146121c15760405162461bcd60e51b815260040161099e90613701565b600082116122115760405162461bcd60e51b815260206004820152601860248201527f6465706f7369743a20496e76616c696420616d6f756e742e0000000000000000604482015260640161099e565b506101325461012e5461223e9060008051602061396a833981519152906001600160a01b03163085612c43565b6040518281527f4d6ce1e535dbade1c23defba91e23b8f791ce5edc0cc320257a2b364e4e3842690602001610f84565b61012f5460405163445818a160e11b8152306004820152600091829182916001600160a01b0316906388b03142906024016040805180830381865afa1580156122bb573d6000803e3d6000fd5b505050506040513d601f19601f820116820180604052508101906122df91906137f2565b9092509050816122f782670de0b6b3a76400006136ea565b61199d91906137d0565b6123096123f3565b6709b6e64a8ec6000082101580156123285750670d2f13f7789f000082105b6123705760405162461bcd60e51b8152602060048201526019602482015278496e76616c6964206167677265676174656420526174696f2160381b604482015260640161099e565b6101359190915561013655565b6123856123f3565b6001600160a01b0381166123ea5760405162461bcd60e51b815260206004820152602660248201527f4f776e61626c653a206e6577206f776e657220697320746865207a65726f206160448201526564647265737360d01b606482015260840161099e565b61106d81612628565b6033546001600160a01b03163314611a2c5760405162461bcd60e51b815260206004820181905260248201527f4f776e61626c653a2063616c6c6572206973206e6f7420746865206f776e6572604482015260640161099e565b6040516001600160a01b0383166024820152604481018290526124b090849063a9059cbb60e01b906064015b60408051601f198184030181529190526020810180516001600160e01b03166001600160e01b031990931692909217909152612c7b565b505050565b61106d6123f3565b7f4910fdfa16fed3260ed0e7147f7cc6da11a60208b5b9406d12a635614ffd91435460ff16156124f0576124b083612d50565b826001600160a01b03166352d1902d6040518163ffffffff1660e01b8152600401602060405180830381865afa92505050801561254a575060408051601f3d908101601f1916820190925261254791810190613544565b60015b6125ad5760405162461bcd60e51b815260206004820152602e60248201527f45524331393637557067726164653a206e657720696d706c656d656e7461746960448201526d6f6e206973206e6f74205555505360901b606482015260840161099e565b6000805160206138fa833981519152811461261c5760405162461bcd60e51b815260206004820152602960248201527f45524331393637557067726164653a20756e737570706f727465642070726f786044820152681a58589b195555525160ba1b606482015260840161099e565b506124b0838383612dec565b603380546001600160a01b038381166001600160a01b0319831681179093556040519116919082907f8be0079c531659141344cd1fd0a4f28419497f9722a3daafe3b4186f6b6457e090600090a35050565b602482015160448301516000916001600160a01b03868116908216146126da5760405162461bcd60e51b815260206004820152601560248201527431696e63683a20496e76616c696420746f6b656e2160581b604482015260640161099e565b8682101561272a5760405162461bcd60e51b815260206004820152601c60248201527f31696e63683a20496e76616c696420696e70757420616d6f756e742100000000604482015260640161099e565b60405163095ea7b360e01b8152731111111254eeb25477b68fb85ed929f73a9605826004820152602481018890526001600160a01b0387169063095ea7b3906044016020604051808303816000875af115801561278b573d6000803e3d6000fd5b505050506040513d601f19601f820116820180604052508101906127af91906136c8565b50606073eeeeeeeeeeeeeeeeeeeeeeeeeeeeeeeeeeeeeeed196001600160a01b038816016127fd576127f6731111111254eeb25477b68fb85ed929f73a960582878a612e11565b905061281e565b61281b731111111254eeb25477b68fb85ed929f73a96058287612e41565b90505b60208101519350848410156128755760405162461bcd60e51b815260206004820152601f60248201527f31696e63683a20756e65787065637465642072657475726e416d6f756e742e00604482015260640161099e565b505050949350505050565b8160000361288d57600080fd5b801561291a5760405163617ba03760e01b81526001600160a01b0384166004820152602481018390523060448201526000606482015273794a61358d6845594f94dc1db02a252b5b4814ad9063617ba037906084015b600060405180830381600087803b1580156128fd57600080fd5b505af1158015612911573d6000803e3d6000fd5b50505050505050565b604051631a4ca37b60e21b81526001600160a01b03841660048201526024810183905230604482015273794a61358d6845594f94dc1db02a252b5b4814ad906369328dec906064015b6020604051808303816000875af1158015612982573d6000803e3d6000fd5b505050506040513d601f19601f820116820180604052508101906129a69190613544565b50505050565b816000036129b957600080fd5b8015612a1a5760405163a415bcad60e01b81526001600160a01b038416600482015260248101839052600260448201526000606482015230608482015273794a61358d6845594f94dc1db02a252b5b4814ad9063a415bcad9060a4016128e3565b60405163573ade8160e01b81526001600160a01b0384166004820152602481018390526002604482015230606482015273794a61358d6845594f94dc1db02a252b5b4814ad9063573ade8190608401612963565b600054610100900460ff16611a2c5760405162461bcd60e51b815260040161099e9061387f565b600054610100900460ff16612abc5760405162461bcd60e51b815260040161099e9061387f565b611a2c612e85565b61012f546001600160a01b0316612b1d5760405162461bcd60e51b815260206004820152601c60248201527f4c656e64696e674c6f676963206e6f7420736574746564207965742100000000604482015260640161099e565b60008115612b2a57506000195b612b5d7382af49447d8a07e3bd95bd0d56f35241523fbab173794a61358d6845594f94dc1db02a252b5b4814ad83612eb5565b612b8a60008051602061396a83398151915273794a61358d6845594f94dc1db02a252b5b4814ad83612eb5565b6113ae73513c7e3a9c69ca3e22550ef58ac1c0088e918fff73794a61358d6845594f94dc1db02a252b5b4814ad83612eb5565b60405163095ea7b360e01b8152731111111254eeb25477b68fb85ed929f73a960582600482015260001960248201526001600160a01b0382169063095ea7b3906044016020604051808303816000875af1158015612c1f573d6000803e3d6000fd5b505050506040513d601f19601f820116820180604052508101906113ae91906136c8565b6040516001600160a01b03808516602483015283166044820152606481018290526129a69085906323b872dd60e01b90608401612479565b6000612cd0826040518060400160405280602081526020017f5361666545524332303a206c6f772d6c6576656c2063616c6c206661696c6564815250856001600160a01b0316612f629092919063ffffffff16565b9050805160001480612cf1575080806020019051810190612cf191906136c8565b6124b05760405162461bcd60e51b815260206004820152602a60248201527f5361666545524332303a204552433230206f7065726174696f6e20646964206e6044820152691bdd081cdd58d8d9595960b21b606482015260840161099e565b6001600160a01b0381163b612dbd5760405162461bcd60e51b815260206004820152602d60248201527f455243313936373a206e657720696d706c656d656e746174696f6e206973206e60448201526c1bdd08184818dbdb9d1c9858dd609a1b606482015260840161099e565b6000805160206138fa83398151915280546001600160a01b0319166001600160a01b0392909216919091179055565b612df583612f71565b600082511180612e025750805b156124b0576129a68383612fb1565b6060612e3784848460405180606001604052806029815260200161391a602991396130a5565b90505b9392505050565b6060612e3a838360006040518060400160405280601e81526020017f416464726573733a206c6f772d6c6576656c2063616c6c206661696c656400008152506130a5565b600054610100900460ff16612eac5760405162461bcd60e51b815260040161099e9061387f565b611a2c33612628565b604051636eb1769f60e11b81523060048201526001600160a01b0383811660248301526000919085169063dd62ed3e90604401602060405180830381865afa158015612f05573d6000803e3d6000fd5b505050506040513d601f19601f82011682018060405250810190612f299190613544565b90506129a68463095ea7b360e01b85612f428686613573565b6040516001600160a01b0390921660248301526044820152606401612479565b6060612e3784846000856130a5565b612f7a81612d50565b6040516001600160a01b038216907fbc7cd75a20ee27fd9adebab32041f755214dbc6bffa90cc0225b39da2e5c2d3b90600090a250565b60606001600160a01b0383163b6130195760405162461bcd60e51b815260206004820152602660248201527f416464726573733a2064656c65676174652063616c6c20746f206e6f6e2d636f6044820152651b9d1c9858dd60d21b606482015260840161099e565b600080846001600160a01b03168460405161303491906138ca565b600060405180830381855af49150503d806000811461306f576040519150601f19603f3d011682016040523d82523d6000602084013e613074565b606091505b509150915061309c828260405180606001604052806027815260200161394360279139613182565b95945050505050565b6060824710156131065760405162461bcd60e51b815260206004820152602660248201527f416464726573733a20696e73756666696369656e742062616c616e636520666f6044820152651c8818d85b1b60d21b606482015260840161099e565b600080866001600160a01b0316858760405161312291906138ca565b60006040518083038185875af1925050503d806000811461315f576040519150601f19603f3d011682016040523d82523d6000602084013e613164565b606091505b50915091506131758783838761319b565b925050505b949350505050565b60608315613191575081612e3a565b612e3a8383613210565b6060831561320a578251600003613203576001600160a01b0385163b6132035760405162461bcd60e51b815260206004820152601d60248201527f416464726573733a2063616c6c20746f206e6f6e2d636f6e7472616374000000604482015260640161099e565b508161317a565b61317a83835b8151156132205781518083602001fd5b8060405162461bcd60e51b815260040161099e91906138e6565b60008083601f84011261324c57600080fd5b50813567ffffffffffffffff81111561326457600080fd5b60208301915083602082850101111561327c57600080fd5b9250929050565b60008060008060006080868803121561329b57600080fd5b8535945060208601359350604086013567ffffffffffffffff8111156132c057600080fd5b6132cc8882890161323a565b96999598509660600135949350505050565b80356001600160a01b03811681146132f557600080fd5b919050565b60006020828403121561330c57600080fd5b612e3a826132de565b60006020828403121561332757600080fd5b5035919050565b634e487b7160e01b600052604160045260246000fd5b600082601f83011261335557600080fd5b813567ffffffffffffffff808211156133705761337061332e565b604051601f8301601f19908116603f011681019082821181831017156133985761339861332e565b816040528381528660208588010111156133b157600080fd5b836020870160208301376000602085830101528094505050505092915050565b600080604083850312156133e457600080fd5b6133ed836132de565b9150602083013567ffffffffffffffff81111561340957600080fd5b61341585828601613344565b9150509250929050565b60008060008060008060a0878903121561343857600080fd5b613441876132de565b955061344f602088016132de565b94506040870135935060608701359250608087013567ffffffffffffffff81111561347957600080fd5b61348589828a0161323a565b979a9699509497509295939492505050565b600080600080600060a086880312156134af57600080fd5b6134b8866132de565b94506134c6602087016132de565b93506134d4604087016132de565b94979396509394606081013594506080013592915050565b600080604083850312156134ff57600080fd5b50508035926020909101359150565b6000806000806080858703121561352457600080fd5b505082516020840151604085015160609095015191969095509092509050565b60006020828403121561355657600080fd5b5051919050565b634e487b7160e01b600052601160045260246000fd5b80820180821115611aad57611aad61355d565b81810381811115611aad57611aad61355d565b6020808252600a90820152694e6f742061646d696e2160b01b604082015260600190565b6020808252601f908201527f4d75737420626967676572207468616e206d696e696d756d20616d6f756e7400604082015260600190565b60ff8616815284602082015283604082015260806060820152816080820152818360a0830137600081830160a090810191909152601f909201601f19160101949350505050565b60005b8381101561365657818101518382015260200161363e565b50506000910152565b6000815180845261367781602086016020860161363b565b601f01601f19169290920160200192915050565b6001600160a01b03858116825284166020820152604081018390526080606082018190526000906136be9083018461365f565b9695505050505050565b6000602082840312156136da57600080fd5b81518015158114612e3a57600080fd5b8082028115828204841417611aad57611aad61355d565b6020808252601f908201527f4f6e6c79207661756c742063616e2063616c6c2074686973206d6574686f6400604082015260600190565b6020808252602c908201527f46756e6374696f6e206d7573742062652063616c6c6564207468726f7567682060408201526b19195b1959d85d1958d85b1b60a21b606082015260800190565b6020808252602c908201527f46756e6374696f6e206d7573742062652063616c6c6564207468726f7567682060408201526b6163746976652070726f787960a01b606082015260800190565b6000826137ed57634e487b7160e01b600052601260045260246000fd5b500490565b6000806040838503121561380557600080fd5b505080516020909101519092909150565b6000806000806080858703121561382c57600080fd5b843560ff8116811461383d57600080fd5b93506020850135925060408501359150606085013567ffffffffffffffff81111561386757600080fd5b61387387828801613344565b91505092959194509250565b6020808252602b908201527f496e697469616c697a61626c653a20636f6e7472616374206973206e6f74206960408201526a6e697469616c697a696e6760a81b606082015260800190565b600082516138dc81846020870161363b565b9190910192915050565b602081526000612e3a602083018461365f56fe360894a13ba1a3210667c828492db98dca3e2076cc3735a920a3ca505d382bbc416464726573733a206c6f772d6c6576656c2063616c6c20776974682076616c7565206661696c6564416464726573733a206c6f772d6c6576656c2064656c65676174652063616c6c206661696c65640000000000000000000000005979d7b546e38e414f7e9822514be443a4800529a2646970667358221220d68faf48deec0c465c0cd34cbe46e755745ca6770bca55ee1f1078434cc88edb64736f6c63430008130033",
  "linkReferences": {},
  "deployedLinkReferences": {}
}