{
  "_format": "hh-sol-artifact-1",
  "contractName": "Vault",
  "sourceName": "contracts/Vault.sol",
  "abi": [
    {
      "anonymous": false,
      "inputs": [
        {
          "indexed": false,
          "internalType": "address",
          "name": "previousAdmin",
          "type": "address"
        },
        {
          "indexed": false,
          "internalType": "address",
          "name": "newAdmin",
          "type": "address"
        }
      ],
      "name": "AdminChanged",
      "type": "event"
    },
    {
      "anonymous": false,
      "inputs": [
        {
          "indexed": true,
          "internalType": "address",
          "name": "owner",
          "type": "address"
        },
        {
          "indexed": true,
          "internalType": "address",
          "name": "spender",
          "type": "address"
        },
        {
          "indexed": false,
          "internalType": "uint256",
          "name": "value",
          "type": "uint256"
        }
      ],
      "name": "Approval",
      "type": "event"
    },
    {
      "anonymous": false,
      "inputs": [
        {
          "indexed": true,
          "internalType": "address",
          "name": "beacon",
          "type": "address"
        }
      ],
      "name": "BeaconUpgraded",
      "type": "event"
    },
    {
      "anonymous": false,
      "inputs": [
        {
          "indexed": false,
          "internalType": "uint8",
          "name": "protocolId",
          "type": "uint8"
        },
        {
          "indexed": false,
          "internalType": "address",
          "name": "owner",
          "type": "address"
        },
        {
          "indexed": false,
          "internalType": "address",
          "name": "receiver",
          "type": "address"
        },
        {
          "indexed": false,
          "internalType": "address",
          "name": "token",
          "type": "address"
        },
        {
          "indexed": false,
          "internalType": "uint256",
          "name": "assetsGet",
          "type": "uint256"
        },
        {
          "indexed": false,
          "internalType": "uint256",
          "name": "shares",
          "type": "uint256"
        },
        {
          "indexed": false,
          "internalType": "uint256",
          "name": "flashloanSelector",
          "type": "uint256"
        }
      ],
      "name": "DeleverageWithdraw",
      "type": "event"
    },
    {
      "anonymous": false,
      "inputs": [
        {
          "indexed": true,
          "internalType": "address",
          "name": "sender",
          "type": "address"
        },
        {
          "indexed": true,
          "internalType": "address",
          "name": "owner",
          "type": "address"
        },
        {
          "indexed": false,
          "internalType": "uint256",
          "name": "assets",
          "type": "uint256"
        },
        {
          "indexed": false,
          "internalType": "uint256",
          "name": "shares",
          "type": "uint256"
        }
      ],
      "name": "Deposit",
      "type": "event"
    },
    {
      "anonymous": false,
      "inputs": [
        {
          "indexed": false,
          "internalType": "uint8",
          "name": "version",
          "type": "uint8"
        }
      ],
      "name": "Initialized",
      "type": "event"
    },
    {
      "anonymous": false,
      "inputs": [
        {
          "indexed": true,
          "internalType": "address",
          "name": "previousOwner",
          "type": "address"
        },
        {
          "indexed": true,
          "internalType": "address",
          "name": "newOwner",
          "type": "address"
        }
      ],
      "name": "OwnershipTransferred",
      "type": "event"
    },
    {
      "anonymous": false,
      "inputs": [
        {
          "indexed": false,
          "internalType": "address",
          "name": "account",
          "type": "address"
        }
      ],
      "name": "Paused",
      "type": "event"
    },
    {
      "anonymous": false,
      "inputs": [
        {
          "indexed": true,
          "internalType": "address",
          "name": "from",
          "type": "address"
        },
        {
          "indexed": true,
          "internalType": "address",
          "name": "to",
          "type": "address"
        },
        {
          "indexed": false,
          "internalType": "uint256",
          "name": "value",
          "type": "uint256"
        }
      ],
      "name": "Transfer",
      "type": "event"
    },
    {
      "anonymous": false,
      "inputs": [
        {
          "indexed": false,
          "internalType": "address",
          "name": "account",
          "type": "address"
        }
      ],
      "name": "Unpaused",
      "type": "event"
    },
    {
      "anonymous": false,
      "inputs": [
        {
          "indexed": false,
          "internalType": "uint256",
          "name": "oldDeleverageExitFeeRate",
          "type": "uint256"
        },
        {
          "indexed": false,
          "internalType": "uint256",
          "name": "newDeleverageExitFeeRate",
          "type": "uint256"
        }
      ],
      "name": "UpdateDeleverageExitFeeRate",
      "type": "event"
    },
    {
      "anonymous": false,
      "inputs": [
        {
          "indexed": false,
          "internalType": "uint256",
          "name": "oldExitFeeRate",
          "type": "uint256"
        },
        {
          "indexed": false,
          "internalType": "uint256",
          "name": "newExitFeeRate",
          "type": "uint256"
        }
      ],
      "name": "UpdateExitFeeRate",
      "type": "event"
    },
    {
      "anonymous": false,
      "inputs": [
        {
          "indexed": false,
          "internalType": "address",
          "name": "oldFeeReceiver",
          "type": "address"
        },
        {
          "indexed": false,
          "internalType": "address",
          "name": "newFeeReceiver",
          "type": "address"
        }
      ],
      "name": "UpdateFeeReceiver",
      "type": "event"
    },
    {
      "anonymous": false,
      "inputs": [
        {
          "indexed": false,
          "internalType": "uint256",
          "name": "oldCapacityLimit",
          "type": "uint256"
        },
        {
          "indexed": false,
          "internalType": "uint256",
          "name": "newCapacityLimit",
          "type": "uint256"
        }
      ],
      "name": "UpdateMarketCapacity",
      "type": "event"
    },
    {
      "anonymous": false,
      "inputs": [
        {
          "indexed": false,
          "internalType": "address",
          "name": "oldStrategy",
          "type": "address"
        },
        {
          "indexed": false,
          "internalType": "address",
          "name": "newStrategy",
          "type": "address"
        }
      ],
      "name": "UpdateStrategy",
      "type": "event"
    },
    {
      "anonymous": false,
      "inputs": [
        {
          "indexed": true,
          "internalType": "address",
          "name": "implementation",
          "type": "address"
        }
      ],
      "name": "Upgraded",
      "type": "event"
    },
    {
      "anonymous": false,
      "inputs": [
        {
          "indexed": true,
          "internalType": "address",
          "name": "sender",
          "type": "address"
        },
        {
          "indexed": true,
          "internalType": "address",
          "name": "receiver",
          "type": "address"
        },
        {
          "indexed": true,
          "internalType": "address",
          "name": "owner",
          "type": "address"
        },
        {
          "indexed": false,
          "internalType": "uint256",
          "name": "assets",
          "type": "uint256"
        },
        {
          "indexed": false,
          "internalType": "uint256",
          "name": "shares",
          "type": "uint256"
        }
      ],
      "name": "Withdraw",
      "type": "event"
    },
    {
      "inputs": [],
      "name": "MAX_SAFE_AGGREGATED_RATIO",
      "outputs": [
        {
          "internalType": "uint256",
          "name": "",
          "type": "uint256"
        }
      ],
      "stateMutability": "view",
      "type": "function"
    },
    {
      "inputs": [],
      "name": "MINIMUM_AMOUNT",
      "outputs": [
        {
          "internalType": "uint256",
          "name": "",
          "type": "uint256"
        }
      ],
      "stateMutability": "view",
      "type": "function"
    },
    {
      "inputs": [],
      "name": "MIN_SAFE_AGGREGATED_RATIO",
      "outputs": [
        {
          "internalType": "uint256",
          "name": "",
          "type": "uint256"
        }
      ],
      "stateMutability": "view",
      "type": "function"
    },
    {
      "inputs": [],
      "name": "PERMISSIBLE_LIMIT",
      "outputs": [
        {
          "internalType": "uint256",
          "name": "",
          "type": "uint256"
        }
      ],
      "stateMutability": "view",
      "type": "function"
    },
    {
      "inputs": [],
      "name": "WETH_ADDR",
      "outputs": [
        {
          "internalType": "address",
          "name": "",
          "type": "address"
        }
      ],
      "stateMutability": "view",
      "type": "function"
    },
    {
      "inputs": [],
      "name": "WSTETH_ADDR",
      "outputs": [
        {
          "internalType": "address",
          "name": "",
          "type": "address"
        }
      ],
      "stateMutability": "view",
      "type": "function"
    },
    {
      "inputs": [
        {
          "internalType": "uint256",
          "name": "_marketCapacity",
          "type": "uint256"
        },
        {
          "internalType": "uint256",
          "name": "_exitFeeRate",
          "type": "uint256"
        },
        {
          "internalType": "uint256",
          "name": "_deleverageExitFeeRate",
          "type": "uint256"
        }
      ],
      "name": "__Vault_init",
      "outputs": [],
      "stateMutability": "nonpayable",
      "type": "function"
    },
    {
      "inputs": [
        {
          "internalType": "address",
          "name": "owner",
          "type": "address"
        },
        {
          "internalType": "address",
          "name": "spender",
          "type": "address"
        }
      ],
      "name": "allowance",
      "outputs": [
        {
          "internalType": "uint256",
          "name": "",
          "type": "uint256"
        }
      ],
      "stateMutability": "view",
      "type": "function"
    },
    {
      "inputs": [
        {
          "internalType": "address",
          "name": "spender",
          "type": "address"
        },
        {
          "internalType": "uint256",
          "name": "amount",
          "type": "uint256"
        }
      ],
      "name": "approve",
      "outputs": [
        {
          "internalType": "bool",
          "name": "",
          "type": "bool"
        }
      ],
      "stateMutability": "nonpayable",
      "type": "function"
    },
    {
      "inputs": [],
      "name": "asset",
      "outputs": [
        {
          "internalType": "address",
          "name": "",
          "type": "address"
        }
      ],
      "stateMutability": "view",
      "type": "function"
    },
    {
      "inputs": [],
      "name": "balance",
      "outputs": [
        {
          "internalType": "uint256",
          "name": "",
          "type": "uint256"
        }
      ],
      "stateMutability": "view",
      "type": "function"
    },
    {
      "inputs": [
        {
          "internalType": "address",
          "name": "account",
          "type": "address"
        }
      ],
      "name": "balanceOf",
      "outputs": [
        {
          "internalType": "uint256",
          "name": "",
          "type": "uint256"
        }
      ],
      "stateMutability": "view",
      "type": "function"
    },
    {
      "inputs": [
        {
          "internalType": "uint256",
          "name": "shares",
          "type": "uint256"
        }
      ],
      "name": "convertToAssets",
      "outputs": [
        {
          "internalType": "uint256",
          "name": "assets",
          "type": "uint256"
        }
      ],
      "stateMutability": "view",
      "type": "function"
    },
    {
      "inputs": [
        {
          "internalType": "uint256",
          "name": "assets",
          "type": "uint256"
        }
      ],
      "name": "convertToShares",
      "outputs": [
        {
          "internalType": "uint256",
          "name": "shares",
          "type": "uint256"
        }
      ],
      "stateMutability": "view",
      "type": "function"
    },
    {
      "inputs": [],
      "name": "decimals",
      "outputs": [
        {
          "internalType": "uint8",
          "name": "",
          "type": "uint8"
        }
      ],
      "stateMutability": "view",
      "type": "function"
    },
    {
      "inputs": [
        {
          "internalType": "address",
          "name": "spender",
          "type": "address"
        },
        {
          "internalType": "uint256",
          "name": "subtractedValue",
          "type": "uint256"
        }
      ],
      "name": "decreaseAllowance",
      "outputs": [
        {
          "internalType": "bool",
          "name": "",
          "type": "bool"
        }
      ],
      "stateMutability": "nonpayable",
      "type": "function"
    },
    {
      "inputs": [],
      "name": "deleverageExitFeeRate",
      "outputs": [
        {
          "internalType": "uint256",
          "name": "",
          "type": "uint256"
        }
      ],
      "stateMutability": "view",
      "type": "function"
    },
    {
      "inputs": [
        {
          "internalType": "uint8",
          "name": "_protocolId",
          "type": "uint8"
        },
        {
          "internalType": "address",
          "name": "_token",
          "type": "address"
        },
        {
          "internalType": "uint256",
          "name": "_assets",
          "type": "uint256"
        },
        {
          "internalType": "bytes",
          "name": "_swapData",
          "type": "bytes"
        },
        {
          "internalType": "uint256",
          "name": "_swapGetMin",
          "type": "uint256"
        },
        {
          "internalType": "uint256",
          "name": "_flashloanSelector",
          "type": "uint256"
        },
        {
          "internalType": "address",
          "name": "_owner",
          "type": "address"
        },
        {
          "internalType": "address",
          "name": "_receiver",
          "type": "address"
        }
      ],
      "name": "deleverageWithdraw",
      "outputs": [
        {
          "internalType": "uint256",
          "name": "shares",
          "type": "uint256"
        }
      ],
      "stateMutability": "nonpayable",
      "type": "function"
    },
    {
      "inputs": [
        {
          "internalType": "uint256",
          "name": "_assets",
          "type": "uint256"
        },
        {
          "internalType": "address",
          "name": "_receiver",
          "type": "address"
        }
      ],
      "name": "deposit",
      "outputs": [
        {
          "internalType": "uint256",
          "name": "shares",
          "type": "uint256"
        }
      ],
      "stateMutability": "nonpayable",
      "type": "function"
    },
    {
      "inputs": [],
      "name": "exitFeeRate",
      "outputs": [
        {
          "internalType": "uint256",
          "name": "",
          "type": "uint256"
        }
      ],
      "stateMutability": "view",
      "type": "function"
    },
    {
      "inputs": [],
      "name": "feeReceiver",
      "outputs": [
        {
          "internalType": "address",
          "name": "",
          "type": "address"
        }
      ],
      "stateMutability": "view",
      "type": "function"
    },
    {
      "inputs": [
        {
          "internalType": "uint256",
          "name": "_wstETHAmount",
          "type": "uint256"
        }
      ],
      "name": "getDeleverageWithdrawAmount",
      "outputs": [
        {
          "internalType": "uint256",
          "name": "amount",
          "type": "uint256"
        }
      ],
      "stateMutability": "view",
      "type": "function"
    },
    {
      "inputs": [
        {
          "internalType": "uint256",
          "name": "_wstETHAmount",
          "type": "uint256"
        }
      ],
      "name": "getDeleverageWithdrawFee",
      "outputs": [
        {
          "internalType": "uint256",
          "name": "",
          "type": "uint256"
        }
      ],
      "stateMutability": "view",
      "type": "function"
    },
    {
      "inputs": [],
      "name": "getVersion",
      "outputs": [
        {
          "internalType": "string",
          "name": "",
          "type": "string"
        }
      ],
      "stateMutability": "pure",
      "type": "function"
    },
    {
      "inputs": [
        {
          "internalType": "uint256",
          "name": "_wstETHAmount",
          "type": "uint256"
        }
      ],
      "name": "getWithdrawFee",
      "outputs": [
        {
          "internalType": "uint256",
          "name": "",
          "type": "uint256"
        }
      ],
      "stateMutability": "view",
      "type": "function"
    },
    {
      "inputs": [
        {
          "internalType": "address",
          "name": "spender",
          "type": "address"
        },
        {
          "internalType": "uint256",
          "name": "addedValue",
          "type": "uint256"
        }
      ],
      "name": "increaseAllowance",
      "outputs": [
        {
          "internalType": "bool",
          "name": "",
          "type": "bool"
        }
      ],
      "stateMutability": "nonpayable",
      "type": "function"
    },
    {
      "inputs": [],
      "name": "lastTimestamp",
      "outputs": [
        {
          "internalType": "uint256",
          "name": "",
          "type": "uint256"
        }
      ],
      "stateMutability": "view",
      "type": "function"
    },
    {
      "inputs": [],
      "name": "marketCapacity",
      "outputs": [
        {
          "internalType": "uint256",
          "name": "",
          "type": "uint256"
        }
      ],
      "stateMutability": "view",
      "type": "function"
    },
    {
      "inputs": [
        {
          "internalType": "address",
          "name": "",
          "type": "address"
        }
      ],
      "name": "maxDeposit",
      "outputs": [
        {
          "internalType": "uint256",
          "name": "",
          "type": "uint256"
        }
      ],
      "stateMutability": "view",
      "type": "function"
    },
    {
      "inputs": [
        {
          "internalType": "address",
          "name": "",
          "type": "address"
        }
      ],
      "name": "maxMint",
      "outputs": [
        {
          "internalType": "uint256",
          "name": "",
          "type": "uint256"
        }
      ],
      "stateMutability": "view",
      "type": "function"
    },
    {
      "inputs": [
        {
          "internalType": "address",
          "name": "owner",
          "type": "address"
        }
      ],
      "name": "maxRedeem",
      "outputs": [
        {
          "internalType": "uint256",
          "name": "",
          "type": "uint256"
        }
      ],
      "stateMutability": "view",
      "type": "function"
    },
    {
      "inputs": [
        {
          "internalType": "address",
          "name": "owner",
          "type": "address"
        }
      ],
      "name": "maxWithdraw",
      "outputs": [
        {
          "internalType": "uint256",
          "name": "",
          "type": "uint256"
        }
      ],
      "stateMutability": "view",
      "type": "function"
    },
    {
      "inputs": [
        {
          "internalType": "uint256",
          "name": "_shares",
          "type": "uint256"
        },
        {
          "internalType": "address",
          "name": "_receiver",
          "type": "address"
        }
      ],
      "name": "mint",
      "outputs": [
        {
          "internalType": "uint256",
          "name": "assets",
          "type": "uint256"
        }
      ],
      "stateMutability": "nonpayable",
      "type": "function"
    },
    {
      "inputs": [],
      "name": "name",
      "outputs": [
        {
          "internalType": "string",
          "name": "",
          "type": "string"
        }
      ],
      "stateMutability": "view",
      "type": "function"
    },
    {
      "inputs": [],
      "name": "owner",
      "outputs": [
        {
          "internalType": "address",
          "name": "",
          "type": "address"
        }
      ],
      "stateMutability": "view",
      "type": "function"
    },
    {
      "inputs": [],
      "name": "pause",
      "outputs": [],
      "stateMutability": "nonpayable",
      "type": "function"
    },
    {
      "inputs": [],
      "name": "paused",
      "outputs": [
        {
          "internalType": "bool",
          "name": "",
          "type": "bool"
        }
      ],
      "stateMutability": "view",
      "type": "function"
    },
    {
      "inputs": [
        {
          "internalType": "uint256",
          "name": "assets",
          "type": "uint256"
        }
      ],
      "name": "previewDeposit",
      "outputs": [
        {
          "internalType": "uint256",
          "name": "",
          "type": "uint256"
        }
      ],
      "stateMutability": "view",
      "type": "function"
    },
    {
      "inputs": [
        {
          "internalType": "uint256",
          "name": "shares",
          "type": "uint256"
        }
      ],
      "name": "previewMint",
      "outputs": [
        {
          "internalType": "uint256",
          "name": "",
          "type": "uint256"
        }
      ],
      "stateMutability": "view",
      "type": "function"
    },
    {
      "inputs": [
        {
          "internalType": "uint256",
          "name": "shares",
          "type": "uint256"
        }
      ],
      "name": "previewRedeem",
      "outputs": [
        {
          "internalType": "uint256",
          "name": "",
          "type": "uint256"
        }
      ],
      "stateMutability": "view",
      "type": "function"
    },
    {
      "inputs": [
        {
          "internalType": "uint256",
          "name": "assets",
          "type": "uint256"
        }
      ],
      "name": "previewWithdraw",
      "outputs": [
        {
          "internalType": "uint256",
          "name": "",
          "type": "uint256"
        }
      ],
      "stateMutability": "view",
      "type": "function"
    },
    {
      "inputs": [],
      "name": "proxiableUUID",
      "outputs": [
        {
          "internalType": "bytes32",
          "name": "",
          "type": "bytes32"
        }
      ],
      "stateMutability": "view",
      "type": "function"
    },
    {
      "inputs": [
        {
          "internalType": "uint256",
          "name": "_shares",
          "type": "uint256"
        },
        {
          "internalType": "address",
          "name": "_receiver",
          "type": "address"
        },
        {
          "internalType": "address",
          "name": "_owner",
          "type": "address"
        }
      ],
      "name": "redeem",
      "outputs": [
        {
          "internalType": "uint256",
          "name": "assetsAfterFee",
          "type": "uint256"
        }
      ],
      "stateMutability": "nonpayable",
      "type": "function"
    },
    {
      "inputs": [],
      "name": "renounceOwnership",
      "outputs": [],
      "stateMutability": "nonpayable",
      "type": "function"
    },
    {
      "inputs": [],
      "name": "strategy",
      "outputs": [
        {
          "internalType": "contract IStrategy",
          "name": "",
          "type": "address"
        }
      ],
      "stateMutability": "view",
      "type": "function"
    },
    {
      "inputs": [
        {
          "internalType": "address",
          "name": "_token",
          "type": "address"
        }
      ],
      "name": "sweep",
      "outputs": [],
      "stateMutability": "nonpayable",
      "type": "function"
    },
    {
      "inputs": [],
      "name": "symbol",
      "outputs": [
        {
          "internalType": "string",
          "name": "",
          "type": "string"
        }
      ],
      "stateMutability": "view",
      "type": "function"
    },
    {
      "inputs": [],
      "name": "totalAssets",
      "outputs": [
        {
          "internalType": "uint256",
          "name": "",
          "type": "uint256"
        }
      ],
      "stateMutability": "view",
      "type": "function"
    },
    {
      "inputs": [],
      "name": "totalLockedAmount",
      "outputs": [
        {
          "internalType": "uint256",
          "name": "",
          "type": "uint256"
        }
      ],
      "stateMutability": "view",
      "type": "function"
    },
    {
      "inputs": [],
      "name": "totalSupply",
      "outputs": [
        {
          "internalType": "uint256",
          "name": "",
          "type": "uint256"
        }
      ],
      "stateMutability": "view",
      "type": "function"
    },
    {
      "inputs": [
        {
          "internalType": "address",
          "name": "to",
          "type": "address"
        },
        {
          "internalType": "uint256",
          "name": "amount",
          "type": "uint256"
        }
      ],
      "name": "transfer",
      "outputs": [
        {
          "internalType": "bool",
          "name": "",
          "type": "bool"
        }
      ],
      "stateMutability": "nonpayable",
      "type": "function"
    },
    {
      "inputs": [
        {
          "internalType": "address",
          "name": "from",
          "type": "address"
        },
        {
          "internalType": "address",
          "name": "to",
          "type": "address"
        },
        {
          "internalType": "uint256",
          "name": "amount",
          "type": "uint256"
        }
      ],
      "name": "transferFrom",
      "outputs": [
        {
          "internalType": "bool",
          "name": "",
          "type": "bool"
        }
      ],
      "stateMutability": "nonpayable",
      "type": "function"
    },
    {
      "inputs": [
        {
          "internalType": "address",
          "name": "newOwner",
          "type": "address"
        }
      ],
      "name": "transferOwnership",
      "outputs": [],
      "stateMutability": "nonpayable",
      "type": "function"
    },
    {
      "inputs": [],
      "name": "unpause",
      "outputs": [],
      "stateMutability": "nonpayable",
      "type": "function"
    },
    {
      "inputs": [
        {
          "internalType": "uint256",
          "name": "_deleverageExitFeeRate",
          "type": "uint256"
        }
      ],
      "name": "updateDeleverageExitFeeRate",
      "outputs": [],
      "stateMutability": "nonpayable",
      "type": "function"
    },
    {
      "inputs": [
        {
          "internalType": "uint256",
          "name": "_exitFeeRate",
          "type": "uint256"
        }
      ],
      "name": "updateExitFeeRate",
      "outputs": [],
      "stateMutability": "nonpayable",
      "type": "function"
    },
    {
      "inputs": [
        {
          "internalType": "uint256",
          "name": "_newCapacityLimit",
          "type": "uint256"
        }
      ],
      "name": "updateMarketCapacity",
      "outputs": [],
      "stateMutability": "nonpayable",
      "type": "function"
    },
    {
      "inputs": [
        {
          "internalType": "address",
          "name": "_newStrategy",
          "type": "address"
        }
      ],
      "name": "updateStrategy",
      "outputs": [],
      "stateMutability": "nonpayable",
      "type": "function"
    },
    {
      "inputs": [
        {
          "internalType": "address",
          "name": "newImplementation",
          "type": "address"
        }
      ],
      "name": "upgradeTo",
      "outputs": [],
      "stateMutability": "nonpayable",
      "type": "function"
    },
    {
      "inputs": [
        {
          "internalType": "address",
          "name": "newImplementation",
          "type": "address"
        },
        {
          "internalType": "bytes",
          "name": "data",
          "type": "bytes"
        }
      ],
      "name": "upgradeToAndCall",
      "outputs": [],
      "stateMutability": "payable",
      "type": "function"
    },
    {
      "inputs": [
        {
          "internalType": "uint256",
          "name": "_assets",
          "type": "uint256"
        },
        {
          "internalType": "address",
          "name": "_receiver",
          "type": "address"
        },
        {
          "internalType": "address",
          "name": "_owner",
          "type": "address"
        }
      ],
      "name": "withdraw",
      "outputs": [
        {
          "internalType": "uint256",
          "name": "shares",
          "type": "uint256"
        }
      ],
      "stateMutability": "nonpayable",
      "type": "function"
    },
    {
      "stateMutability": "payable",
      "type": "receive"
    }
  ],
  "bytecode": "0x60a06040523060805234801561001457600080fd5b50608051613bd161004c60003960008181610e1301528181610e5301528181610f4401528181610f8401526110170152613bd16000f3fe6080604052600436106103a65760003560e01c8063715018a6116101e7578063b3f006741161010d578063d905777e116100a0578063ef2cd24b1161006f578063ef2cd24b14610a87578063ef8b30f7146109bf578063f2fde38b14610aa3578063ff29375c14610ac357600080fd5b8063d905777e146109ff578063daccaf6314610a1f578063dd62ed3e14610a3f578063e107e02714610a5f57600080fd5b8063ba087652116100dc578063ba0876521461097d578063c63d75b61461099d578063c6e6f592146109bf578063ce96cb77146109df57600080fd5b8063b3f0067414610910578063b460af9414610931578063b6106f3f14610951578063b69ef8a81461096857600080fd5b806394bf804d11610185578063a8c62e7611610154578063a8c62e7614610894578063a9059cbb146108b5578063af56c207146108d5578063b3d7f6b9146108f057600080fd5b806394bf804d1461081f57806395d89b411461083f578063a457c2d714610854578063a4c611ab1461087457600080fd5b806382dfc5f7116101c157806382dfc5f7146107a45780638456cb59146107cc5780638da5cb5b146107e15780638e3e721f146107ff57600080fd5b8063715018a614610758578063734ae6381461076d5780637f6c81b71461078457600080fd5b80632ca63630116102cc578063402d267d1161026a5780635c975abb116102395780635c975abb146106c957806365ae14b5146106e15780636e553f651461070157806370a082311461072157600080fd5b8063402d267d146106815780634cdad506146104355780634f1ef286146106a157806352d1902d146106b457600080fd5b80633659cfe6116102a65780633659cfe6146105f957806338d52e0f14610619578063395093511461064c5780633f4ba83a1461066c57600080fd5b80632ca636301461058f578063308b2b81146105b0578063313ce567146105cc57600080fd5b80630d8e6e2c1161034457806323b872dd1161031357806323b872dd14610518578063257d9bb81461053857806325bd41421461054f57806329c23e4a1461056f57600080fd5b80630d8e6e2c146104a557806318160ddd146104d457806319d8ac61146104ea5780631dc518871461050157600080fd5b806306fdde031161038057806306fdde031461041357806307a2d13a14610435578063095ea7b3146104555780630a28a4771461048557600080fd5b806301681a62146103b257806301e1d114146103d457806305a9f274146103fc57600080fd5b366103ad57005b600080fd5b3480156103be57600080fd5b506103d26103cd366004613467565b610ae3565b005b3480156103e057600080fd5b506103e9610ba5565b6040519081526020015b60405180910390f35b34801561040857600080fd5b506103e96101985481565b34801561041f57600080fd5b50610428610c4b565b6040516103f391906134d2565b34801561044157600080fd5b506103e96104503660046134e5565b610cde565b34801561046157600080fd5b506104756104703660046134fe565b610cf1565b60405190151581526020016103f3565b34801561049157600080fd5b506103e96104a03660046134e5565b610d09565b3480156104b157600080fd5b5060408051808201909152600681526576302e302e3160d01b6020820152610428565b3480156104e057600080fd5b50610130546103e9565b3480156104f657600080fd5b506103e96101975481565b34801561050d57600080fd5b506103e96101965481565b34801561052457600080fd5b50610475610533366004613528565b610d16565b34801561054457600080fd5b506103e96298968081565b34801561055b57600080fd5b506103d261056a3660046134e5565b610d3c565b34801561057b57600080fd5b506103e961058a3660046134e5565b610dea565b34801561059b57600080fd5b506103e96105aa3660046134e5565b50600090565b3480156105bc57600080fd5b506103e96709b6e64a8ec6000081565b3480156105d857600080fd5b5061016054600160a01b900460ff1660405160ff90911681526020016103f3565b34801561060557600080fd5b506103d2610614366004613467565b610e09565b34801561062557600080fd5b50610160546001600160a01b03165b6040516001600160a01b0390911681526020016103f3565b34801561065857600080fd5b506104756106673660046134fe565b610ee8565b34801561067857600080fd5b506103d2610f0a565b34801561068d57600080fd5b506103e961069c366004613467565b610f1c565b6103d26106af366004613607565b610f3a565b3480156106c057600080fd5b506103e961100a565b3480156106d557600080fd5b5060c95460ff16610475565b3480156106ed57600080fd5b506103e96106fc366004613655565b6110bd565b34801561070d57600080fd5b506103e961071c3660046136fa565b6112a4565b34801561072d57600080fd5b506103e961073c366004613467565b6001600160a01b0316600090815261012e602052604090205490565b34801561076457600080fd5b506103d261139e565b34801561077957600080fd5b506103e96101945481565b34801561079057600080fd5b506103d261079f3660046134e5565b6113b0565b3480156107b057600080fd5b506106347382af49447d8a07e3bd95bd0d56f35241523fbab181565b3480156107d857600080fd5b506103d261143c565b3480156107ed57600080fd5b506033546001600160a01b0316610634565b34801561080b57600080fd5b506103d261081a366004613726565b61144c565b34801561082b57600080fd5b506103e961083a3660046136fa565b6116e8565b34801561084b57600080fd5b50610428611704565b34801561086057600080fd5b5061047561086f3660046134fe565b611714565b34801561088057600080fd5b506103d261088f3660046134e5565b61179a565b3480156108a057600080fd5b5061019254610634906001600160a01b031681565b3480156108c157600080fd5b506104756108d03660046134fe565b611813565b3480156108e157600080fd5b506103e966071afd498d000081565b3480156108fc57600080fd5b506103e961090b3660046134e5565b611821565b34801561091c57600080fd5b5061019354610634906001600160a01b031681565b34801561093d57600080fd5b506103e961094c366004613752565b61182e565b34801561095d57600080fd5b506103e96101955481565b34801561097457600080fd5b506103e96119b5565b34801561098957600080fd5b506103e9610998366004613752565b611a23565b3480156109a957600080fd5b506103e96109b8366004613467565b5060001990565b3480156109cb57600080fd5b506103e96109da3660046134e5565b611b4b565b3480156109eb57600080fd5b506103e96109fa366004613467565b611b58565b348015610a0b57600080fd5b506103e9610a1a366004613467565b611b7d565b348015610a2b57600080fd5b506103d2610a3a366004613467565b611b9c565b348015610a4b57600080fd5b506103e9610a5a36600461378e565b611c71565b348015610a6b57600080fd5b50610634735979d7b546e38e414f7e9822514be443a480052981565b348015610a9357600080fd5b506103e9670d2f13f7789f000081565b348015610aaf57600080fd5b506103d2610abe366004613467565b611c9d565b348015610acf57600080fd5b506103e9610ade3660046134e5565b611d13565b610aeb611d28565b6040516370a0823160e01b81523060048201526000906001600160a01b038316906370a0823190602401602060405180830381865afa158015610b32573d6000803e3d6000fd5b505050506040513d601f19601f82011682018060405250810190610b5691906137b8565b9050610b7e610b6d6033546001600160a01b031690565b6001600160a01b0384169083611d82565b478015610ba057610ba0610b9a6033546001600160a01b031690565b82611dd4565b505050565b6000670de0b6b3a7640000610bba6101305490565b61019260009054906101000a90046001600160a01b03166001600160a01b0316639e65741e6040518163ffffffff1660e01b8152600401602060405180830381865afa158015610c0e573d6000803e3d6000fd5b505050506040513d601f19601f82011682018060405250810190610c3291906137b8565b610c3c91906137e7565b610c469190613814565b905090565b60606101318054610c5b90613836565b80601f0160208091040260200160405190810160405280929190818152602001828054610c8790613836565b8015610cd45780601f10610ca957610100808354040283529160200191610cd4565b820191906000526020600020905b815481529060010190602001808311610cb757829003601f168201915b5050505050905090565b6000610ceb826000611eed565b92915050565b600033610cff818585611f25565b5060019392505050565b6000610ceb82600161204a565b600033610d2485828561207d565b610d2f8585856120f1565b60019150505b9392505050565b610d44611d28565b60018110158015610d56575060788111155b610da75760405162461bcd60e51b815260206004820152601b60248201527f4578697420666565206578636565647320746865206c696d697421000000000060448201526064015b60405180910390fd5b6101955460408051918252602082018390527f394967f6fe403cda0905b23e81b928c5ca79107000b1404c6b3185442f05213c910160405180910390a161019555565b6000806127106101955484610dff91906137e7565b610d359190613814565b6001600160a01b037f0000000000000000000000000000000000000000000000000000000000000000163003610e515760405162461bcd60e51b8152600401610d9e90613870565b7f00000000000000000000000000000000000000000000000000000000000000006001600160a01b0316610e9a600080516020613b55833981519152546001600160a01b031690565b6001600160a01b031614610ec05760405162461bcd60e51b8152600401610d9e906138bc565b610ec98161229e565b60408051600080825260208201909252610ee5918391906122a6565b50565b600033610cff818585610efb8383611c71565b610f059190613908565b611f25565b610f12611d28565b610f1a612411565b565b6000610f26612463565b610f31576000610ceb565b60001992915050565b6001600160a01b037f0000000000000000000000000000000000000000000000000000000000000000163003610f825760405162461bcd60e51b8152600401610d9e90613870565b7f00000000000000000000000000000000000000000000000000000000000000006001600160a01b0316610fcb600080516020613b55833981519152546001600160a01b031690565b6001600160a01b031614610ff15760405162461bcd60e51b8152600401610d9e906138bc565b610ffa8261229e565b611006828260016122a6565b5050565b6000306001600160a01b037f000000000000000000000000000000000000000000000000000000000000000016146110aa5760405162461bcd60e51b815260206004820152603860248201527f555550535570677261646561626c653a206d757374206e6f742062652063616c60448201527f6c6564207468726f7567682064656c656761746563616c6c00000000000000006064820152608401610d9e565b50600080516020613b5583398151915290565b60006110c761247e565b6110cf6124c4565b60001987036110e8576110e183611b58565b9650611140565b6110f183611b58565b8711156111405760405162461bcd60e51b815260206004820152601f60248201527f455243343632363a207769746864726177206d6f7265207468616e206d6178006044820152606401610d9e565b61114987610d09565b9050600061115688611d13565b611160908961391b565b9050336001600160a01b0385161461117d5761117d84338461207d565b61019254604051632e0b2c8d60e11b81526000916001600160a01b031690635c16591a906111b5908e9086908d908d9060040161392e565b6020604051808303816000875af11580156111d4573d6000803e3d6000fd5b505050506040513d601f19601f820116820180604052508101906111f891906137b8565b9050611204858461251d565b611223735979d7b546e38e414f7e9822514be443a48005298583611d82565b6040805160ff8d1681526001600160a01b038781166020830152868116828401528c1660608201526080810183905260a0810185905260c0810188905290517fbf42197cea68e17a6606f4c97561623fe935aa499de73253b38e5b0c5cbbc1a99181900360e00190a15050611298600160fb55565b98975050505050505050565b60006112ae61247e565b6112b66124c4565b629896808310156113095760405162461bcd60e51b815260206004820152601f60248201527f4d75737420626967676572207468616e206d696e696d756d20616d6f756e74006044820152606401610d9e565b6000198303611388576040516370a0823160e01b8152336004820152735979d7b546e38e414f7e9822514be443a4800529906370a0823190602401602060405180830381865afa158015611361573d6000803e3d6000fd5b505050506040513d601f19601f8201168201806040525081019061138591906137b8565b92505b6113928383612654565b9050610ceb600160fb55565b6113a6611d28565b610f1a60006126c7565b6113b8611d28565b6101945481116113f95760405162461bcd60e51b815260206004820152600c60248201526b556e737570706f727465642160a01b6044820152606401610d9e565b6101945460408051918252602082018390527f7f3306669f28a6aa13d0f709be2bd4f3e21d2f37aee9358846a50e1988ee4832910160405180910390a161019455565b611444611d28565b610f1a612719565b600054610100900460ff161580801561146c5750600054600160ff909116105b806114865750303b158015611486575060005460ff166001145b6114e95760405162461bcd60e51b815260206004820152602e60248201527f496e697469616c697a61626c653a20636f6e747261637420697320616c72656160448201526d191e481a5b9a5d1a585b1a5e995960921b6064820152608401610d9e565b6000805460ff19166001179055801561150c576000805461ff0019166101001790555b611514612756565b61151c612785565b611571604051806040016040528060168152602001751dd155120b5ddcdd115512081d985d5b1d081c1bdbdb60521b815250604051806040016040528060058152602001640e4de8aa8960db1b8152506127ac565b61158e735979d7b546e38e414f7e9822514be443a48005296127dd565b68056bc75e2d6310000084116115de5760405162461bcd60e51b815260206004820152601560248201527457726f6e67206d61726b657443617061636974792160581b6044820152606401610d9e565b610194849055600183108015906115f6575060788311155b6116425760405162461bcd60e51b815260206004820152601b60248201527f4578697420666565206578636565647320746865206c696d69742100000000006044820152606401610d9e565b6101958390556001821080159061165a575060788211155b6116765760405162461bcd60e51b8152600401610d9e90613961565b610196829055426101975533600090815261012d60205260409020805460ff1916600117905580156116e2576000805461ff0019169055604051600181527f7f26b83ff96e1f2b6a682f133852f6798a09c465da95921460cefb38474024989060200160405180910390a15b50505050565b60006116f261247e565b6116fa6124c4565b611392838361280d565b60606101328054610c5b90613836565b600033816117228286611c71565b9050838110156117825760405162461bcd60e51b815260206004820152602560248201527f45524332303a2064656372656173656420616c6c6f77616e63652062656c6f77604482015264207a65726f60d81b6064820152608401610d9e565b61178f8286868403611f25565b506001949350505050565b6117a2611d28565b600181101580156117b4575060788111155b6117d05760405162461bcd60e51b8152600401610d9e90613961565b6101965460408051918252602082018390527fb96285ed1b61973efc25abef1b7e839fba579e6ff4aa89f46caf0ad6a532e958910160405180910390a161019655565b600033610cff8185856120f1565b6000610ceb826001611eed565b600061183861247e565b6118406124c4565b629896808410156118935760405162461bcd60e51b815260206004820152601f60248201527f4d75737420626967676572207468616e206d696e696d756d20616d6f756e74006044820152606401610d9e565b60001984036118ac576118a582611b58565b9350611904565b6118b582611b58565b8411156119045760405162461bcd60e51b815260206004820152601f60248201527f455243343632363a207769746864726177206d6f7265207468616e206d6178006044820152606401610d9e565b61190d84610d09565b9050600061191a85610dea565b611924908661391b565b61019254604051632e1a7d4d60e01b8152600481018390529192506000916001600160a01b0390911690632e1a7d4d906024016020604051808303816000875af1158015611976573d6000803e3d6000fd5b505050506040513d601f19601f8201168201806040525081019061199a91906137b8565b90506119a93386868487612827565b5050610d35600160fb55565b6101925460408051628bb5fb60e41b815290516000926001600160a01b0316916308bb5fb09160048083019260209291908290030181865afa1580156119ff573d6000803e3d6000fd5b505050506040513d601f19601f82011682018060405250810190610c4691906137b8565b6000611a2d61247e565b611a356124c4565b6000198403611a4e57611a4782611b7d565b9350611aa6565b611a5782611b7d565b841115611aa65760405162461bcd60e51b815260206004820152601d60248201527f455243343632363a2072656465656d206d6f7265207468616e206d61780000006044820152606401610d9e565b6000611ab185610cde565b9050611abc81610dea565b611ac6908261391b565b61019254604051632e1a7d4d60e01b8152600481018390529193506000916001600160a01b0390911690632e1a7d4d906024016020604051808303816000875af1158015611b18573d6000803e3d6000fd5b505050506040513d601f19601f82011682018060405250810190611b3c91906137b8565b90506119a9338686848a612827565b6000610ceb82600061204a565b6001600160a01b038116600090815261012e6020526040812054610ceb906000611eed565b6001600160a01b038116600090815261012e6020526040812054610ceb565b611ba4611d28565b6001600160a01b038116611bec5760405162461bcd60e51b815260206004820152600f60248201526e5374726174656779206572726f722160881b6044820152606401610d9e565b61019254604080516001600160a01b03928316815291831660208301527f1e0f9bc8b0f77d9ae5d0ad2b0a996f775d47a5d0b473e464166e7d559f384734910160405180910390a161019280546001600160a01b0319166001600160a01b038316179055610ee5735979d7b546e38e414f7e9822514be443a4800529826000196128d4565b6001600160a01b03918216600090815261012f6020908152604080832093909416825291909152205490565b611ca5611d28565b6001600160a01b038116611d0a5760405162461bcd60e51b815260206004820152602660248201527f4f776e61626c653a206e6577206f776e657220697320746865207a65726f206160448201526564647265737360d01b6064820152608401610d9e565b610ee5816126c7565b6000806127106101965484610dff91906137e7565b6033546001600160a01b03163314610f1a5760405162461bcd60e51b815260206004820181905260248201527f4f776e61626c653a2063616c6c6572206973206e6f7420746865206f776e65726044820152606401610d9e565b604080516001600160a01b038416602482015260448082018490528251808303909101815260649091019091526020810180516001600160e01b031663a9059cbb60e01b179052610ba09084906129b9565b80471015611e245760405162461bcd60e51b815260206004820152601d60248201527f416464726573733a20696e73756666696369656e742062616c616e63650000006044820152606401610d9e565b6000826001600160a01b03168260405160006040518083038185875af1925050503d8060008114611e71576040519150601f19603f3d011682016040523d82523d6000602084013e611e76565b606091505b5050905080610ba05760405162461bcd60e51b815260206004820152603a60248201527f416464726573733a20756e61626c6520746f2073656e642076616c75652c207260448201527f6563697069656e74206d617920686176652072657665727465640000000000006064820152608401610d9e565b600080611efa6101305490565b90508015611f1b57611f16611f0d610ba5565b85908386612a8e565b611f1d565b835b949350505050565b6001600160a01b038316611f875760405162461bcd60e51b8152602060048201526024808201527f45524332303a20617070726f76652066726f6d20746865207a65726f206164646044820152637265737360e01b6064820152608401610d9e565b6001600160a01b038216611fe85760405162461bcd60e51b815260206004820152602260248201527f45524332303a20617070726f766520746f20746865207a65726f206164647265604482015261737360f01b6064820152608401610d9e565b6001600160a01b03838116600081815261012f602090815260408083209487168084529482529182902085905590518481527f8c5be1e5ebec7d5bd14f71427d1e84f3dd0314c0f7b2291e5b200ac8c7c3b925910160405180910390a3505050565b6000806120576101305490565b9050831580612064575080155b611f1b57611f1681612074610ba5565b86919086612a8e565b60006120898484611c71565b905060001981146116e257818110156120e45760405162461bcd60e51b815260206004820152601d60248201527f45524332303a20696e73756666696369656e7420616c6c6f77616e63650000006044820152606401610d9e565b6116e28484848403611f25565b6001600160a01b0383166121555760405162461bcd60e51b815260206004820152602560248201527f45524332303a207472616e736665722066726f6d20746865207a65726f206164604482015264647265737360d81b6064820152608401610d9e565b6001600160a01b0382166121b75760405162461bcd60e51b815260206004820152602360248201527f45524332303a207472616e7366657220746f20746865207a65726f206164647260448201526265737360e81b6064820152608401610d9e565b6001600160a01b038316600090815261012e6020526040902054818110156122305760405162461bcd60e51b815260206004820152602660248201527f45524332303a207472616e7366657220616d6f756e7420657863656564732062604482015265616c616e636560d01b6064820152608401610d9e565b6001600160a01b03808516600081815261012e602052604080822086860390559286168082529083902080548601905591517fddf252ad1be2c89b69c2b068fc378daa952ba7f163c4a11628f55a4df523b3ef906122919086815260200190565b60405180910390a36116e2565b610ee5611d28565b7f4910fdfa16fed3260ed0e7147f7cc6da11a60208b5b9406d12a635614ffd91435460ff16156122d957610ba083612aeb565b826001600160a01b03166352d1902d6040518163ffffffff1660e01b8152600401602060405180830381865afa925050508015612333575060408051601f3d908101601f19168201909252612330918101906137b8565b60015b6123965760405162461bcd60e51b815260206004820152602e60248201527f45524331393637557067726164653a206e657720696d706c656d656e7461746960448201526d6f6e206973206e6f74205555505360901b6064820152608401610d9e565b600080516020613b5583398151915281146124055760405162461bcd60e51b815260206004820152602960248201527f45524331393637557067726164653a20756e737570706f727465642070726f786044820152681a58589b195555525160ba1b6064820152608401610d9e565b50610ba0838383612b87565b612419612bac565b60c9805460ff191690557f5db9ee0a495bf2e6ff9c91a7834c1ba4fdd244a5e8aa4e537bd38aeae4b073aa335b6040516001600160a01b03909116815260200160405180910390a1565b60008061246e610ba5565b1180610c46575050610130541590565b60c95460ff1615610f1a5760405162461bcd60e51b815260206004820152601060248201526f14185d5cd8589b194e881c185d5cd95960821b6044820152606401610d9e565b600260fb54036125165760405162461bcd60e51b815260206004820152601f60248201527f5265656e7472616e637947756172643a207265656e7472616e742063616c6c006044820152606401610d9e565b600260fb55565b6001600160a01b03821661257d5760405162461bcd60e51b815260206004820152602160248201527f45524332303a206275726e2066726f6d20746865207a65726f206164647265736044820152607360f81b6064820152608401610d9e565b6001600160a01b038216600090815261012e6020526040902054818110156125f25760405162461bcd60e51b815260206004820152602260248201527f45524332303a206275726e20616d6f756e7420657863656564732062616c616e604482015261636560f01b6064820152608401610d9e565b6001600160a01b038316600081815261012e60209081526040808320868603905561013080548790039055518581529192917fddf252ad1be2c89b69c2b068fc378daa952ba7f163c4a11628f55a4df523b3ef910160405180910390a3505050565b600061265f82610f1c565b8311156126ae5760405162461bcd60e51b815260206004820152601e60248201527f455243343632363a206465706f736974206d6f7265207468616e206d617800006044820152606401610d9e565b60006126b984611b4b565b9050610d3533848684612bf5565b603380546001600160a01b038381166001600160a01b0319831681179093556040519116919082907f8be0079c531659141344cd1fd0a4f28419497f9722a3daafe3b4186f6b6457e090600090a35050565b61272161247e565b60c9805460ff191660011790557f62e78cea01bee320cd4e420270b5ea74000d11b0c9f74754ebdbfc544b05a2586124463390565b600054610100900460ff1661277d5760405162461bcd60e51b8152600401610d9e906139a7565b610f1a612d5b565b600054610100900460ff16610f1a5760405162461bcd60e51b8152600401610d9e906139a7565b600054610100900460ff166127d35760405162461bcd60e51b8152600401610d9e906139a7565b6110068282612d8b565b600054610100900460ff166128045760405162461bcd60e51b8152600401610d9e906139a7565b610ee581612dcd565b60008061281984611821565b9050610d3533848387612bf5565b826001600160a01b0316856001600160a01b03161461284b5761284b83868361207d565b612855838261251d565b6101605461286d906001600160a01b03168584612e53565b826001600160a01b0316846001600160a01b0316866001600160a01b03167ffbde797d201c681b91056529119e0b02407c7bb96a4a2c75c01fc9667232c8db85856040516128c5929190918252602082015260400190565b60405180910390a45050505050565b604051636eb1769f60e11b81523060048201526001600160a01b038381166024830152600091839186169063dd62ed3e90604401602060405180830381865afa158015612925573d6000803e3d6000fd5b505050506040513d601f19601f8201168201806040525081019061294991906137b8565b6129539190613908565b6040516001600160a01b0385166024820152604481018290529091506116e290859063095ea7b360e01b906064015b60408051601f198184030181529190526020810180516001600160e01b03166001600160e01b031990931692909217909152612e83565b6000612a0e826040518060400160405280602081526020017f5361666545524332303a206c6f772d6c6576656c2063616c6c206661696c6564815250856001600160a01b0316612ef69092919063ffffffff16565b9050805160001480612a2f575080806020019051810190612a2f91906139f2565b610ba05760405162461bcd60e51b815260206004820152602a60248201527f5361666545524332303a204552433230206f7065726174696f6e20646964206e6044820152691bdd081cdd58d8d9595960b21b6064820152608401610d9e565b600080612a9c868686612f05565b90506001836002811115612ab257612ab2613a14565b148015612acf575060008480612aca57612aca6137fe565b868809115b15612ae257612adf600182613908565b90505b95945050505050565b6001600160a01b0381163b612b585760405162461bcd60e51b815260206004820152602d60248201527f455243313936373a206e657720696d706c656d656e746174696f6e206973206e60448201526c1bdd08184818dbdb9d1c9858dd609a1b6064820152608401610d9e565b600080516020613b5583398151915280546001600160a01b0319166001600160a01b0392909216919091179055565b612b9083612fb4565b600082511180612b9d5750805b15610ba0576116e28383612ff4565b60c95460ff16610f1a5760405162461bcd60e51b815260206004820152601460248201527314185d5cd8589b194e881b9bdd081c185d5cd95960621b6044820152606401610d9e565b61019454612c01610ba5565b612c0b9084613908565b1115612c595760405162461bcd60e51b815260206004820152601a60248201527f457863656564696e67206d61726b65742063617061636974792e0000000000006044820152606401610d9e565b612c79735979d7b546e38e414f7e9822514be443a48005298530856130df565b612c838382613117565b6101925460405163b6b55f2560e01b8152600481018490526001600160a01b039091169063b6b55f25906024016020604051808303816000875af1158015612ccf573d6000803e3d6000fd5b505050506040513d601f19601f82011682018060405250810190612cf391906137b8565b50816101986000828254612d079190613908565b909155505060408051838152602081018390526001600160a01b0380861692908716917fdcbc1c05240f31ff3ad067ef1ee35ce4997762752e3a095284754544f4c709d7910160405180910390a350505050565b600054610100900460ff16612d825760405162461bcd60e51b8152600401610d9e906139a7565b610f1a336126c7565b600054610100900460ff16612db25760405162461bcd60e51b8152600401610d9e906139a7565b610131612dbf8382613a78565b50610132610ba08282613a78565b600054610100900460ff16612df45760405162461bcd60e51b8152600401610d9e906139a7565b600080612e00836131da565b9150915081612e10576012612e12565b805b61016080546001600160a01b039095166001600160a01b031960ff93909316600160a01b02929092166001600160a81b031990951694909417179092555050565b6040516001600160a01b038316602482015260448101829052610ba090849063a9059cbb60e01b90606401612982565b6000612ed8826040518060400160405280602081526020017f5361666545524332303a206c6f772d6c6576656c2063616c6c206661696c6564815250856001600160a01b0316612ef69092919063ffffffff16565b805190915015610ba05780806020019051810190612a2f91906139f2565b6060611f1d84846000856132b8565b6000808060001985870985870292508281108382030391505080600003612f3f57838281612f3557612f356137fe565b0492505050610d35565b808411612f4b57600080fd5b60008486880960026001871981018816978890046003810283188082028403028082028403028082028403028082028403028082028403029081029092039091026000889003889004909101858311909403939093029303949094049190911702949350505050565b612fbd81612aeb565b6040516001600160a01b038216907fbc7cd75a20ee27fd9adebab32041f755214dbc6bffa90cc0225b39da2e5c2d3b90600090a250565b60606001600160a01b0383163b61305c5760405162461bcd60e51b815260206004820152602660248201527f416464726573733a2064656c65676174652063616c6c20746f206e6f6e2d636f6044820152651b9d1c9858dd60d21b6064820152608401610d9e565b600080846001600160a01b0316846040516130779190613b38565b600060405180830381855af49150503d80600081146130b2576040519150601f19603f3d011682016040523d82523d6000602084013e6130b7565b606091505b5091509150612ae28282604051806060016040528060278152602001613b7560279139613393565b6040516001600160a01b03808516602483015283166044820152606481018290526116e29085906323b872dd60e01b90608401612982565b6001600160a01b03821661316d5760405162461bcd60e51b815260206004820152601f60248201527f45524332303a206d696e7420746f20746865207a65726f2061646472657373006044820152606401610d9e565b8061013060008282546131809190613908565b90915550506001600160a01b038216600081815261012e60209081526040808320805486019055518481527fddf252ad1be2c89b69c2b068fc378daa952ba7f163c4a11628f55a4df523b3ef910160405180910390a35050565b60408051600481526024810182526020810180516001600160e01b031663313ce56760e01b17905290516000918291829182916001600160a01b0387169161322191613b38565b6000604051808303816000865af19150503d806000811461325e576040519150601f19603f3d011682016040523d82523d6000602084013e613263565b606091505b509150915081801561327757506020815110155b156132ab5760008180602001905181019061329291906137b8565b905060ff81116132a9576001969095509350505050565b505b5060009485945092505050565b6060824710156133195760405162461bcd60e51b815260206004820152602660248201527f416464726573733a20696e73756666696369656e742062616c616e636520666f6044820152651c8818d85b1b60d21b6064820152608401610d9e565b600080866001600160a01b031685876040516133359190613b38565b60006040518083038185875af1925050503d8060008114613372576040519150601f19603f3d011682016040523d82523d6000602084013e613377565b606091505b5091509150613388878383876133ac565b979650505050505050565b606083156133a2575081610d35565b610d358383613421565b6060831561341b578251600003613414576001600160a01b0385163b6134145760405162461bcd60e51b815260206004820152601d60248201527f416464726573733a2063616c6c20746f206e6f6e2d636f6e74726163740000006044820152606401610d9e565b5081611f1d565b611f1d83835b8151156134315781518083602001fd5b8060405162461bcd60e51b8152600401610d9e91906134d2565b80356001600160a01b038116811461346257600080fd5b919050565b60006020828403121561347957600080fd5b610d358261344b565b60005b8381101561349d578181015183820152602001613485565b50506000910152565b600081518084526134be816020860160208601613482565b601f01601f19169290920160200192915050565b602081526000610d3560208301846134a6565b6000602082840312156134f757600080fd5b5035919050565b6000806040838503121561351157600080fd5b61351a8361344b565b946020939093013593505050565b60008060006060848603121561353d57600080fd5b6135468461344b565b92506135546020850161344b565b9150604084013590509250925092565b634e487b7160e01b600052604160045260246000fd5b600082601f83011261358b57600080fd5b813567ffffffffffffffff808211156135a6576135a6613564565b604051601f8301601f19908116603f011681019082821181831017156135ce576135ce613564565b816040528381528660208588010111156135e757600080fd5b836020870160208301376000602085830101528094505050505092915050565b6000806040838503121561361a57600080fd5b6136238361344b565b9150602083013567ffffffffffffffff81111561363f57600080fd5b61364b8582860161357a565b9150509250929050565b600080600080600080600080610100898b03121561367257600080fd5b883560ff8116811461368357600080fd5b975061369160208a0161344b565b965060408901359550606089013567ffffffffffffffff8111156136b457600080fd5b6136c08b828c0161357a565b9550506080890135935060a089013592506136dd60c08a0161344b565b91506136eb60e08a0161344b565b90509295985092959890939650565b6000806040838503121561370d57600080fd5b8235915061371d6020840161344b565b90509250929050565b60008060006060848603121561373b57600080fd5b505081359360208301359350604090920135919050565b60008060006060848603121561376757600080fd5b833592506137776020850161344b565b91506137856040850161344b565b90509250925092565b600080604083850312156137a157600080fd5b6137aa8361344b565b915061371d6020840161344b565b6000602082840312156137ca57600080fd5b5051919050565b634e487b7160e01b600052601160045260246000fd5b8082028115828204841417610ceb57610ceb6137d1565b634e487b7160e01b600052601260045260246000fd5b60008261383157634e487b7160e01b600052601260045260246000fd5b500490565b600181811c9082168061384a57607f821691505b60208210810361386a57634e487b7160e01b600052602260045260246000fd5b50919050565b6020808252602c908201527f46756e6374696f6e206d7573742062652063616c6c6564207468726f7567682060408201526b19195b1959d85d1958d85b1b60a21b606082015260800190565b6020808252602c908201527f46756e6374696f6e206d7573742062652063616c6c6564207468726f7567682060408201526b6163746976652070726f787960a01b606082015260800190565b80820180821115610ceb57610ceb6137d1565b81810381811115610ceb57610ceb6137d1565b60ff8516815283602082015260806040820152600061395060808301856134a6565b905082606083015295945050505050565b60208082526026908201527f44656c65766572616765204578697420666565206578636565647320746865206040820152656c696d69742160d01b606082015260800190565b6020808252602b908201527f496e697469616c697a61626c653a20636f6e7472616374206973206e6f74206960408201526a6e697469616c697a696e6760a81b606082015260800190565b600060208284031215613a0457600080fd5b81518015158114610d3557600080fd5b634e487b7160e01b600052602160045260246000fd5b601f821115610ba057600081815260208120601f850160051c81016020861015613a515750805b601f850160051c820191505b81811015613a7057828155600101613a5d565b505050505050565b815167ffffffffffffffff811115613a9257613a92613564565b613aa681613aa08454613836565b84613a2a565b602080601f831160018114613adb5760008415613ac35750858301515b600019600386901b1c1916600185901b178555613a70565b600085815260208120601f198616915b82811015613b0a57888601518255948401946001909101908401613aeb565b5085821015613b285787850151600019600388901b60f8161c191681555b5050505050600190811b01905550565b60008251613b4a818460208701613482565b919091019291505056fe360894a13ba1a3210667c828492db98dca3e2076cc3735a920a3ca505d382bbc416464726573733a206c6f772d6c6576656c2064656c65676174652063616c6c206661696c6564a264697066735822122006156d8837d0c03069f65ec78db69230d303a036cf6a1184958ed6bbfe37e80964736f6c63430008130033",
  "linkReferences": {},
  "deployedLinkReferences": {}
}