{
  "_format": "hh-sol-artifact-1",
  "contractName": "LendingLogic",
  "sourceName": "contracts/core/LendingLogic.sol",
  "abi": [
    {
      "inputs": [],
      "name": "AAVE_ORACLE_V3",
      "outputs": [
        {
          "internalType": "contract IAaveOracle",
          "name": "",
          "type": "address"
        }
      ],
      "stateMutability": "view",
      "type": "function"
    },
    {
      "inputs": [],
      "name": "AAVE_POOL_V3",
      "outputs": [
        {
          "internalType": "contract IPoolV3",
          "name": "",
          "type": "address"
        }
      ],
      "stateMutability": "view",
      "type": "function"
    },
    {
      "inputs": [],
      "name": "A_WSTETH_ADDR_AAVEV3",
      "outputs": [
        {
          "internalType": "address",
          "name": "",
          "type": "address"
        }
      ],
      "stateMutability": "view",
      "type": "function"
    },
    {
      "inputs": [],
      "name": "D_WETH_ADDR_AAVEV3",
      "outputs": [
        {
          "internalType": "address",
          "name": "",
          "type": "address"
        }
      ],
      "stateMutability": "view",
      "type": "function"
    },
    {
      "inputs": [],
      "name": "LOGIC_ADDRESS",
      "outputs": [
        {
          "internalType": "address",
          "name": "",
          "type": "address"
        }
      ],
      "stateMutability": "view",
      "type": "function"
    },
    {
      "inputs": [],
      "name": "WETH_ADDR",
      "outputs": [
        {
          "internalType": "address",
          "name": "",
          "type": "address"
        }
      ],
      "stateMutability": "view",
      "type": "function"
    },
    {
      "inputs": [],
      "name": "WSTETH_ADDR",
      "outputs": [
        {
          "internalType": "address",
          "name": "",
          "type": "address"
        }
      ],
      "stateMutability": "view",
      "type": "function"
    },
    {
      "inputs": [
        {
          "internalType": "address",
          "name": "_asset",
          "type": "address"
        },
        {
          "internalType": "uint256",
          "name": "_amount",
          "type": "uint256"
        }
      ],
      "name": "borrow",
      "outputs": [],
      "stateMutability": "nonpayable",
      "type": "function"
    },
    {
      "inputs": [
        {
          "internalType": "address",
          "name": "_asset",
          "type": "address"
        },
        {
          "internalType": "uint256",
          "name": "_amount",
          "type": "uint256"
        }
      ],
      "name": "deposit",
      "outputs": [],
      "stateMutability": "nonpayable",
      "type": "function"
    },
    {
      "inputs": [],
      "name": "enterProtocol",
      "outputs": [],
      "stateMutability": "nonpayable",
      "type": "function"
    },
    {
      "inputs": [],
      "name": "exitProtocol",
      "outputs": [],
      "stateMutability": "nonpayable",
      "type": "function"
    },
    {
      "inputs": [
        {
          "internalType": "address",
          "name": "_account",
          "type": "address"
        }
      ],
      "name": "getAvailableBorrowsETH",
      "outputs": [
        {
          "internalType": "uint256",
          "name": "availableBorrowsETH",
          "type": "uint256"
        }
      ],
      "stateMutability": "view",
      "type": "function"
    },
    {
      "inputs": [
        {
          "internalType": "address",
          "name": "_account",
          "type": "address"
        }
      ],
      "name": "getAvailableWithdrawsStETH",
      "outputs": [
        {
          "internalType": "uint256",
          "name": "maxWithdrawsWStETH",
          "type": "uint256"
        }
      ],
      "stateMutability": "view",
      "type": "function"
    },
    {
      "inputs": [
        {
          "internalType": "address",
          "name": "_account",
          "type": "address"
        }
      ],
      "name": "getNetAssetsInfo",
      "outputs": [
        {
          "internalType": "uint256",
          "name": "totalAssets",
          "type": "uint256"
        },
        {
          "internalType": "uint256",
          "name": "totalDebt",
          "type": "uint256"
        },
        {
          "internalType": "uint256",
          "name": "netAssets",
          "type": "uint256"
        },
        {
          "internalType": "uint256",
          "name": "aggregatedRatio",
          "type": "uint256"
        }
      ],
      "stateMutability": "view",
      "type": "function"
    },
    {
      "inputs": [
        {
          "internalType": "address",
          "name": "_account",
          "type": "address"
        }
      ],
      "name": "getProtocolAccountData",
      "outputs": [
        {
          "internalType": "uint256",
          "name": "wstEthAmount",
          "type": "uint256"
        },
        {
          "internalType": "uint256",
          "name": "debtEthAmount",
          "type": "uint256"
        }
      ],
      "stateMutability": "view",
      "type": "function"
    },
    {
      "inputs": [
        {
          "internalType": "address",
          "name": "_account",
          "type": "address"
        }
      ],
      "name": "getProtocolCollateralRatio",
      "outputs": [
        {
          "internalType": "uint256",
          "name": "ratio",
          "type": "uint256"
        }
      ],
      "stateMutability": "view",
      "type": "function"
    },
    {
      "inputs": [
        {
          "internalType": "address",
          "name": "_account",
          "type": "address"
        },
        {
          "internalType": "bool",
          "name": "_isDepositOrWithdraw",
          "type": "bool"
        },
        {
          "internalType": "uint256",
          "name": "_depositOrWithdraw",
          "type": "uint256"
        },
        {
          "internalType": "uint256",
          "name": "_safeRatio",
          "type": "uint256"
        }
      ],
      "name": "getProtocolLeverageAmount",
      "outputs": [
        {
          "internalType": "bool",
          "name": "isLeverage",
          "type": "bool"
        },
        {
          "internalType": "uint256",
          "name": "loanAmount",
          "type": "uint256"
        }
      ],
      "stateMutability": "view",
      "type": "function"
    },
    {
      "inputs": [
        {
          "internalType": "address",
          "name": "_asset",
          "type": "address"
        },
        {
          "internalType": "uint256",
          "name": "_amount",
          "type": "uint256"
        }
      ],
      "name": "repay",
      "outputs": [],
      "stateMutability": "nonpayable",
      "type": "function"
    },
    {
      "inputs": [
        {
          "internalType": "address",
          "name": "_asset",
          "type": "address"
        },
        {
          "internalType": "uint256",
          "name": "_amount",
          "type": "uint256"
        }
      ],
      "name": "withdraw",
      "outputs": [],
      "stateMutability": "nonpayable",
      "type": "function"
    }
  ],
  "bytecode": "0x60a060405234801561001057600080fd5b503060805260805161183861005a600039600081816101800152818161033301528181610452015281816105290152818161063801528181610bed015261102e01526118386000f3fe608060405234801561001057600080fd5b50600436106101215760003560e01c806366d5f55d116100ad57806388b031421161007157806388b03142146102b25780638caff8ed146102da578063a11d8c6b146102ed578063e107e02714610302578063f3fef3a31461031d57600080fd5b806366d5f55d1461022e5780636d459d74146102365780637ee113e51461026957806382dfc5f71461027c57806385651c8c1461029757600080fd5b806346961ece116100f457806346961ece146101a257806347e7ef24146101bd5780634b8a3529146101d0578063529b1d03146101e357806362d5380b1461020457600080fd5b806322867d781461012657806337a62fa21461013b57806340409c7e1461017357806343aeb8991461017b575b600080fd5b61013961013436600461157d565b610330565b005b6101567377ca01483f379e58174739308945f044e1a764dc81565b6040516001600160a01b0390911681526020015b60405180910390f35b61013961044f565b6101567f000000000000000000000000000000000000000000000000000000000000000081565b61015673b56c2f0b653b2e0b10c9b928c8580ac5df02c7c781565b6101396101cb36600461157d565b610526565b6101396101de36600461157d565b610635565b6101f66101f13660046115a7565b61070e565b60405190815260200161016a565b6102176102123660046115da565b61088e565b60408051921515835260208301919091520161016a565b610139610bea565b6102496102443660046115a7565b610cbc565b60408051948552602085019390935291830152606082015260800161016a565b6101f66102773660046115a7565b610d2d565b6101567382af49447d8a07e3bd95bd0d56f35241523fbab181565b61015673513c7e3a9c69ca3e22550ef58ac1c0088e918fff81565b6102c56102c03660046115a7565b610e6b565b6040805192835260208301919091520161016a565b6101f66102e83660046115a7565b610f72565b6101566000805160206117e383398151915281565b610156735979d7b546e38e414f7e9822514be443a480052981565b61013961032b36600461157d565b61102b565b307f00000000000000000000000000000000000000000000000000000000000000006001600160a01b0316036103815760405162461bcd60e51b81526004016103789061161e565b60405180910390fd5b6001600160a01b0382167382af49447d8a07e3bd95bd0d56f35241523fbab1146103bd5760405162461bcd60e51b81526004016103789061164e565b60405163573ade8160e01b81526001600160a01b038316600482015260248101829052600260448201523060648201526000805160206117e38339815191529063573ade81906084015b6020604051808303816000875af1158015610426573d6000803e3d6000fd5b505050506040513d601f19601f8201168201806040525081019061044a9190611674565b505050565b307f00000000000000000000000000000000000000000000000000000000000000006001600160a01b0316036104975760405162461bcd60e51b81526004016103789061161e565b6104c67382af49447d8a07e3bd95bd0d56f35241523fbab16000805160206117e3833981519152600019611101565b6104f5735979d7b546e38e414f7e9822514be443a48005296000805160206117e3833981519152600019611101565b61052473513c7e3a9c69ca3e22550ef58ac1c0088e918fff6000805160206117e3833981519152600019611101565b565b307f00000000000000000000000000000000000000000000000000000000000000006001600160a01b03160361056e5760405162461bcd60e51b81526004016103789061161e565b6001600160a01b038216735979d7b546e38e414f7e9822514be443a4800529146105aa5760405162461bcd60e51b81526004016103789061164e565b60405163617ba03760e01b8152735979d7b546e38e414f7e9822514be443a4800529600482015260248101829052306044820152600060648201526000805160206117e38339815191529063617ba037906084015b600060405180830381600087803b15801561061957600080fd5b505af115801561062d573d6000803e3d6000fd5b505050505050565b307f00000000000000000000000000000000000000000000000000000000000000006001600160a01b03160361067d5760405162461bcd60e51b81526004016103789061161e565b6001600160a01b0382167382af49447d8a07e3bd95bd0d56f35241523fbab1146106b95760405162461bcd60e51b81526004016103789061164e565b60405163a415bcad60e01b81526001600160a01b03831660048201526024810182905260026044820152600060648201523060848201526000805160206117e38339815191529063a415bcad9060a4016105ff565b604051632fe4a15f60e21b81526001600160a01b03821660048201526000908190819081906000805160206117e38339815191529063bf92857c9060240160c060405180830381865afa158015610769573d6000803e3d6000fd5b505050506040513d601f19601f8201168201806040525081019061078d919061168d565b5094505050925092506000831115610886576000816107ae846127106116ed565b6107b8919061170a565b905060008185116107ca5760006107d4565b6107d4828661172c565b60405163b3596f0760e01b8152735979d7b546e38e414f7e9822514be443a4800529600482015290915060009073b56c2f0b653b2e0b10c9b928c8580ac5df02c7c79063b3596f0790602401602060405180830381865afa15801561083d573d6000803e3d6000fd5b505050506040513d601f19601f820116820180604052508101906108619190611674565b90508061087683670de0b6b3a76400006116ed565b610880919061170a565b96505050505b505050919050565b60405163b3596f0760e01b8152735979d7b546e38e414f7e9822514be443a480052960048201526000908190819081908190819073b56c2f0b653b2e0b10c9b928c8580ac5df02c7c79063b3596f0790602401602060405180830381865afa1580156108fe573d6000803e3d6000fd5b505050506040513d601f19601f820116820180604052508101906109229190611674565b60405163b3596f0760e01b81527382af49447d8a07e3bd95bd0d56f35241523fbab1600482015290915060009073b56c2f0b653b2e0b10c9b928c8580ac5df02c7c79063b3596f0790602401602060405180830381865afa15801561098b573d6000803e3d6000fd5b505050506040513d601f19601f820116820180604052508101906109af9190611674565b6040516370a0823160e01b81526001600160a01b038d1660048201529091508190839073513c7e3a9c69ca3e22550ef58ac1c0088e918fff906370a0823190602401602060405180830381865afa158015610a0e573d6000803e3d6000fd5b505050506040513d601f19601f82011682018060405250810190610a329190611674565b610a3c91906116ed565b610a46919061170a565b6040516370a0823160e01b81526001600160a01b038d1660048201529095507377ca01483f379e58174739308945f044e1a764dc906370a0823190602401602060405180830381865afa158015610aa1573d6000803e3d6000fd5b505050506040513d601f19601f82011682018060405250810190610ac59190611674565b935080610ad2838b6116ed565b610adc919061170a565b925089610af257610aed838661172c565b610afc565b610afc838661173f565b94508415610bdc5760008515610b2e5785610b1f86670de0b6b3a76400006116ed565b610b29919061170a565b610b31565b60005b9050888110610b41576000610b44565b60015b97508715610b9557610b5e89670de0b6b3a764000061172c565b610b7086670de0b6b3a76400006116ed565b610b7a888c6116ed565b610b84919061172c565b610b8e919061170a565b9650610bda565b610ba789670de0b6b3a764000061172c565b610bb1878b6116ed565b610bc387670de0b6b3a76400006116ed565b610bcd919061172c565b610bd7919061170a565b96505b505b505050505094509492505050565b307f00000000000000000000000000000000000000000000000000000000000000006001600160a01b031603610c325760405162461bcd60e51b81526004016103789061161e565b610c607382af49447d8a07e3bd95bd0d56f35241523fbab16000805160206117e383398151915260006111e7565b610c8e735979d7b546e38e414f7e9822514be443a48005296000805160206117e383398151915260006111e7565b61052473513c7e3a9c69ca3e22550ef58ac1c0088e918fff6000805160206117e383398151915260006111e7565b600080600080600080610cce87610e6b565b9092509050610cdd828761173f565b9550610ce9818661173f565b9450610cf5858761172c565b93508515610d1f5785610d1086670de0b6b3a76400006116ed565b610d1a919061170a565b610d22565b60005b925050509193509193565b604051632fe4a15f60e21b81526001600160a01b038216600482015260009081906000805160206117e38339815191529063bf92857c9060240160c060405180830381865afa158015610d84573d6000803e3d6000fd5b505050506040513d601f19601f82011682018060405250810190610da8919061168d565b505050925050506000811115610e655760405163b3596f0760e01b81527382af49447d8a07e3bd95bd0d56f35241523fbab1600482015260009073b56c2f0b653b2e0b10c9b928c8580ac5df02c7c79063b3596f0790602401602060405180830381865afa158015610e1e573d6000803e3d6000fd5b505050506040513d601f19601f82011682018060405250810190610e429190611674565b905080610e5783670de0b6b3a76400006116ed565b610e61919061170a565b9250505b50919050565b6040516370a0823160e01b81526001600160a01b0382166004820152600090819073513c7e3a9c69ca3e22550ef58ac1c0088e918fff906370a0823190602401602060405180830381865afa158015610ec8573d6000803e3d6000fd5b505050506040513d601f19601f82011682018060405250810190610eec9190611674565b6040516370a0823160e01b81526001600160a01b03851660048201529092507377ca01483f379e58174739308945f044e1a764dc906370a0823190602401602060405180830381865afa158015610f47573d6000803e3d6000fd5b505050506040513d601f19601f82011682018060405250810190610f6b9190611674565b9050915091565b604051632fe4a15f60e21b81526001600160a01b0382166004820152600090819081906000805160206117e38339815191529063bf92857c9060240160c060405180830381865afa158015610fcb573d6000803e3d6000fd5b505050506040513d601f19601f82011682018060405250810190610fef919061168d565b505050509150915081600014611021578161101282670de0b6b3a76400006116ed565b61101c919061170a565b610e61565b6000949350505050565b307f00000000000000000000000000000000000000000000000000000000000000006001600160a01b0316036110735760405162461bcd60e51b81526004016103789061161e565b6001600160a01b038216735979d7b546e38e414f7e9822514be443a4800529146110af5760405162461bcd60e51b81526004016103789061164e565b604051631a4ca37b60e21b8152735979d7b546e38e414f7e9822514be443a48005296004820152602481018290523060448201526000805160206117e3833981519152906369328dec90606401610407565b604051636eb1769f60e11b81523060048201526001600160a01b0383811660248301526000919085169063dd62ed3e90604401602060405180830381865afa158015611151573d6000803e3d6000fd5b505050506040513d601f19601f820116820180604052508101906111759190611674565b90506111e18463095ea7b360e01b8561118e868661173f565b6040516001600160a01b03909216602483015260448201526064015b60408051601f198184030181529190526020810180516001600160e01b03166001600160e01b0319909316929092179091526112fc565b50505050565b8015806112615750604051636eb1769f60e11b81523060048201526001600160a01b03838116602483015284169063dd62ed3e90604401602060405180830381865afa15801561123b573d6000803e3d6000fd5b505050506040513d601f19601f8201168201806040525081019061125f9190611674565b155b6112cc5760405162461bcd60e51b815260206004820152603660248201527f5361666545524332303a20617070726f76652066726f6d206e6f6e2d7a65726f60448201527520746f206e6f6e2d7a65726f20616c6c6f77616e636560501b6064820152608401610378565b6040516001600160a01b03831660248201526044810182905261044a90849063095ea7b360e01b906064016111aa565b6000611351826040518060400160405280602081526020017f5361666545524332303a206c6f772d6c6576656c2063616c6c206661696c6564815250856001600160a01b03166113d19092919063ffffffff16565b90508051600014806113725750808060200190518101906113729190611752565b61044a5760405162461bcd60e51b815260206004820152602a60248201527f5361666545524332303a204552433230206f7065726174696f6e20646964206e6044820152691bdd081cdd58d8d9595960b21b6064820152608401610378565b60606113e084846000856113e8565b949350505050565b6060824710156114495760405162461bcd60e51b815260206004820152602660248201527f416464726573733a20696e73756666696369656e742062616c616e636520666f6044820152651c8818d85b1b60d21b6064820152608401610378565b600080866001600160a01b031685876040516114659190611793565b60006040518083038185875af1925050503d80600081146114a2576040519150601f19603f3d011682016040523d82523d6000602084013e6114a7565b606091505b50915091506114b8878383876114c3565b979650505050505050565b6060831561153257825160000361152b576001600160a01b0385163b61152b5760405162461bcd60e51b815260206004820152601d60248201527f416464726573733a2063616c6c20746f206e6f6e2d636f6e74726163740000006044820152606401610378565b50816113e0565b6113e083838151156115475781518083602001fd5b8060405162461bcd60e51b815260040161037891906117af565b80356001600160a01b038116811461157857600080fd5b919050565b6000806040838503121561159057600080fd5b61159983611561565b946020939093013593505050565b6000602082840312156115b957600080fd5b6115c282611561565b9392505050565b80151581146115d757600080fd5b50565b600080600080608085870312156115f057600080fd5b6115f985611561565b93506020850135611609816115c9565b93969395505050506040820135916060013590565b60208082526016908201527527b7363c903337b9103232b632b3b0ba32b1b0b6361760511b604082015260600190565b6020808252600c908201526b57726f6e672061737365742160a01b604082015260600190565b60006020828403121561168657600080fd5b5051919050565b60008060008060008060c087890312156116a657600080fd5b865195506020870151945060408701519350606087015192506080870151915060a087015190509295509295509295565b634e487b7160e01b600052601160045260246000fd5b8082028115828204841417611704576117046116d7565b92915050565b60008261172757634e487b7160e01b600052601260045260246000fd5b500490565b81810381811115611704576117046116d7565b80820180821115611704576117046116d7565b60006020828403121561176457600080fd5b81516115c2816115c9565b60005b8381101561178a578181015183820152602001611772565b50506000910152565b600082516117a581846020870161176f565b9190910192915050565b60208152600082518060208401526117ce81604085016020870161176f565b601f01601f1916919091016040019291505056fe000000000000000000000000794a61358d6845594f94dc1db02a252b5b4814ada26469706673582212200be66a85aa03fd9d6c124e117ac4854f62c81e2c217ba43aae57f13aed17991464736f6c63430008130033",
  "linkReferences": {},
  "deployedLinkReferences": {}
}