{
  "_format": "hh-sol-artifact-1",
  "contractName": "Constants",
  "sourceName": "contracts/Constants.sol",
  "abi": [
    {
      "inputs": [],
      "name": "MAX_SAFE_AGGREGATED_RATIO",
      "outputs": [
        {
          "internalType": "uint256",
          "name": "",
          "type": "uint256"
        }
      ],
      "stateMutability": "view",
      "type": "function"
    },
    {
      "inputs": [],
      "name": "MINIMUM_AMOUNT",
      "outputs": [
        {
          "internalType": "uint256",
          "name": "",
          "type": "uint256"
        }
      ],
      "stateMutability": "view",
      "type": "function"
    },
    {
      "inputs": [],
      "name": "MIN_SAFE_AGGREGATED_RATIO",
      "outputs": [
        {
          "internalType": "uint256",
          "name": "",
          "type": "uint256"
        }
      ],
      "stateMutability": "view",
      "type": "function"
    },
    {
      "inputs": [],
      "name": "PERMISSIBLE_LIMIT",
      "outputs": [
        {
          "internalType": "uint256",
          "name": "",
          "type": "uint256"
        }
      ],
      "stateMutability": "view",
      "type": "function"
    },
    {
      "inputs": [],
      "name": "WETH_ADDR",
      "outputs": [
        {
          "internalType": "address",
          "name": "",
          "type": "address"
        }
      ],
      "stateMutability": "view",
      "type": "function"
    },
    {
      "inputs": [],
      "name": "WSTETH_ADDR",
      "outputs": [
        {
          "internalType": "address",
          "name": "",
          "type": "address"
        }
      ],
      "stateMutability": "view",
      "type": "function"
    }
  ],
  "bytecode": "0x608060405234801561001057600080fd5b50610125806100206000396000f3fe6080604052348015600f57600080fd5b5060043610605a5760003560e01c8063257d9bb814605f578063308b2b8114607b57806382dfc5f7146089578063af56c2071460ba578063e107e0271460c7578063ef2cd24b1460e1575b600080fd5b60686298968081565b6040519081526020015b60405180910390f35b60686709b6e64a8ec6000081565b60a37382af49447d8a07e3bd95bd0d56f35241523fbab181565b6040516001600160a01b0390911681526020016072565b606866071afd498d000081565b60a3735979d7b546e38e414f7e9822514be443a480052981565b6068670d2f13f7789f00008156fea2646970667358221220881c775c07c23e60bf0eccc4b00a50a8060b25713685f884577d5eb8ede1670e64736f6c63430008130033",
  "linkReferences": {},
  "deployedLinkReferences": {}
}